:030000000211CE1C
:0C11CE00787FE4F6D8FD758121020B6DDE
:100A5B00302E34394F4C4544003132333435363730
:100A6B003800FF0BFF0BC701E101F101F90101FF99
:100A7B007DBBC7EFEFEFEFEFEFEFC7BB7DFF0101E3
:100A8B0001010101090DFFFF0D092161FFFF61212B
:100A9B00017949FF83BBBB83BBBB83BBBB83BBBBA5
:100AAB0083FFFF000000000000FC040404040404A6
:100ABB0005F50505050505050505050505F454545E
:100ACB005454545454F40404040404E42424A4A4FB
:100ADB00A4A4A4A4A42424E40404FC0000000000A7
:100AEB0000FFFF000000000000FF0000FF4141413C
:100AFB0041FF41414141FF000000040404F595957D
:100B0B009597959595F50404040000FF0004C43CEB
:100B1B000404FC0404C400FF0000FF0000000000FC
:100B2B0000FFFF808080808080BFA0A0A0A0A0A03D
:100B3B00A0AFA0A0A0A0A0A0A0A0A0A4A2A0A0A491
:100B4B00A8A7A0A0A0A0A2A4A0A0A0AFA4A5A4A465
:100B5B00A4A4A4A5A5A5A4AFA0A0BF8080808080DD
:020B6B0080FF09
:100B6D00120C5A1210E67BFF7A0A795B750E08E4B7
:100B7D00FDFF120FCB7BFF7A0A7964750E087D019C
:100B8D00E4FF120FCB7BFF7A0A7964750E087D02A4
:100B9D00E4FF120FCB7BFF7A0A7964750E087D0393
:100BAD00E4FF120FCB7FE87E0312115A1210E67B81
:100BBD00FF7A0A795B750E08E4FDFF120FCB7BFF00
:100BCD007A0A7964750E087D01E4FF120FCB7BFF65
:100BDD007A0A7964750E107D02E4FF120FCB7FE85F
:100BED007E0312115A1210E6E4FBFD7F08120EF07F
:100BFD007B01E4FD7F18120EF07B02E4FD7F2812CD
:100C0D000EF07B077D027F08120EF07B087D027FC0
:100C1D0028120EF07FE87E0312115A1210E6750CA1
:100C2D0004750DFF750E0A750F6D7B40E4FDFF1207
:100C3D000F627FE87E0312115A7FE87E0312115A6C
:0D0C4D007FE87E0312115A1210E6020B73AD
:100003000000000000000000002F000000000700B7
:10001300070000147F147F1400242A7F2A12006231
:1000230064081323003649552250000005030000DD
:1000330000001C224100000041221C000014083E65
:1000430008140008083E0808000000A0600000082B
:10005300080808080000606000000020100804027F
:10006300003E5149453E0000427F4000004261513D
:100073004946002141454B31001814127F100027D7
:1000830045454539003C4A4949300001710905039A
:1000930000364949493600064949291E00003636CB
:1000A300000000005636000000081422410000142E
:1000B300141414140000412214080002015109060B
:1000C30000324959513E007C1211127C007F49498C
:1000D3004936003E41414122007F4141221C007FBD
:1000E30049494941007F09090901003E4149497ACB
:1000F300007F0808087F0000417F41000020404145
:100103003F01007F08142241007F40404040007FB0
:10011300020C027F007F0408107F003E4141413EF4
:10012300007F09090906003E4151215E007F09193C
:1001330029460046494949310001017F0101003F39
:100143004040403F001F2040201F003F4038403FB9
:10015300006314081463000708700807006151491D
:10016300454300007F41410000552A552A550000B0
:1001730041417F000004020102040040404040402E
:10018300000001020400002054545478007F4844C6
:10019300443800384444442000384444487F0038FD
:1001A3005454541800087E0901020018A4A4A47C26
:1001B300007F080404780000447D400000408084F0
:1001C3007D00007F102844000000417F4000007C38
:1001D30004180478007C0804047800384444443844
:1001E30000FC242424180018242418FC007C080490
:1001F300040800485454542000043F444020003C69
:100203004040207C001C2040201C003C4030403CEF
:10021300004428102844001CA0A0A07C004464547F
:100223004C441414141414140000000000000000C3
:100233000000000000000000000000F800000000C3
:10024300000000333000000000100C06100C060004
:10025300000000000000000040C07840C07840006B
:10026300043F04043F040400007088FC08300000CD
:10027300001820FF211E0000F008F000E018000025
:1002830000211C031E211E0000F0088870000000DE
:100293001E2123241927211010160E000000000030
:1002A3000000000000000000000000E0180402004D
:1002B300000000071820400000020418E0000000BE
:1002C3000040201807000000404080F080404000BC
:1002D3000202010F01020200000000F00000000012
:1002E3000101011F010101000000000000000000E6
:1002F30080B070000000000000000000000000005B
:1003030000010101010101010000000000000000E3
:10031300003030000000000000000000806018047E
:10032300006018060100000000E010080810E0005B
:10033300000F102020100F00001010F80000000024
:100343000020203F2020000000700808088870006B
:1003530000302824222130000030088888483000EB
:100363000018202020110E000000C02010F800000B
:1003730000070424243F240000F8088888080800A4
:100383000019212020110E0000E0108888180000B9
:10039300000F112020110E0000380808C83808008B
:1003A3000000003F0000000000708808088870000B
:1003B300001C222121221C0000E010080810E0008C
:1003C3000000312222110F00000000C0C000000015
:1003D300000000303000000000000080000000003A
:1003E3000000806000000000000080402010080032
:1003F30000010204081020004040404040404000FB
:1004030004040404040404000008102040800000D5
:100413000020100804020100007048080808F000DA
:100423000000003036010000C030C828E810E000AA
:100433000718272423140B000000C038E000000035
:10044300203C23020227382008F88888887000009F
:10045300203F202020110E00C03008080808380073
:10046300071820202010080008F808080810E000EA
:10047300203F202020100F0008F88888E80810008B
:10048300203F20202320180008F88888E80810005F
:10049300203F200003000000C03008080838000097
:1004A30007182020221E020008F808000008F80898
:1004B300203F210101213F20000808F8080800001F
:1004C3000020203F2020000000000808F808080052
:1004D300C08080807F00000008F888C028180800CA
:1004E300203F20012638200008F808000000000003
:1004F300203F20202020300008F8F800F8F80800FA
:10050300203F003F003F200008F830C00008F808F3
:10051300203F200007183F00E01008080810E00003
:100523000F10202020100F0008F808080808F0001A
:10053300203F210101010000E01008080810E0003D
:100543000F18242438504F0008F8888888887000D2
:10055300203F2000030C3020007088080808380072
:100563000038202121221C00180808F80808180068
:100573000000203F2000000008F808000008F808E9
:10058300001F202020201F000878880000C838089A
:10059300000007380E010000F80800F80008F80012
:1005A300033C0700073C03000818688080681808AC
:1005B30020302C03032C30200838C800C83808002A
:1005C3000000203F2000000010080808C838080079
:1005D3002038262120201800000000FE020202001D
:1005E3000000007F40404000000C30C000000000CD
:1005F300000000010638C00000020202FE000000F5
:10060300004040407F00000000000402020204009A
:1006130000000000000000000000000000000000D7
:1006230080808080808080800002020400000000BF
:1006330000000000000000000000808080800000B7
:100643000019242222223F2008F8008080000000A5
:10065300003F112020110E00000000808080000068
:10066300000E112020201100000000808088F80077
:10067300000E112020103F200000808080800000A9
:10068300001F222222221300008080F0888888180D
:100693000020203F20200000000080808080800018
:1006A300006B94949493600008F8008080800000AD
:1006B300203F210000203F20008098980000000088
:1006C3000020203F202000000000008098980000B8
:1006D30000C08080807F000008F8000080808000D8
:1006E300203F24022D302000000808F800000000FD
:1006F3000020203F202000008080808080808000B8
:10070300203F20003F20003F808000808080000049
:10071300203F210000203F200000808080800000D7
:10072300001F202020201F00808000808000000008
:1007330080FFA12020110E00000000808080800037
:10074300000E112020A0FF80808080008080800028
:1007530020203F2120000100000080808080800055
:100763000033242424241900008080E080800000CA
:100773000000001F20200000808000000080800017
:10078300001F202020103F20808080000080808078
:1007930000010E3008060100808000800080808008
:1007A3000F300C030C300F0000808000808080002D
:1007B3000020312E0E312000808080000080808058
:1007C30080818E7018060100008080808080800008
:1007D3000021302C2221300000000000807C020226
:1007E30000000000003F404000000000FF00000048
:1007F30000000000FF0000000002027C80000000F7
:100803000040403F00000000000601010202040412
:1008130000000000000000000000F010101010FFA6
:1008230010101010F0000000000000000000000095
:10083300000000000000000000000F04040404FF97
:10084300040404040F000000000000000000000086
:1008530000000000000000004040405F5555557502
:100863005555555F40404000000000000000000067
:1008730000000000000000000040200F09498979B2
:100883000909090F204000000000000000000000DB
:10089300000000000000000000FE02424ACA4A4A6B
:1008A300CA4A4A4202FE00000000000000000000A5
:1008B300000000000000000000FF40504C43404097
:1008C3004F50505C40FF000000000000000000009B
:1008D30000000000000000000000F888888888FFFE
:1008E30088888888F80000000000000000000000ED
:1008F300000000000000000000001F080808087F37
:10090300888888889F80F0000000000000000000B5
:10091300000000000000000080828282828282E266
:10092300A2928A86828080000000000000000000FE
:100933000000000000000000000000000040807F75
:1009430000000000000000000000000000000000A4
:1009530000000000000000002424A4FEA3220022C3
:10096300CC0000FF000000000000000000000000B9
:100973000000000000000000080601FF000104045D
:10098300040404FF02020200000000000000000053
:100993000000000000000000101010FF10900888F5
:1009A3008888FF8888880800000000000000000095
:1009B30000000000000000000444827F01808040AA
:1009C300432C102846818000000000000000000036
:1009D300000000000000000040484848FF4848422B
:1009E300A29E82A2C2BE0000000000000000000020
:1009F300000000000000000080601F207F4444408E
:100A03004F484848484F40000000000000000000E5
:100A13000000000000000000000404745454555604
:100A2300545454740404000000000000000000004B
:100A33000000000000000000848341211D0505051E
:100A430005057D818185E3000000000000000000B2
:080A530000000000000000009B
:10115A00EF4E60157D087C07ED1DAA0470011C4A3C
:09116A0070F6EF1F70EA1E80E729
:011173002259
:0911DA00D290D291C291C2902280
:0711E300D290C291D29122CB
:0B11A2001210A61211ADAF041210A62F
:0511AD00D290C2902267
:07109F00AC071211DA7F78A3
:1010A600C290E4FEAD07530580BD8004D291800254
:0E10B600C291EF25E0FFD290C2900EBE08E678
:0110C4002209
:0E11B20012109F1211ADE4FF1211A20211E300
:0E11C00012109F1211AD7F401211A20211E316
:10107300E924B0FFE433FEE4FDFC12108EE4FDFC32
:0B108300FFFE12108E7F12E4FDFCFE49
:10108E00AB07AA06ED4C60030211C0AF031211B2FA
:01109E00222F
:02100B008F1E36
:10100D00E4F9E924B0FFE433FEE4FDFC12108EE4B4
:10101D00FDFCFFFE12108E7F1012108AE4F51FAF3B
:10102D001E7E007D017C0012108E051FE51FC394EE
:07103D008040EC09B908CB6B
:011044002289
:10110600D3EF9400EE940040147D657C18ED1D70BD
:0D111600011CED4C70F7EF1F70E61E80E32A
:0111230022A9
:10118C00EF1FAA0670011E4A600BE4FDEDC3947BB1
:05119C0050EE0D80F78C
:0111A100222B
:10104500EF2420F9ED24B0FFE433FEE4FDFC12109B
:101055008EE954F0C4540F7E004410FFE4FDFC12E9
:0E106500108EE9540FFF7E00E4FDFC02108E99
:10112400E4FDFC7F8DFE12108EE4FDFC7F14FE12A4
:0B113400108EE4FDFC7FAFFE02108E69
:10113F00E4FDFC7F8DFE12108EE4FDFC7F10FE128D
:0B114F00108EE4FDFC7FAEFE02108E4F
:1010E600E4F91210737509207D017C00E4FFFE12FD
:0F10F600108E0509E509C3946040ED09B904E3C4
:0111050022C7
:1010C500E4F91210737520207D017C007F017E00FC
:1010D50012108E0520E520C3948040EC09B901E289
:0110E50022E8
:040D24008F108D118E
:100D2800E4F514F9EB24E0F514E510D3947F4007BB
:100D3800E4F51005110511E51364107069AD11AFE4
:100D480010121045E4F975F010E514A429F582E4B1
:100D580035F0F583E582242BF582E5833402F583AB
:100D6800E493FF7E007D017C0012108E09B908D63D
:100D7800E51104FDAF10121045E4F975F010E51403
:100D8800A429F582E435F0F583E5822433F582E57C
:100D9800833402F583E493FF7E007D017C0012100A
:100DA8008E09B908D622AD11AF10121045E4F975B5
:100DB800F006E514A42403F582E5F03400F583E594
:100DC8008229F582E43583F583E493FF7E007D0173
:090DD8007C0012108E09B906D648
:010DE10022EF
:041174008F21A90519
:101178007F017E00AD0119ED6009AD217C00120EE2
:031188000F80F1E4
:01118B002241
:080E76008F158D168A178B18E9
:100E7E00E4F51DF51BE51BC395195065C3E51995E2
:100E8E001B14FD7F0A121174AC17AD18CFCDCFCE47
:100E9E00CCCE120E217C007D0A120E218D1CE51D7A
:100EAE007023E51914FFE51BC39F5019E51C701242
:100EBE00E51AC313851BF0A42515FF851A137B2095
:100ECE008016751D01E51AC313851BF0A42515FFA9
:100EDE00E51C2430FB851A13AD16120D24051B805C
:010EEE00946F
:010EEF0022E0
:0A0FCB008F098D0A8B0B8A0C890D2B
:100FD500E4F50FAB0BAA0CA90D850F8275830012E2
:100FE5000DE2FB6020850E13AD0AAF09120D2474C6
:100FF500082509F509D394784007E4F509050A059C
:051005000A050F80CE7A
:01100A0022C3
:060EF0008F098D0A8B0B37
:100EF600E4F50C121045E4F975F040E50BA4241B4B
:100F0600F582E5F03408F583E58229F582E4358338
:100F1600F583E493FF7E007D017C0012108E050CA4
:100F260009B910D4E50A04FDAF09121045E4F975B4
:100F3600F040E50BA4243BF582E5F03408F583E5A3
:100F46008229F582E43583F583E493FF7E007D01F3
:0B0F56007C0012108E050C09B910D4AD
:010F6100226D
:040F62008F098B0B5D
:100F6600E4F510F511E50C5407700BE50C1313139B
:100F7600541FF513800AE50C131313541F04F513BD
:100F86008D13E513C3950C503BAD13AF09121045F5
:100F9600850912E512C3950B5026AB0DAA0EA90FB3
:100FA6000511E511AE107002051014F5828E83123C
:100FB6000DE2FF7E007D017C0012108E051280D3AB
:040FC600051380BED1
:010FCA002204
:100C5A007F647E0012115AE4FDFC7FAEFE12107D05
:100C6A00E4FDFCFFFE12108EE4FDFC7FB0FE1210C4
:100C7A008EE4FDFC7F81FE12108EE4FDFC7FFFFEF8
:100C8A0012108EE4FDFC7FA1FE12108EE4FDFC7FA3
:100C9A00A6FE12108EE4FDFC7FA8FE12108EE4FD63
:100CAA00FC7F1FFE12108EE4FDFC7FC8FE12108E20
:100CBA00E4FDFC7FD3FE12108EE4FDFCFFFE121051
:100CCA008EE4FDFC7FD5FE12108EE4FDFC7F80FED3
:100CDA0012108EE4FDFC7FD9FE12108EE4FDFC7F1B
:100CEA001FFE12108EE4FDFC7FDA121084E4FDFC74
:100CFA007FDBFE12108EE4FDFC7F40FE12108EE4B4
:100D0A00FDFC7F8DFE12108EE4FDFC7F14FE121096
:0A0D1A008EE4FDFC7FAFFE02108E98
:100DE200BB010CE58229F582E5833AF583E02250C6
:100DF20006E92582F8E622BBFE06E92582F8E22210
:0D0E0200E58229F582E5833AF583E4932229
:100E0F00EF8DF0A4A8F0CF8CF0A428CE8DF0A42EF7
:020E1F00FE22B1
:100E2100BC000BBE0029EF8DF084FFADF022E4CCB5
:100E3100F875F008EF2FFFEE33FEEC33FCEE9DEC7E
:100E4100984005FCEE9DFE0FD5F0E9E4CEFD22EDC4
:100E5100F8F5F0EE8420D21CFEADF075F008EF2F0E
:100E6100FFED33FD4007985006D5F0F222C398FDFF
:050E71000FD5F0EA229C
:00000001FF
