:03000B00021D8053
:101D8000C0E0C0D0758CE5758AF57516010519E5BA
:101D900019D394C84003751900051EE51E7002058D
:061DA0001DD0D0D0E0329E
:101E78007589FF5389F0438901538EF7758CE57591
:091E88008AF5D2A9D2AFD28C2256
:101E9100E4F5B1F5B2F5B3F5B4F5ACF5AD121E78D4
:051EA100120C2380FB80
:10003E00000808080808080808080808080800004A
:10004E0040404141414141414141414141404000D7
:10005E000000F010101010FF10101010F000000033
:10006E0000000F04040404FF040404040F00000045
:10007E0008080838C808090E0808C8380808080013
:10008E008080404020110A040A11204040808000E8
:10009E0090523410FF10345280708F0808F8080008
:1000AE00829A566322528E008040330C3340800079
:1000BE00100C042424242526A464240404140C0007
:1000CE00020202020242827F0202020202020200C7
:1000DE0002E282F212D752D25217FA12169A120076
:1000EE00128E621F003F253DA74027182641F000C3
:1000FE0000FC0000FF0004848484848484FC0000DF
:10010E00008740300F00202020202020207F00007C
:10011E00100C05555555857F8555555505140C0004
:10012E000404020A09292A4C48A9190202040400EF
:10013E00101014D4545454FC525252D312101000B6
:10014E00404050575555557F5555555750404000D6
:10015E00001715D55557557D555755D51517000010
:10016E004040407F555555555555557F40404000B0
:10017E000000007F494949494949497F0000000074
:10018E008141211D214181FF8989898989818100D0
:10019E0000028282422212FA06222242428200008B
:1001AE00010100FC44444445444444FC0000010069
:1001BE007E8181817E000082FF800000C6A1918930
:1001CE0086004281898976003028A6FFA0005F89CB
:1001DE00898971007C92898972000001F10D0300FA
:1001EE007689898976004E9191493E0000C0300C87
:1001FE00030000F804020204F800000304080804D7
:10020E00030000000404FE000000000008080F08B0
:10021E000800001C020282423C00000C0A09080879
:10022E000C00000C024242A21C000006080808083E
:10023E000700008060100CFE000000010109090F8C
:10024E000909007E222222428200000608080804C4
:10025E00030000F844222224C0000003040808080A
:10026E00070000060282621A06000000000F00005E
:10027E000000001CA24242A21C0000070808080849
:10028E000700007C82828244F80000000408080403
:10029E000300000000C0300E01000018060100002F
:1002AE0000000000C038E0000000203C23020227BE
:1002BE00382008F8888888700000203F2020201100
:1002CE000E00C0300808080838000718202020103B
:1002DE00080008F808080810E000203F2020201031
:1002EE000F0008F88888E8081000203F20202320FF
:1002FE00180008F88888E8081000203F2000030046
:10030E000000C03008080838000007182020221E00
:10031E00020008F808000008F808203F210101211A
:10032E003F20000808F8080800000020203F202089
:10033E00000000000808F8080800C08080807F00D8
:10034E00000008F888C028180800203F2001263831
:10035E00200008F8080000000000203F2020202088
:10036E00300008F8F800F8F80800203F013E013F81
:10037E00200008F830C00008F808203F20000718B9
:10038E003F00E01008080810E0000F102020201099
:10039E000F0008F808080808F000203F21010101AD
:1003AE000000E01008080810E0000F102828305058
:1003BE004F0008F8888888887000203F2000030CC2
:1003CE0030200070880808083800003820212122CB
:1003DE001C00180808F8080818000000203F20002C
:1003EE00000008F808000008F808001F2020202050
:1003FE001F000878880000C83808000007380E0172
:10040E00000008F800F800F8080000033E013E0363
:10041E000000081868808068180820302C03032C10
:10042E0030200838C800C83808000000203F2000DF
:10043E00000010080808C83808002038262120209F
:10044E0018000000C0201018183060C00000000016
:10045E00030306060606020100000000381C020314
:10046E0083FF3F01000000008040201C0F030000AE
:10047E00000020181C068787C63C1E0100000000E5
:10048E000201010103070E18608010080E064223B8
:10049E0023B2EF0000000000000004020303061C5C
:1004AE00780040E0980C1E387060E0C0808000003C
:1004BE00010302060C0C08181010007CFEC0603000
:1004CE00FCFE0301000000000000000000030F3CD2
:1004DE00408000F0FC0E020000000080C0400003CF
:1004EE000F3040848CFE730100000000000080C0BD
:1004FE00C080061F1CF000080FC360203F2710109D
:10050E000C0300202030303078EEC3800000000055
:10051E00000000000000010738C0000000E0700C71
:10052E000672DE8C000000003FCF000000000001CC
:02053E000100BA
:100D320053B3FB43B404C292E4F51DF51EC3E51E92
:100D42009402E51D940040F5D292121E09E4F51DAD
:100D5200F51EC3E51E9402E51D940040F57BAEE44A
:100D6200FD7F78121E26E4FBFD7F78121E267B1281
:100D7200E4FD7F78121E26E4FBFD7F78121E267B9F
:100D8200B0E4FD7F78121E267B81E4FD7F78121E7F
:100D9200267BFFE4FD7F78121E267BA1E4FD7F788F
:100DA200121E267BA6E4FD7F78121E267BA8E4FD98
:100DB2007F78121E267B1FE4FD7F78121E267BC8D9
:100DC200E4FD7F78121E267BD3E4FD7F78121E2677
:100DD200E4FBFD7F78121E267BD5E4FD7F78121E90
:100DE200267B80E4FD7F78121E267BD9E4FD7F7886
:100DF200121E267B1FE4FD7F78121E267BDAE4FD9D
:100E02007F78121E267B12E4FD7F78121E267BDB82
:100E1200E4FD7F78121E267B40E4FD7F78121E26B9
:100E22007B8DE4FD7F78121E267B14E4FD7F781211
:0E0E32001E267BAFE4FD7F78121E267F002275
:10000E00EF2420F537ED24B0FBE4FD7F78121E2699
:10001E00E53754F0C4540F4410FBE4FD7F78121EF4
:0D002E0026E537540FFBE4FD7F78021E2607
:101E42007B8DE4FD7F78121E267B14E4FD7F7812E1
:0B1E52001E267BAFE4FD7F78021E26F9
:101E5D007B8DE4FD7F78121E267B10E4FD7F7812CA
:0B1E6D001E267BAEE4FD7F78021E26DF
:101C1500E4F521E52124B0FBE4FD7F78121E26E4DE
:101C2500FBFD7F78121E267B12E4FD7F78121E26AF
:101C3500752220E4FB7D407F78121E260522E522D1
:0E1C4500C3946040EE0521E521C3940440C520
:011C5300226E
:041BC5008F2C8B2EA8
:101BC900E4F530F531E52F5407700BE52F131313A6
:101BD900541FF533800AE52F131313541F04F533EB
:101BE9008D33E533C3952F5022AD33AF2C12000E40
:101BF900852C32E532C3952E500DE4FB7D407F786C
:0B1C0900121E26053280EC053380D748
:011C140022AD
:041A4E008F2C8B2E20
:101A5200E4F533F534E52F5407700BE52F13131318
:101A6200541FF536800AE52F131313541F04F5365D
:101A72008D36E536C3952F5039AD36AF2C12000E98
:101A8200852C35E535C3952E5024AB30AA31A932C9
:101A92000534E534AE337002053314F5828E8312B9
:101AA20011D2FB7D407F78121E26053580D5053682
:021AB20080C0F2
:011AB400220F
:101CCA00454E474C495348004E4F524D414C0054E3
:101CDA0049424554414E0052535400434E54005910
:101CEA004553004E4F00444556001F1C1F1E1F1E21
:061CFA001F1F1E1F1E1F2C
:03000300011F00DA
:101EA600E4F51CF51BF51AF517F518F50843B3808C
:041EB60053B47F2280
:1019D400E5166075E4F516A29733F51C651B604C9B
:1019E400851C1BE5184517700CE51AD394054005B2
:1019F400750801802EC3E518940CE5179400400582
:101A0400750804801EC3E5189405E5179400400585
:101A1400750803800EC3E5189402E517940040038B
:101A2400750802E4F51AF517F5188019E51C701904
:101A3400051AE51AD394C8400BE4F51A0518E518FD
:0A1A440070020517E4F51DF51E22DF
:101C5400EF64017029752F027530FF7531007532FC
:101C64005E7B20FD7F10121A4E752F027530FF75B2
:101C7400310075327E7B30E4FD7F20021A4E752FD1
:0B1C8400027B30E4FD7F10121BC52224
:101959007521FF75221C7523CAEF64017060F52497
:10196900E52475F008A4FE2404FFC007EE240CFB4F
:10197900C003752F04AB21AA22A923AF24EF339505
:10198900E08F82F5831211D2FF3395E0FEEFC4F8A0
:10199900540FC868FFEEC454F048FE74A02FF974C0
:1019A900FE3E7530FFF5318932D003D0077D021232
:1019B9001A4E0524C3E5246480948740A322752F19
:0A19C900047B3C7D027F04121BC565
:0119D30022F1
:1017DE00E513B40119E4F513752F037B347D017FF6
:1017EE000C121BC57F01121C547F01121959E508FA
:1017FE00603BB40119E51F7F017008121C54751F60
:10180E00018006121959E4F51F851F09801CE50891
:10181E00C394024015851F09750E02E4F51F75135A
:10182E0001FF121959E4FF121C54E4F508E519B42E
:10183E00640BE5097003FF800FE4FF800EE519B419
:0F184E00C80CE5097F017003021C5412195922BE
:101B1B00E4753364F532F531F530AF2AAE29AD28D3
:021B2B00AC27E5
:081B2D008F2F8E2E8D2D8C2CC4
:101B3500900000AF33AE32AD31AC30AB2FAA2EA939
:101B45002DA82CC3121276401EA3E52F9533FFE571
:101B55002E9532FEE52D9531FDE52C95308F2F8E96
:0B1B65002E8D2DF52C80CCAE83AF82BE
:011B70002252
:101B71008F26E4753364F532F531F530AF2AAE299D
:041B8100AD28AC27B8
:101B85008F2F8E2E8D2D8C2CAF33AE32AD31AC30E8
:101B9500AB2FAA2EA92DA82CC3121276401DE52F16
:101BA5009533FFE52E9532FEE52D9531FDE52C9516
:101BB500308F2F8E2E8D2DF52C80CDAE2EAF2F2272
:100F3D00EF6401600302101FE50B2411F523E43368
:100F4D00F522752F027530FF7531027532207B1831
:100F5D00E4FD7F10121A4EAE22AF23E4FCFD753373
:100F6D0064F532F531F530121B2D8F21AE22AF23F2
:100F7D00E4FCFD753364F532F531F530121B858EC9
:100F8D00228F23E52175F010A42400F9740235F0A9
:100F9D007530FFF5318932752F027B20E4FD7F1806
:100FAD00121A4EAE22AF23E4FCFD75330AF532F56D
:100FBD0031F530121B2D8F21AE22AF23E4FCFD75D0
:100FCD00330AF532F531F530121B858E228F23E56C
:100FDD002175F010A42400F9740235F07530FFF579
:100FED00318932752F027B28E4FD7F20121A4E8540
:100FFD002321E52175F010A42400F9740235F07554
:10100D0030FFF5318932752F027B30E4FD7F2802E8
:0E101D001A4E752F027B30E4FD7F10121BC5AA
:01102B0022A2
:10148500EF6401600302150F850C21AF21FCFDFE01
:1014950075330AF532F531F530121B2D8F22AF2148
:1014A500E4FCFDFE75330AF532F531F530121B8586
:1014B5008F21E52275F010A42400F9740235F0752A
:1014C50030FFF5318932752F047B147D027F0C12B4
:1014D5001A4E852122E52275F010A42400F9740224
:1014E50035F07530FFF5318932752F047B1C7D028F
:1014F5007F14121A4E752F047530FF75310275323F
:10150500A07B247D027F1C021A4E752F047B1C7D57
:06151500027F0C121BC551
:01151B0022AD
:10185D00EF6401706D850D21AF21FCFDFE75330A1E
:10186D00F532F531F530121B2D8F22AF21E4FCFD41
:10187D00FE75330AF532F531F530121B858F21E5F2
:10188D002275F010A42400F9740235F07530FFF5BF
:10189D00318932752F047B2C7D027F24121A4E85DF
:1018AD002122E52275F010A42400F9740235F0759B
:1018BD0030FFF5318932752F047B347D027F2C0288
:0E18CD001A4E752F047B367D027F24121BC538
:0118DB0022EA
:100E4000E513B4011BE4F513FF121C54E4FF12195F
:100E5000597F01120F3D7F011214857F0112185D29
:100E6000E5087003020F086401705FE51F70050557
:100E70000B020F05E51FB40111050CE50CD3940C12
:100E80005003020F05750C01807BE51F640270752D
:100E9000E50C901CF393FB050DE50B24E1FF5403D7
:100EA0007009EF75F06484E5F0700D7E007C017DC3
:100EB00090121221ED4C7007E50CB402027B1DE587
:100EC0000DD39B4040750D01803BE508C394024063
:100ED00034E51FB40219750E03751301E4F51FFF05
:100EE000120F3DE4FF121485E4FF12185D80020525
:100EF0001FE51FB401057F01120F3DE51FB4020578
:100F00007F01121485E4F508E519B46414E51F7037
:100F100003FF8018E51FB40104E4FF8019E4FF809B
:100F200018E519B4C816E51F70057F01020F3DE5ED
:0C0F30001F7F01B4010302148512185D3C
:010F3C002292
:021114008F2129
:101116007522FF75231C7524D2E50964017071E5FB
:101126002164017060F525E52575F008A4FE240804
:10113600FFC007EE2410FBC003752F02AB22AA23C3
:10114600A924AF25EF3395E08F82F5831211D2FFE4
:101156003395E0FEEFC4F8540FC868FFEEC454F0B0
:1011660048FE74A02FF974FE3E7530FFF5318932C2
:10117600D003D007E4FD121A4E0525C3E525648089
:10118600948640A322752F027B38E4FD7F088038C1
:10119600E52164017029752F027530FF75310075E0
:1011A600329E7B20FD7F10121A4E752F027530FF7E
:1011B6007531007532BE7B30E4FD7F20021A4E7514
:0B11C6002F027B30E4FD7F10121BC5E0
:0111D10022FB
:02102C008F2112
:10102E007522FF75231C7524D9E50964017071E5DD
:10103E002164017060F525E52575F008A4FE2404F1
:10104E00FFC007EE240CFBC003752F04AB22AA23AE
:10105E00A924AF25EF3395E08F82F5831211D2FFCD
:10106E003395E0FEEFC4F8540FC868FFEEC454F099
:10107E0048FE74A02FF974FE3E7530FFF5318932AB
:10108E00D003D0077D02121A4E0525C3E5256480D4
:10109E00948740A322752F047B3C7D027F048062DF
:1010AE00E52164017053752F047530FF753100759D
:1010BE0032DE7B107D02FF121A4E752F047530FF43
:1010CE0075310075327E7B207D027F10121A4E75AF
:1010DE002F047530FF75310075329E7B307D027F97
:1010EE0020121A4E752F047530FF7531007532BE01
:1010FE007B407D027F30021A4E752F047B407D02AD
:05110E00E4FF121BC507
:0111130022B9
:1018DC00E513B4010DE4F5137F011211147F01120D
:1018EC00102CE5086039B40117E51F7F01B401081D
:1018FC0012102CE4F51F8024121114751F01801C8A
:10190C00E508C394024015750E04851F0AE4F51F03
:10191C00751301FF121114E4FF12102CE4F508E505
:10192C0019B46410E51FB40104E4FF8013E51F70C3
:10193C001BFF8015E519B4C813E51FB401057F0121
:0D194C0002102CE51F70057F0112111422FE
:0707D700751301E4F51FFF9B
:1007DE00EF640160030209D2F521850D22AE21AF2F
:1007EE0022FCFD75330AF532F531F530121B2D8FD3
:1007FE0023AE21AF22E4FCFD75330AF532F531F557
:10080E0030121B858E218F22E52375F006A424BE9F
:10081E00F9740135F07530FFF5318932752F017B92
:10082E003AE4FD7F34121A4E852223E52375F00635
:10083E00A424BEF9740135F07530FFF53189327597
:10084E002F017B40E4FD7F3A121A4E752F01753051
:10085E00FF7531017532FA7B34E4FD7F2E121A4E8C
:10086E00752100850C22AE21AF22E4FCFD75330A02
:10087E00F532F531F530121B2D8F23AE21AF22E468
:10088E00FCFD75330AF532F531F530121B858E21DC
:10089E008F22E52375F006A424BEF9740135F07598
:1008AE0030FFF5318932752F017B28E4FD7F22124E
:1008BE001A4E852223E52375F006A424BEF9740191
:1008CE0035F07530FFF5318932752F017B2EE4FD41
:1008DE007F28121A4E752F017530FF753101753252
:1008EE00FA7B22E4FD7F1C121A4EE50B2411F52231
:1008FE00E433F521752F017530FF7531017532CA5C
:10090E007B0AE4FD7F04121A4EAE21AF22E4FCFDF9
:10091E00753364F532F531F530121B2D8F23AE2170
:10092E00AF22E4FCFD753364F532F531F530121B60
:10093E00858E218F22E52375F006A424BEF974015D
:10094E0035F07530FFF5318932752F017B10E4FDDE
:10095E007F0A121A4EAE21AF22E4FCFD75330AF562
:10096E0032F531F530121B2D8F23AE21AF22E4FC70
:10097E00FD75330AF532F531F530121B858E218F58
:10098E0022E52375F006A424BEF9740135F0753006
:10099E00FFF5318932752F017B16E4FD7F10121A97
:1009AE004E852223E52375F006A424BEF974013585
:1009BE00F07530FFF5318932752F017B1CE4FD7F18
:1009CE0016021A4E752F027B40E4FD7F04121BC5E2
:0109DE0022F6
:080540008F248E238D228C21F3
:10054800E4F52BE525700B752F047B407D02FF0237
:100558001BC585242A852329852228852127E50A84
:1005680060030206A1753310753227121B218F26EE
:10057800E4753310753227121B79E48F2A8E29F51A
:1005880028F527E526602175F010A42400F97402E7
:1005980035F07530FFF5318932752F047B147D02F3
:1005A8007F0C121A4E752B01E47533E8753203126D
:1005B8001B218F26E47533E8753203121B79E48F0B
:1005C8002A8E29F528F527E52B64016004E52660C5
:1005D80023752B01E52675F010A42400F974023563
:1005E800F07530FFF5318932752F047B1C7D027F51
:1005F80014121A4E121B1B121B71E48F2A8E29F536
:1006080028F527E52B64016004E5266023752B0196
:10061800E52675F010A42400F9740235F07530FF52
:10062800F5318932752F047B247D027F1C121A4E06
:10063800E475330A121B1F8F26E475330A121B77E1
:10064800E48F2A8E29F528F527E52B64016004E557
:10065800266023752B01E52675F010A42400F97493
:100668000235F07530FFF5318932752F047B2C7D0A
:10067800027F24121A4E852A26E52675F010A42436
:1006880000F9740235F07530FFF5318932752F04A1
:100698007B347D027F2C0207D3E475331075322733
:1006A800121B218F26E4753310753227121B79E44B
:1006B8008F2A8E29F528F527E526602175F018A4DC
:1006C8002450F9740435F07530FFF5318932752FEF
:1006D800047B0D7D027F01121A4E752B01E47533E0
:1006E800E8753203121B218F26E47533E87532034F
:1006F800121B79E48F2A8E29F528F527E52B64014A
:100708006004E5266023E52675F018A42450F974E2
:100718000435F07530FFF5318932752F047B197D6A
:10072800027F0D121A4E752B01121B1B121B71E44E
:100738008F2A8E29F528F527E52B64016004E52624
:100748006023E52675F018A42450F9740435F07573
:1007580030FFF5318932752F047B257D027F191210
:100768001A4E752B01E475330A121B1F8F26E47588
:10077800330A121B77E48F2A8E29F528F527E52BF3
:1007880064016004E5266023E52675F018A424506A
:10079800F9740435F07530FFF5318932752F047B13
:1007A800317D027F25121A4E752B01852A26E526F2
:1007B80075F018A42450F9740435F07530FFF5313C
:0E07C8008932752F047B3D7D027F31121A4E5F
:0107D6002200
:10151C00E513B40116E4F5137F011207DEAF12AE2A
:10152C0011AD10AC0F752501120540E5086072B4C1
:10153C000143E5122401FFE43511FEE43510FDE40E
:10154C00350F8F128E118D10F50F7F9F7E867D01CA
:10155C007C00AB12AA11A910F8D31212764009E440
:10156C00F512F511F510F50FAF12AE11AD10AC0F61
:10157C007525018026E508B4030F750E051207D7F3
:10158C00E4F525FFFEFDFC8012E508B40410750E91
:10159C00061207D7E4F525FFFEFDFC120540E4F525
:0215AC00082213
:0209DF008F2166
:1009E1007523FF75241C7525E17526FF75271C7578
:1009F10028E5E50964016003020AC5E52164016097
:100A010003020ABAF522E52275F008A4FE2406FFC6
:100A1100C007EE240EFBC003752F02AB23AA24A945
:100A210025AF22EF3395E08F82F5831211D2FF3388
:100A310095E0FEEFC4F8540FC868FFEEC454F048C7
:100A4100FE74A02FF974FE3E7530FFF5318932D066
:100A510003D007E4FD121A4EE52275F008A4FE2426
:100A610020FFC007EE2428FBC003752F02AB26AA86
:100A710027A928AF22EF3395E08F82F5831211D297
:100A8100FF3395E0FEEFC4F8540FC868FFEEC4547D
:100A9100F048FE74A02FF974FE3E7530FFF53189E0
:100AA10032D003D007E4FD121A4E0522C3E52264B9
:100AB1008094835003020A0722752F027B38E4FDDC
:100AC1007F068038E52164017029752F027530FF9A
:100AD1007531007532FE7B20FD7F10121A4E752F85
:100AE100027530FF75310175321E7B30E4FD7F20C8
:0F0AF100021A4E752F027B30E4FD7F10121BC5D9
:010B000022D2
:021333008F2108
:101335007523FF75241C7525E9E50964017071E5C0
:101345002164017060F522E52275F008A4FE240AE7
:10135500FFC007EE2412FBC003752F04AB23AA249C
:10136500A925AF22EF3395E08F82F5831211D2FFC5
:101375003395E0FEEFC4F8540FC868FFEEC454F08F
:1013850048FE74A02FF974FE3E7530FFF5318932A1
:10139500D003D0077D02121A4E0522C3E5226480D0
:1013A500948340A322752F047B227D027F0A80232C
:1013B500E521B40115752F047530FF7531017532BE
:1013C5007E7B1C7D027F0C021A4E752F047B1C7DD3
:0613D500027F0C121BC593
:0113DB0022EF
:0213DC008F215F
:1013DE007523FF75241C7525EDE50964017071E513
:1013EE002164017060F522E52275F008A4FE242622
:1013FE00FFC007EE242EFBC003752F04AB23AA24D7
:10140E00A925AF22EF3395E08F82F5831211D2FF1B
:10141E003395E0FEEFC4F8540FC868FFEEC454F0E5
:10142E0048FE74A02FF974FE3E7530FFF5318932F7
:10143E00D003D0077D02121A4E0522C3E522648026
:10144E00948240A322752F047B367D027F26802353
:10145E00E521B40115752F047530FF753101753214
:10146E009E7B347D027F24021A4E752F047B347DC1
:06147E00027F24121BC5D1
:011484002245
:1015AE00E513B40112E4F5137F011209DF7F011276
:1015BE0013337F011213DCE5086045B40115E51FF6
:1015CE00700A7F01121333751F018031E4F51F7FFE
:1015DE00018027E508C394024023E51F7008F51229
:1015EE00F511F510F50F750E04E4F51F751301FFD7
:1015FE001209DFE4FF121333E4FF1213DCE4F508E3
:10160E00E519B46410E51F7003FF8014E51F640133
:10161E00701BFF8015E519B4C813E51F70057F0117
:0E162E00021333E51FB401057F011213DC2205
:020B01008F2142
:100B03007523FF75241C7525E17526FF75271C7554
:100B130028F0E50964016003020BE7E52164016045
:100B230003020BDCF522E52275F008A4FE2406FF80
:100B3300C007EE240EFBC003752F02AB23AA24A922
:100B430025AF22EF3395E08F82F5831211D2FF3365
:100B530095E0FEEFC4F8540FC868FFEEC454F048A4
:100B6300FE74A02FF974FE3E7530FFF5318932D043
:100B730003D007E4FD121A4EE52275F008A4FE2403
:100B830020FFC007EE2428FBC003752F02AB26AA63
:100B930027A928AF22EF3395E08F82F5831211D274
:100BA300FF3395E0FEEFC4F8540FC868FFEEC4545A
:100BB300F048FE74A02FF974FE3E7530FFF53189BD
:100BC30032D003D007E4FD121A4E0522C3E5226496
:100BD3008094835003020B2922752F027B38E4FD96
:100BE3007F068038E52164017029752F027530FF77
:100BF30075310175323E7B20FD7F10121A4E752F21
:100C0300027530FF75310175325E7B30E4FD7F2064
:0F0C1300021A4E752F027B30E4FD7F10121BC5B5
:010C220022AF
:10163C00E513B40112E4F5137F01120B017F0112C3
:10164C0013337F011213DCE5086045B40118E51F64
:10165C00700A7F01121333751F018031E4F51F7F6F
:10166C00011213DC8027E508C394024020E4FF122A
:10167C000B01E4FF121333E4FF1213DCE51F7004BB
:10168C00F50E8003750E04E4F51F751301E4F508DF
:10169C00E519B46410E51F7003FF8014E51F6401A5
:1016AC00701BFF8015E519B4C813E51F70057F0189
:0E16BC00021333E51FB401057F011213DC2277
:101D5700E50E24FE6013146013146013146013144B
:101D67006013240570120217DE020E400218DC020F
:091D7700151C0215AE12163C22E7
:03003B00021EF6AC
:041EF60075EC003255
:101C8F0043B38053B47FA2AF920075C7AA75C755EF
:101C9F0075910143B18075C7AA75C755E4F591A237
:101CAF000092AF43E90143E98043EA8053EB7F435E
:0B1CBF009B02D2AF43870253E9FE22D4
:100C2300121EA6120D32121C157B007A007909E4FC
:100C3300FDFC7F0D121EF1E4F51FF515751301F58B
:100C43001DF51E1219D4E514B4A507E50E600302C1
:100C53000CF1E4F509F50AF50B750C01750D01F5B9
:100C630012F511F510F50F7514A5750E01F5157D27
:100C7300017F0712000E752F037530FF7531037561
:100C830032507B147D017F0C121A4E752F03753081
:100C9300FF75310075323E7B247D017F14121A4E9D
:100CA300752F037530FF7531047532107B2C7D0170
:100CB3007F24121A4E752F037530FF75310275327A
:100CC300B07B347D017F2C121A4EE4F51DF51EC353
:100CD300E51E9490E51D940140F5E4F51DF51E75A0
:100CE3001301752F037B347D017F0C121BC5E515A2
:100CF3007005121D57800CE5086008E4F508F5152A
:100D0300121E42E51E64E87004E51D6403600302DD
:100D13000C46121E5D7515017B007A007909E4FD0E
:0F0D2300FC7F0D121DA6121C8FE4F51DF51E227C
:101D0000A2AF9200C2AF75C7AA75C75543A401A27E
:101D10000092AFE59F30E613A2AF9200C2AF75C745
:0C1D2000AA75C755539FBFA20092AF22C6
:081756008C258D26AB07AA06C5
:10175E00EB4A607BEBAE027807CEC313CE13D8F9FB
:10176E00F5288E27EB547F60080528E528700205C2
:10177E0027A2AF9200C2AF75C7AA75C755439F0186
:10178E00A20092AF75AEFF75AF62A2AF9200C2AF6C
:10179E0075C7AA75C75543A502A20092AFE4FDFC1A
:1017AE00C3ED9528EC95275026ED75F080A42526DF
:1017BE00F5A6EDAE047807C333CE33CED8F9252681
:0F17CE00E5253EF5A7121D000DBD00010C80D1D1
:0117DD0022E9
:0A16CA008E258F268B278A28892998
:1016D400A2AF9200C2AF75C7AA75C755439F01A2B6
:1016E4000092AFA2AF9200C2AF75C7AA75C75543A7
:1016F400A502A20092AFEDF5A68CA775AF61E4FF39
:10170400FEC3EF9526EE95255021AB27AA28A929DB
:101714008F828E831211D2F5AE121D0005A6E5A6A6
:10172400700205A70FBF00010E80D6A2AF9200C2BF
:10173400AF75C7AA75C75553A5FDA20092AFA2AF56
:101744009200C2AF75C7AA75C755539FFEA20092F7
:01175400AFE5
:011755002271
:0A1AB5008E218F228B238A248925BD
:101ABF00A2AF9200C2AF75C7AA75C755439F01A2C7
:101ACF000092AFEDF5A68CA775AF40E4FFFEC3EF14
:101ADF009522EE95215021121D00AB23AA24A92592
:101AEF008F828E83E5AE1211FF05A6E5A670020563
:101AFF00A70FBF00010E80D6A2AF9200C2AF75C76D
:0B1B0F00AA75C755539FFEA20092AFBD
:011B1A0022A8
:051EF1007E00021AB59D
:101DA6008F218B228A2389248D828C837E001217B1
:101DB60056AF217E00AD82AC83AB22AA23A92402B2
:021DC60016CA3B
:03000600013800BE
:081ECB0043B31043B410C293AD
:071ED300E4FFFEEF4E70FC7E
:011EDA0022E5
:101E090053B3F743B40843B30843B408D29353B365
:0D1E1900EF43B41043B31043B410D2942231
:101EBA00D294D293121ED3C294121ED3C293021E7C
:011ECA00D344
:0A1EE700C294D293121ED3D29422AB
:021DC800AD0765
:101DCA00E4FCED30E704D2948002C294ED25E0FDF4
:0E1DDA00D293121ED3C293121ED30CBC08E487
:011DE80022D8
:031DE900121DC800
:101DEC0043B31053B4EFD293121ED3309409121E86
:0D1DFC00E7121ECB7F0122121ECB7F0022BA
:101E2600AC07AA05121EBAAF04121DE9AF02121DB5
:0C1E3600E9AF03121DC8121DEC021EE7EC
:0C1EDB00C294C293121ED3D293021ED3F5
:101D2C00E4FDFC43B31053B4EFC293121ED3D29311
:101D3C00121ED3EC25E0FC3094010C0DBD08EA43D7
:0A1D4C00B31043B410121EDBAF0405
:011D5600226A
:0300000002128762
:1012870075C7AA75C75575FD5A75C7AA75C7557528
:10129700FDA5787FE4F6D8FD9000007FFF7E03E48C
:0C12A700F0A3DFFCDEFA7581380212EEC5
:1012B300021E91E493A3F8E493A34003F68001F2A2
:1012C30008DFF48029E493A3F85407240CC8C3333C
:1012D300C4540F4420C8834004F456800146F6DF0B
:1012E300E4800B0102040810204080900003E47E98
:1012F300019360BCA3FF543F30E509541FFEE49300
:10130300A360010ECF54C025E060A840B8E493A3C6
:10131300FAE493A3F8E493A3C8C582C8CAC583CAF1
:10132300F0A3C8C582C8CAC583CADFE9DEE780BEA9
:0100090000F6
:1011D200BB010CE58229F582E5833AF583E02250D2
:1011E20006E92582F8E622BBFE06E92582F8E2221C
:0D11F200E58229F582E5833AF583E4932236
:1011FF00F8BB010DE58229F582E5833AF583E8F026
:10120F00225006E92582C8F622BBFE05E92582C8D1
:02121F00F222B9
:10122100BC000BBE0029EF8DF084FFADF022E4CCB1
:10123100F875F008EF2FFFEE33FEEC33FCEE9DEC7A
:10124100984005FCEE9DFE0FD5F0E9E4CEFD22EDC0
:10125100F8F5F0EE8420D21CFEADF075F008EF2F0A
:10126100FFED33FD4007985006D5F0F222C398FDFB
:051271000FD5F0EA2298
:10127600EB9FF5F0EA9E42F0E99D42F0E89C45F0CE
:011286002245
:00000001FF
