:03000B00022000D0
:10200000C0E0C0D075D000C000758CE5758AF57849
:102010001D7401F2788EE204F2E2D394C84002E427
:10202000F278CAE22401F218E23400F278A5E22440
:1020300001F218E23400F278A1E22401F218E2344D
:1020400000F2788BE22401F218E23400F2D000D0E2
:04205000D0D0E032DA
:1023C4007589FF5389F0438901538EF7758CE57540
:0923D4008AF5D2A9D2AFD28C2205
:03005B00021DCFB4
:101DCF00C0E0C0D075D000C000C001C005C006C0C3
:101DDF0007C2EFAFC378A2E2FD25E0248FF8E4F24B
:101DEF0008EFF2ED25E0248FF8C000F909E3C4F8FD
:101DFF00540FC868FE19E3C454F048D000F208CE5F
:101E0F00F2ED25E0248FF8C000E5C2540FFFE2FE8B
:101E1F0008E24FFFD000EEF208EFF278A2E204F2F0
:101E2F00E2C394084002C2AED007D006D005D0015D
:071E3F00D000D0D0D0E0324A
:101F8400E478A2F27F14788FE4F208DFFC43DE04E5
:101F940053E8F043E80343B14053B2BFE4F5F643DA
:101FA400F60843E10153E8DF43E81053E1F753E156
:101FB400FB43E10275D10775D9FF75D40275DCFFC7
:101FC400D2DED2DFD2AED2AF78A2E2B408FAE4789D
:041FD400A2F2D2AEF5
:011FD80022E6
:1023DD00E4F5B1F5B2F5B3F5B4F5ACF5AD1223C432
:0823ED00121F84120BC680FBD5
:10005E00000808080808080808080808080800002A
:10006E0040404141414141414141414141404000B7
:10007E000000F010101010FF10101010F000000013
:10008E0000000F04040404FF040404040F00000025
:10009E0008080838C808090E0808C83808080800F3
:1000AE008080404020110A040A11204040808000C8
:1000BE0090523410FF10345280708F0808F80800E8
:1000CE00829A566322528E008040330C3340800059
:1000DE00100C042424242526A464240404140C00E7
:1000EE00020202020242827F0202020202020200A7
:1000FE0002E282F212D752D25217FA12169A120056
:10010E00128E621F003F253DA74027182641F000A2
:10011E0000FC0000FF0004848484848484FC0000BE
:10012E00008740300F00202020202020207F00005C
:10013E00100C05555555857F8555555505140C00E4
:10014E000404020A09292A4C48A9190202040400CF
:10015E00101014D4545454FC525252D31210100096
:10016E00404050575555557F5555555750404000B6
:10017E00001715D55557557D555755D515170000F0
:10018E004040407F555555555555557F4040400090
:10019E000000007F494949494949497F0000000054
:1001AE008141211D214181FF8989898989818100B0
:1001BE0000028282422212FA06222242428200006B
:1001CE00010100FC44444445444444FC0000010049
:1001DE007E8181817E000082FF800000C6A1918910
:1001EE0086004281898976003028A6FFA0005F89AB
:1001FE00898971007C92898972000001F10D0300DA
:10020E007689898976004E9191493E0000C0300C66
:10021E00030000F804020204F800000304080804B6
:10022E00030000000404FE000000000008080F0890
:10023E000800001C020282423C00000C0A09080859
:10024E000C00000C024242A21C000006080808081E
:10025E000700008060100CFE000000010109090F6C
:10026E000909007E222222428200000608080804A4
:10027E00030000F844222224C000000304080808EA
:10028E00070000060282621A06000000000F00003E
:10029E000000001CA24242A21C0000070808080829
:1002AE000700007C82828244F800000004080804E3
:1002BE000300000000C0300E01000018060100000F
:1002CE0000000000C038E0000000203C230202279E
:1002DE00382008F8888888700000203F20202011E0
:1002EE000E00C0300808080838000718202020101B
:1002FE00080008F808080810E000203F2020201011
:10030E000F0008F88888E8081000203F20202320DE
:10031E00180008F88888E8081000203F2000030025
:10032E000000C03008080838000007182020221EE0
:10033E00020008F808000008F808203F21010121FA
:10034E003F20000808F8080800000020203F202069
:10035E00000000000808F8080800C08080807F00B8
:10036E00000008F888C028180800203F2001263811
:10037E00200008F8080000000000203F2020202068
:10038E00300008F8F800F8F80800203F013E013F61
:10039E00200008F830C00008F808203F2000071899
:1003AE003F00E01008080810E0000F102020201079
:1003BE000F0008F808080808F000203F210101018D
:1003CE000000E01008080810E0000F102828305038
:1003DE004F0008F8888888887000203F2000030CA2
:1003EE0030200070880808083800003820212122AB
:1003FE001C00180808F8080818000000203F20000C
:10040E00000008F808000008F808001F202020202F
:10041E001F000878880000C83808000007380E0151
:10042E00000008F800F800F8080000033E013E0343
:10043E000000081868808068180820302C03032CF0
:10044E0030200838C800C83808000000203F2000BF
:10045E00000010080808C83808002038262120207F
:10046E0018000000C0201018183060C000000000F6
:10047E00030306060606020100000000381C0203F4
:10048E0083FF3F01000000008040201C0F0300008E
:10049E00000020181C068787C63C1E0100000000C5
:1004AE000201010103070E18608010080E06422398
:1004BE0023B2EF0000000000000004020303061C3C
:1004CE00780040E0980C1E387060E0C0808000001C
:1004DE00010302060C0C08181010007CFEC06030E0
:1004EE00FCFE0301000000000000000000030F3CB2
:1004FE00408000F0FC0E020000000080C0400003AF
:10050E000F3040848CFE730100000000000080C09C
:10051E00C080061F1CF000080FC360203F2710107C
:10052E000C0300202030303078EEC3800000000035
:10053E00000000000000010738C0000000E0700C51
:10054E000672DE8C000000003FCF000000000001AC
:0D055E00010000303000000C0C00002400F3
:1010000053B3EF43B410C294E478C9F208F2C37842
:10101000CAE2940218E2940040F4D29412003EE432
:1010200078C9F208F2C378CAE2940218E294004048
:10103000F47BAEE4FD7F78122356E4FBFD7F78124B
:1010400023567B12E4FD7F78122356E4FBFD7F7864
:101050001223567BB0E4FD7F781223567B81E4FD9A
:101060007F781223567BFFE4FD7F781223567BA105
:10107000E4FD7F781223567BA6E4FD7F7812235689
:101080007BA8E4FD7F781223567B1FE4FD7F781256
:1010900023567BC8E4FD7F781223567BD3E4FD7F83
:1010A00078122356E4FBFD7F781223567BD5E4FDAE
:1010B0007F781223567B80E4FD7F781223567BD9FC
:1010C000E4FD7F781223567B1FE4FD7F78122356C0
:1010D0007BDAE4FD7F781223567B12E4FD7F7812E1
:1010E00023567BDBE4FD7F781223567B40E4FD7FB3
:1010F000781223567B8DE4FD7F781223567B14E40F
:10110000FD7F781223567BAFE4FD7F781223567F54
:021110000022BB
:10227100EF242078E7F2ED24B0FBE4FD7F78122310
:102281005678E7E254F0C4540F4410FBE4FD7F7824
:1022910012235678E7E2540FFBE4FD7F78022356C0
:10238E007B8DE4FD7F781223567B14E4FD7F78125B
:0B239E0023567BAFE4FD7F780223563E
:1023A9007B8DE4FD7F781223567B10E4FD7F781244
:0B23B90023567BAEE4FD7F7802235624
:10205400E478D0F278D0E2FFC39404503CEF24B08B
:10206400FBE4FD7F78122356E4FBFD7F78122356B0
:102074007B12E4FD7F7812235678D17420F2E4FBBE
:102084007D407F7812235678D1E204F2E2C3946053
:0920940040EC78D0E204F280BBBC
:01209D002220
:081EB20078DCEFF278DEEBF2C0
:101EBA00E478E0F208F278DFE2FF54077008EF13E3
:101ECA001313541F800978DFE2131313541F047885
:101EDA00E3F278E3EDF278DFE2FF78E3E2FDC39F15
:101EEA00502F78DCE2FF12227178DCE278E2F27895
:101EFA00DEE2FF78E2E2C39F5010E4FB7D407F7888
:101F0A0012235678E2E204F280E578E3E204F280F2
:011F1A00C501
:011F1B0022A3
:081D4C0078DCEFF278DEEBF227
:101D5400E478E3F208F278DFE2FF54077008EF1347
:101D64001313541F800978DFE2131313541F0478EC
:101D7400E6F278E6EDF278DFE2FF78E6E2FDC39F73
:101D8400504878DCE2FF12227178DCE278E5F278E0
:101D9400DEE2FF78E5E2C39F502978E01206A778D7
:101DA400E308E2FF2401F218E2FE3400F28F828E8F
:101DB40083120584FB7D407F7812235678E5E20484
:0A1DC400F280CC78E6E204F280AC75
:011DCE0022F2
:1021D700454E474C495348004E4F524D414C0054D1
:1021E70049424554414E0052535400434E540059FE
:1021F7004553004E4F00444556001F1C1F1E1F1E0F
:062207001F1F1E1F1E1F19
:1021640081CB00A020A70000F8F818181818181838
:102174001818F8F0E00000000F0F0C0C0C0C0C0CFD
:102184000C0C0F070300880B0800085008BA09401C
:0621940081A3FF811B0086
:1023F500E478C8F218F2789FF2788CF208F2780047
:08240500F243B38053B47F22BF
:1019F900781DE27002418FE4F2A2973378C8F21899
:101A0900E2FF08E2FE6F605B18EEF2788CE2FE08F6
:101A1900E2FF4E700F789FE2D39405400778007477
:101A290001F28034C3EF940CEE94004007780074FF
:101A390004F28024788CE2FE08E2FFC39405EE9458
:101A490000400778007403F2800EC3EF9402EE940D
:101A590000400578007402F2E4789FF2788CF2086D
:101A6900F2801E78C8E2701E789FE204F2E2D394F5
:101A7900C8400DE4F2788DE22401F218E23400F254
:071A8900E478C9F208F22223
:1020E500EF6401703078DF7402F27BFF7A00797E4D
:1020F500081206B07B20E4FD7F10121D4C78DF74BA
:1021050002F27BFF7A00799E081206B07B30E4FD6F
:102115007F20021D4C78DF7402F27B30E4FD7F10D6
:04212500121EB222B2
:101CC8007BFF7A2179D778D01206B0EF640170666D
:101CD80078D3F278D3E2FE75F008A4FD2404FFC09F
:101CE80007ED240CFBC00378DF7404F278D01206E9
:101CF800A7EEFF3395E08F82F583120584FF3395B5
:101D0800E0FEEFC4F8540FC868FFEEC454F048FE74
:101D180074C02FF974FE3EFA7BFF78E01206B0D04B
:101D280003D0077D02121D4C78D3E204F2E2C364AB
:101D3800809487409E2278DF7404F27B3C7D02FF0A
:031D4800121EB2B6
:011D4B002275
:1018C7007809E2B4011AE4F278DF7403F27B347D1D
:1018D700017F0C121EB27F011220E57F01121CC886
:1018E7007800E2604FB4012078CBE27F01700A12E2
:1018F70020E578CB7401F28007121CC8E478CBF29C
:1019070078CBE27802F280287800E2C39402402084
:1019170078CBE27802F278047404F2E478CBF278B8
:101927008EF2780904F2E4FF121CC8E4FF1220E5E6
:10193700E47800F2788EE2B4640C7802E27003FF78
:101947008011E4FF8010788EE2B4C80D7802E27F40
:0A1957000170030220E5121CC822F3
:05209E0078D61206696E
:0520A30078DC1206824A
:1020A800E478E4F208F278E012066978DC12067542
:1020B800C3120658401F78E5E22401F218E2340002
:1020C800F278DC12066978E012067512064A78DCA6
:0C20D80012068280D178E4E2FE08E2FFEC
:0120E40022D9
:0522400078D6120669CA
:10224500801D78E012066978DC120675C3120658FF
:10225500401478DC12066978E012067512064A7891
:0C226500DC12068280DC78DC12066922A4
:0412F90078D0EFF2C8
:1012FD007BFF7A2179DF081206B07802E264017073
:10130D007A78D0E26401706678D4F278D4E2FE7512
:10131D00F008A4FD2408FFC007ED2410FBC00378DE
:10132D00DF7402F278D11206A7EEFF3395E08F82BB
:10133D00F583120584FF3395E0FEEFC4F8540FC812
:10134D0068FFEEC454F048FE74C02FF974FE3EFAE7
:10135D007BFF78E01206B0D003D007E4FD121D4CE0
:10136D0078D4E204F2E2C364809486409E2278DF52
:10137D007402F27B38E4FD7F08804278D0E264018C
:10138D00703078DF7402F27BFF7A0079BE081206A6
:10139D00B07B20E4FD7F10121D4C78DF7402F27BD0
:1013AD00FF7A0079DE081206B07B30E4FD7F200263
:1013BD001D4C78DF7402F27B30E4FD7F10121EB2FB
:0113CD0022FD
:0411120078D0EFF2B0
:101116007BFF7A2179E6081206B07802E264017054
:101126007878D0E26401706678D4F278D4E2FE75FD
:10113600F008A4FD2404FFC007ED240CFBC00378CF
:10114600DF7404F278D11206A7EEFF3395E08F82A2
:10115600F583120584FF3395E0FEEFC4F8540FC8FB
:1011660068FFEEC454F048FE74C02FF974FE3EFAD0
:101176007BFF78E01206B0D003D0077D02121D4C2B
:1011860078D4E204F2E2C364809487409E2278DF3A
:101196007404F27B3C7D02807178D0E26401706059
:1011A60078DF7404F27BFF7A0079FE081206B07BC2
:1011B600107D02E4FF121D4C78DF7404F27BFF7A87
:1011C60000799E081206B07B207D027F10121D4C0E
:1011D60078DF7404F27BFF7A0079BE081206B07BD2
:1011E600307D027F20121D4C78DF7404F27BFF7A7B
:1011F6000079DE081206B07B407D027F30021D4C6E
:0E12060078DF7404F27B407D02E4FF121EB21A
:0112140022B7
:101A90007809E2B4010CE4F27F011212F97F01121D
:101AA00011127800E2604AB4011B78CBE27F01B4E6
:101AB0000109121112E478CBF280321212F978CBBC
:101AC0007401F280287800E2C39402402078047404
:101AD00005F278CBE27803F2E478CBF2788EF278F4
:101AE0000904F2E4FF1212F9E4FF121112E4780083
:101AF000F2788EE2B4641278CBE2B40104E4FF80A1
:101B00001678CBE2701EFF8018788EE2B4C8157884
:101B1000CBE2B401057F0102111278CBE270057FA0
:051B2000011212F92280
:0508000078D012068211
:10080500E478DAF208F278D4E2700E78DF7404F254
:100815007B407D02E4FF021EB278D012066978D6CD
:100825001206827803E2600221F778DB740CF27815
:10083500E012068E0000271012209E78D5EFF27880
:10084500E012068E00002710122240E4FCFD78D647
:1008550012068278D5E2FF603075F010A42420F9E5
:10086500740235F0FA7BFF78E01206B078DBE2FF20
:100875002408FB78DF7404F27D02121D4C78DA74CB
:1008850001F208E22408F2800678DBE22404F2781B
:10089500E012068E000003E812209E78D5EFF2786C
:1008A500E012068E000003E8122240E4FCFD78D633
:1008B50012068278DAE26401600578D5E260347860
:1008C500DA7401F278D5E275F010A42420F97402E7
:1008D50035F0FA7BFF78E01206B078DBE2FF2408FA
:1008E500FB78DF7404F27D02121D4C78DBE22408EC
:1008F500F2800678DBE22404F278E012068E00002E
:10090500006412209E78D5EFF278E012068E000082
:100915000064122240E4FCFD78D612068278DAE201
:100925006401600578D5E2603478DA7401F278D52F
:10093500E275F010A42420F9740235F0FA7BFF78F3
:10094500E01206B078DBE2FF2408FB78DF7404F2DE
:100955007D02121D4C78DBE22408F2800678DBE28A
:100965002404F278E012068E0000000A12209E7818
:10097500D5EFF278E012068E0000000A122240E45C
:10098500FCFD78D612068278DAE26401600578D536
:10099500E2603478DA7401F278D5E275F010A424B7
:1009A50020F9740235F0FA7BFF78E01206B078DBA7
:1009B500E2FF2408FB78DF7404F27D02121D4C78F7
:1009C500DBE22408F2800678DBE22404F278D61212
:1009D500066978D5EFF2E275F010A42420F97402C7
:1009E50035F0FA7BFF78E01206B078DBE2FF2408E9
:1009F50061BA78DB7402F278E012068E00002710E7
:100A050012209E78D5EFF278E012068E00002710AE
:100A1500122240E4FCFD78D612068278D5E2FF600A
:100A25003075F018A42470F9740435F0FA7BFF785A
:100A3500E01206B078DBE2FF240CFB78DF7404F2E9
:100A45007D02121D4C78DA7401F208E2240CF28062
:100A55000678DBE22406F278E012068E000003E851
:100A650012209E78D5EFF278E012068E000003E89A
:100A7500122240E4FCFD78D612068278DAE264019F
:100A8500600578D5E2603378D5E275F018A4247056
:100A9500F9740435F0FA7BFF78E01206B078DBE2F2
:100AA500FF240CFB78DF7404F27D02121D4C78DA0A
:100AB5007401F208E2240CF2800678DBE22406F2E7
:100AC50078E012068E0000006412209E78D5EFF2C1
:100AD50078E012068E00000064122240E4FCFD78E6
:100AE500D612068278DAE26401600578D5E26033D1
:100AF50078D5E275F018A42470F9740435F0FA7B02
:100B0500FF78E01206B078DBE2FF240CFB78DF7497
:100B150004F27D02121D4C78DA7401F208E2240C0D
:100B2500F2800678DBE22406F278E012068E0000F9
:100B3500000A12209E78D5EFF278E012068E0000AA
:100B4500000A122240E4FCFD78D612068278DAE229
:100B55006401600578D5E2603378D5E275F018A4B4
:100B65002470F9740435F0FA7BFF78E01206B0784A
:100B7500DBE2FF240CFB78DF7404F27D02121D4CCE
:100B850078DA7401F208E2240CF2800678DBE224BC
:100B950006F278D612066978D5EFF2E275F018A458
:100BA5002470F9740435F0FA7BFF78E01206B0780A
:100BB500DBE2FF240CFB78DF7404F27D02121D4C8E
:010BC500220D
:1013CE00E4FFFE78A2E2640860028199FDED25E05B
:1013DE00248FF8E2FA08E22FFFEA3EFE0DEDB40884
:1013EE00ECEF7803CEC313CE13D8F9FF780CE224BA
:1013FE00F0FD18E234FFFCC3EF9DEE9C50037F001E
:10140E0022780CE22410FD18E23400FCD3EF9DEE9E
:10141E009C4015780EE224F0FD18E234FFFCC3EF79
:10142E009DEE9C50037F0122780EE22410FD18E2FF
:10143E003400FCD3EF9DEE9C40157810E224F0FDB5
:10144E0018E234FFFCC3EF9DEE9C50037F0222781E
:10145E0010E22410FD18E23400FCD3EF9DEE9C4008
:10146E00157812E224F0FD18E234FFFCC3EF9DEE76
:10147E009C50037F03227812E22410FD18E2340000
:0D148E00FCD3EF9DEE9C40037F04227FFF06
:01149B00222E
:1006B900EF702378D1F278D1E2FEC394084002E1C9
:1006C900E074AB2EF87418F274BB2EF8740CF2783F
:1006D900D1E204F280E0EF6401704678D1F278D17A
:1006E900E2FEC39402501574AB2EF874F8F274BB91
:1006F9002EF8740FF278D1E204F280E278D1740214
:10070900F278D1E2FEC394084002E1E074AB2EF81E
:100719007418F274BB2EF8740CF278D1E204F280EA
:10072900E0EF6402704678D1F278D1E2FEC3940416
:10073900501574AB2EF874F8F274BB2EF8740FF2DE
:1007490078D1E204F280E278D17404F278D1E2FE41
:10075900C394084002E1E074AB2EF87418F274BB3C
:100769002EF8740CF278D1E204F280E0EF640370A1
:100779004478D1F278D1E2FFC39406501574AB2FB7
:10078900F874F8F274BB2FF8740FF278D1E204F21E
:1007990080E278D17406F278D1E2FFC39408503729
:1007A90074AB2FF87418F274BB2FF8740CF278D16B
:1007B900E204F280E2E478D1F278D1E2FFC394084E
:1007C900501574AB2FF874F8F274BB2FF8740FF24C
:1007D90078D1E204F280E278DF7402F27BFE7A00DB
:0E07E90079A7081206B07B10E4FDFF021D4C3C
:101FD9001213CE78D0EFF2F4601AE2FF78A3E26F21
:101FE9006006EFF2FF1206B978D0E2780AF2E478D7
:041FF900A2F2D2AED0
:011FFD0022C1
:101215007809E2B4011FE4F2121F84E4781BF27826
:101225000512066978D47401F2120800E478A4F274
:1012350008F2781CF2121FD97800E2FF700241F81B
:101245006401704A7805120669EF2401FFE43EFE49
:10125500E43DFDE43CFC78051206827F9F7E867D99
:10126500017C007805120675D312065840147805DE
:1012750012068E00000000E478D4F2FFFEFDFC1299
:101285000800780512066978D47401F2805E78004A
:10129500E2B4032A78047406F278097401F2E4785A
:1012A500CBF278A374FFF278DF7402F27B40E4FDA1
:1012B500FF121EB2E478D4F2FFFEFDFC802E78000A
:1012C500E2B4042B78047407F278097401F2E47827
:1012D500CBF278A374FFF278DF7402F27B40E4FD71
:1012E500FF121EB2E478D4F2FFFEFDFC120800E402
:0412F5007800F22269
:040D100078D0EFF2B6
:100D14007BFF7A2179EE78D21206B07A2179F278C3
:100D2400D51206B07802E264016002C10378D0E211
:100D340064016002A1F608F278D1E2FE75F008A41D
:100D4400FD2406FFC007ED240EFBC00378DF740208
:100D5400F278D21206A7EEFF3395E08F82F5831264
:100D64000584FF3395E0FEEFC4F8540FC868FFEE26
:100D7400C454F048FE74C02FF974FE3EFA7BFF7829
:100D8400E01206B0D003D007E4FD121D4C78D1E286
:100D9400FE75F008A4FD2420FFC007ED2428FBC045
:100DA4000378DF7402F278D51206A7EEFF3395E0DC
:100DB4008F82F583120584FF3395E0FEEFC4F85467
:100DC4000FC868FFEEC454F048FE74C02FF974FED7
:100DD4003EFA7BFF78E01206B0D003D007E4FD12A0
:100DE4001D4C78D1E204F2E2C3648094835002A1E2
:100DF4003C2278DF7402F27B38E4FD7F068042787F
:100E0400D0E26401703078DF7402F27BFF7A0179FA
:100E14001E081206B07B20E4FD7F10121D4C78DF03
:100E24007402F27BFF7A01793E081206B07B30E44B
:100E3400FD7F20021D4C78DF7402F27B30E4FD7FDD
:040E440010121EB2B8
:010E48002287
:04149C0078D0EFF223
:1014A0007BFF7A2179F678D21206B07802E26401E5
:1014B000707978D0E26401706508F278D1E2FE7547
:1014C000F008A4FD240AFFC007ED2412FBC0037836
:1014D000DF7404F278D21206A7EEFF3395E08F8214
:1014E000F583120584FF3395E0FEEFC4F8540FC86E
:1014F00068FFEEC454F048FE74C02FF974FE3EFA43
:101500007BFF78E01206B0D003D0077D02121D4C9D
:1015100078D1E204F2E2C364809483409E2278DFB3
:101520007404F27B227D027F0A802978D0E2B40124
:101530001878DF7404F27BFF7A01799E081206B0F6
:101540007B1C7D027F0C021D4C78DF7404F27B1C37
:071550007D027F0C121EB2A8
:011557002271
:0415580078D0EFF266
:10155C007BFF7A2179FA78D21206B07802E2640124
:10156C00707978D0E26401706508F278D1E2FE758A
:10157C00F008A4FD2426FFC007ED242EFBC0037841
:10158C00DF7404F278D21206A7EEFF3395E08F8257
:10159C00F583120584FF3395E0FEEFC4F8540FC8B1
:1015AC0068FFEEC454F048FE74C02FF974FE3EFA86
:1015BC007BFF78E01206B0D003D0077D02121D4CE1
:1015CC0078D1E204F2E2C364809482409E2278DFF8
:1015DC007404F27B367D027F26802978D0E2B40138
:1015EC001878DF7404F27BFF7A0179BE081206B01A
:1015FC007B347D027F24021D4C78DF7404F27B3433
:07160C007D027F24121EB2D3
:0116130022B4
:1016CB007809E2B40111E4F27F01120D107F0112CF
:1016DB00149C7F011215587800E2FF605BB401196E
:1016EB0078CBE2700C7F0112149C78CB7401F280E2
:1016FB0043E478CBF27F0180387800E2C394024058
:10170B003378CBE27009780512068E000000007862
:10171B00047405F2E478CBF2788EF278A374FFF2BE
:10172B0078097401F2E4FF120D10E4FF12149CE42B
:10173B00FF121558E47800F2788EE2B4641278CB7D
:10174B00E27003FF801778CBE26401701EFF8018F4
:10175B00788EE2B4C81578CBE270057F0102149C39
:0C176B0078CBE2B401057F011215582272
:040E490078D0EFF27C
:100E4D007BFF7A2179EE78D21206B07A2179FD787E
:100E5D00D51206B07802E264016002E13C78D0E27E
:100E6D0064016002E12F08F278D1E2FE75F008A46A
:100E7D00FD2406FFC007ED240EFBC00378DF7402CE
:100E8D00F278D21206A7EEFF3395E08F82F583122A
:100E9D000584FF3395E0FEEFC4F8540FC868FFEEEC
:100EAD00C454F048FE74C02FF974FE3EFA7BFF78EF
:100EBD00E01206B0D003D007E4FD121D4C78D1E24C
:100ECD00FE75F008A4FD2420FFC007ED2428FBC00B
:100EDD000378DF7402F278D51206A7EEFF3395E0A2
:100EED008F82F583120584FF3395E0FEEFC4F8542D
:100EFD000FC868FFEEC454F048FE74C02FF974FE9D
:100F0D003EFA7BFF78E01206B0D003D007E4FD1265
:100F1D001D4C78D1E204F2E2C3648094835002C187
:100F2D00752278DF7402F27B38E4FD7F068042780B
:100F3D00D0E26401703078DF7402F27BFF7A0179C0
:100F4D005E081206B07B20E4FD7F10121D4C78DF89
:100F5D007402F27BFF7A01797E081206B07B30E4D1
:100F6D00FD7F20021D4C78DF7402F27B30E4FD7FA3
:040F7D0010121EB27E
:010F8100224D
:101823007809E2B40111E4F27F01120E497F01123B
:10183300149C7F011215587800E26054B4011C789F
:10184300CBE2700C7F0112149C78CB7401F2803CC4
:10185300E478CBF27F0112155880317800E2C3940B
:10186300024029E4FF120E49E4FF12149CE4FF1224
:10187300155878CBE278047003F280037405F2E420
:1018830078CBF2780904F278A374FFF2E47800F2DB
:10189300788EE2B4641278CBE27003FF801778CBC2
:1018A300E26401701EFF8018788EE2B4C81578CB0D
:1018B300E270057F0102149C78CBE2B401057F013D
:0418C3001215582280
:1022CD007804E224FC601014601014601014601087
:1022DD002406700F0218C7021A900212150216CBAF
:0422ED00121823227E
:03003B000207F7C2
:0407F70075EC00326B
:1021290043B38053B47FA2AF920075C7AA75C75550
:1021390075910143B18075C7AA75C755E4F591A298
:102149000092AF43E90143E98043EA8053EB7F43BF
:0B2159009B02D2AF43870253E9FE2235
:100BC6001223F51210001220547BFE7A007901E4FC
:100BD600FDFC7F0A120F82E478CBF2780904F2E476
:100BE60078C9F208F2788AF208F278A6F278A37445
:100BF600FFF23097FD1219F97801E2B4A5077804DF
:100C0600E2600281C9E47802F208F2780512068EE3
:100C160000000000780174A5F278047401F2E4780B
:100C26000AF278A374FFF27D017F0712227178DF42
:100C36007403F27BFF7A037970081206B07B147D89
:100C4600017F0C121D4C78DF7403F27BFF7A00796A
:100C56005E081206B07B247D017F14121D4C78DFDE
:100C66007403F27BFF7A047930081206B07B2C7D80
:100C7600017F24121D4C78DF7403F27BFF7A027920
:100C8600D0081206B07B347D017F2C121D4CE4780F
:100C9600C9F208F27819F20804F27817F218F2C3CA
:100CA60078CAE2949018E2940140F4E478C9F20814
:100CB600F2780904F278DF7403F27B347D017F0C4D
:100CC600121EB21222CDC378CAE294E818E2940347
:100CD600500261FB1223A97BFE7A007901E4FDFC38
:100CE6007F0A121C41E4F5B1F5B2F5B3F5B4F5ACE3
:100CF600F5AD53E1FE43B31043B410C2941221295B
:0A0D0600E478C9F208F2121F8422FB
:01000A0022D3
:10000E00A2AF9200C2AF75C7AA75C75543A401A28D
:10001E000092AFE59F30E613A2AF9200C2AF75C754
:0C002E00AA75C755539FBFA20092AF22D5
:0B19610078E7ECF208EDF2AB07AA06F5
:10196C00EB4A700221F8EBAE027807CEC313CE130C
:10197C00D8F979EAF3EE19F3EB547F600B78EAE2CD
:10198C002401F218E23400F2A2AF9200C2AF75C784
:10199C00AA75C755439F01A20092AF75AEFF75AFF4
:1019AC0062A2AF9200C2AF75C7AA75C75543A50214
:1019BC00A20092AFE4FDFCD378EAE29D18E29C40D1
:1019CC002BED75F080A4FF78E7E2FA08E2FB2FF527
:1019DC00A6EDAE047807C333CE33CED8F92BEA3E4E
:0C19EC00F5A712000E0DBD00010C80CB11
:0119F80022CC
:0B1B250078E7EEF208EFF2081206B0BD
:101B3000A2AF9200C2AF75C7AA75C755439F01A255
:101B40000092AFA2AF9200C2AF75C7AA75C7554346
:101B5000A502A20092AFEDF5A6ECF5A775AF61E482
:101B6000FFFED378E8E29F18E29E402078E9120653
:101B7000A78F828E83120584F5AE12000E05A6E5AE
:101B8000A6700205A70FBF00010E80D6A2AF92007B
:101B9000C2AF75C7AA75C75553A5FDA20092AFA2E3
:101BA000AF9200C2AF75C7AA75C755539FFEA2007A
:021BB00092AFF2
:011BB2002210
:0B1F1C0078E7EEF208EFF2081206B0C2
:101F2700A2AF9200C2AF75C7AA75C755439F01A25A
:101F37000092AFEDF5A6ECF5A775AF40E4FFFED331
:101F470078E8E29F18E29E402012000E78E9120618
:101F5700A78F828E83E5AE1205C305A6E5A670029C
:101F670005A70FBF00010E80D6A2AF9200C2AF75C2
:0C1F7700C7AA75C755539FFEA20092AF89
:011F8300223B
:0E0F820078D0EFF208ECF208EDF2081206B09B
:100F9000E478D6F278D6E2FDC39420503478D0E2DB
:100FA000FF7E00C007ED75F010A4FF78D2E22FFDA0
:100FB00018E235F0FC78D31206A7D007121F1C7870
:100FC000D31206A712056BB4A50778D6E204F28007
:100FD000C378D6E2602978D6E214F278D0E2FF7EB8
:100FE00000C00778D6E275F010A4FF78D2E22FFD9A
:0F0FF00018E235F0FC78D31206A7D007121F1CA9
:010FFF0022CF
:0E1C410078D0EFF208ECF208EDF2081206B0CF
:101C4F00E478E6F278E6E2FDC39420503078D0E2F3
:101C5F00FF7E00C007ED75F010A4FF78D2E22FFDD4
:101C6F0018E235F0FC7BFE7A0079D6D007121F1CE4
:101C7F0078D6E2B4A50778E6E204F280C778E6E208
:101C8F00B4201278D1E2FC08E2FD7F007E02121927
:101C9F0061E478E6F278D0E2FF7E00C00778E6E2F2
:101CAF0075F010A4FF78D2E22FFD18E235F0FC7822
:091CBF00D31206A7D007021B2571
:03219A0081CC00F5
:08248A0043B30243B402C29205
:07249200E4FFFEEF4E70FCB9
:012499002220
:10003E0053B3FB43B40443B30443B404D29253B357
:0D004E00FD43B40243B30243B402D2912239
:10247900D291D292122492C291122492C29202242F
:0124890092C0
:0A24B100C291D292122492D291221D
:02231400AD0713
:10231600E4FCED30E704D2918002C291ED25E0FDA8
:0F232600D292122492C2921224920CECB408E3C9
:012335002285
:032336001223145B
:1023390043B30253B4FDD29212249230910912246C
:0D234900B112248A7F012212248A7F002213
:10235600AC07AA05122479AF04122336AF02122362
:0C23660036AF031223141223390224B1F5
:0C249A00C291C292122492D292022492AB
:1022A100E4FDFC43B30253B4FDC292122492D292D4
:1022B100122492EC25E0FC3091010C0DEDB408E9FB
:0B22C10043B30243B40212249AAF049E
:0122CC0022EF
:07000300AE071FEE70FA22A8
:06220D00C280C283D280F2
:02221300AD0715
:10221500C2837F02120003E4FCED30E004D281802A
:1022250002C2817F01120003D2837F01120003C223
:0A22350083EDC313FD0CECB408DFC9
:01223F00227C
:10219E0053B1FD43B20243B10253B2FD7F021200AE
:1021AE0003E4FCEDC313FD3081034480FDD2837F35
:1021BE0001120003C2837F011200030CECB408E38A
:0821CE0053B1FD43B202AF055D
:0121D60022E6
:06244F00AA07E4FD7F8EE8
:0F245500AB0512220DAF03122213D283C28022D5
:0A24A60012220D12219ED283C28083
:0124B0002209
:1022F10012244F7F811224A6EA6006EF4480FF80FA
:1023010004EF547FFFAD077F801224557D807F8EBF
:032311000224554E
:101E460053B1F743B20853B1FD43B20253B1FE4357
:101E5600B201C283C281C2807FC11224A6EF64A8E8
:101E66006049122451E4FD7F801224557D207F8233
:101E76001224557D077F841224557D257F861224E2
:101E8600557D127F881224557D107F8A1224557D38
:101E9600067F8C122455E4FD7F901224557DA87F81
:0C1EA600C01224557D807F8E122455222E
:04246400120584FFDA
:10246800EF54F0C4540F75F00AA4FEEF540F2EFF7A
:012478002241
:04237200120584FFCD
:10237600E4FEEFC3940A400A74102EFE74F62FFF93
:0723860080F0EE4FFEAF06F0
:01238D00222D
:101614007F811224A6EF1205B17F831224A69000C5
:1016240001EF1205C37F851224A6900002EF120574
:10163400C37F871224A6900003EF1205C37F89128B
:1016440024A6900004EF1205C37F8B1224A69000F9
:1016540005EF1205C37F8D1224A6E42FFFE4342086
:101664009000068FF012061D12056BFF122468EF1E
:101674001205B1900001122464900001EF1205C319
:10168400900002122464900002EF1205C39000033C
:10169400122464900003EF1205C390000412246422
:1016A400900004EF1205C390000512246490000515
:1016B400EF1205C39000061205E5FF12246890009E
:0716C40006E48FF002061D91
:051BB30078CD1206B020
:101BB8001224517DFF7FC012245578CD1206A7123A
:101BC800056BFF122376AD077F8012245578CD125E
:101BD80006A7900001122372AD077F821224557860
:101BE800CD1206A7900002122372AD077F8412243B
:101BF8005578CD1206A7900003122372AD077F8691
:101C080012245578CD1206A7900004122372AD074E
:101C18007F8812245578CD1206A79000061205E594
:101C2800FF122376AD077F8C1224557DA87FC01242
:091C380024557D807F8E022455A5
:10240D0012244FAF02122376AD077F841224557D1F
:06241D00807F8E022455B1
:1024230012244FAF02122376AD077F821224557D0B
:06243300807F8E0224559B
:1024390012244FAF02122376AD077F801224557DF7
:06244900807F8E02245585
:030000000217776D
:1017770075C7AA75C75575FD5A75C7AA75C7557533
:10178700FDA5787FE4F6D8FD9000007FFF7E03E497
:0C179700F0A3DFFCDEFA7581200217DEF3
:1017A3000223DDE493A3F8E493A34003F68001F25C
:1017B30008DFF48029E493A3F85407240CC8C33347
:1017C300C4540F4420C8834004F456800146F6DF16
:1017D300E4800B0102040810204080902164E47E21
:1017E300019360BCA3FF543F30E509541FFEE4930B
:1017F300A360010ECF54C025E060A840B8E493A3D2
:10180300FAE493A3F8E493A3C8C582C8CAC583CAFC
:10181300F0A3C8C582C8CAC583CADFE9DEE780BEB4
:01219D000041
:10056B00BB010689828A83E0225002E722BBFE028E
:09057B00E32289828A83E49322C1
:10058400BB010CE58229F582E5833AF583E022502C
:1005940006E92582F8E622BBFE06E92582F8E22276
:0D05A400E58229F582E5833AF583E4932290
:1005B100BB010689828A83F0225002F722BBFE0129
:0205C100F32223
:1005C300F8BB010DE58229F582E5833AF583E8F06E
:1005D300225006E92582C8F622BBFE05E92582C81A
:0205E300F22202
:1005E500BB0110E58229F582E5833AF583E0F5F054
:1005F500A3E0225009E92582F886F008E622BBFE31
:100605000AE92582F8E2F5F008E222E5832AF58376
:08061500E993F5F0A3E993223B
:10061D00F8BB0111E58229F582E5833AF583E8F00F
:10062D00E5F0A3F0225009E92582C8F608A6F022CC
:0D063D00BBFE09E92582C8F2E5F008F222B3
:0E064A00C3EF9BFFEE9AFEED99FDEC98FC22AB
:10065800EB9FF5F0EA9E42F0E99D42F0E89C45F0F8
:01066800226F
:0C066900E2FC08E2FD08E2FE08E2FF22CD
:0D067500E2FB08E2F908E2FA08E2CBF82205
:0C068200ECF208EDF208EEF208EFF222B4
:10068E00D083D082E493F208740193F2087402933B
:09069E00F208740393F274047372
:0906A700E2FB08E2FA08E2F92284
:0906B000EBF208EAF208E9F2227B
:00000001FF
