:03000B0002274A7F
:10274A00C0E0C0F0C083C082C0D075D000C00075A0
:10275A008CE5758AF590005E7401F09000D1E00472
:10276A00F0E0D394C84002E4F090010EE475F00161
:10277A001210259000E7E475F0011210259000E38D
:10278A00E475F0011210259000CCE475F0011210E6
:0E279A0025D000D0D0D082D083D0F0D0E03255
:102BA8007589FF5389F0438901538EF7758CE57554
:092BB8008AF5D2A9D2AFD28C2219
:03005B00021D86FD
:101D8600C0E0C083C082C0D075D000C000C005C00E
:031D960006C0077D
:101D99009000E5E05407FF900111F0C2EFAEC3EEE9
:101DA900FDEF3395E0FEEF25E0FFEE33FE74D22F11
:101DB900F58274003EF583E4F0A3EDF074D22FF5BB
:101DC9008274003EF583C083C082A3E0C4F8540F37
:101DD900C868FF0582D5820215831582E0C454F0D4
:101DE90048D082D083F0A3EFF0900111E0FF339542
:101DF900E0FEEF25E0FFEE33FE74D22FF58274008A
:101E09003EF583C083C082E0FEA3E0FFE5C2540F24
:101E1900FDEF4DFFD082D083EEF0A3EFF09000E507
:0B1E2900E004F0E0C394084002C2AEE9
:101E3400D007D006D005D000D0D0D082D083D0E057
:011E4400326B
:1027A800E49000E5F07F109000D2E4F0A3DFFC4352
:1027B800DE0453E8F043E80343B14053B2BFE4F505
:1027C800F643F60843E10153E8DF43E81053E1F725
:1027D80053E1FB43E10275D10775D9FF75D4027542
:1027E800DCFFD2DED2DFD2AED2AF9000E5E0B40893
:0327F800F9D2AE65
:0127FB0022BB
:102BC100E4F5B1F5B2F5B3F5B4F5ACF5AD122BA85A
:082BD1001227A8120DF380FB8E
:10005E00000808080808080808080808080800002A
:10006E0040404141414141414141414141404000B7
:10007E000000F010101010FF10101010F000000013
:10008E0000000F04040404FF040404040F00000025
:10009E0008080838C808090E0808C83808080800F3
:1000AE008080404020110A040A11204040808000C8
:1000BE0090523410FF10345280708F0808F80800E8
:1000CE00829A566322528E008040330C3340800059
:1000DE00100C042424242526A464240404140C00E7
:1000EE00020202020242827F0202020202020200A7
:1000FE0002E282F212D752D25217FA12169A120056
:10010E00128E621F003F253DA74027182641F000A2
:10011E0000FC0000FF0004848484848484FC0000BE
:10012E00008740300F00202020202020207F00005C
:10013E00100C05555555857F8555555505140C00E4
:10014E000404020A09292A4C48A9190202040400CF
:10015E00101014D4545454FC525252D31210100096
:10016E00404050575555557F5555555750404000B6
:10017E00001715D55557557D555755D515170000F0
:10018E004040407F555555555555557F4040400090
:10019E000000007F494949494949497F0000000054
:1001AE008141211D214181FF8989898989818100B0
:1001BE0000028282422212FA06222242428200006B
:1001CE00010100FC44444445444444FC0000010049
:1001DE007E8181817E000082FF800000C6A1918910
:1001EE0086004281898976003028A6FFA0005F89AB
:1001FE00898971007C92898972000001F10D0300DA
:10020E007689898976004E9191493E0000C0300C66
:10021E00030000F804020204F800000304080804B6
:10022E00030000000404FE000000000008080F0890
:10023E000800001C020282423C00000C0A09080859
:10024E000C00000C024242A21C000006080808081E
:10025E000700008060100CFE000000010109090F6C
:10026E000909007E222222428200000608080804A4
:10027E00030000F844222224C000000304080808EA
:10028E00070000060282621A06000000000F00003E
:10029E000000001CA24242A21C0000070808080829
:1002AE000700007C82828244F800000004080804E3
:1002BE000300000000C0300E01000018060100000F
:1002CE0000000000C038E0000000203C230202279E
:1002DE00382008F8888888700000203F20202011E0
:1002EE000E00C0300808080838000718202020101B
:1002FE00080008F808080810E000203F2020201011
:10030E000F0008F88888E8081000203F20202320DE
:10031E00180008F88888E8081000203F2000030025
:10032E000000C03008080838000007182020221EE0
:10033E00020008F808000008F808203F21010121FA
:10034E003F20000808F8080800000020203F202069
:10035E00000000000808F8080800C08080807F00B8
:10036E00000008F888C028180800203F2001263811
:10037E00200008F8080000000000203F2020202068
:10038E00300008F8F800F8F80800203F013E013F61
:10039E00200008F830C00008F808203F2000071899
:1003AE003F00E01008080810E0000F102020201079
:1003BE000F0008F808080808F000203F210101018D
:1003CE000000E01008080810E0000F102828305038
:1003DE004F0008F8888888887000203F2000030CA2
:1003EE0030200070880808083800003820212122AB
:1003FE001C00180808F8080818000000203F20000C
:10040E00000008F808000008F808001F202020202F
:10041E001F000878880000C83808000007380E0151
:10042E00000008F800F800F8080000033E013E0343
:10043E000000081868808068180820302C03032CF0
:10044E0030200838C800C83808000000203F2000BF
:10045E00000010080808C83808002038262120207F
:10046E0018000000C0201018183060C000000000F6
:10047E00030306060606020100000000381C0203F4
:10048E0083FF3F01000000008040201C0F0300008E
:10049E00000020181C068787C63C1E0100000000C5
:1004AE000201010103070E18608010080E06422398
:1004BE0023B2EF0000000000000004020303061C3C
:1004CE00780040E0980C1E387060E0C0808000001C
:1004DE00010302060C0C08181010007CFEC06030E0
:1004EE00FCFE0301000000000000000000030F3CB2
:1004FE00408000F0FC0E020000000080C0400003AF
:10050E000F3040848CFE730100000000000080C09C
:10051E00C080061F1CF000080FC360203F2710107C
:10052E000C0300202030303078EEC3800000000035
:10053E00000000000000010738C0000000E0700C51
:10054E000672DE8C000000003FCF000000000001AC
:0D055E00010000303000000C0C00002400F3
:1016350053B3EF43B410C294E490010EF0A3F0C38A
:1016450090010FE0940290010EE0940040F1D294D5
:1016550012003EE490010EF0A3F0C390010FE09458
:101665000290010EE0940040F17BAEE4FD7F78121C
:101675002B3AE4FBFD7F78122B3A7B12E4FD7F7851
:10168500122B3AE4FBFD7F78122B3A7BB0E4FD7F09
:1016950078122B3A7B81E4FD7F78122B3A7BFFE4AD
:1016A500FD7F78122B3A7BA1E4FD7F78122B3A7BE4
:1016B500A6E4FD7F78122B3A7BA8E4FD7F78122BF8
:1016C5003A7B1FE4FD7F78122B3A7BC8E4FD7F78D7
:1016D500122B3A7BD3E4FD7F78122B3AE4FBFD7F96
:1016E50078122B3A7BD5E4FD7F78122B3A7B80E488
:1016F500FD7F78122B3A7BD9E4FD7F78122B3A7B5C
:101705001FE4FD7F78122B3A7BDAE4FD7F78122BFC
:101715003A7B12E4FD7F78122B3A7BDBE4FD7F7880
:10172500122B3A7B40E4FD7F78122B3A7B8DE4FD4A
:101735007F78122B3A7B14E4FD7F78122B3A7BAF2E
:0A174500E4FD7F78122B3A7F0022AA
:1029BC00EF2420900129F0ED24B0FBE4FD7F781288
:1029CC002B3A900129E054F0C4540F4410FBE4FD61
:1029DC007F78122B3A900129E0540FFBE4FD7F78AD
:0329EC00022B3A81
:102B72007B8DE4FD7F78122B3A7B14E4FD7F781283
:0B2B82002B3A7BAFE4FD7F78022B3A7A
:102B8D007B8DE4FD7F78122B3A7B10E4FD7F78126C
:0B2B9D002B3A7BAEE4FD7F78022B3A60
:10280000E4900112F0900112E0FFC39404503FEFF6
:1028100024B0FBE4FD7F78122B3AE4FBFD7F7812B5
:102820002B3A7B12E4FD7F78122B3A90011374202F
:10283000F0E4FB7D407F78122B3A900113E004F026
:0E284000E0C3946040EB900112E004F080B71A
:01284E002267
:0A25820090011EEFF0900120EBF035
:10258C00E4900122F0A3F0900121E0FF54077008C1
:10259C00EF131313541F800A900121E013131354EB
:1025AC001F04900125F0900125EDF0900121E0FF32
:1025BC00900125E0FDC39F503690011EE0FF1229CB
:1025CC00BC90011EE0900124F0900120E0FF9001EE
:1025DC0024E0C39F5011E4FB7D407F78122B3A908E
:0F25EC000124E004F080E2900125E004F080BCBF
:0125FB0022BD
:0A23DD0090011EEFF0900120EBF0DC
:1023E700E4900125F0A3F0900121E0FF5407700865
:1023F700EF131313541F800A900121E01313135492
:102407001F04900128F0900128EDF0900121E0FFD2
:10241700900128E0FDC39F504D90011EE0FF122957
:10242700BC90011EE0900127F0900120E0FF900191
:1024370027E0C39F502890012212112A900125E41A
:1024470075F00112103B85F082F583120FC4FB7DF6
:10245700407F78122B3A900127E004F080CB90015F
:0624670028E004F080A54E
:01246D00224C
:10291D00454E474C495348004E4F524D414C005483
:10292D0049424554414E0052535400434E540059B0
:10293D004553004E4F00444556001F1C1F1E1F1EC1
:06294D001F1F1E1F1E1FCC
:1024FA0041011000602000EC0000F8F818181818C4
:10250A0018181818F8F0E00000000F0F0C0C0C0C4B
:10251A000C0C0C0C0F07030060400014FFFF0303B0
:10252A000303030303030303030303030303030371
:10253A00030303030303FFFFF8F80000FFFFC0C013
:10254A00C0C0C0C0C0C0C0C0C0C0C0C0C0C0C0C081
:10255A00C0C0C0C0C0C0FFFF1F1F000048000C0859
:10256A00000880090009604100E6FF4100CE0041F1
:03257A00005C0002
:10298800E490010DF090010CF09000E2F09000CF7F
:10299800F0A3F0900001F043B38053B47F43AC013F
:1029A80053ADFE43B11053B2EF9000E9F0A3F0909D
:0429B8000000F02209
:1018000090005EE070022117E4F0A2973390010D82
:10181000F090010CE0FFA3E0FE6F606690010CEE1B
:10182000F09000CFE0FEA3E0FF4E70119000E2E0E8
:10183000D3940540089000017401F08038C3EF9400
:101840000AEE940040089000017404F08027900094
:10185000CFE0FEA3E0FFC39403EE940040089000A5
:10186000017403F0800FC3EF9402EE9400400690E1
:1018700000017402F0E49000E2F09000CFF0A3F0D9
:10188000801E90010DE0701E9000E2E004F0E0D3B5
:1018900094C8400BE4F09000CF75F001121025E4DD
:1018A00090010EF0A3F020B02DE49000E9F0A3F039
:1018B000900000E06401705FF09000CBE0900005C4
:1018C000F090000A7401F09001217403F07B307DE8
:1018D000017F10022582E490010EF0A3F09000E950
:1018E00075F001121025D39000EAE0940A9000E907
:1018F000E094004022E4F0A3740AF0900000E0704D
:101900001604F0900005E09000CBF09000057408FC
:08191000F090000A7401F022BE
:10289E00EF640170329001217402F07BFF7A0079AF
:1028AE007EA31211337B20E4FD7F101223DD9001F5
:1028BE00217402F07BFF7A00799EA31211337B30D4
:1028CE00E4FD7F200223DD9001217402F07B30E4D1
:0728DE00FD7F10122582228C
:10246E007BFF7A29791D900112121133EF640170EE
:10247E006C900115F0900115E0FE75F008A4FD2496
:10248E0004FFC007ED240CFBC0039001217404F07F
:10249E0090011212112AEEFF3395E08F82F583120E
:1024AE000FC4FF3395E0FEEFC4F8540FC868FFEE7B
:1024BE00C454F048FE74C02FF974FE3EFA7BFF90B0
:1024CE000122121133D003D0077D021223DD9001B9
:1024DE0015E004F0E0C364809487409922900121B6
:0B24EE007404F07B3C7D02FF1225828D
:0124F90022C0
:101F030090000AE0B40129E4F09001217403F07B0E
:101F1300347D017F0C1225827F0112289E7F0112DE
:101F2300246E900003E0900110F09000D174C8F08B
:101F3300900001E0605CB40125900110E07F017026
:101F43000B12289E9001107401F0800812246EE495
:101F5300900110F0900110E0900003F0802F9000AA
:101F630001E0C394024026900110E0900003F0903A
:101F730000057404F0E4900110F09000D1F090009B
:101F83000A04F0E4FF12246EE4FF12289EE490009A
:101F930001F09000D1E0B4640D900003E07003FF02
:101FA3008013E4FF80129000D1E0B4C80E900003C8
:0C1FB300E07F01700302289E12246E22C1
:06284F009001181210D5E3
:0628550090011E1210EDBF
:10285B00E4900126F0A3F09001221210D590011EF6
:10286B001210E1C31210C44021900126E475F0014F
:10287B0012102590011E1210D59001221210E11298
:10288B0010B690011E1210ED80CD900126E0FEA334
:02289B00E0FF5C
:01289D002218
:0628E5009001181210D54D
:1028EB0080219001221210D590011E1210E1C3120B
:1028FB0010C4401790011E1210D59001221210E146
:10290B001210B690011E1210ED80D790011E1210FE
:02291B00D522C3
:051A2D00900112EFF032
:101A32007BFF7A297925A3121133900003E0640118
:101A4200600241C8900112E06401706C900116F0CE
:101A5200900116E0FE75F008A4FD2408FFC007ED12
:101A62002410FBC0039001217402F09001131211A3
:101A72002AEEFF3395E08F82F583120FC4FF339570
:101A8200E0FEEFC4F8540FC868FFEEC454F048FEFD
:101A920074C02FF974FE3EFA7BFF900122121133BB
:101AA200D003D007E4FD1223DD900116E004F0E03C
:101AB200C3648094864099229001217402F07B389D
:101AC200E4FD7F088046900112E0640170329001CB
:101AD200217402F07BFF7A0079BEA31211337B20BE
:101AE200E4FD7F101223DD9001217402F07BFF7A66
:101AF2000079DEA31211337B30E4FD7F200223DD67
:0F1B02009001217402F07B30E4FD7F10122582E8
:011B110022B1
:05191800900112EFF048
:10191D007BFF7A29792CA3121133900003E0640127
:10192D00600221B1900112E06401706C900116F01B
:10193D00900116E0FE75F008A4FD2404FFC007ED2C
:10194D00240CFBC0039001217404F09001131211BB
:10195D002AEEFF3395E08F82F583120FC4FF339586
:10196D00E0FEEFC4F8540FC868FFEEC454F048FE13
:10197D0074C02FF974FE3EFA7BFF900122121133D1
:10198D00D003D0077D021223DD900116E004F0E0B4
:10199D00C3648094874099229001217404F07B3CAC
:1019AD007D028077900112E06401706490012174D2
:1019BD0004F07BFF7A0079FEA31211337B107D02B8
:1019CD00E4FF1223DD9001217404F07BFF7A00798E
:1019DD009EA31211337B207D027F101223DD900117
:1019ED00217404F07BFF7A0079BEA31211337B3092
:1019FD007D027F201223DD9001217404F07BFF7A9C
:101A0D000079DEA31211337B407D027F300223DD8E
:0F1A1D009001217404F07B407D02E4FF122582CA
:011A2C002297
:101E450090000AE0B4011AE4F07F01121A2D7F0117
:101E5500121918900004E0900110F09000D174C898
:101E6500F0900001E0605DB40126900110E07F0173
:101E7500B4010A121918E4900110F08009121A2D04
:101E85009001107401F0900110E0900004F0802F93
:101E9500900001E0C3940240269000057405F0907F
:101EA5000110E0900004F0E4900110F09000D1F0F2
:101EB50090000A04F0E4FF121A2DE4FF121918E449
:101EC500900001F09000D1E0B46414900110E0B4EA
:101ED5000104E4FF8019900110E07021FF801B9040
:101EE50000D1E0B4C817900110E0B401057F0102EC
:0E1EF5001918900110E070057F01121A2D22BD
:060800009001121210ED40
:10080600E490011CF0A3F0900116E0700F90012116
:100816007404F07B407D02E4FF02258290011212EF
:1008260010D59001181210ED900004E060024134DA
:1008360090011D740CF09001221210F9000027108F
:1008460012284F900117EFF09001221210F90000C4
:1008560027101228E5E4FCFD9001181210ED900116
:1008660017E0FF603475F010A42420F9740235F007
:10087600FA7BFF90012212113390011DE0FF24083C
:10088600FB9001217404F07D021223DD90011C749B
:1008960001F0A3E02408F0800790011DE02404F095
:1008A6009001221210F9000003E812284F90011758
:1008B600EFF09001221210F9000003E81228E5E497
:1008C600FCFD9001181210ED90011CE06401600619
:1008D600900117E0603A90011C7401F0900117E056
:1008E60075F010A42420F9740235F0FA7BFF90010C
:1008F6002212113390011DE0FF2408FB90012174A0
:1009060004F07D021223DD90011DE02408F080072B
:1009160090011DE02404F09001221210F90000005D
:100926006412284F900117EFF09001221210F9007F
:100936000000641228E5E4FCFD9001181210ED9009
:10094600011CE064016006900117E0603A90011C0A
:100956007401F0900117E075F010A42420F97402D8
:1009660035F0FA7BFF90012212113390011DE0FF52
:100976002408FB9001217404F07D021223DD90010E
:100986001DE02408F0800790011DE02404F090018A
:10099600221210F90000000A12284F900117EFF0FA
:1009A6009001221210F90000000A1228E5E4FCFD6D
:1009B6009001181210ED90011CE064016006900190
:1009C60017E0603A90011C7401F0900117E075F091
:1009D60010A42420F9740235F0FA7BFF900122124C
:1009E600113390011DE0FF2408FB9001217404F0EF
:1009F6007D021223DD90011DE02408F0800790019E
:100A06001DE02404F09001181210D5900117EFF0A4
:100A1600E075F010A42420F9740235F0FA7BFF90FB
:100A2600012212113390011DE0FF2408812A900152
:100A36001D7402F09001221210F9000027101228EE
:100A46004F900117EFF09001221210F900002710C5
:100A56001228E5E4FCFD9001181210ED900117E054
:100A6600FF603475F018A42470F9740435F0FA7B2D
:100A7600FF90012212113390011DE0FF240CFB9020
:100A860001217404F07D021223DD90011C7401F033
:100A9600A3E0240CF0800790011DE02406F09001ED
:100AA600221210F9000003E812284F900117EFF008
:100AB6009001221210F9000003E81228E5E4FCFD7B
:100AC6009001181210ED90011CE06401600690017F
:100AD60017E06038900117E075F018A42470F974D7
:100AE6000435F0FA7BFF90012212113390011DE0CC
:100AF600FF240CFB9001217404F07D021223DD908B
:100B0600011C7401F0A3E0240CF0800790011DE0A5
:100B16002406F09001221210F90000006412284FFA
:100B2600900117EFF09001221210F90000006412F4
:100B360028E5E4FCFD9001181210ED90011CE0641C
:100B4600016006900117E06038900117E075F01813
:100B5600A42470F9740435F0FA7BFF900122121177
:100B66003390011DE0FF240CFB9001217404F07DFD
:100B7600021223DD90011C7401F0A3E0240CF08026
:100B86000790011DE02406F09001221210F90000E2
:100B9600000A12284F900117EFF09001221210F967
:100BA6000000000A1228E5E4FCFD9001181210ED81
:100BB60090011CE064016006900117E06038900126
:100BC60017E075F018A42470F9740435F0FA7BFF69
:100BD60090012212113390011DE0FF240CFB9001BD
:100BE600217404F07D021223DD90011C7401F0A330
:100BF600E0240CF0800790011DE02406F090011817
:100C06001210D5900117EFF0E075F018A42470F9D2
:100C1600740435F0FA7BFF90012212113390011D06
:100C2600E0FF240CFB9001217404F07D021223DD09
:010C3600229B
:0713D400E49000CEF07F0160
:0513DB00900113EFF08A
:1013E000E4FFFE9000E5E064086002A10EF0FDED70
:1013F00025E024D2F582E43400F583E0FAA3E02F5F
:10140000FFEA3EFE0DEDB408E6EF7803CEC313CE3F
:1014100013D8F9FF9000CEE07043C3900013E09F13
:10142000900012E09E50037F0422C3900011E09FC1
:10143000900010E09E50037F0322C390000FE09FB6
:1014400090000EE09E50037F0222C390000DE09FAB
:1014500090000CE09E50037F01227F002290000C40
:10146000E0FCA3E0FD24F0FBEC34FFFAC3EF9BEEBD
:101470009A50037F0022ED2410FDE43CFCD3EF9D45
:10148000EE9C401890000FE024F0FD90000EE03438
:10149000FFFCC3EF9DEE9C50037F012290000FE004
:1014A0002410FD90000EE03400FCD3EF9DEE9C4034
:1014B00018900011E024F0FD900010E034FFFCC310
:1014C000EF9DEE9C50037F0222900011E02410FD5E
:1014D000900010E03400FCD3EF9DEE9C401890008B
:1014E00013E024F0FD900012E034FFFCC3EF9DEE0A
:1014F0009C50037F0322900013E02410FD90001203
:10150000E03400FCD3EF9DEE9C40037F04227FFF7C
:0115100022B8
:100C3700EF7032900113F0900113E0FEC394084067
:100C470002A1D674F02EF582E43400F5837418F00F
:100C570074002EF582E43401F583740CF0900113CF
:100C6700E004F080D2EF64017064900113F090010A
:100C770013E0FEC39402502274F02EF582E4340090
:100C8700F58374F8F074002EF582E43401F583746B
:100C97000FF0900113E004F080D49001137402F078
:100CA700900113E0FEC394084002A1D674F02EF51C
:100CB70082E43400F5837418F074002EF582E4346E
:100CC70001F583740CF0900113E004F080D2EF6417
:100CD700027064900113F0900113E0FEC394045076
:100CE7002274F02EF582E43400F58374F8F0740072
:100CF7002EF582E43401F583740FF0900113E004BC
:100D0700F080D49001137404F0900113E0FEC394B3
:100D1700084002A1D674F02EF582E43400F58374FE
:100D270018F074002EF582E43401F583740CF0900A
:100D37000113E004F080D2EF64037062900113F0B6
:100D4700900113E0FFC39406502274F02FF582E45C
:100D57003400F58374F8F074002FF582E43401F55C
:100D670083740FF0900113E004F080D490011374A2
:100D770006F0900113E0FFC39408505374F02FF569
:100D870082E43400F5837418F074002FF582E4349C
:100D970001F583740CF0900113E004F080D4E49023
:100DA7000113F0900113E0FFC39408502274F02F51
:100DB700F582E43400F58374F8F074002FF582E4CB
:100DC7003401F583740FF0900113E004F080D490A0
:100DD70000CE7401F090012104F07B017A0079ECD8
:0C0DE700A31211337B10E4FDFF0223DD9A
:102A7A00E4FF1213DB900112EFF0F4601DE0FF9007
:102A8A0000E6E06F6005EFF0120C37900112E0905B
:0A2A9A00000BF0E49000E5F0D2AE6E
:012AA400220F
:1015110090000AE064017046F01227A8E490005C94
:10152100F09000061210D59001167401F012080017
:1015310090000BE0B4FF081213D490000BEFF09071
:10154100000BE0FF9000E6F0120C37E49000E7F0AA
:10155100A3F090005DF09000D1F09000CEF0122A3F
:101561007A900001E0FF7002C13464017051900073
:10157100061210D5EF2401FFE43EFEE43DFDE43CFC
:10158100FC9000061210ED7F9F7E867D017C00900D
:1015910000061210E1D31210C4401690000612107A
:1015A100F900000000E4900116F0FFFEFDFC1208B6
:1015B100009000061210D59001167401F0806C9015
:1015C1000001E0B403309000057406F090000A7445
:1015D10001F0E4900110F09000E674FFF090012119
:1015E1007402F07B40E4FDFF122582E4900116F0C5
:1015F100FFFEFDFC8035900001E0B4043190000550
:101601007407F090000A7401F0E4900110F090006A
:10161100E674FFF09001217402F07B40E4FDFF12BB
:101621002582E4900116F0FFFEFDFC120800E49013
:041631000001F022A2
:05113C00900112EFF02C
:101141007BFF7A2979349001141211337A29793885
:10115100900117121133900003E064016002413ED7
:10116100900112E0640160024130A3F0900113E0AC
:10117100FE75F008A4FD2406FFC007ED240EFBC098
:10118100039001217402F090011412112AEEFF3331
:1011910095E08F82F583120FC4FF3395E0FEEFC413
:1011A100F8540FC868FFEEC454F048FE74C02FF91C
:1011B10074FE3EFA7BFF900122121133D003D00757
:1011C100E4FD1223DD900113E0FE75F008A4FD2477
:1011D10020FFC007ED2428FBC0039001217402F019
:1011E10090011712112AEEFF3395E08F82F58312D9
:1011F1000FC4FF3395E0FEEFC4F8540FC868FFEE4B
:10120100C454F048FE74C02FF974FE3EFA7BFF907F
:101211000122121133D003D007E4FD1223DD900126
:1012210013E004F0E0C3648094835002216D2290A6
:1012310001217402F07B38E4FD7F068046900112A3
:10124100E0640170329001217402F07BFF7A017930
:101251001EA31211337B20E4FD7F101223DD9001C8
:10126100217402F07BFF7A01793EA31211337B30A6
:10127100E4FD7F200223DD9001217402F07B30E444
:06128100FD7F1012258222
:011287002244
:05072900900112EFF049
:10072E007BFF7A29793C900114121133900003E07B
:10073E0064016002E1C4900112E06401706AA3F0EA
:10074E00900113E0FE75F008A4FD240AFFC007ED2A
:10075E002412FBC0039001217404F09001141211B5
:10076E002AEEFF3395E08F82F583120FC4FF339587
:10077E00E0FEEFC4F8540FC868FFEEC454F048FE14
:10078E0074C02FF974FE3EFA7BFF900122121133D2
:10079E00D003D0077D021223DD900113E004F0E0B8
:1007AE00C3648094834099229001217404F07B22CB
:1007BE007D027F0A802C900112E0B4011990012174
:1007CE007404F07BFF7A01799EA31211337B1C7D9A
:1007DE00027F0C0223DD9001217404F07B1C7D024C
:0507EE007F0C122582C2
:0107F30022E3
:051BF500900112EFF069
:101BFA007BFF7A297940900114121133900003E097
:101C0A00640160028190900112E06401706AA3F09D
:101C1A00900113E0FE75F008A4FD2426FFC007ED2D
:101C2A00242EFBC0039001217404F09001141211B8
:101C3A002AEEFF3395E08F82F583120FC4FF3395A6
:101C4A00E0FEEFC4F8540FC868FFEEC454F048FE33
:101C5A0074C02FF974FE3EFA7BFF900122121133F1
:101C6A00D003D0077D021223DD900113E004F0E0D7
:101C7A00C3648094824099229001217404F07B36D7
:101C8A007D027F26802C900112E0B4011990012177
:101C9A007404F07BFF7A0179BEA31211337B347D81
:101CAA00027F240223DD9001217404F07B347D023B
:051CBA007F24122582C9
:011CBF002202
:101CC00090000AE0B40117E4F07F0112113C7F019B
:101CD0001207297F01121BF59000D174C8F0900003
:101CE00001E0FF6067B4011C900110E0700D7F01FE
:101CF0001207299001107401F0804CE4900110F05B
:101D00007F018040900001E0C39402403A900110AE
:101D1000E0700A9000061210F90000000090000523
:101D20007405F0E4900110F09000D1F09000E6749A
:101D3000FFF090000A7401F0E4FF12113CE4FF127E
:101D40000729E4FF121BF5E4900001F09000D1E0B8
:101D5000B46414900110E07003FF801A900110E049
:101D600064017021FF801B9000D1E0B4C81790017E
:101D700010E070057F01020729900110E0B4010511
:061D80007F01121BF52299
:05128800900112EFF0DF
:10128D007BFF7A2979349001141211337A2979432D
:10129D00900117121133900003E064016002618A1E
:1012AD00900112E064016002617CA3F0900113E0F3
:1012BD00FE75F008A4FD2406FFC007ED240EFBC04B
:1012CD00039001217402F090011412112AEEFF33E4
:1012DD0095E08F82F583120FC4FF3395E0FEEFC4C6
:1012ED00F8540FC868FFEEC454F048FE74C02FF9CF
:1012FD0074FE3EFA7BFF900122121133D003D0070A
:10130D00E4FD1223DD900113E0FE75F008A4FD2429
:10131D0020FFC007ED2428FBC0039001217402F0CB
:10132D0090011712112AEEFF3395E08F82F583128B
:10133D000FC4FF3395E0FEEFC4F8540FC868FFEEFD
:10134D00C454F048FE74C02FF974FE3EFA7BFF9032
:10135D000122121133D003D007E4FD1223DD9001D9
:10136D0013E004F0E0C364809483500241B92290ED
:10137D0001217402F07B38E4FD7F06804690011256
:10138D00E0640170329001217402F07BFF7A0179E3
:10139D005EA31211337B20E4FD7F101223DD90013B
:1013AD00217402F07BFF7A01797EA31211337B3019
:1013BD00E4FD7F200223DD9001217402F07B30E4F7
:0613CD00FD7F10122582D5
:0113D30022F7
:1020000090000AE0B40117E4F07F011212887F010A
:102010001207297F01121BF59000D174C8F09000BF
:1020200001E0605EB4011F900110E0700D7F0112AD
:1020300007299001107401F08043E4900110F07FB3
:1020400001121BF58037900001E0C39402402EE49A
:10205000FF121288E4FF120729E4FF121BF590011A
:1020600010E09000057003F080037405F0E4900127
:1020700010F090000A04F09000E674FFF0E4900085
:1020800001F09000D1E0B46414900110E07003FFFF
:10209000801A900110E064017021FF801B9000D134
:1020A000E0B4C817900110E070057F010207299085
:0C20B0000110E0B401057F01121BF522B5
:10056B00EF7032900113F0900113E0FEC39418402A
:10057B0002E10A74162EF582E43400F5837403F05D
:10058B0074362EF582E43400F58374C0F0900113B9
:10059B00E004F080D2EF64017064900113F09001DD
:1005AB0013E0FEC39406502274162EF582E4340039
:1005BB00F58374FFF074362EF582E43400F5837402
:1005CB00FFF0900113E004F080D49001137406F057
:1005DB00900113E0FEC394184002E10A74162EF545
:1005EB0082E43400F5837403F074362EF582E43420
:1005FB0000F58374C0F0900113E004F080D2EF6437
:10060B00027064900113F0900113E0FEC3940C5040
:10061B002274162EF582E43400F58374FFF07436E1
:10062B002EF582E43400F58374FFF0900113E0049F
:10063B00F080D4900113740CF0900113E0FEC3947E
:10064B00184002E10A74162EF582E43400F5837427
:10065B0003F074362EF582E43400F58374C0F09009
:10066B000113E004F080D2EF64037062900113F089
:10067B00900113E0FFC39412502274162FF582E4FD
:10068B003400F58374FFF074362FF582E43400F5F3
:10069B008374FFF0900113E004F080D49001137485
:1006AB0012F0900113E0FFC39418505374162FF5FA
:1006BB0082E43400F5837403F074362FF582E4344E
:1006CB0000F58374C0F0900113E004F080D4E49043
:1006DB000113F0900113E0FFC39418502274162FEE
:1006EB00F582E43400F58374FFF074362FF582E461
:1006FB003400F58374FFF0900113E004F080D49084
:10070B0000CE7401F09001217403F07B017A007923
:0E071B0014A31211337B307D017F100223DD09
:1025FC0090000AE064017032F09001217404F07BC9
:10260C0040E4FDFF1225821227A890000BE0B4FFD6
:10261C00081213D490000BEFF090000BE0FF900029
:10262C00E6F012056BE49000D1F0900001E060023E
:10263C00E4F09000D1E064C8702A7F011213DB90A3
:10264C000112EFF0F4601DE0FF9000E6E06F600512
:10265C00EFF012056B900112E090000BF0E490008B
:04266C00E5F0D2AE15
:012670002247
:102AA500900005E024FC6013146013146013146097
:102AB5001314601324077012021F03021E4502152A
:0B2AC50011021CC00220001225FC22A0
:03003B00020006BA
:0400060075EC003263
:0300030002000AEE
:01000A0032C3
:0300130002000EDA
:01000E0032BF
:1029530043AC0153ADFEA2AF920075C7AA75C7552C
:1029630075910143AC0175C7AA75C755E4F591A2EA
:102973000092AF43E90453EAFE43EB0143E9034307
:052983009B02D2AF220F
:102AD00043B38053B47FA2AF920075C7AA75C755A0
:102AE00075910143B38075C7AA75C755E4F591A2E6
:082AF0000092AFD2AAD2AF227E
:102C4500122953122AD043870253E9FEC2A8C2AA09
:042C5500539BFD226E
:100DF300539BFD1229881216351228007B017A00B5
:100E03007902E4FDFC7F0A122173E4900110F09053
:100E1300000A04F0E490010EF0A3F09000CCF0A3DC
:100E2300F09000EBF09000CEF09000E674FFF0122B
:100E330027A8A2B0E433FF1213DB90000BEFF030CE
:100E430097FD121800900002E0B4A508900005E099
:100E53006002E14DE4900003F0A3F090000612104D
:100E6300F90000000090000274A5F09000057401E1
:100E7300F090000B74FFF09000E6F07D017F071205
:100E830029BC9001217403F07BFF7A037970A312CC
:100E930011337B147D017F0C1223DD900121740338
:100EA300F07BFF7A00795EA31211337B247D017FEF
:100EB300141223DD9001217403F07BFF7A0479304F
:100EC300A31211337B2C7D017F241223DD9001219A
:100ED3007403F07BFF7A0279D0A31211337B347D44
:100EE300017F2C1223DDE490010EF0A3F090005A51
:100EF300F0A304F0900058F0900057F0E4FDFCFFDD
:100F03007E021222167D007C027F007E02122216D0
:100F13001227A8A2B0E433FF1213DB90000BEFF00B
:100F2300C390010FE0949090010EE0940140F1E42E
:100F330090010EF0A3F090000A04F09001217403D5
:100F4300F07B347D017F0C122582122AA5C3900108
:100F53000FE094E890010EE094035002C145122B78
:100F63008D900005E0FF64066004EFB4070690006F
:100F7300057405F07B017A007902E4FDFC7F0A1217
:100F83001B12E4F5B1F5B2F5B3F5B4F5ACF5AD5319
:100F9300E1FE43B31043B410C294122C45E4900114
:080FA3000EF0A3F01227A822B2
:01000F0022CE
:102A2200A2AF9200C2AF75C7AA75C75543A401A24F
:102A32000092AFE59F30E613A2AF9200C2AF75C716
:0C2A4200AA75C755539FBFA20092AF2297
:0C22160090012AECF0A3EDF0AB07AA0643
:10222200EB4A700241B4EBAE027807CEC313CE1371
:10223200D8F9FF90012CEEF0A3EFF0EB547F600A87
:1022420090012CE475F001121025A2AF9200C2AFEA
:1022520075C7AA75C755439F01A20092AF75AEFF1D
:1022620075AF62A2AF9200C2AF75C7AA75C75543D8
:10227200A502A20092AFE4FDFCD390012DE09D9057
:10228200012CE09C402CED75F080A4FF90012AE027
:10229200FAA3E0FB2FF5A6EDAE047807C333CE33E5
:1022A200CED8F92BEA3EF5A7122A220DBD00010C69
:0222B20080C7E3
:0122B4002207
:0C234A0090012AEEF0A3EFF0A312113373
:10235600A2AF9200C2AF75C7AA75C755439F01A227
:102366000092AFA2AF9200C2AF75C7AA75C7554318
:10237600A502A20092AFEDF5A6ECF5A775AF61E454
:10238600FFFED390012BE09F90012AE09E40219012
:10239600012C12112A8F828E83120FC4F5AE122AD7
:1023A6002205A6E5A6700205A70FBF00010E80D282
:1023B600A2AF9200C2AF75C7AA75C75553A5FDA2B5
:1023C6000092AFA2AF9200C2AF75C7AA75C75553A8
:0623D6009FFEA20092AF81
:0123DC0022DE
:0C26710090012AEEF0A3EFF0A312113349
:10267D00A2AF9200C2AF75C7AA75C755439F01A2FD
:10268D000092AFEDF5A6ECF5A775AF40E4FFFED3D4
:10269D0090012BE09F90012AE09E4021122A22906A
:1026AD00012C12112A8F828E83E5AE12100305A61E
:1026BD00E5A6700205A70FBF00010E80D2A2AF9252
:1026CD0000C2AF75C7AA75C755539FFEA20092AF42
:0126DD0022DA
:0F217300900112EFF0A3ECF0A3EDF0A3121133E3
:10218200E4900118F0900118E0FDC39420503B90B8
:102192000112E0FF7E00C007ED75F010A4FF900170
:1021A20014E02FFD900113E035F0FC90011512119F
:1021B2002AD00712267190011512112A120FABB400
:1021C200A508900118E004F080BB900118E070139C
:1021D200C3900113E09402503A740275F000121099
:1021E20025809D900118E014F0900112E0FF7E001E
:1021F200C007900118E075F010A4FF900114E02FC1
:10220200FD900113E035F0FC90011512112AD00760
:0322120012267120
:0122150022A6
:0F1B1200900112EFF0A3ECF0A3EDF0A31211334A
:101B2100E4900128F0900128E0FDC3942050369004
:101B31000112E0FF7E00C007ED75F010A4FF9001D7
:101B410014E02FFD900113E035F0FC7B017A01795F
:101B510018D007122671900118E0B4A50890012849
:101B6100E004F080C0900128E0A3F0B420149001BB
:101B710013E0FCA3E0FD7F007E02122216E4900137
:101B810028F0900112E0FF7E00C007900128E07567
:101B9100F010A4FF900114E02FFD900113E035F047
:101BA100FC90011512112AD00712234A900129E055
:101BB100B420107D007C027F007E02122216E49088
:101BC1000129F0900112E0FF7E00C007900129E099
:101BD10075F010A4FF900114E02FFF900113E03580
:101BE100F0CF2400FDEF3402FC90011512112AD030
:041BF1000702234A7A
:04257D0041013200E6
:082C6A0043B30243B402C2921D
:072C7200E4FFFEEF4E70FCD1
:012C79002238
:10003E0053B3FB43B40443B30443B404D29253B357
:0D004E00FD43B40243B30243B402D2912239
:102C5900D291D292122C72C291122C72C292022C6F
:012C690072F8
:0A2C8500C291D292122C72D2912259
:022AF800AD0728
:102AFA00E4FCED30E704D2918002C291ED25E0FDBD
:0F2B0A00D292122C72C292122C720CECB408E30D
:012B19002299
:032B1A00122AF884
:102B1D0043B30253B4FDD292122C72309109122C90
:0D2B2D0085122C6A7F0122122C6A7F002283
:102B3A00AC07AA05122C59AF04122B1AAF02122B9A
:0C2B4A001AAF03122AF8122B1D022C8572
:0C07F400C291C292122C72D292022C729E
:102A4E00E4FDFC43B30253B4FDC292122C72D29237
:102A5E00122C72EC25E0FC3091010C0DEDB408E95E
:0B2A6E0043B30243B4021207F4AF04AC
:012A7900223A
:071FF800AE071FEE70FA2294
:0629EF00C280C283D28009
:0229F500AD072C
:1029F700C2837F02121FF8E4FCED30E004D281802D
:102A070002C2817F01121FF8D2837F01121FF8C211
:0A2A170083EDC313FD0CECB408DFDF
:012A21002292
:101FBF0053B1FD43B20243B10253B2FD7F02121F70
:101FCF00F8E4FCEDC313FD3081034480FDD2837F21
:101FDF0001121FF8C2837F01121FF80CECB408E343
:081FEF0053B1FD43B202AF053E
:011FF70022C7
:062C1B00AA07E4FD7F8E14
:0F2C2100AB051229EFAF031229F5D283C280222F
:0A2C7A001229EF121FBFD283C2809F
:012C8400222D
:10001600122C1B7F81122C7AEA6006EF4480FF8047
:1000260004EF547FFFAD077F80122C217D807F8EE9
:03003600022C2178
:1026DE0053B1F743B20853B1FD43B20253B1FE43B7
:1026EE00B201C283C281C2807FC1122C7AEF64A86C
:1026FE006049122C1DE4FD7F80122C217D207F82EB
:10270E00122C217D077F84122C217D257F86122C91
:10271E00217D127F88122C217D107F8A122C217D23
:10272E00067F8C122C21E4FD7F90122C217DA87F38
:0C273E00C0122C217D807F8E122C2122E5
:042C3000120FC4FFBC
:102C3400EF54F0C4540F75F00AA4FEEF540F2EFFA6
:012C4400226D
:042B5600120FC4FF97
:102B5A00E4FEEFC3940A400A74102EFE74F62FFFA7
:072B6A0080F0EE4FFEAF0604
:012B71002241
:1020BC007F81122C7AEF120FF17F83122C7A900011
:1020CC0001EF1210037F85122C7A900002EF121090
:1020DC00037F87122C7A900003EF1210037F891272
:1020EC002C7A900004EF1210037F8B122C7A900044
:1020FC0005EF1210037F8D122C7AE42FFFE43420AD
:10210C009000068FF0121089120FABFF122C34EFD7
:10211C00120FF1900001122C30900001EF121003FD
:10212C00900002122C30900002EF1210039000036A
:10213C00122C30900003EF121003900004122C307C
:10214C00900004EF121003900005122C3090000543
:10215C00EF121003900006121051FF122C34900055
:07216C0006E48FF002108968
:0622B50090012F1211330D
:1022BB00122C1D7DFF7FC0122C2190012F12112A91
:1022CB00120FABFF122B5AAD077F80122C219001FE
:1022DB002F12112A900001122B56AD077F82122C60
:1022EB002190012F12112A900002122B56AD077F5D
:1022FB0084122C2190012F12112A900003122B56BD
:10230B00AD077F86122C2190012F12112A90000409
:10231B00122B56AD077F88122C2190012F12112AF8
:10232B00900006121051FF122B5AAD077F8C122C06
:0F233B00217DA87FC0122C217D807F8E022C2156
:102BD900122C1BAF02122B5AAD077F84122C217DB8
:062BE900807F8E022C210A
:102BEF00122C1BAF02122B5AAD077F82122C217DA4
:062BFF00807F8E022C21F4
:102C0500122C1BAF02122B5AAD077F80122C217D8F
:062C1500807F8E022C21DD
:0300000002174F95
:10174F0075C7AA75C75575FD5A75C7AA75C755755B
:10175F00FDA5787FE4F6D8FD9000007FFF7E03E4BF
:0C176F00F0A3DFFCDEFA7581200217B643
:10177B00022BC1E493A3F8E493A34003F68001F298
:10178B0008DFF48029E493A3F85407240CC8C3336F
:10179B00C4540F4420C8834004F456800146F6DF3E
:1017AB00E4800B01020408102040809024FAE47EB0
:1017BB00019360BCA3FF543F30E509541FFEE49333
:1017CB00A360010ECF54C025E060A840B8E493A3FA
:1017DB00FAE493A3F8E493A3C8C582C8CAC583CA25
:1017EB00F0A3C8C582C8CAC583CADFE9DEE780BEDD
:012581000059
:100FAB00BB010689828A83E0225002E722BBFE0244
:090FBB00E32289828A83E4932277
:100FC400BB010CE58229F582E5833AF583E02250E2
:100FD40006E92582F8E622BBFE06E92582F8E2222C
:0D0FE400E58229F582E5833AF583E4932246
:100FF100BB010689828A83F0225002F722BBFE01DF
:02100100F322D8
:10100300F8BB010DE58229F582E5833AF583E8F023
:10101300225006E92582C8F622BBFE05E92582C8CF
:02102300F222B7
:10102500C5F0F8A3E028F0C5F0F8E5821582700256
:061035001583E038F022F3
:10103B00A3F8E0C5F025F0F0E58215827002158368
:06104B00E0C838F0E822C5
:10105100BB0110E58229F582E5833AF583E0F5F0DD
:10106100A3E0225009E92582F886F008E622BBFEBA
:101071000AE92582F8E2F5F008E222E5832AF58300
:08108100E993F5F0A3E99322C5
:10108900F8BB0111E58229F582E5833AF583E8F099
:10109900E5F0A3F0225009E92582C8F608A6F02256
:0D10A900BBFE09E92582C8F2E5F008F2223D
:0E10B600C3EF9BFFEE9AFEED99FDEC98FC2235
:1010C400EB9FF5F0EA9E42F0E99D42F0E89C45F082
:0110D40022F9
:0C10D500E0FCA3E0FDA3E0FEA3E0FF228E
:0C10E100E0F8A3E0F9A3E0FAA3E0FB2292
:0C10ED00ECF0A3EDF0A3EEF0A3EFF02276
:1010F900A8828583F0D083D08212111012111012A8
:101109001110121110E473E493A3C583C5F0C583CC
:10111900C8C582C8F0A3C583C5F0C583C8C582C840
:0111290022A3
:09112A00E0FBA3E0FAA3E0F922C6
:09113300EBF0A3EAF0A3E9F022BD
:00000001FF
