:03000B000229CDFA
:1029CD00C0E0C0F0C083C082C0D075D000C000751B
:1029DD008CE5758AF590005E7401F09000D6E004E8
:1029ED00F0E0D394C84002E4F0900123E475F001C7
:1029FD001213F49000FCE475F0011213F49000F83A
:102A0D00E475F0011213F49000CEE475F001121389
:102A1D00F49000CBE475F0011213F4D000D0D0D0B7
:082A2D0082D083D0F0D0E0322A
:102D7E007589FF5389F0438901538EF7758CE5757C
:092D8E008AF5D2A9D2AFD28C2241
:03005B0002200080
:10200000C0E0C083C082C0D075D000C000C005C091
:0320100006C00700
:102013009000FAE0FF900126F0C2EFAEC3EEFDEFB1
:102023003395E0FEEF25E0FFEE33FE74D72FF58204
:1020330074003EF583E4F0A3EDF074D72FF58274BA
:10204300003EF583C083C082A3E0C4F8540FC86880
:10205300FF0582D5820215831582E0C454F048D06F
:1020630082D083F0A3EFF0900126E0FF3395E0FEEA
:10207300EF25E0FFEE33FE74D72FF58274003EF5B3
:1020830083C083C082E0FEA3E0FFE5C2540FFDEFEF
:102093004DFFD082D083EEF0A3EFF09000FAE0047E
:0920A300F0E0C394104002C2AE4B
:1020AC00D007D006D005D000D0D0D082D083D0E0DD
:0120BC0032F1
:1017A300E49000FAF07F209000D7E4F0A3DFFC433D
:1017B300DE0453E8F043E80343B14053B2BFE4F51A
:1017C300F643F60843E10153E8DF43E81053E1F73A
:1017D30053E1FB43E10275D10775D9FF75D4027557
:1017E300DCFFD2DED2DFD2AED2AF9000FAE0C394F8
:0517F3001040F7D2AE2A
:0117F80022CE
:102D9700E4F5B1F5B2F5B3F5B4F5ACF5AD122D7EAA
:082DA7001217A312056B80FB5B
:10005E00000808080808080808080808080800002A
:10006E0040404141414141414141414141404000B7
:10007E000000F010101010FF10101010F000000013
:10008E0000000F04040404FF040404040F00000025
:10009E0008080838C808090E0808C83808080800F3
:1000AE008080404020110A040A11204040808000C8
:1000BE0090523410FF10345280708F0808F80800E8
:1000CE00829A566322528E008040330C3340800059
:1000DE00100C042424242526A464240404140C00E7
:1000EE00020202020242827F0202020202020200A7
:1000FE0002E282F212D752D25217FA12169A120056
:10010E00128E621F003F253DA74027182641F000A2
:10011E0000FC0000FF0004848484848484FC0000BE
:10012E00008740300F00202020202020207F00005C
:10013E00100C05555555857F8555555505140C00E4
:10014E000404020A09292A4C48A9190202040400CF
:10015E00101014D4545454FC525252D31210100096
:10016E00404050575555557F5555555750404000B6
:10017E00001715D55557557D555755D515170000F0
:10018E004040407F555555555555557F4040400090
:10019E000000007F494949494949497F0000000054
:1001AE008141211D214181FF8989898989818100B0
:1001BE0000028282422212FA06222242428200006B
:1001CE00010100FC44444445444444FC0000010049
:1001DE007E8181817E000082FF800000C6A1918910
:1001EE0086004281898976003028A6FFA0005F89AB
:1001FE00898971007C92898972000001F10D0300DA
:10020E007689898976004E9191493E0000C0300C66
:10021E00030000F804020204F800000304080804B6
:10022E00030000000404FE000000000008080F0890
:10023E000800001C020282423C00000C0A09080859
:10024E000C00000C024242A21C000006080808081E
:10025E000700008060100CFE000000010109090F6C
:10026E000909007E222222428200000608080804A4
:10027E00030000F844222224C000000304080808EA
:10028E00070000060282621A06000000000F00003E
:10029E000000001CA24242A21C0000070808080829
:1002AE000700007C82828244F800000004080804E3
:1002BE000300000000C0300E01000018060100000F
:1002CE0000000000C038E0000000203C230202279E
:1002DE00382008F8888888700000203F20202011E0
:1002EE000E00C0300808080838000718202020101B
:1002FE00080008F808080810E000203F2020201011
:10030E000F0008F88888E8081000203F20202320DE
:10031E00180008F88888E8081000203F2000030025
:10032E000000C03008080838000007182020221EE0
:10033E00020008F808000008F808203F21010121FA
:10034E003F20000808F8080800000020203F202069
:10035E00000000000808F8080800C08080807F00B8
:10036E00000008F888C028180800203F2001263811
:10037E00200008F8080000000000203F2020202068
:10038E00300008F8F800F8F80800203F013E013F61
:10039E00200008F830C00008F808203F2000071899
:1003AE003F00E01008080810E0000F102020201079
:1003BE000F0008F808080808F000203F210101018D
:1003CE000000E01008080810E0000F102828305038
:1003DE004F0008F8888888887000203F2000030CA2
:1003EE0030200070880808083800003820212122AB
:1003FE001C00180808F8080818000000203F20000C
:10040E00000008F808000008F808001F202020202F
:10041E001F000878880000C83808000007380E0151
:10042E00000008F800F800F8080000033E013E0343
:10043E000000081868808068180820302C03032CF0
:10044E0030200838C800C83808000000203F2000BF
:10045E00000010080808C83808002038262120207F
:10046E0018000000C0201018183060C000000000F6
:10047E00030306060606020100000000381C0203F4
:10048E0083FF3F01000000008040201C0F0300008E
:10049E00000020181C068787C63C1E0100000000C5
:1004AE000201010103070E18608010080E06422398
:1004BE0023B2EF0000000000000004020303061C3C
:1004CE00780040E0980C1E387060E0C0808000001C
:1004DE00010302060C0C08181010007CFEC06030E0
:1004EE00FCFE0301000000000000000000030F3CB2
:1004FE00408000F0FC0E020000000080C0400003AF
:10050E000F3040848CFE730100000000000080C09C
:10051E00C080061F1CF000080FC360203F2710107C
:10052E000C0300202030303078EEC3800000000035
:10053E00000000000000010738C0000000E0700C51
:10054E000672DE8C000000003FCF000000000001AC
:0D055E00010000303000000C0C00002400F3
:10192A0053B3EF43B410C294E4900123F0A3F0C37D
:10193A00900124E09402900123E0940040F1D294B3
:10194A0012003EE4900123F0A3F0C3900124E09436
:10195A0002900123E0940040F17BAEE4FD7F78120F
:10196A002D10E4FBFD7F78122D107B12E4FD7F78A9
:10197A00122D10E4FBFD7F78122D107BB0E4FD7F61
:10198A0078122D107B81E4FD7F78122D107BFFE405
:10199A00FD7F78122D107BA1E4FD7F78122D107B3C
:1019AA00A6E4FD7F78122D107BA8E4FD7F78122D26
:1019BA00107B1FE4FD7F78122D107BC8E4FD7F7831
:1019CA00122D107BD3E4FD7F78122D10E4FBFD7FEE
:1019DA0078122D107BD5E4FD7F78122D107B80E4E0
:1019EA00FD7F78122D107BD9E4FD7F78122D107BB4
:1019FA001FE4FD7F78122D107BDAE4FD7F78122D2B
:101A0A00107B12E4FD7F78122D107BDBE4FD7F78DA
:101A1A00122D107B40E4FD7F78122D107B8DE4FDA2
:101A2A007F78122D107B14E4FD7F78122D107BAF86
:0A1A3A00E4FD7F78122D107F0022DA
:102B9400EF242090013EF0ED24B0FBE4FD7F781299
:102BA4002D1090013EE054F0C4540F4410FBE4FD9A
:102BB4007F78122D1090013EE0540FFBE4FD7F78E6
:032BC400022D10CF
:102D48007B8DE4FD7F78122D107B14E4FD7F7812D3
:0B2D58002D107BAFE4FD7F78022D10F2
:102D63007B8DE4FD7F78122D107B10E4FD7F7812BC
:0B2D73002D107BAEE4FD7F78022D10D8
:101FB000E4900127F0900127E0FFC39404503FEF25
:101FC00024B0FBE4FD7F78122D10E4FBFD7F781236
:101FD0002D107B12E4FD7F78122D109001287420C3
:101FE000F0E4FB7D407F78122D10900128E004F092
:0E1FF000E0C3946040EB900127E004F080B75E
:011FFE0022C0
:0A280000900133EFF0900135EBF08A
:10280A00E4900137F0A3F0900136E0FF5407700816
:10281A00EF131313541F800A900136E01313135455
:10282A001F0490013AF090013AEDF0900136E0FF72
:10283A0090013AE0FDC39F5036900133E0FF122B1E
:10284A0094900133E0900139F0900135E0FF900156
:10285A0039E0C39F5011E4FB7D407F78122D109020
:0F286A000139E004F080E290013AE004F080BC14
:01287900223C
:0A269800900133EFF0900135EBF0F4
:1026A200E490013AF0A3F0900136E0FF540770087D
:1026B200EF131313541F800A900136E013131354BF
:1026C2001F0490013DF090013DEDF0900136E0FFD6
:1026D20090013DE0FDC39F504D900133E0FF122B6E
:1026E20094900133E090013CF0900135E0FF9001BD
:1026F2003CE0C39F50289001371214F990013AE44C
:1027020075F00112140A85F082F583121393FB7D92
:10271200407F78122D1090013CE004F080CB9001B4
:062722003DE004F080A57B
:01272800228E
:102AF500454E474C495348004E4F524D414C0054AA
:102B050049424554414E0052535400434E540059D6
:102B15004553004E4F00444556001F1C1F1E1F1EE7
:062B25001F1F1E1F1E1FF2
:1024DA0041012500602001010000F8F818181818B9
:1024EA0018181818F8F0E00000000F0F0C0C0C0C6C
:1024FA000C0C0C0C0F07030060400014FFFF0303D1
:10250A000303030303030303030303030303030391
:10251A00030303030303FFFFF8F80000FFFFC0C033
:10252A00C0C0C0C0C0C0C0C0C0C0C0C0C0C0C0C0A1
:10253A00C0C0C0C0C0C0FFFF1F1F000048000C0879
:10254A004008A0090009604100FBFF4100D000419A
:10255A00005C004200CB00004200D400004100D3DE
:01256A000070
:102B6000E4900122F0900121F09000F7F09000D164
:102B7000F0A3F0900001F043B38053B47F43AC0165
:102B800053ADFE43B11053B2EF9000FEF0A3F090AE
:042B90000000F0222F
:101A440090005EE07002615BE4F0A29733900122A3
:101A5400F0900121E0FFA3E0FE6F6066900121EEAB
:101A6400F09000D1E0FEA3E0FF4E70119000F7E08B
:101A7400D3940540089000017401F08038C3EF94BA
:101A84000AEE940040089000017404F0802790004E
:101A9400D1E0FEA3E0FFC39403EE9400400890005D
:101AA400017403F0800FC3EF9402EE94004006909B
:101AB40000017402F0E49000F7F09000D1F0A3F07C
:101AC400801E900122E0701E9000F7E004F0E0D345
:101AD40094C8400BE4F09000D175F0011213F4E4C3
:101AE400900123F0A3F020B02DE49000FEF0A3F0C9
:101AF400900000E06401705FF09000CDE09000057C
:101B0400F090000A7401F09001367403F07B307D8C
:101B1400017F10022800E4900123F0A3F09000FE5E
:101B240075F0011213F4D39000FFE0940A9000FEC4
:101B3400E094004022E4F0A3740AF0900000E07006
:101B44001604F0900005E09000CDF09000057408B4
:081B5400F090000A7401F02278
:1027B500EF640170329001367402F07BFF7A007984
:1027C5007EA31215027B20E4FD7F1012269890014E
:1027D500367402F07BFF7A00799EA31215027B30D6
:1027E500E4FD7F200226989001367402F07B30E4E8
:0727F500FD7F1012280022F5
:102729007BFF7A2A79F5900127121502EF6401706F
:102739006C90012AF090012AE0FE75F008A4FD24AE
:1027490004FFC007ED240CFBC0039001367404F0AC
:102759009001271214F9EEFF3395E08F82F5831269
:102769001393FF3395E0FEEFC4F8540FC868FFEEEA
:10277900C454F048FE74C02FF974FE3EFA7BFF90F2
:102789000137121502D003D0077D02122698900155
:102799002AE004F0E0C364809487409922900136CE
:0B27A9007404F07B3C7D02FF1228004E
:0127B4002202
:1020BD0090000AE0B40129E4F09001367403F07B3E
:1020CD00347D017F0C1228007F011227B57F01128C
:1020DD002729900003E0900125F09000D674C8F0F8
:1020ED00900001E0605CB40125900125E07F017056
:1020FD000B1227B59001257401F08008122729E4F1
:10210D00900125F0900125E0900003F0802F9000C4
:10211D0001E0C394024026900125E0900003F09069
:10212D0000057404F0E4900125F09000D6F09000C5
:10213D000A04F0E4FF122729E4FF1227B5E490000A
:10214D0001F09000D6E0B4640D900003E07003FF41
:10215D008013E4FF80129000D6E0B4C80E90000307
:0C216D00E07F0170030227B51227292231
:062A350090012D1214A413
:062A3B009001331214BCEF
:102A4100E490013BF0A3F09001371214A4900133FC
:102A51001214B0C3121493402190013BE475F001AC
:102A61001213F49001331214A49001371214B0120E
:102A710014859001331214BC80CD90013BE0FEA37C
:022A8100E0FF74
:012A83002230
:062ABD0090012D1214A48B
:102AC30080219001371214A49001331214B0C31261
:102AD300149340179001331214A49001371214B0C9
:102AE3001214859001331214BC80D7900133121451
:022AF300A4221B
:050F1000900127EFF045
:100F15007BFF7A2A79FDA3121502900003E0640194
:100F25006002E1AB900127E06401706C90012BF049
:100F350090012BE0FE75F008A4FD2408FFC007ED25
:100F45002410FBC0039001367402F090012812149E
:100F5500F9EEFF3395E08F82F583121393FF3395F6
:100F6500E0FEEFC4F8540FC868FFEEC454F048FE25
:100F750074C02FF974FE3EFA7BFF900137121502FB
:100F8500D003D007E4FD12269890012BE004F0E091
:100F9500C3648094864099229001367402F07B38B0
:100FA500E4FD7F088046900127E0640170329001DE
:100FB500367402F07BFF7A0079BEA31215027B20FE
:100FC500E4FD7F101226989001367402F07BFF7ABB
:100FD5000079DEA31215027B30E4FD7F20022698FE
:0F0FE5009001367402F07B30E4FD7F101228007B
:010FF40022DA
:051B5C00900127EFF0ED
:101B61007BFF7A2B7904A3121502900003E0640134
:101B7100600261F5900127E06401706C90012BF027
:101B810090012BE0FE75F008A4FD2404FFC007EDD1
:101B9100240CFBC0039001367404F0900128121448
:101BA100F9EEFF3395E08F82F583121393FF33959E
:101BB100E0FEEFC4F8540FC868FFEEC454F048FECD
:101BC10074C02FF974FE3EFA7BFF900137121502A3
:101BD100D003D0077D0212269890012BE004F0E09B
:101BE100C3648094874099229001367404F07B3C51
:101BF1007D028077900127E0640170649001367462
:101C010004F07BFF7A0079FEA31215027B107D029E
:101C1100E4FF1226989001367404F07BFF7A007974
:101C21009EA31215027B207D027F1012269890013F
:101C3100367404F07BFF7A0079BEA31215027B3063
:101C41007D027F201226989001367404F07BFF7A82
:101C51000079DEA31215027B407D027F30022698B7
:0F1C61009001367404F07B407D02E4FF122800EE
:011C70002251
:10073F0090000AE0B4011AE4F07F01120F107F015C
:10074F00121B5C900004E0900125F09000D674C855
:10075F00F0900001E0605DB40126900125E07F017B
:10076F00B4010A121B5CE4900125F08009120F10EE
:10077F009001257401F0900125E0900004F0802F86
:10078F00900001E0C3940240269000057405F0909C
:10079F000125E0900004F0E4900125F09000D6F0E0
:1007AF0090000A04F0E4FF120F10E4FF121B5CE448
:1007BF00900001F09000D6E0B46414900125E0B4ED
:1007CF000104E4FF8019900125E07021FF801B9048
:1007DF0000D6E0B4C817900125E0B401057F0102EF
:0E07EF001B5C900125E070057F01120F1022A7
:060800009001271214BC58
:10080600E4900131F0A3F090012BE0700F900136D7
:100816007404F07B407D02E4FF0228009001271259
:1008260014A490012D1214BC900004E0600241341F
:10083600900132740CF09001371214C80000271092
:10084600122A3590012CEFF09001371214C80000DF
:100856002710122ABDE4FCFD90012D1214BC900154
:100866002CE0FF603475F010A42420F9740235F0F2
:10087600FA7BFF900137121502900132E0FF24083F
:10088600FB9001367404F07D0212269890013174B3
:1008960001F0A3E02408F08007900132E02404F080
:1008A6009001371214C8000003E8122A3590012C73
:1008B600EFF09001371214C8000003E8122ABDE4D5
:1008C600FCFD90012D1214BC900131E0640160061C
:1008D60090012CE0603A9001317401F090012CE017
:1008E60075F010A42420F9740235F0FA7BFF90010C
:1008F60037121502900132E0FF2408FB900136748E
:1009060004F07D02122698900132E02408F0800758
:10091600900132E02404F09001371214C800000060
:1009260064122A3590012CEFF09001371214C8009A
:10093600000064122ABDE4FCFD90012D1214BC9047
:100946000131E06401600690012CE0603A900131CB
:100956007401F090012CE075F010A42420F97402C3
:1009660035F0FA7BFF900137121502900132E0FF55
:100976002408FB9001367404F07D0212269890013B
:1009860032E02408F08007900132E02404F0900160
:10099600371214C80000000A122A3590012CEFF015
:1009A6009001371214C80000000A122ABDE4FCFDAB
:1009B60090012D1214BC900131E064016006900193
:1009C6002CE0603A9001317401F090012CE075F052
:1009D60010A42420F9740235F0FA7BFF9001371237
:1009E6001502900132E0FF2408FB9001367404F0F2
:1009F6007D02122698900132E02408F080079001CB
:100A060032E02404F090012D1214A490012CEFF092
:100A1600E075F010A42420F9740235F0FA7BFF90FB
:100A26000137121502900132E0FF2408812A900155
:100A3600327402F09001371214C800002710122AEF
:100A46003590012CEFF09001371214C800002710E2
:100A5600122ABDE4FCFD90012D1214BC90012CE07D
:100A6600FF603475F018A42470F9740435F0FA7B2D
:100A7600FF900137121502900132E0FF240CFB9023
:100A860001367404F07D021226989001317401F04B
:100A9600A3E0240CF08007900132E02406F09001D8
:100AA600371214C8000003E8122A3590012CEFF023
:100AB6009001371214C8000003E8122ABDE4FCFDB9
:100AC60090012D1214BC900131E064016006900182
:100AD6002CE0603890012CE075F018A42470F974AD
:100AE6000435F0FA7BFF900137121502900132E0CF
:100AF600FF240CFB9001367404F07D0212269890B8
:100B060001317401F0A3E0240CF08007900132E07B
:100B16002406F09001371214C800000064122A352A
:100B260090012CEFF09001371214C80000006412F7
:100B36002ABDE4FCFD90012D1214BC900131E06445
:100B460001600690012CE0603890012CE075F018E9
:100B5600A42470F9740435F0FA7BFF90013712155E
:100B660002900132E0FF240CFB9001367404F07D04
:100B7600021226989001317401F0A3E0240CF08053
:100B860007900132E02406F09001371214C80000E5
:100B9600000A122A3590012CEFF09001371214C882
:100BA6000000000A122ABDE4FCFD90012D1214BCBF
:100BB600900131E06401600690012CE060389001FC
:100BC6002CE075F018A42470F9740435F0FA7BFF54
:100BD600900137121502900132E0FF240CFB9001C0
:100BE600367404F07D021226989001317401F0A348
:100BF600E0240CF08007900132E02406F090012DED
:100C06001214A490012CEFF0E075F018A42470F9EA
:100C1600740435F0FA7BFF90013712150290013209
:100C2600E0FF240CFB9001367404F07D0212269836
:010C3600229B
:050C3700900128EFF020
:100C3C00E4A3F0A3F079FF9000FAE0C39410500203
:100C4C00E10DC2AEE4F0FFEF04FEEEC39410505D74
:100C5C00EE25E024D7F582E43400F583E0FCA3E034
:100C6C00FD900129ECF0A3EDF0EF25E024D7F582FF
:100C7C00E43400F583E0FAA3E0FBC39DEA9C502A20
:100C8C00EE25E024D7F582E43400F583EAF0A3EBFB
:100C9C00F0900129E0FCA3E0FDEF25E024D7F582DC
:100CAC00E43400F583ECF0A3EDF00E809D0FEFB46F
:100CBC001095E4900129F0A3F07F04EF25E024D7F0
:100CCC00F582E43400F583E0FCA3E0FD900129EC0F
:100CDC008DF01213F40FEFB40CE1900129E0FEA398
:100CEC00E07803CEC313CE13D8F9F0EE900129F0BF
:100CFC00900128E0B40109A374FF75F0E01213F41D
:100D0C009000D4E0FEA3E0FF4E700D900129E0FDB1
:100D1C00A3E09000D4CD8077EF2405FFE43EFE9055
:100D2C000129E0FCA3E0FDD39FEC9E40099000D488
:100D3C00E475F001801CED2405FFE43CFE9000D42A
:100D4C00E0FCA3E0FDD39FEC9E400D9000D474FF1B
:100D5C00F5F01213F47FFF2290012AE02DFF900191
:100D6C0029E03CC313FEEF13FFEEF0A3EFF090016C
:100D7C0028E0B401209000D4E0FEA3E0FF9001290C
:100D8C00E0FCA3E0FDD39FEC9E40249000D4ECF05B
:100D9C00A3EDF0801A900129E0FEA3E0FFD39000B0
:100DAC00D5E09F9000D4E09E4005EEF0A3EFF090CC
:100DBC0000D0E0705E900012E0FEA3E0FF9000D443
:100DCC00E0FCA3E0FDD39FEC9E40047904E1089085
:100DDC000010E0FEA3E0FFD3ED9FEC9E40047903EE
:100DEC00E10890000EE0FEA3E0FF9000D4E0FCA32D
:100DFC00E0FDD39FEC9E40047902E10890000CE0EA
:100E0C00FEA3E0FFD3ED9FEC9E40047901E108E4E2
:100E1C00F9E10890000CE0FEA3E0FF24F8FDEE34AD
:100E2C00FFFC9000D4E0FAA3E0FBC39DEA9C5004C5
:100E3C00E4F9C1EEEF2408FFE43EFED3EB9FEA9EFB
:100E4C00401F90000FE024F8FF90000EE034FFFEEE
:100E5C00C39000D5E09F9000D4E09E50047901C16E
:100E6C00EE90000FE02408FF90000EE03400FE909E
:100E7C0000D4E0FCA3E0FDD39FEC9E401990001140
:100E8C00E024F8FF900010E034FFFEC3ED9FEC9ED1
:100E9C0050047902804C900011E02408FF9000105F
:100EAC00E03400FE9000D4E0FCA3E0FDD39FEC9E68
:100EBC004019900013E024F8FF900012E034FFFE7C
:100ECC00C3ED9FEC9E500479038017900013E0242F
:100EDC0008FF900012E03400FED3ED9FEC9E400220
:100EEC0079049000FBE0FF6960129000D3E004F0FD
:100EFC00E0C394055004A90780078000E49000D358
:030F0C00F0AF0142
:010F0F0022BF
:1011BE00EF7032900128F0900128E0FEC3940840B1
:1011CE0002615D74052EF582E43401F5837418F026
:1011DE0074152EF582E43401F583740CF090012819
:1011EE00E004F080D2EF64017064900128F0900169
:1011FE0028E0FEC39402502274052EF582E43401D9
:10120E00F58374F8F074152EF582E43401F58374C9
:10121E000FF0900128E004F080D49001287402F0C1
:10122E00900128E0FEC394084002615D74052EF51E
:10123E0082E43401F5837418F074152EF582E434CB
:10124E0001F583740CF0900128E004F080D2EF6475
:10125E00027064900128F0900128E0FEC3940450BF
:10126E002274052EF582E43401F58374F8F07415BA
:10127E002EF582E43401F583740FF0900128E0041A
:10128E00F080D49001287404F0900128E0FEC394FD
:10129E00084002615D74052EF582E43401F5837415
:1012AE0018F074152EF582E43401F583740CF09069
:1012BE000128E004F080D2EF64037062900128F000
:1012CE00900128E0FFC39406502274052FF582E4A6
:1012DE003401F58374F8F074152FF582E43401F5BA
:1012EE0083740FF0900128E004F080D490012874EC
:1012FE0006F0900128E0FFC39408505374052FF5B3
:10130E0082E43401F5837418F074152FF582E434F9
:10131E0001F583740CF0900128E004F080D4E49081
:10132E000128F0900128E0FFC39408502274052F85
:10133E00F582E43401F58374F8F074152FF582E428
:10134E003401F583740FF0900128E004F080D490FE
:10135E0000D07401F090013604F07B017A0179011E
:0C136E00A31215027B10E4FDFF0226987C
:102C7D00E4FF120C37900127EFF0F4601BE0FF909A
:102C8D0000FBE06F6005EFF01211BE900127E090A0
:082C9D00000BF0E49000FAF0D6
:012CA500220C
:1018000090000AE06401704CF01217A3E490005CB1
:10181000F09000061214A490012B7401F01208003D
:1018200090000BE0B4FF0EE49000D0F0FF120C37F4
:1018300090000BEFF090000BE0FF9000FBF0121116
:10184000BEE49000FCF0A3F090005DF09000D6F0B4
:101850009000D0F0122C7D900001E0FF7002212951
:10186000640170519000061214A4EF2401FFE43EBD
:10187000FEE43DFDE43CFC9000061214BC7F9F7E1C
:10188000867D017C009000061214B0D312149340A0
:10189000169000061214C800000000E490012BF01E
:1018A000FFFEFDFC1208009000061214A490012B0C
:1018B0007401F0806C900001E0B403309000057476
:1018C00006F090000A7401F0E4900125F09000FB0E
:1018D00074FFF09001367402F07B40E4FDFF1228A3
:1018E00000E490012BF0FFFEFDFC8035900001E04C
:1018F000B404319000057407F090000A7401F0E41C
:10190000900125F09000FB74FFF09001367402F016
:101910007B40E4FDFF122800E490012BF0FFFEFD68
:0A192000FC120800E4900001F02220
:05150B00900127EFF044
:101510007BFF7A2B790C9001291215027A2B791016
:1015200090012C121502900003E064016002C10DCD
:10153000900127E064016002A1FFA3F0900128E080
:10154000FE75F008A4FD2406FFC007ED240EFBC0C5
:10155000039001367402F09001291214F9EEFF3362
:1015600095E08F82F583121393FF3395E0FEEFC46D
:10157000F8540FC868FFEEC454F048FE74C02FF949
:1015800074FE3EFA7BFF900137121502D003D0079C
:10159000E4FD122698900128E0FE75F008A4FD24D1
:1015A00020FFC007ED2428FBC0039001367402F031
:1015B00090012C1214F9EEFF3395E08F82F583121F
:1015C0001393FF3395E0FEEFC4F8540FC868FFEEA5
:1015D000C454F048FE74C02FF974FE3EFA7BFF90AD
:1015E0000137121502D003D007E4FD1226989001AE
:1015F00028E004F0E0C3648094835002A13C229070
:1016000001367402F07B38E4FD7F068046900127A6
:10161000E0640170329001367402F07BFF7A017948
:101620001EA31215027B20E4FD7F10122698900164
:10163000367402F07BFF7A01793EA31215027B30EB
:10164000E4FD7F200226989001367402F07B30E49E
:06165000FD7F10122800CE
:011656002271
:051D5400900127EFF0F3
:101D59007BFF7A2B7914900129121502900003E078
:101D690064016002A1EF900127E06401706AA3F0A9
:101D7900900128E0FE75F008A4FD240AFFC007EDD4
:101D89002412FBC0039001367404F0900129121447
:101D9900F9EEFF3395E08F82F583121393FF3395A4
:101DA900E0FEEFC4F8540FC868FFEEC454F048FED3
:101DB90074C02FF974FE3EFA7BFF900137121502A9
:101DC900D003D0077D02122698900128E004F0E0A4
:101DD900C3648094834099229001367404F07B2275
:101DE9007D027F0A802C900127E0B4011990013609
:101DF9007404F07BFF7A01799EA31215027B1C7D86
:101E0900027F0C0226989001367404F07B1C7D0237
:051E19007F0C122800FF
:011E1E0022A1
:051E1F00900127EFF027
:101E24007BFF7A2B7918900129121502900003E0A8
:101E340064016002C1BA900127E06401706AA3F0F2
:101E4400900128E0FE75F008A4FD2426FFC007EDEC
:101E5400242EFBC0039001367404F090012912145F
:101E6400F9EEFF3395E08F82F583121393FF3395D8
:101E7400E0FEEFC4F8540FC868FFEEC454F048FE07
:101E840074C02FF974FE3EFA7BFF900137121502DD
:101E9400D003D0077D02122698900128E004F0E0D8
:101EA400C3648094824099229001367404F07B3696
:101EB4007D027F26802C900127E0B4011990013621
:101EC4007404F07BFF7A0179BEA31215027B347D82
:101ED400027F240226989001367404F07B347D023C
:051EE4007F241228001C
:011EE90022D6
:101EEA0090000AE0B40117E4F07F0112150B7F019C
:101EFA00121D547F01121E1F9000D674C8F0900064
:101F0A0001E0FF6067B4011C900125E0700D7F01BC
:101F1A00121D549001257401F0804CE4900125F0C3
:101F2A007F018040900001E0C39402403A9001256D
:101F3A00E0700A9000061214C80000000090000524
:101F4A007405F0E4900125F09000D6F09000FB743F
:101F5A00FFF090000A7401F0E4FF12150BE4FF127F
:101F6A001D54E4FF121E1FE4900001F09000D6E019
:101F7A00B46414900125E07003FF801A900125E0F3
:101F8A0064017021FF801B9000D6E0B4C81790014D
:101F9A0025E070057F01021D54900125E0B401057A
:061FAA007F01121E1F2240
:05165700900127EFF0F7
:10165C007BFF7A2B790C9001291215027A2B791BBE
:10166C0090012C121502900003E064016002E15914
:10167C00900127E064016002E14BA3F0900128E0A7
:10168C00FE75F008A4FD2406FFC007ED240EFBC078
:10169C00039001367402F09001291214F9EEFF3315
:1016AC0095E08F82F583121393FF3395E0FEEFC420
:1016BC00F8540FC868FFEEC454F048FE74C02FF9FC
:1016CC0074FE3EFA7BFF900137121502D003D0074F
:1016DC00E4FD122698900128E0FE75F008A4FD2484
:1016EC0020FFC007ED2428FBC0039001367402F0E4
:1016FC0090012C1214F9EEFF3395E08F82F58312D2
:10170C001393FF3395E0FEEFC4F8540FC868FFEE57
:10171C00C454F048FE74C02FF974FE3EFA7BFF905F
:10172C000137121502D003D007E4FD122698900160
:10173C0028E004F0E0C3648094835002C1882290B6
:10174C0001367402F07B38E4FD7F06804690012759
:10175C00E0640170329001367402F07BFF7A0179FB
:10176C005EA31215027B20E4FD7F101226989001D7
:10177C00367402F07BFF7A01797EA31215027B305E
:10178C00E4FD7F200226989001367402F07B30E451
:06179C00FD7F1012280081
:0117A2002224
:1021790090000AE0B40117E4F07F011216577F01BD
:10218900121D547F01121E1F9000D674C8F09000D2
:1021990001E0605EB4011F900125E0700D7F01121E
:1021A9001D549001257401F08043E4900125F07FCE
:1021B90001121E1F8037900001E0C39402402EE4F3
:1021C900FF121657E4FF121D54E4FF121E1F90015F
:1021D90025E09000057003F080037405F0E4900198
:1021E90025F090000A04F09000FB74FFF0E49000E1
:1021F90001F09000D6E0B46414900125E07003FF6B
:10220900801A900125E064017021FF801B9000D69F
:10221900E0B4C817900125E070057F01021D5490B4
:0C2229000125E0B401057F01121E1F22F8
:10100000EF7032900128F0900128E0FEC394184060
:1010100002219F74162EF582E43400F5837403F0E8
:1010200074362EF582E43400F58374C0F090012804
:10103000E004F080D2EF64017064900128F0900128
:1010400028E0FEC39406502274162EF582E4340084
:10105000F58374FFF074362EF582E43400F5837462
:10106000FFF0900128E004F080D49001287406F08D
:10107000900128E0FEC394184002219F74162EF5BB
:1010800082E43400F5837403F074362EF582E43480
:1010900000F58374C0F0900128E004F080D2EF6482
:1010A000027064900128F0900128E0FEC3940C5077
:1010B0002274162EF582E43400F58374FFF0743642
:1010C0002EF582E43400F58374FFF0900128E004EB
:1010D000F080D4900128740CF0900128E0FEC394B5
:1010E000184002219F74162EF582E43400F58374B3
:1010F00003F074362EF582E43400F58374C0F0906A
:101100000128E004F080D2EF64037062900128F0BF
:10111000900128E0FFC39412502274162FF582E448
:101120003400F58374FFF074362FF582E43400F553
:101130008374FFF0900128E004F080D490012874BB
:1011400012F0900128E0FFC39418505374162FF545
:1011500082E43400F5837403F074362FF582E434AE
:1011600000F58374C0F0900128E004F080D4E4908E
:101170000128F0900128E0FFC39418502274162F24
:10118000F582E43400F58374FFF074362FF582E4C1
:101190003400F58374FFF0900128E004F080D490CF
:1011A00000D07401F09001367403F07B017A00796D
:0E11B00014A31215027B307D017F10022698D9
:10287A0090000AE064017039F09001367404F07B2C
:10288A0040E4FDFF1228001217A390000BE0B4FFEA
:10289A000FE49000D0F07F01120C3790000BEFF09C
:1028AA0090000BE0FF9000FBF0121000E49000D6BD
:1028BA00F0900001E06002E4F09000D6E064C87095
:1028CA00287F01120C37900127EFF0F4601BE0FF1C
:1028DA009000FBE06F6005EFF0121000900127E016
:0928EA0090000BF0E49000FAF0FC
:0128F30022C2
:102C5200900005E024FC60131460131460131460E8
:102C620013146013240770120220BD02073F0218DA
:0B2C720000021EEA02217912287A22DB
:03003B00020006BA
:0400060075EC003263
:0300030002000AEE
:01000A0032C3
:0300130002000EDA
:01000E0032BF
:102B2B0043AC0153ADFEA2AF920075C7AA75C75552
:102B3B0075910143AC0175C7AA75C755E4F591A210
:102B4B000092AF43E90453EAFE43EB0143E903432D
:052B5B009B02D2AF2235
:102CA60043B38053B47FA2AF920075C7AA75C755C8
:102CB60075910143B38075C7AA75C755E4F591A20E
:082CC6000092AFD2AAD2AF22A6
:102E1B00122B2B122CA643870253E9FEC2A8C2AA7F
:042E2B00539BFD2296
:10056B00539BFD122B6012192A121FB07B017A00CC
:10057B007902E4FDFC7F0A122398E4900125F090A8
:10058B00000A04F0E4900123F0A3F09000CEF0A356
:10059B00F0900100F09000D0F09000FB74FFF0E4BD
:1005AB009000D4F0A3F01217A3A2B0E433FF120C07
:1005BB003790000BEFF03097FD121A44900002E0D9
:1005CB00B4A508900005E06002C1CCE4900003F0F4
:1005DB00A3F09000061214C80000000090000274F3
:1005EB00A5F09000057401F090000B74FFF09000E3
:1005FB00FBF07D017F07122B949001367403F07B87
:10060B00FF7A037970A31215027B147D017F0C1204
:10061B0026989001367403F07BFF7A00795EA31263
:10062B0015027B247D017F141226989001367403EA
:10063B00F07BFF7A047930A31215027B2C7D017FAE
:10064B00241226989001367403F07BFF7A0279D03E
:10065B00A31215027B347D017F2C122698E49001A6
:10066B0023F0A3F090005AF0A304F0900058F09000
:10067B000057F0E4FDFCFF7E0212243B7D007C0260
:10068B007F007E0212243B1217A3A2B0E433FF12A9
:10069B000C3790000BEFF0C3900124E09490900185
:1006AB0023E0940140F1E4900123F0A3F090000AC1
:1006BB0004F09001367403F07B347D017F0C12281B
:1006CB0000122C52C39000CCE094C89000CBE09465
:1006DB00004006D2AEE4F0A3F0C3900124E094E80E
:1006EB00900123E094035002A1C4122D63900005E6
:1006FB00E0FF64066004EFB407069000057405F094
:10070B007B017A007902E4FDFC7F0A121C71E4F58F
:10071B00B1F5B2F5B3F5B4F5ACF5AD53E1FE43B3BA
:10072B001043B410C294122E1BE4900123F0A3F0DB
:04073B001217A322CC
:01000F0022CE
:102BFA00A2AF9200C2AF75C7AA75C75543A401A276
:102C0A000092AFE59F30E613A2AF9200C2AF75C73C
:0C2C1A00AA75C755539FBFA20092AF22BD
:0C243B0090013FECF0A3EDF0AB07AA0607
:10244700EB4A700281D9EBAE027807CEC313CE13E5
:10245700D8F9FF900141EEF0A3EFF0EB547F600A4B
:10246700900141E475F0011213F4A2AF9200C2AFDC
:1024770075C7AA75C755439F01A20092AF75AEFFF6
:1024870075AF62A2AF9200C2AF75C7AA75C75543B1
:10249700A502A20092AFE4FDFCD3900142E09D901B
:1024A7000141E09C402CED75F080A4FF90013FE0D6
:1024B700FAA3E0FB2FF5A6EDAE047807C333CE33BE
:1024C700CED8F92BEA3EF5A7122BFA0DBD00010C69
:0224D70080C7BC
:0124D90022E0
:0C26050090013FEEF0A3EFF0A3121502CD
:10261100A2AF9200C2AF75C7AA75C755439F01A269
:102621000092AFA2AF9200C2AF75C7AA75C755435A
:10263100A502A20092AFEDF5A6ECF5A775AF61E496
:10264100FFFED3900140E09F90013FE09E4021902A
:1026510001411214F98F828E83121393F5AE122B5E
:10266100FA05A6E5A6700205A70FBF00010E80D2EC
:10267100A2AF9200C2AF75C7AA75C75553A5FDA2F7
:102681000092AFA2AF9200C2AF75C7AA75C75553EA
:062691009FFEA20092AFC3
:012697002220
:0C28F40090013FEEF0A3EFF0A3121502DC
:10290000A2AF9200C2AF75C7AA75C755439F01A277
:102910000092AFEDF5A6ECF5A775AF40E4FFFED34E
:10292000900140E09F90013FE09E4021122BFA90E1
:1029300001411214F98F828E83E5AE1213D205A6DF
:10294000E5A6700205A70FBF00010E80D2A2AF92CC
:1029500000C2AF75C7AA75C755539FFEA20092AFBC
:012960002254
:0F239800900127EFF0A3ECF0A3EDF0A3121502D4
:1023A700E490012DF090012DE0FDC39420503B9067
:1023B7000127E0FF7E00C007ED75F010A4FF900134
:1023C70029E02FFD900128E035F0FC90012A121436
:1023D700F9D0071228F490012A1214F912137AB4CB
:1023E700A50890012DE004F080BB90012DE070134B
:1023F700C3900128E09402503A740275F00012135A
:10240700F4809D90012DE014F0900127E0FF7E00FD
:10241700C00790012DE075F010A4FF900129E02F6F
:10242700FD900128E035F0FC90012A1214F9D0073D
:032437001228F474
:01243A00227F
:0F1C7100900127EFF0A3ECF0A3EDF0A312150202
:101C8000E490013DF090013DE0FDC394205036907A
:101C90000127E0FF7E00C007ED75F010A4FF900162
:101CA00029E02FFD900128E035F0FC7B017A0179D5
:101CB0002DD0071228F490012DE0B4A50890013D25
:101CC000E004F080C090013DE0A3F0B42014900146
:101CD00028E0FCA3E0FD7F007E0212243BE490019B
:101CE0003DF0900127E0FF7E00C00790013DE075C8
:101CF000F010A4FF900129E02FFD900128E035F0BD
:101D0000FC90012A1214F9D00712260590013EE03A
:101D1000B420107D007C027F007E0212243BE49000
:101D2000013EF0900127E0FF7E00C00790013EE0F9
:101D300075F010A4FF900129E02FFF900128E035F5
:101D4000F0CF2400FDEF3402FC90012A1214F9D0E8
:041D5000070226055B
:04256B0041014700E3
:082E400043B30243B402C29245
:072E4800E4FFFEEF4E70FCF9
:012E4F002260
:10003E0053B3FB43B40443B30443B404D29253B357
:0D004E00FD43B40243B30243B402D2912239
:102E2F00D291D292122E48C291122E48C292022EE5
:012E3F00484A
:0A2E5C00C291D292122E48D29122A8
:022CCE00AD0750
:102CD000E4FCED30E704D2918002C291ED25E0FDE5
:0F2CE000D292122E48C292122E480CECB408E386
:012CEF0022C2
:032CF000122CCED5
:102CF30043B30253B4FDD292122E48309109122EDF
:0D2D03005C122E407F0122122E407F002224
:102D1000AC07AA05122E2FAF04122CF0AF02122C12
:0C2D2000F0AF03122CCE122CF3022E5C3C
:0C2E5000C291C292122E48D292022E486B
:102C2600E4FDFC43B30253B4FDC292122E48D29285
:102C3600122E48EC25E0FC3091010C0DEDB408E9AC
:0B2C460043B30243B402122E50AF044F
:012C51002260
:0717F900AE071FEE70FA229B
:062BC700C280C283D2802F
:022BCD00AD0752
:102BCF00C2837F021217F9E4FCED30E004D281805A
:102BDF0002C2817F011217F9D2837F011217F9C246
:0A2BEF0083EDC313FD0CECB408DF06
:012BF90022B9
:102A840053B1FD43B20243B10253B2FD7F021217A8
:102A9400F9E4FCEDC313FD3081034480FDD2837F50
:102AA400011217F9C2837F011217F90CECB408E381
:082AB40053B1FD43B202AF056E
:012ABC0022F7
:062DF100AA07E4FD7F8E3D
:0F2DF700AB05122BC7AF03122BCDD283C28022A4
:0A0FF500122BC7122A84D283C28097
:010FFF0022CF
:10001600122DF17F81120FF5EA6006EF4480FF8012
:1000260004EF547FFFAD077F80122DF77D807F8E12
:03003600022DF7A1
:1029610053B1F743B20853B1FD43B20253B1FE4331
:10297100B201C283C281C2807FC1120FF5EF64A888
:102981006049122DF3E4FD7F80122DF77D207F82B7
:10299100122DF77D077F84122DF77D257F86122D5D
:1029A100F77D127F88122DF77D107F8A122DF77D1A
:1029B100067F8C122DF7E4FD7F90122DF77DA87F05
:0C29C100C0122DF77D807F8E122DF722B2
:042E0600121393FF11
:102E0A00EF54F0C4540F75F00AA4FEEF540F2EFFCE
:012E1A002295
:042D2C00121393FFEC
:102D3000E4FEEFC3940A400A74102EFE74F62FFFCF
:072D400080F0EE4FFEAF062C
:012D47002269
:102235007F81120FF5EF1213C07F83120FF5900007
:1022450001EF1213D27F85120FF5900002EF1213E2
:10225500D27F87120FF5900003EF1213D27F8912F8
:102265000FF5900004EF1213D27F8B120FF590003B
:1022750005EF1213D27F8D120FF5E42FFFE4342002
:102285009000068FF012145812137AFF122E0AEFDF
:102295001213C0900001122E06900001EF1213D206
:1022A500900002122E06900002EF1213D290000346
:1022B500122E06900003EF1213D2900004122E0680
:1022C500900004EF1213D2900005122E069000051F
:1022D500EF1213D2900006121420FF122E0A90005E
:0722E50006E48FF00214581B
:0625700090014412150267
:10257600122DF37DFF7FC0122DF79001441214F93E
:1025860012137AFF122D30AD077F80122DF79001BE
:10259600441214F9900001122D2CAD077F82122DE2
:1025A600F79001441214F9900002122D2CAD077F0A
:1025B60084122DF79001441214F9900003122D2C69
:1025C600AD077F86122DF79001441214F99000048E
:1025D600122D2CAD077F88122DF79001441214F9A5
:1025E600900006121420FF122D30AD077F8C122D9D
:0F25F600F77DA87FC0122DF77D807F8E022DF715
:102DAF00122DF1AF02122D30AD077F84122DF77D5A
:062DBF00807F8E022DF75B
:102DC500122DF1AF02122D30AD077F82122DF77D46
:062DD500807F8E022DF745
:102DDB00122DF1AF02122D30AD077F80122DF77D32
:062DEB00807F8E022DF72F
:030000000222ECED
:1022EC0075C7AA75C75575FD5A75C7AA75C75575B3
:1022FC00FDA5787FE4F6D8FD9000007FFF7E03E417
:0C230C00F0A3DFFCDEFA758120022353F1
:10231800022D97E493A3F8E493A34003F68001F217
:1023280008DFF48029E493A3F85407240CC8C333C6
:10233800C4540F4420C8834004F456800146F6DF95
:10234800E4800B01020408102040809024DAE47E27
:10235800019360BCA3FF543F30E509541FFEE4938A
:10236800A360010ECF54C025E060A840B8E493A351
:10237800FAE493A3F8E493A3C8C582C8CAC583CA7C
:10238800F0A3C8C582C8CAC583CADFE9DEE780BE34
:01256F00006B
:10137A00BB010689828A83E0225002E722BBFE0271
:09138A00E32289828A83E49322A4
:10139300BB010CE58229F582E5833AF583E022500F
:1013A30006E92582F8E622BBFE06E92582F8E22259
:0D13B300E58229F582E5833AF583E4932273
:1013C000BB010689828A83F0225002F722BBFE010C
:0213D000F32206
:1013D200F8BB010DE58229F582E5833AF583E8F051
:1013E200225006E92582C8F622BBFE05E92582C8FD
:0213F200F222E5
:1013F400C5F0F8A3E028F0C5F0F8E5821582700284
:061404001583E038F02220
:10140A00A3F8E0C5F025F0F0E58215827002158395
:06141A00E0C838F0E822F2
:10142000BB0110E58229F582E5833AF583E0F5F00A
:10143000A3E0225009E92582F886F008E622BBFEE7
:101440000AE92582F8E2F5F008E222E5832AF5832D
:08145000E993F5F0A3E99322F2
:10145800F8BB0111E58229F582E5833AF583E8F0C6
:10146800E5F0A3F0225009E92582C8F608A6F02283
:0D147800BBFE09E92582C8F2E5F008F2226A
:0E148500C3EF9BFFEE9AFEED99FDEC98FC2262
:10149300EB9FF5F0EA9E42F0E99D42F0E89C45F0AF
:0114A3002226
:0C14A400E0FCA3E0FDA3E0FEA3E0FF22BB
:0C14B000E0F8A3E0F9A3E0FAA3E0FB22BF
:0C14BC00ECF0A3EDF0A3EEF0A3EFF022A3
:1014C800A8828583F0D083D0821214DF1214DF1231
:1014D80014DF1214DFE473E493A3C583C5F0C58356
:1014E800C8C582C8F0A3C583C5F0C583C8C582C86E
:0114F80022D1
:0914F900E0FBA3E0FAA3E0F922F4
:09150200EBF0A3EAF0A3E9F022EA
:00000001FF
