:03000B00021ED4FE
:101ED400C0E0C0D0758CE5758AF5752C010533E535
:101EE40033D394C84003753300055BE55B7002058A
:081EF4005A052DD0D0D0E032D8
:101FD8007589FF5389F0438901538EF7758CE57530
:091FE8008AF5D2A9D2AFD28C22F5
:03005B0002198DFA
:0F198D00C0E0C0D075D000C000C005C006C007C4
:10199C00AD55C2EFAFC3ED25E02434F8760008A6B0
:1019AC0007ED25E02434F8C000E6FE08E6C4F85440
:1019BC000FC868FFEEC454F048D000F608A607AF75
:1019CC0005EF25E02434F8C000E6FE08E6FFE5C28A
:1019DC00540FFDEF4DD000A60608F60555E555C38E
:0619EC0094104002C2AE9F
:0D19F200D007D006D005D000D0D0D0E03214
:101CA400E4F5557F207834E4F608DFFC43DE045382
:101CB400E8F043E80343B14053B2BFE4F5F643F61A
:101CC4000843E10153E8DF43E81053E1F753E1FB34
:101CD40043E10275D10775D9FF75D40375DCFFD2D2
:101CE400DED2DFD2AED2AFE555C3941040F9D2AE06
:011CF40022CD
:10200000E4F5B1F5B2F5B3F5B4F5ACF5AD121FD802
:06201000121CA4020CE406
:10005E00000808080808080808080808080800002A
:10006E0040404141414141414141414141404000B7
:10007E000000F010101010FF10101010F000000013
:10008E0000000F04040404FF040404040F00000025
:10009E0008080838C808090E0808C83808080800F3
:1000AE008080404020110A040A11204040808000C8
:1000BE0090523410FF10345280708F0808F80800E8
:1000CE00829A566322528E008040330C3340800059
:1000DE00100C042424242526A464240404140C00E7
:1000EE00020202020242827F0202020202020200A7
:1000FE0002E282F212D752D25217FA12169A120056
:10010E00128E621F003F253DA74027182641F000A2
:10011E0000FC0000FF0004848484848484FC0000BE
:10012E00008740300F00202020202020207F00005C
:10013E00100C05555555857F8555555505140C00E4
:10014E000404020A09292A4C48A9190202040400CF
:10015E00101014D4545454FC525252D31210100096
:10016E00404050575555557F5555555750404000B6
:10017E00001715D55557557D555755D515170000F0
:10018E004040407F555555555555557F4040400090
:10019E000000007F494949494949497F0000000054
:1001AE008141211D214181FF8989898989818100B0
:1001BE0000028282422212FA06222242428200006B
:1001CE00010100FC44444445444444FC0000010049
:1001DE0000F804020204F8000003040808040300F7
:1001EE0000000404FE000000000008080F080800CC
:1001FE00001C020282423C00000C0A0908080C0096
:10020E00000C024242A21C00000608080808070063
:10021E00008060100CFE000000010109090F0909A1
:10022E00007E2222224282000006080808040300F3
:10023E0000F844222224C000000304080808070026
:10024E0000060282621A06000000000F0000000085
:10025E00001CA24242A21C00000708080808070062
:10026E00007C82828244F800000004080804030027
:10027E000000C038E0000000203C23020227382096
:10028E0008F8888888700000203F202020110E007A
:10029E00C030080808083800071820202010080071
:1002AE0008F808080810E000203F202020100F005A
:1002BE0008F88888E8081000203F20202320180026
:1002CE0008F88888E8081000203F2000030000008E
:1002DE00C03008080838000007182020221E02002F
:1002EE0008F808000008F808203F210101213F20EE
:1002FE00000808F8080800000020203F2020000019
:10030E0000000808F8080800C08080807F00000008
:10031E0008F888C028180800203F20012638200041
:10032E0008F8080000000000203F202020203000A8
:10033E0008F8F800F8F80800203F013E013F2000C1
:10034E0008F830C00008F808203F200007183F00CA
:10035E00E01008080810E0000F10202020100F00F9
:10036E0008F808080808F000203F210101010000EC
:10037E00E01008080810E0000F10282830504F0039
:10038E0008F8888888887000203F2000030C3020F1
:10039E0000708808080838000038202121221C002F
:1003AE00180808F8080818000000203F2000000078
:1003BE0008F808000008F808001F202020201F0061
:1003CE000878880000C83808000007380E010000C1
:1003DE0008F800F800F8080000033E013E03000094
:1003EE00081868808068180820302C03032C3020F1
:1003FE000838C800C83808000000203F2000000060
:10040E0010080808C83808002038262120201800B7
:10041E000000C0201018183060C000000000030358
:10042E0006060606020100000000381C020383FFC8
:10043E003F01000000008040201C0F030000000060
:10044E0020181C068787C63C1E0100000000020112
:10045E00010103070E18608010080E06422323B216
:10046E00EF0000000000000004020303061C7800E9
:10047E0040E0980C1E387060E0C0808000000103E0
:10048E0002060C0C08181010007CFEC06030FCFE3A
:10049E000301000000000000000000030F3C40803C
:1004AE0000F0FC0E020000000080C04000030F3080
:1004BE0040848CFE730100000000000080C0C080EC
:1004CE00061F1CF000080FC360203F2710100C03FE
:1004DE0000202030303078EEC38000000000000095
:1004EE0000000000010738C0000000E0700C06722A
:1004FE00DE8C000000003FCF000000000001010074
:10050E00FFFF0303030303030303030303030303B5
:10051E0003030303030303030303FFFFF8F80000C1
:10052E00FFFFC0C0C0C0C0C0C0C0C0C0C0C0C0C03F
:10053E00C0C0C0C0C0C0C0C0C0C0FFFF1F1F0000F1
:10054E00FFFFFFFFFFFFFFFF03030303030303038D
:10055E0003030303030303030303FFFFF8F8000081
:10056E00FFFFFFFFFFFFFFFFC0C0C0C0C0C0C0C085
:10057E00C0C0C0C0C0C0C0C0C0C0FFFF1F1F0000B1
:10058E00FFFFFFFFFFFFFFFFFFFFFFFFFFFF030365
:10059E0003030303030303030303FFFFF8F8000041
:1005AE00FFFFFFFFFFFFFFFFFFFFFFFFFFFFC0C0CB
:1005BE00C0C0C0C0C0C0C0C0C0C0FFFF1F1F000071
:1005CE00FFFFFFFFFFFFFFFFFFFFFFFFFFFFFFFF2D
:1005DE00FFFFFFFF030303030303FFFFF8F8000011
:1005EE00FFFFFFFFFFFFFFFFFFFFFFFFFFFFFFFF0D
:1005FE00FFFFFFFFC0C0C0C0C0C0FFFF1F1F000035
:10060E00FFFFFFFFFFFFFFFFFFFFFFFFFFFFFFFFEC
:10061E00FFFFFFFFFFFFFFFFFFFFFFFFF8F80000E8
:10062E00FFFFFFFFFFFFFFFFFFFFFFFFFFFFFFFFCC
:10063E00FFFFFFFFFFFFFFFFFFFFFFFF1F1F00007A
:10064E000000F8F81818181818181818F8F0E00024
:10065E0000000F0F0C0C0C0C0C0C0C0C0F070300F5
:10066E000000F8F8F8F8181818181818F8F0E00044
:10067E0000000F0F0F0F0C0C0C0C0C0C0F070300CF
:10068E000000F8F8F8F8F8F818181818F8F0E00064
:10069E0000000F0F0F0F0F0F0C0C0C0C0F070300A9
:1006AE000000F8F8F8F8F8F8F8F81818F8F0E00084
:1006BE0000000F0F0F0F0F0F0F0F0C0C0F07030083
:1006CE000000F8F8F8F8F8F8F8F8F8F8F8F0E000A4
:1006DE0000000F0F0F0F0F0F0F0F0F0F0F0703005D
:1006EE0053B3EF43B410C294E4F55AF55BC3E55B24
:1006FE009402E55A940040F5D29412003EE4F55A65
:10070E00F55BC3E55B9402E55A940040F57BAEE4DD
:10071E00FD7F78121F86E4FBFD7F78121F867B1209
:10072E00E4FD7F78121F86E4FBFD7F78121F867B27
:10073E00B0E4FD7F78121F867B81E4FD7F78121F67
:10074E00867BFFE4FD7F78121F867BA1E4FD7F7818
:10075E00121F867BA6E4FD7F78121F867BA8E4FD20
:10076E007F78121F867B1FE4FD7F78121F867BC861
:10077E00E4FD7F78121F867BD3E4FD7F78121F86FF
:10078E00E4FBFD7F78121F867BD5E4FD7F78121F78
:10079E00867B80E4FD7F78121F867BD9E4FD7F780F
:1007AE00121F867B1FE4FD7F78121F867BDAE4FD25
:1007BE007F78121F867B12E4FD7F78121F867BDB0B
:1007CE00E4FD7F78121F867B40E4FD7F78121F8642
:1007DE007B8DE4FD7F78121F867B14E4FD7F7812FB
:0E07EE001F867BAFE4FD7F78121F867F0022FE
:101E2600EF2420F579ED24B0FBE4FD7F78121F86C0
:101E3600E57954F0C4540F4410FBE4FD7F78121F7B
:0D1E460086E579540FFBE4FD7F78021F86CE
:101FA2007B8DE4FD7F78121F867B14E4FD7F78121F
:0B1FB2001F867BAFE4FD7F78021F86D6
:101FBD007B8DE4FD7F78121F867B10E4FD7F781208
:0B1FCD001F867BAEE4FD7F78021F86BC
:101D4500E4F55DE55D24B0FBE4FD7F78121F86E4D4
:101D5500FBFD7F78121F867B12E4FD7F78121F86BC
:101D6500755E20E4FB7D407F78121F86055EE55E8B
:0E1D7500C3946040EE055DE55DC3940440C577
:011D8300223D
:041CF5008F698B6BFD
:101CF900E4F56DF56EE56C5407700BE56C13131381
:101D0900541FF570800AE56C131313541F04F57002
:101D19008D70E570C3956C5022AD70AF69121E26A7
:101D290085696FE56FC3956B500DE4FB7D407F7846
:0B1D3900121F86056F80EC057080D73C
:011D4400227C
:041A68008F6E8B7082
:101A6C00E4F575F576E5715407700BE571131313F6
:101A7C00541FF578800AE571131313541F04F5787D
:101A8C008D78E578C395715039AD78AF6E121E26FE
:101A9C00856E77E577C395705024AB72AA73A974E1
:101AAC000576E576AE757002057514F5828E831297
:101ABC001B94FB7D407F78121F86057780D50578B7
:021ACC0080C0D8
:011ACE0022F5
:10202A00015C000156FFC101013200012D0002309E
:02203A000000A4
:10001600E4F559755801F554F52FF52143B380538E
:10002600B47F43AC0153ADFE43B11053B2EFF55765
:03003600C20022E3
:1015E200E52C7002C187E4F52CA29733F5596558B2
:1015F200603C855958E52F700CE554D3940A400598
:101602007521018022E52FC39405400575210480D0
:1016120016E52FC394034005752103800AE52FC305
:1016220094024003752102E4F554F52F8013E55925
:1016320070130554E554D394C84005E4F554052FBE
:10164200E4F55AF55B20B01EE4F557300037C200CE
:10165200852E25752A01756C037B307D017F101262
:101662001CF5E4F55522E4F55AF55B0557E557D329
:10167200940A401175570A20000BD20085252E7559
:061682002506752A012275
:101D8400EF640170297571027572FF7573007574C3
:101D94007E7B20FD7F10121A687571027572FF75C3
:101DA400730075749E7B30E4FD7F20021A68756CA5
:0B1DB400027B30E4FD7F10121CF522C2
:10153B00EF64016002A1D57571047572FF757302BA
:10154B007574BE7B0C7D027F04121A68757104756D
:10155B0072FF75730375744E7B147D027F0C121A28
:10156B00687571047572FF7573027574DE7B1C7D73
:10157B00027F14121A687571047572FF7573037507
:10158B00742E7B247D027F1C121A68757104757290
:10159B00FF7573027574FE7B2C7D027F24121A6813
:1015AB007571047572FF75730375749E7B347D02C0
:1015BB007F2C121A687571047572FF75730275743E
:1015CB00EE7B3C7D027F34021A68756C047B3C7D9C
:0715DB00027F04121CF5223F
:10188800E52AB4011FE4F52A756C037B347D017FDA
:101898000C121CF57F01121D847F0112153B852354
:1018A8005C7533C8E521603DB40119E55C7F0170C2
:1018B80008121D84755C01800612153BE4F55C85F1
:1018C8005C23801EE521C394024017855C2375259F
:1018D80002E4F55CF533752A01FF12153BE4FF12AB
:1018E8001D84E4F521E533B4640BE5237003FF8020
:1018F8000FE4FF800EE533B4C80CE5237F017003C5
:07190800021D8412153B22B1
:101C4E00E4757064F56FF56EF56DAF66AE65AD64F7
:021C5E00AC6375
:081C60008F6C8E6B8D6A8C699C
:101C6800900000AF70AE6FAD6EAC6DAB6CAA6BA997
:101C78006AA869C3121BE3401EA3E56C9570FFE5D3
:101C88006B956FFEE56A956EFDE569956D8F6C8EB7
:0B1C98006B8D6AF56980CCAE83AF82D3
:011CA300221E
:1017AC008F62E4757064F56FF56EF56DAF66AE65BE
:0417BC00AD64AC6309
:1017C0008F6C8E6B8D6A8C69AF70AE6FAD6EAC6DC9
:1017D000AB6CAA6BA96AA869C3121BE3401DE56C38
:1017E0009570FFE56B956FFEE56A956EFDE5699571
:1017F0006D8F6C8E6B8D6AF56980CDAE6BAF6C2290
:100F2D008F5DE52364016002E1C4E55D6401707CC1
:100F3D007571027572FF75730375744E7B10FD7FAD
:100F4D0008121A687571027572FF75730375745EF8
:100F5D007B18E4FD7F10121A687571027572FF75AA
:100F6D00730375748E7B20E4FD7F18121A687571FA
:100F7D00027572FF75730375743E7B28E4FD7F2047
:100F8D00121A687571027572FF75730275747E7B26
:100F9D0030E4FD7F28121A687571027572FF757342
:100FAD000375742E7B38E4FD7F308037756C027BC2
:100FBD0038E4FD7F088038E55D64017029757102A4
:100FCD007572FF7573007574BE7B20FD7F10121A4C
:100FDD00687571027572FF7573007574DE7B30E490
:100FED00FD7F20021A68756C027B30E4FD7F1012C4
:030FFD001CF522BE
:100E18008F5DE52364016002C1C7E55D640160027E
:100E2800C1BC7571047572FF7573037574AE7B0C64
:100E38007D027F04121A687571047572FF7573025A
:100E48007574FE7B147D027F0C121A687571047527
:100E580072FF75730275748E7B1C7D027F14121AE3
:100E6800687571047572FF7573027574BE7B247D95
:100E7800027F1C121A687571047572FF7573037509
:100E880074AE7B2C7D027F24121A6875710475720A
:100E9800FF75730275747E7B347D027F2C121A688D
:100EA8007571047572FF75730375744E7B3C7D0212
:100EB8007F348061756C047B3C7D027F048062E531
:100EC8005D640170537571047572FF7573007574F4
:100ED800FE7B107D02FF121A687571047572FF752A
:100EE800730075749E7B207D027F10121A687571DD
:100EF800047572FF7573007574BE7B307D027F20A8
:100F0800121A687571047572FF7573007574DE7B4B
:100F1800407D027F30021A68756C047B407D02E4D4
:050F2800FF121CF52280
:10180000E52AB40113E4F52A7F01120F2D7F01129E
:101810000E1885245C7533C8E521603EB4011AE5D5
:101820005C7F01B40108120E18E4F55C8006120F0B
:101830002D755C01855C24801EE521C39402401750
:10184000752503855C24E4F55CF533752A01FF12E8
:101850000F2DE4FF120E18E4F521E533B46410E512
:101860005CB40104E4FF8013E55C701BFF8015E5A8
:1018700033B4C813E55CB401057F01020E18E55CC2
:0818800070057F01120F2D22FB
:10100000756701E5682408FB756C0485626D7D02D7
:02101000AF68C7
:101012008F698D6A8B6BE56D700E856C717572FFD1
:101022007573017574DE2109E56DB40114856C7167
:101032007572FF7573017574EEAB6BAD6AAF6921A2
:1010420009E56DB40214856C717572FF75730175D3
:1010520074FEAB6BAD6AAF692109E56DB40314850B
:101062006C717572FF75730275740EAB6BAD6AAFFE
:10107200692109E56DB40414856C717572FF75738D
:101082000275741EAB6BAD6AAF69807BE56DB4050A
:1010920014856C717572FF75730275742EAB6BAD2E
:1010A2006AAF698062E56DB40614856C717572FF72
:1010B20075730275743EAB6BAD6AAF698049E56DBD
:1010C200B40714856C717572FF75730275744EAB3B
:1010D2006BAD6AAF698030E56DB40814856C7175CB
:1010E20072FF75730275745EAB6BAD6AAF69801780
:1010F200E56DB40915856C717572FF7573027574AF
:0B1102006EAB6BAD6AAF69121A682279
:0F110D00E568240CFB756C0485626D7D02AF688C
:10111C008F698D6A8B6BE56D700E856C717572FFC6
:10112C0075730475741E4113E56DB40114856C71EF
:10113C007572FF757304757436AB6BAD6AAF69412C
:10114C0013E56DB40214856C717572FF75730475BB
:10115C00744EAB6BAD6AAF694113E56DB403148586
:10116C006C717572FF757304757466AB6BAD6AAF99
:10117C00694113E56DB40414856C717572FF757358
:10118C000475747EAB6BAD6AAF69807BE56DB4059D
:10119C0014856C717572FF757304757496AB6BADB9
:1011AC006AAF698062E56DB40614856C717572FF67
:1011BC007573047574AEAB6BAD6AAF698049E56D40
:1011CC00B40714856C717572FF7573047574C6ABB6
:1011DC006BAD6AAF698030E56DB40814856C7175C0
:1011EC0072FF7573047574DEAB6BAD6AAF698017F3
:1011FC00E56DB40915856C717572FF7573047574A2
:0B120C00F6AB6BAD6AAF69121A6822E6
:080800008F608E5F8D5E8C5D40
:10080800E4F567F568E561700B756C047B407D0263
:10081800FF021CF5856066855F65855E64855D639E
:10082800E5246002210475680C757010756F271235
:100838001C548F62E4757010756F271217B4E48F1B
:10084800668E65F564F563E562600A1210037567E4
:10085800017408800274042568F568E47570E87509
:100868006F03121C548F62E47570E8756F031217DA
:10087800B4E48F668E65F564F563E567640160042A
:10088800E56260071210007408800274042568F598
:1008980068121C4E1217ACE48F668E65F564F5631A
:1008A800E56764016004E56260071210007408805F
:1008B8000274042568F568E475700A121C528F6288
:1008C800E475700A1217B2E48F668E65F564F563F5
:1008D800E56764016004E56260071210007408802F
:1008E8000274042568F568856662E5682408FB7566
:1008F8006C0485626D7D02AF68021012756802E4AF
:10090800757010756F27121C548F62E4757010751E
:100918006F271217B4E48F668E65F564F563E56298
:10092800600A12110D756701740C8002740625683F
:10093800F568E47570E8756F03121C548F62E475EE
:1009480070E8756F031217B4E48F668E65F564F569
:1009580063E56764016004E562600A12110D75675A
:1009680001740C800274062568F568121C4E121773
:10097800ACE48F668E65F564F563E5676401600431
:10098800E562600A12110D756701740C8002740625
:100998002568F568E475700A121C528F62E4757058
:1009A8000A1217B2E48F668E65F564F563E567642D
:1009B800016004E562600A12110D756701740C800C
:0D09C8000274062568F56885666212110D3F
:0109D50022FF
:0209D6008F5E32
:1009D800E4FFFE79FFE555C394105002619CC2AE56
:1009E800E4F555FDED04FCECC394105036EC25E01D
:1009F8002434F8E6FE08E6FFED25E02434F8E6FAAC
:100A080008E6FBD3EF9BEE9A4016EC25E02434F879
:100A1800A60208A603ED25E02434F8A60608A607D2
:100A28000C80C40DBD10BDE4FEFF7D04ED25E0245F
:100A380034F8E6FA08E62FFFEA3EFE0DBD0CEDEFAE
:100A48007803CEC313CE13D8F9FFE55EB40108745A
:100A5800E02FFF74FF3EFEE531453070028070E5FF
:100A6800312405FDE43530FCD3EF9DEE9C400B05A9
:100A780031E531700205307FFF22EF2405FDE43EA9
:100A8800FCC3ED9531EC9530500BE5311531700212
:100A980015307FFF22EF2414FDE43EFCC3ED9531B1
:100AA800EC953050048C308D31E5312FFFE5303E28
:100AB800C313FEEF13FFE55EB4010BD3EF9531EEE0
:100AC8009530400F8009D3E5319FE5309E40048E74
:100AD800308F31200140D3E5319480E530940940CE
:100AE8000479046199D3E5319420E53094094004F0
:100AF80079036199D3E53194C0E5309408400479CD
:100B0800026199D3E5319460E53094084004790195
:100B1800807FE4F9807BC3E5319458E53094085030
:100B280004E4F98058D3E5319468E5309408400E20
:100B3800E53194B8E530940850047901803FD3E555
:100B48003194C8E5309408400EE5319418E53094A6
:100B580009500479028026D3E5319428E5309409B8
:100B6800400EE5319478E530940950047903800DFE
:100B7800D3E5319488E530940940027904E9655653
:100B8800600F0532E532C394055004A956800580EC
:060B980000E4F532AF019C
:010B9E002234
:101B3200EFD3940440027F04EF700B755EFF755F74
:101B42000675604E8036BF010B755EFF755F0675C8
:101B5200606E8028BF020B755EFF755F0675608E32
:101B6200801ABF030B755EFF755F067560AE800C51
:101B7200BF0409755EFF755F067560CED20175718F
:101B820002855E72855F738560747B10E4FDFF02DF
:021B92001A68CF
:101F2400E4FF1209D68F5DE55DF46014E556655D46
:101F34006008855D56AF56121B32855D2BE4F5555E
:011F4400227A
:1013BD00E52A6401702CF52AF533C201AF29AE2858
:1013CD00AD27AC26756101120800E52BB4FF0BC2E9
:1013DD0001E4FF1209D68F2B80F0852B56AF2B120F
:1013ED001B32121F24E5217002818E6401704CE5C1
:1013FD00292401FFE43528FEE43527FDE435268F49
:10140D00298E288D27F5267F9F7E867D017C00AB5A
:10141D0029AA28A927F8D3121BE34012E4F529F5D0
:10142D0028F527F526F561FFFEFDFC120800AF2912
:10143D00AE28AD27AC267561018040E521B4031CB3
:10144D00752504752A01E4F55C756C027B40FDFF82
:10145D00121CF5E4F561FFFEFDFC801FE521B404CF
:10146D001D752505752A01E4F55C756C027B40FD43
:10147D00FF121CF5E4F561FFFEFDFC120800E4F51A
:02148D0021221A
:101217008F5DE5236401600241AEE55D6401707C8A
:101227007571027572FF75730375748E7B0EFD7F82
:1012370006121A687571027572FF75730275749ECE
:101247007B28E4FD7F20121A687571027572FF759D
:10125700730375749E7B16E4FD7F0E121A68757111
:10126700027572FF75730375744E7B30E4FD7F283A
:10127700121A687571027572FF7573037574AE7B08
:101287001EE4FD7F16121A687571027572FF757379
:10129700037574AE7B38E4FD7F308037756C027B55
:1012A70038E4FD7F068038E55D64017029757102B9
:1012B7007572FF75730175741E7B20FD7F10121AFE
:1012C700687571027572FF75730175743E7B30E442
:1012D700FD7F20021A68756C027B30E4FD7F1012D7
:0312E7001CF522D1
:10190F008F5DE5236401704FE55D6401703E757175
:10191F00047572FF7573037574FE7B127D027F0A67
:10192F00121A687571047572FF7573027574BE7B38
:10193F001A7D027F12121A687571047572FF757322
:10194F000375749E7B227D027F1A8022756C047B47
:10195F00227D027F0A8023E55DB401157571047540
:10196F0072FF75730175749E7B1C7D027F0C021ACA
:0E197F0068756C047B1C7D027F0C121CF52227
:1019FF008F5DE5236401703AE55D640170297571AF
:101A0F00047572FF75730375744E7B2E7D027F26EE
:101A1F00121A687571047572FF75730375745E7BA6
:101A2F00367D027F2E8022756C047B367D027F26E9
:101A3F008023E55DB401157571047572FF7573012F
:101A4F007574BE7B347D027F24021A68756C047B2B
:091A5F00347D027F24121CF522E3
:10168800E52AB40115E4F52A7F011212177F011229
:10169800190F7F011219FF7533C8E5216047B4019E
:1016A80015E55C700A7F0112190F755C018033E43F
:1016B800F55C7F018029E521C394024025E55C7033
:1016C80008F529F528F527F526752503E4F55CF5D1
:1016D80033752A01FF121217E4FF12190FE4FF12E3
:1016E80019FFE4F521E533B46410E55C7003FF806D
:1016F80014E55C6401701BFF8015E533B4C813E57D
:101708005C70057F0102190FE55CB401057F0112C9
:0317180019FF2294
:1012EA008F5DE523640160026181E55D6401707CC4
:1012FA007571027572FF75730375748E7B0EFD7FAF
:10130A0006121A687571027572FF7573027574AEEA
:10131A007B28E4FD7F20121A687571027572FF75C9
:10132A00730375749E7B16E4FD7F0E121A6875713D
:10133A00027572FF7573027574BE7B30E4FD7F28F7
:10134A00121A687571027572FF7573037574AE7B34
:10135A001EE4FD7F16121A687571027572FF7573A5
:10136A00037574CE7B38E4FD7F308037756C027B61
:10137A0038E4FD7F068038E55D64017029757102E5
:10138A007572FF75730175745E7B20FD7F10121AEA
:10139A00687571027572FF75730175747E7B30E42E
:1013AA00FD7F20021A68756C027B30E4FD7F101203
:0313BA001CF522FD
:10171B00E52AB40115E4F52A7F011212EA7F0112C2
:10172B00190F7F011219FF7533C8E5216045B4010C
:10173B0018E55C700A7F0112190F755C018031E4AA
:10174B00F55C7F011219FF8027E521C3940240202D
:10175B00E4FF1212EAE4FF12190FE4FF1219FFE57E
:10176B005C7004F5258003752503E4F55C752A018F
:10177B00E4F521E533B46410E55C7003FF8014E5F8
:10178B005C6401701BFF8015E533B4C813E55C7016
:10179B00057F0102190FE55CB401057F011219FFEA
:0117AB00221B
:101ACF00EFD3940440027F04EF700B755EFF755FD8
:101ADF000575600E8036BF010B755EFF755F05756E
:101AEF00604E8028BF020B755EFF755F0575608EB7
:101AFF00801ABF030B755EFF755F057560CE800C96
:101B0F00BF0409755EFF755F0675600ED2017571B2
:101B1F0003855E72855F738560747B307D017F10F6
:031B2F00021A682F
:101BF400E52A64017027F52A756C047B40FDFF1209
:101C04001CF5E52BB4FF0BC2017F011209D68F2B03
:101C140080F0852B56AF2B121ACFE4F533E5216003
:101C240003E4F521E533B4C8207F011209D68F5DA2
:101C3400E55DF46014E556655D6008855D56AF5654
:091C4400121ACF855D2BE4F55561
:011C4D002274
:101EAB00E52524FE601314601314601314601314DF
:101EBB006013240570120218880218000213BD0269
:091ECB00168802171B121BF422F9
:03003B00020006BA
:0400060075EC003263
:0300030002000AEE
:01000A0032C3
:0300130002000EDA
:01000E0032BF
:101DBF0043AC0153ADFEA2AF920275C7AA75C755CA
:101DCF0075910143AC0175C7AA75C755E4F591A28A
:101DDF000292AF43E90453EAFE43EB0143E90343A5
:051DEF009B02D2AF22AF
:101EFC0043B38053B47FA2AF920275C7AA75C7557E
:101F0C0075910143B38075C7AA75C755E4F591A2C5
:081F1C000292AFD2AAD2AF225B
:10201600121DBF121EFC43870253E9FEC2A8C2AAC4
:04202600539BFD22A9
:100CE400539BFD1206EE121D451200167B007A007E
:100CF40079227F0A121E53E4F55C752A01F55AF530
:100D04005BC2017556FFF530F531121CA43097FD16
:100D14001215E2E522B4A506E5256002A1B4E4F5C6
:100D240023F524F529F528F527F5267522A575253B
:100D3400017D017F07121E267571037572FF75739D
:100D44000375741E7B147D017F0C121A6875710380
:100D54007572FF75730075745E7B247D017F1412B8
:100D64001A687571037572FF7573037574DE7B2CD5
:100D74007D017F24121A687571037572FF75730201
:100D840075747E7B347D017F2C121A68E4F55AF564
:100D94005BC3E55B9490E55A940140F5E4F55AF59C
:100DA4005B752A01756C037B347D017F0C121CF585
:100DB400121EABE52DC394C8400820AE02D2AEE4A7
:100DC400F52DC3E55B94E8E55A94035002A114128F
:100DD4001FBDE52564046005E525B40503752503F9
:100DE4007B007A0079227F0A121DF4E4F5B1F5B292
:100DF400F5B3F5B4F5ACF5AD53E1FEC28C43B310D5
:100E040043B410C294122016E4F55AF55BD28C1246
:040E14001CA481E4B5
:060B9F008E628F638D647D
:100BA500E4F565A907E9C394805004E4F980027966
:100BB500807D807C02E97A002400FFEA3562F566D3
:100BC5008F67ED7003EC6403601E8567828566831D
:100BD500E4938D828C83F005650DBD00010C0567DE
:100BE500E56770DE056680DAAB63A903E9C3948027
:100BF500E95004248080022400FFE43402FCAD07A0
:100C05008D828C83E564F08BA6E562FFF5A775AE52
:100C1500FFA2AF9202C2AF75C7AA75C755439F0120
:100C2500A20292AFA2AF9202C2AF75C7AA75C7550D
:100C350043A501A20292AF75AF22A2AF9202C2AF45
:100C450075C7AA75C75543A401A20292AFA903E9C6
:100C5500C394805004E4F9800279807C027D808908
:100C6500A68FA7A2AF9202C2AF75C7AA75C7554393
:100C75009F01A20292AFA2AF9202C2AF75C7AA7539
:100C8500C75543A501A20292AF75AF21EDF47003DC
:100C9500EC640260238D828C83E0F5AEA2AF9202F4
:100CA500C2AF75C7AA75C75543A401A20292AF0585
:100CB500A60DBD00010C80D4A2AF9202C2AF75C7CC
:100CC500AA75C75553A5FEA20292AFA2AF9202C262
:0E0CD500AF75C7AA75C755539FFEA20292AF16
:010CE30022EE
:042068008F828E8352
:03206C00E493FFFB
:01206F00224E
:081E53008B5D8A5E895FAD071B
:101E5B00E4FCECC39D501DEC2400FFE43438FE126F
:101E6B002068AB5DAA5EA95F8C82758300EF121BA5
:041E7B00C10C80DE38
:011E7F002240
:081DF4008F5D8B5E8A5F896040
:101DFC00E4F561E561C3955D501FE42561FFE434B2
:101E0C0038FEAB5EAA5FA960856182758300121BE8
:091E1C0094FD120B9F056180DAB0
:011E2500229A
:08204E0043B30243B402C29245
:07205600E4FFFEEF4E70FCF9
:01205D002260
:10003E0053B3FB43B40443B30443B404D29253B357
:0D004E00FD43B40243B30243B402D2912239
:10203D00D291D292122056C291122056C2920220F3
:01204D00563C
:0A205E00C291D292122056D29122B4
:021F4500AD07E6
:101F4700E4FCED30E704D2918002C291ED25E0FD7B
:0E1F5700D292122056C2921220560CBC08E400
:011F65002259
:031F6600121F4502
:101F690043B30253B4FDD292122056309109122084
:0D1F79005E12204E7F012212204E7F0022BA
:101F8600AC07AA0512203DAF04121F66AF02121F4E
:0C1F960066AF03121F45121F6902205E97
:0C1FF100C291C292122056D292022056D9
:101E8000E4FDFC43B30253B4FDC292122056D29239
:101E9000122056EC25E0FC3091010C0DBD08EA4300
:0A1EA000B30243B402121FF1AF04B5
:011EAA002215
:0300000002148F58
:10148F0075C7AA75C75575FD5A75C7AA75C755751E
:10149F00FDA5787FE4F6D8FD9000007FFF7E03E482
:0C14AF00F0A3DFFCDEFA7581790214F670
:1014BB00022000E493A3F8E493A34003F68001F227
:1014CB0008DFF48029E493A3F85407240CC8C33332
:1014DB00C4540F4420C8834004F456800146F6DF01
:1014EB00E4800B010204081020408090202AE47E47
:1014FB00019360BCA3FF543F30E509541FFEE493F6
:10150B00A360010ECF54C025E060A840B8E493A3BC
:10151B00FAE493A3F8E493A3C8C582C8CAC583CAE7
:10152B00F0A3C8C582C8CAC583CADFE9DEE780BE9F
:01203C0000A3
:101B9400BB010CE58229F582E5833AF583E0225006
:101BA40006E92582F8E622BBFE06E92582F8E22250
:0D1BB400E58229F582E5833AF583E493226A
:101BC100F8BB010DE58229F582E5833AF583E8F05A
:101BD100225006E92582C8F622BBFE05E92582C806
:021BE100F222EE
:101BE300EB9FF5F0EA9E42F0E99D42F0E89C45F058
:011BF30022CF
:00000001FF
