:03000B000220BF11
:1020BF00C0E0C0D075D000C000758CE5758AF5788A
:1020CF001D7401F2788FE204F2E2D394C84002E467
:1020DF00F278CBE22401F218E23400F278A6E2247F
:1020EF0001F218E23400F278A2E22401F218E2348D
:1020FF0000F2788BE22401F218E23400F2D000D023
:04210F00D0D0E0321A
:1024AB007589FF5389F0438901538EF7758CE57558
:0924BB008AF5D2A9D2AFD28C221D
:03005B00021F2160
:101F2100C0E0C0D075D000C000C001C005C006C06F
:101F310007C2EFAFC378A3E2FD25E02490F8E4F2F5
:101F410008EFF2ED25E02490F8C000F909E3C4F8A8
:101F5100540FC868FE19E3C454F048D000F208CE0B
:101F6100F2ED25E02490F8C000E5C2540FFFE2FE37
:101F710008E24FFFD000EEF208EFF278A3E204F29C
:101F8100E2C394084002C2AED007D006D005D0010A
:071F9100D000D0D0D0E032F7
:10206A00E478A3F27F107890E4F208DFFC43DE0400
:10207A0053E8F043E80343B14053B2BFE4F5F643F3
:10208A00F60843E10153E8DF43E81053E1F753E16F
:10209A00FB43E10275D10775D9FF75D40275DCFFE0
:1020AA00D2DED2DFD2AED2AF78A3E2B408FAE478B5
:0420BA00A3F2D2AE0D
:0120BE0022FF
:1024C400E4F5B1F5B2F5B3F5B4F5ACF5AD1224AB62
:0824D40012206A12056B80FB67
:10005E00000808080808080808080808080800002A
:10006E0040404141414141414141414141404000B7
:10007E000000F010101010FF10101010F000000013
:10008E0000000F04040404FF040404040F00000025
:10009E0008080838C808090E0808C83808080800F3
:1000AE008080404020110A040A11204040808000C8
:1000BE0090523410FF10345280708F0808F80800E8
:1000CE00829A566322528E008040330C3340800059
:1000DE00100C042424242526A464240404140C00E7
:1000EE00020202020242827F0202020202020200A7
:1000FE0002E282F212D752D25217FA12169A120056
:10010E00128E621F003F253DA74027182641F000A2
:10011E0000FC0000FF0004848484848484FC0000BE
:10012E00008740300F00202020202020207F00005C
:10013E00100C05555555857F8555555505140C00E4
:10014E000404020A09292A4C48A9190202040400CF
:10015E00101014D4545454FC525252D31210100096
:10016E00404050575555557F5555555750404000B6
:10017E00001715D55557557D555755D515170000F0
:10018E004040407F555555555555557F4040400090
:10019E000000007F494949494949497F0000000054
:1001AE008141211D214181FF8989898989818100B0
:1001BE0000028282422212FA06222242428200006B
:1001CE00010100FC44444445444444FC0000010049
:1001DE007E8181817E000082FF800000C6A1918910
:1001EE0086004281898976003028A6FFA0005F89AB
:1001FE00898971007C92898972000001F10D0300DA
:10020E007689898976004E9191493E0000C0300C66
:10021E00030000F804020204F800000304080804B6
:10022E00030000000404FE000000000008080F0890
:10023E000800001C020282423C00000C0A09080859
:10024E000C00000C024242A21C000006080808081E
:10025E000700008060100CFE000000010109090F6C
:10026E000909007E222222428200000608080804A4
:10027E00030000F844222224C000000304080808EA
:10028E00070000060282621A06000000000F00003E
:10029E000000001CA24242A21C0000070808080829
:1002AE000700007C82828244F800000004080804E3
:1002BE000300000000C0300E01000018060100000F
:1002CE0000000000C038E0000000203C230202279E
:1002DE00382008F8888888700000203F20202011E0
:1002EE000E00C0300808080838000718202020101B
:1002FE00080008F808080810E000203F2020201011
:10030E000F0008F88888E8081000203F20202320DE
:10031E00180008F88888E8081000203F2000030025
:10032E000000C03008080838000007182020221EE0
:10033E00020008F808000008F808203F21010121FA
:10034E003F20000808F8080800000020203F202069
:10035E00000000000808F8080800C08080807F00B8
:10036E00000008F888C028180800203F2001263811
:10037E00200008F8080000000000203F2020202068
:10038E00300008F8F800F8F80800203F013E013F61
:10039E00200008F830C00008F808203F2000071899
:1003AE003F00E01008080810E0000F102020201079
:1003BE000F0008F808080808F000203F210101018D
:1003CE000000E01008080810E0000F102828305038
:1003DE004F0008F8888888887000203F2000030CA2
:1003EE0030200070880808083800003820212122AB
:1003FE001C00180808F8080818000000203F20000C
:10040E00000008F808000008F808001F202020202F
:10041E001F000878880000C83808000007380E0151
:10042E00000008F800F800F8080000033E013E0343
:10043E000000081868808068180820302C03032CF0
:10044E0030200838C800C83808000000203F2000BF
:10045E00000010080808C83808002038262120207F
:10046E0018000000C0201018183060C000000000F6
:10047E00030306060606020100000000381C0203F4
:10048E0083FF3F01000000008040201C0F0300008E
:10049E00000020181C068787C63C1E0100000000C5
:1004AE000201010103070E18608010080E06422398
:1004BE0023B2EF0000000000000004020303061C3C
:1004CE00780040E0980C1E387060E0C0808000001C
:1004DE00010302060C0C08181010007CFEC06030E0
:1004EE00FCFE0301000000000000000000030F3CB2
:1004FE00408000F0FC0E020000000080C0400003AF
:10050E000F3040848CFE730100000000000080C09C
:10051E00C080061F1CF000080FC360203F2710107C
:10052E000C0300202030303078EEC3800000000035
:10053E00000000000000010738C0000000E0700C51
:10054E000672DE8C000000003FCF000000000001AC
:0D055E00010000303000000C0C00002400F3
:1006DD0053B3EF43B410C294E478CAF208F2C3786E
:1006ED00CBE2940218E2940040F4D29412003EE45E
:1006FD0078CAF208F2C378CBE2940218E294004073
:10070D00F47BAEE4FD7F7812243DE4FBFD7F78128F
:10071D00243D7B12E4FD7F7812243DE4FBFD7F78C0
:10072D0012243D7BB0E4FD7F7812243D7B81E4FDF6
:10073D007F7812243D7BFFE4FD7F7812243D7BA161
:10074D00E4FD7F7812243D7BA6E4FD7F7812243DE5
:10075D007BA8E4FD7F7812243D7B1FE4FD7F78129A
:10076D00243D7BC8E4FD7F7812243D7BD3E4FD7FDF
:10077D007812243DE4FBFD7F7812243D7BD5E4FD0A
:10078D007F7812243D7B80E4FD7F7812243D7BD958
:10079D00E4FD7F7812243D7B1FE4FD7F7812243D1C
:1007AD007BDAE4FD7F7812243D7B12E4FD7F781225
:1007BD00243D7BDBE4FD7F7812243D7B40E4FD7F0F
:1007CD007812243D7B8DE4FD7F7812243D7B14E46B
:1007DD00FD7F7812243D7BAFE4FD7F7812243D7FB1
:0207ED000022E8
:10233300EF242078E8F2ED24B0FBE4FD7F7812244B
:102343003D78E8E254F0C4540F4410FBE4FD7F7879
:1023530012243D78E8E2540FFBE4FD7F7802243D2C
:102475007B8DE4FD7F7812243D7B14E4FD7F78128B
:0B248500243D7BAFE4FD7F7802243D86
:102490007B8DE4FD7F7812243D7B10E4FD7F781274
:0B24A000243D7BAEE4FD7F7802243D6C
:10211300E478D1F278D1E2FFC39404503CEF24B0C9
:10212300FBE4FD7F7812243DE4FBFD7F7812243D20
:102133007B12E4FD7F7812243D78D27420F2E4FB15
:102143007D407F7812243D78D2E204F2E2C39460AA
:0921530040EC78D1E204F280BBFB
:01215C002260
:0820000078DDEFF278DFEBF26E
:10200800E478E1F208F278E0E2FF54077008EF1391
:102018001313541F800978E0E2131313541F047834
:10202800E4F278E4EDF278E0E2FF78E4E2FDC39FC1
:10203800502F78DDE2FF12233378DDE278E3F2787F
:10204800DFE2FF78E3E2C39F5010E4FB7D407F7836
:1020580012243D78E3E204F280E578E4E204F280B9
:01206800C5B2
:012069002254
:081E9E0078DDEFF278DFEBF2D2
:101EA600E478E4F208F278E0E2FF54077008EF13F2
:101EB6001313541F800978E0E2131313541F047898
:101EC600E7F278E7EDF278E0E2FF78E7E2FDC39F1C
:101ED600504878DDE2FF12233378DDE278E6F278C7
:101EE600DFE2FF78E6E2C39F502978E1120D02781F
:101EF600E408E2FF2401F218E2FE3400F28F828E3B
:101F060083120BDFFB7D407F7812243D78E6E204E6
:0A1F1600F280CC78E7E204F280AC20
:011F2000229E
:10229900454E474C495348004E4F524D414C00540E
:1022A90049424554414E0052535400434E5400593B
:1022B9004553004E4F00444556001F1C1F1E1F1E4C
:0622C9001F1F1E1F1E1F57
:1021E80081CC00A020A80000F8F8181818181818B2
:1021F8001818F8F0E00000000F0F0C0C0C0C0C0C79
:102208000C0C0F070300880B0800085008BA094097
:0922180081A4FF818C00811B00F0
:1024DC00E478C9F218F278A0F2788DF208F278005C
:0824EC00F243B38053B47F22D8
:101BD500781DE27002816BE4F2A2973378C9F2189E
:101BE500E2FF08E2FE6F605B18EEF2788DE2FE0818
:101BF500E2FF4E700F78A0E2D39405400778007499
:101C050001F28034C3EF940CEE9400400778007421
:101C150004F28024788DE2FE08E2FFC39405EE9479
:101C250000400778007403F2800EC3EF9402EE942F
:101C350000400578007402F2E478A0F2788DF2088D
:101C4500F2801E78C9E2701E78A0E204F2E2D39415
:101C5500C8400DE4F2788EE22401F218E23400F275
:071C6500E478CAF208F22244
:1021A400EF6401703078E07402F27BFF7A00797E8C
:1021B40008120D0B7B20E4FD7F10121E9E78E07444
:1021C40002F27BFF7A00799E08120D0B7B30E4FD4E
:1021D4007F20021E9E78E07402F27B30E4FD7F10C3
:0421E40012200022A3
:101E1A007BFF7A22799978D1120D0BEF64017066F3
:101E2A0078D4F278D4E2FE75F008A4FD2404FFC049
:101E3A0007ED240CFBC00378E07404F278D1120D8C
:101E4A0002EEFF3395E08F82F583120BDFFF3395A5
:101E5A00E0FEEFC4F8540FC868FFEEC454F048FE21
:101E6A0074C02FF974FE3EFA7BFF78E1120D0BD095
:101E7A0003D0077D02121E9E78D4E204F2E2C36404
:101E8A00809487409E2278E07404F27B3C7D02FFB6
:031E9A0012200013
:011E9D002222
:101A9D007809E2B40120E4F278E07403F27B347D3E
:101AAD00017F0C1220007F011221A47F01121E1A4A
:101ABD007802E278CCF27800E2604FB4012078CC65
:101ACD00E27F01700A1221A478CC7401F280071212
:101ADD001E1AE478CCF278CCE27802F280287800F5
:101AED00E2C39402402078CCE27802F278047404C8
:101AFD00F2E478CCF2788FF2780904F2E4FF121E4A
:101B0D001AE4FF1221A4E47800F2788FE2B4640C99
:101B1D007802E27003FF8011E4FF8010788FE2B449
:101B2D00C80D7802E27F0170030221A4121E1A2251
:05215D0078D7120CC44C
:0521620078DD120CDD28
:10216700E478E5F208F278E1120CC478DD120CD0BD
:10217700C3120CB3401F78E6E22401F218E23400E0
:10218700F278DD120CC478E1120CD0120CA578DDC0
:0C219700120CDD80D178E5E2FE08E2FFCA
:0121A3002219
:0523020078D7120CC4A5
:10230700801D78E1120CC478DD120CD0C3120CB317
:10231700401478DD120CC478E1120CD0120CA578A9
:0C232700DD120CDD80DC78DD120CC4221D
:0414290078D1EFF295
:10142D007BFF7A2279A108120D0B7802E26401701C
:10143D007A78D1E26401706678D5F278D5E2FE75DE
:10144D00F008A4FD2408FFC007ED2410FBC00378AD
:10145D00E07402F278D2120D02EEFF3395E08F8226
:10146D00F583120BDFFF3395E0FEEFC4F8540FC880
:10147D0068FFEEC454F048FE74C02FF974FE3EFAB6
:10148D007BFF78E1120D0BD003D007E4FD121E9EF9
:10149D0078D5E204F2E2C364809486409E2278E01F
:1014AD007402F27B38E4FD7F08804278D1E264015A
:1014BD00703078E07402F27BFF7A0079BE08120D6D
:1014CD000B7B20E4FD7F10121E9E78E07402F27BF0
:1014DD00FF7A0079DE08120D0B7B30E4FD7F2002D0
:1014ED001E9E78E07402F27B30E4FD7F1012200026
:0114FD0022CC
:0412420078D1EFF27E
:101246007BFF7A2279A808120D0B7802E2640170FE
:101256007878D1E26401706678D5F278D5E2FE75C9
:10126600F008A4FD2404FFC007ED240CFBC003789E
:10127600E07404F278D2120D02EEFF3395E08F820D
:10128600F583120BDFFF3395E0FEEFC4F8540FC869
:1012960068FFEEC454F048FE74C02FF974FE3EFA9F
:1012A6007BFF78E1120D0BD003D0077D02121E9E44
:1012B60078D5E204F2E2C364809487409E2278E007
:1012C6007404F27B3C7D02807178D1E26401706027
:1012D60078E07404F27BFF7A0079FE08120D0B7B2E
:1012E600107D02E4FF121E9E78E07404F27BFF7A02
:1012F60000799E08120D0B7B207D027F10121E9E28
:1013060078E07404F27BFF7A0079BE08120D0B7B3D
:10131600307D027F20121E9E78E07404F27BFF7AF5
:101326000079DE08120D0B7B407D027F30021E9E87
:0E13360078E07404F27B407D02E4FF12200098
:011344002286
:1019FC007809E2B40112E4F27F011214297F01127A
:101A0C0012427803E278CCF27800E26050B4012103
:101A1C0078CCE27F01B40109121242E478CCF28056
:101A2C000812142978CC7401F278CCE27803F28095
:101A3C00287800E2C39402402078047405F278CC34
:101A4C00E27803F2E478CCF2788FF2780904F2E4CD
:101A5C00FF121429E4FF121242E47800F2788FE2AC
:101A6C00B4641278CCE2B40104E4FF801678CCE2C2
:101A7C00701EFF8018788FE2B4C81578CCE2B401E0
:101A8C00057F0102124278CCE270057F0112142905
:011A9C002227
:0508000078D1120CDDAF
:10080500E478DBF208F278D5E2700E78E07404F251
:100815007B407D02E4FF02200078D1120CC478D71A
:10082500120CDD7803E2600221F778DC740CF278B3
:10083500E1120CE90000271012215D78D6EFF2785D
:10084500E1120CE900002710122302E4FCFD78D721
:10085500120CDD78D6E2FF603075F010A42420F983
:10086500740235F0FA7BFF78E1120D0B78DCE2FFBC
:100875002408FB78E07404F27D02121E9E78DB7476
:1008850001F208E22408F2800678DCE22404F2781A
:10089500E1120CE9000003E812215D78D6EFF27849
:1008A500E1120CE9000003E8122302E4FCFD78D70D
:1008B500120CDD78DBE26401600578D6E2603478FD
:1008C500DB7401F278D6E275F010A42420F97402E5
:1008D50035F0FA7BFF78E1120D0B78DCE2FF240896
:1008E500FB78E07404F27D02121E9E78DCE2240897
:1008F500F2800678DCE22404F278E1120CE90000CB
:10090500006412215D78D6EFF278E1120CE900005F
:100915000064122302E4FCFD78D7120CDD78DBE2DB
:100925006401600578D6E2603478DB7401F278D62C
:10093500E275F010A42420F9740235F0FA7BFF78F3
:10094500E1120D0B78DCE2FF2408FB78E07404F279
:100955007D02121E9E78DCE22408F2800678DCE235
:100965002404F278E1120CE90000000A12215D78F6
:10097500D6EFF278E1120CE90000000A122302E436
:10098500FCFD78D7120CDD78DBE26401600578D6D2
:10099500E2603478DB7401F278D6E275F010A424B5
:1009A50020F9740235F0FA7BFF78E1120D0B78DC43
:1009B500E2FF2408FB78E07404F27D02121E9E78A3
:1009C500DCE22408F2800678DCE22404F278D7120F
:1009D5000CC478D6EFF2E275F010A42420F9740265
:1009E50035F0FA7BFF78E1120D0B78DCE2FF240885
:1009F50061BA78DC7402F278E1120CE90000271084
:100A050012215D78D6EFF278E1120CE9000027108B
:100A1500122302E4FCFD78D7120CDD78D6E2FF60E4
:100A25003075F018A42470F9740435F0FA7BFF785A
:100A3500E1120D0B78DCE2FF240CFB78E07404F284
:100A45007D02121E9E78DB7401F208E2240CF2800E
:100A55000678DCE22406F278E1120CE9000003E8EE
:100A650012215D78D6EFF278E1120CE9000003E877
:100A7500122302E4FCFD78D7120CDD78DBE2640179
:100A8500600578D6E2603378D6E275F018A4247054
:100A9500F9740435F0FA7BFF78E1120D0B78DCE28E
:100AA500FF240CFB78E07404F27D02121E9E78DBB5
:100AB5007401F208E2240CF2800678DCE22406F2E6
:100AC50078E1120CE90000006412215D78D6EFF29E
:100AD50078E1120CE900000064122302E4FCFD78C1
:100AE500D7120CDD78DBE26401600578D6E260336D
:100AF50078D6E275F018A42470F9740435F0FA7B01
:100B0500FF78E1120D0B78DCE2FF240CFB78E07432
:100B150004F27D02121E9E78DB7401F208E2240CB9
:100B2500F2800678DCE22406F278E1120CE9000096
:100B3500000A12215D78D6EFF278E1120CE9000087
:100B4500000A122302E4FCFD78D7120CDD78DBE203
:100B55006401600578D6E2603378D6E275F018A4B2
:100B65002470F9740435F0FA7BFF78E1120D0B78E7
:100B7500DCE2FF240CFB78E07404F27D02121E9E79
:100B850078DB7401F208E2240CF2800678DCE224BA
:100B950006F278D7120CC478D6EFF2E275F018A4F5
:100BA5002470F9740435F0FA7BFF78E1120D0B78A7
:100BB500DCE2FF240CFB78E07404F27D02121E9E39
:010BC500220D
:10113900E4FFFE78A3E264086002413FFDED25E08B
:101149002490F8E2FA08E22FFFEA3EFE0DEDB4081A
:10115900ECEF7803CEC313CE13D8F9FF788CE27085
:1011690037C37812E29F18E29E50037F0422C378A6
:1011790010E29F18E29E50037F0322C3780EE29F7C
:1011890018E29E50037F0222C3780CE29F18E29E68
:1011990050037F01227F0022780BE2FC08E2FD2444
:1011A900F0FBEC34FFFAC3EF9BEE9A50037F002269
:1011B900ED2410FDE43CFCD3EF9DEE9C4015780E28
:1011C900E224F0FD18E234FFFCC3EF9DEE9C5003CE
:1011D9007F0122780EE22410FD18E23400FCD3EFDF
:1011E9009DEE9C40157810E224F0FD18E234FFFCD6
:1011F900C3EF9DEE9C50037F02227810E22410FD7C
:1012090018E23400FCD3EF9DEE9C40157812E224DD
:10121900F0FD18E234FFFCC3EF9DEE9C50037F0301
:10122900227812E22410FD18E23400FCD3EF9DEE7F
:081239009C40037F04227FFFAB
:01124100228A
:100D1400EF702378D2F278D2E2FEC394084002C185
:100D24003B74AC2EF87418F274BC2EF8740CF27880
:100D3400D2E204F280E0EF6401704678D2F278D215
:100D4400E2FEC39402501574AC2EF874F8F274BC2D
:100D54002EF8740FF278D2E204F280E278D27402B0
:100D6400F278D2E2FEC394084002C13B74AC2EF880
:100D74007418F274BC2EF8740CF278D2E204F28087
:100D8400E0EF6402704678D2F278D2E2FEC39404B3
:100D9400501574AC2EF874F8F274BC2EF8740FF27B
:100DA40078D2E204F280E278D27404F278D2E2FEDD
:100DB400C394084002C13B74AC2EF87418F274BC9E
:100DC4002EF8740CF278D2E204F280E0EF6403703F
:100DD4004478D2F278D2E2FFC39406501574AC2F53
:100DE400F874F8F274BC2FF8740FF278D2E204F2BB
:100DF40080E278D27406F278D2E2FFC394085037C6
:100E040074AC2FF87418F274BC2FF8740CF278D206
:100E1400E204F280E2E478D2F278D2E2FFC39408EA
:100E2400501574AC2FF874F8F274BC2FF8740FF2E8
:100E340078D2E204F280E2788C7401F278E004F271
:100E44007BFE7A0079A808120D0B7B10E4FDFF02EB
:020E54001E9EE0
:10238F0012113978D1EFF2F4601AE2FF78A4E26FFC
:10239F006006EFF2FF120D1478D1E2780AF2E478BA
:0423AF00A3F2D2AE15
:0123B3002207
:101345007809E2B4011FE4F212206AE4781BF2780E
:1013550005120CC478D57401F2120800E478A5F2E0
:1013650008F2781CF212238F7800E2FF70028128C0
:101375006401704A7805120CC4EF2401FFE43EFEB7
:10138500E43DFDE43CFC7805120CDD7F9F7E867D07
:10139500017C007805120CD0D3120CB340147805EB
:1013A500120CE900000000E478D5F2FFFEFDFC1206
:1013B50008007805120CC478D57401F2805E7800B7
:1013C500E2B4032A78047406F278097401F2E47829
:1013D500CCF278A474FFF278E07402F27B40E4FD6D
:1013E500FF122000E478D5F2FFFEFDFC802E780088
:1013F500E2B4042B78047407F278097401F2E478F6
:10140500CCF278A474FFF278E07402F27B40E4FD3C
:10141500FF122000E478D5F2FFFEFDFC120800E47F
:041425007800F22237
:040E560078D1EFF26E
:100E5A007BFF7A2279B078D3120D0B7A2279B47893
:100E6A00D6120D0B7802E264016002E14978D1E200
:100E7A0064016002E13C08F278D2E2FE75F008A44F
:100E8A00FD2406FFC007ED240EFBC00378E07402C0
:100E9A00F278D3120D02EEFF3395E08F82F58312BA
:100EAA000BDFFF3395E0FEEFC4F8540FC868FFEE7E
:100EBA00C454F048FE74C02FF974FE3EFA7BFF78E2
:100ECA00E1120D0BD003D007E4FD121E9E78D2E288
:100EDA00FE75F008A4FD2420FFC007ED2428FBC0FE
:100EEA000378E07402F278D6120D02EEFF3395E031
:100EFA008F82F583120BDFFF3395E0FEEFC4F854BF
:100F0A000FC868FFEEC454F048FE74C02FF974FE8F
:100F1A003EFA7BFF78E1120D0BD003D007E4FD12F5
:100F2A001E9E78D2E204F2E2C3648094835002C126
:100F3A00822278E07402F27B38E4FD7F06804278F0
:100F4A00D1E26401703078E07402F27BFF7A0179B1
:100F5A001E08120D0B7B20E4FD7F10121E9E78E006
:100F6A007402F27BFF7A01793E08120D0B7B30E4A2
:100F7A00FD7F20021E9E78E07402F27B30E4FD7F42
:040F8A001012200021
:010F8E002240
:0415C90078D1EFF2F4
:1015CD007BFF7A2279B878D3120D0B7802E2640191
:1015DD00707978D1E26401706508F278D2E2FE7517
:1015ED00F008A4FD240AFFC007ED2412FBC0037808
:1015FD00E07404F278D3120D02EEFF3395E08F8282
:10160D00F583120BDFFF3395E0FEEFC4F8540FC8DE
:10161D0068FFEEC454F048FE74C02FF974FE3EFA14
:10162D007BFF78E1120D0BD003D0077D02121E9EB9
:10163D0078D2E204F2E2C364809483409E2278E083
:10164D007404F27B227D027F0A802978D1E2B401F5
:10165D001878E07404F27BFF7A01799E08120D0B65
:10166D007B1C7D027F0C021E9E78E07404F27B1CB5
:07167D007D027F0C1220002A
:011684002243
:0416850078D1EFF237
:101689007BFF7A2279BC78D3120D0B7802E26401D0
:10169900707978D1E26401706508F278D2E2FE755A
:1016A900F008A4FD2426FFC007ED242EFBC0037813
:1016B900E07404F278D3120D02EEFF3395E08F82C5
:1016C900F583120BDFFF3395E0FEEFC4F8540FC822
:1016D90068FFEEC454F048FE74C02FF974FE3EFA58
:1016E9007BFF78E1120D0BD003D0077D02121E9EFD
:1016F90078D2E204F2E2C364809482409E2278E0C8
:101709007404F27B367D027F26802978D1E2B40108
:101719001878E07404F27BFF7A0179BE08120D0B88
:101729007B347D027F24021E9E78E07404F27B34B0
:071739007D027F2412200055
:011740002286
:101800007809E2B40111E4F27F01120E567F011251
:1018100015C97F011216857800E2FF605BB40119DB
:1018200078CCE2700C7F011215C978CC7401F2807B
:1018300043E478CCF27F0180387800E2C394024020
:101840003378CCE270097805120CE90000000078CA
:10185000047405F2E478CCF2788FF278A474FFF285
:1018600078097401F2E4FF120E56E4FF1215C9E480
:10187000FF121685E47800F2788FE2B4641278CC17
:10188000E27003FF801778CCE26401701EFF8018BD
:10189000788FE2B4C81578CCE270057F010215C9D3
:0C18A00078CCE2B401057F01121685220D
:0410000078D1EFF2C2
:101004007BFF7A2279B078D3120D0B7A2279BF78DC
:10101400D6120D0B7802E26401600201F378D1E28A
:101024006401600201E608F278D2E2FE75F008A4D9
:10103400FD2406FFC007ED240EFBC00378E0740214
:10104400F278D3120D02EEFF3395E08F82F583120E
:101054000BDFFF3395E0FEEFC4F8540FC868FFEED2
:10106400C454F048FE74C02FF974FE3EFA7BFF7836
:10107400E1120D0BD003D007E4FD121E9E78D2E2DC
:10108400FE75F008A4FD2420FFC007ED2428FBC052
:101094000378E07402F278D6120D02EEFF3395E085
:1010A4008F82F583120BDFFF3395E0FEEFC4F85413
:1010B4000FC868FFEEC454F048FE74C02FF974FEE4
:1010C4003EFA7BFF78E1120D0BD003D007E4FD124A
:1010D4001E9E78D2E204F2E2C3648094835002013B
:1010E4002C2278E07402F27B38E4FD7F068042789B
:1010F400D1E26401703078E07402F27BFF7A017906
:101104005E08120D0B7B20E4FD7F10121E9E78E01A
:101114007402F27BFF7A01797E08120D0B7B30E4B6
:10112400FD7F20021E9E78E07402F27B30E4FD7F96
:041134001012200075
:011138002294
:101958007809E2B40111E4F27F011210007F01124C
:1019680015C97F011216857800E26054B4011C780D
:10197800CCE2700C7F011215C978CC7401F2803C5E
:10198800E478CCF27F0112168580317800E2C394A6
:10199800024029E4FF121000E4FF1215C9E4FF1207
:1019A800168578CCE278047003F280037405F2E4BB
:1019B80078CCF2780904F278A474FFF2E47800F2A3
:1019C800788FE2B4641278CCE27003FF801778CC89
:1019D800E26401701EFF8018788FE2B4C81578CCD5
:1019E800E270057F010215C978CCE2B401057F01D8
:0419F800121685221C
:1023B4007804E224FC60101460101460101460109F
:1023C4002406700F021A9D0219FC0213450218001C
:0423D4001219582260
:03003B00020FFBB6
:040FFB0075EC00325F
:1022250043B38053B47FA2AF920075C7AA75C75553
:1022350075910143B18075C7AA75C755E4F591A29B
:102245000092AF43E90143E98043EA8053EB7F43C2
:0B2255009B02D2AF43870253E9FE2238
:10056B001224DC1206DD1221137BFE7A007901E4E2
:10057B00FDFC7F0A121C6CE478CCF2780904F2E4DF
:10058B0078CAF208F2788AF208F278A7F2788CF23D
:10059B0078A474FFF23097FD121BD57801E2B4A555
:1005AB00077804E26002C185E47802F208F278056C
:1005BB00120CE900000000780174A5F278047401B4
:1005CB00F2E4780AF278A474FFF27D017F0712231C
:1005DB003378E07403F27BFF7A03797008120D0B0A
:1005EB007B147D017F0C121E9E78E07403F27BFF5F
:1005FB007A00795E08120D0B7B247D017F14121E8D
:10060B009E78E07403F27BFF7A04793008120D0BAD
:10061B007B2C7D017F24121E9E78E07403F27BFFFE
:10062B007A0279D008120D0B7B347D017F2C121EC0
:10063B009EE478CAF208F27819F20804F27817F2FD
:10064B0018F2E4FDFCFF7E02121B3D7D007C027F55
:10065B00007E02121B3DC378CBE2949018E294010A
:10066B0040F4E478CAF208F2780904F278E07403F3
:10067B00F27B347D017F0C1220001223B4C378CBA4
:10068B00E294E818E294035002A1A3122490780498
:10069B00E2FF64066004EFB4070578047405F27B8F
:1006AB00FE7A007901E4FDFC7F0A1214FEE4F5B139
:1006BB00F5B2F5B3F5B4F5ACF5AD53E1FE43B310BC
:1006CB0043B410C294122225E478CAF208F2122025
:0206DB006A2291
:01000A0022D3
:10000E00A2AF9200C2AF75C7AA75C75543A401A28D
:10001E000092AFE59F30E613A2AF9200C2AF75C754
:0C002E00AA75C755539FBFA20092AF22D5
:0B1B3D0078E9ECF208EDF2AB07AA0615
:101B4800EB4A700261D4EBAE027807CEC313CE1312
:101B5800D8F979ECF3EE19F3EB547F600B78ECE2EB
:101B68002401F218E23400F2A2AF9200C2AF75C7A6
:101B7800AA75C755439F01A20092AF75AEFF75AF16
:101B880062A2AF9200C2AF75C7AA75C75543A50236
:101B9800A20092AFE4FDFCD378ECE29D18E29C40F1
:101BA8002BED75F080A4FF78E9E2FA08E2FB2FF547
:101BB800A6EDAE047807C333CE33CED8F92BEA3E70
:0C1BC800F5A712000E0DBD00010C80CB33
:011BD40022EE
:0B1CFE0078E9EEF208EFF208120D0B7F
:101D0900A2AF9200C2AF75C7AA75C755439F01A27A
:101D19000092AFA2AF9200C2AF75C7AA75C755436B
:101D2900A502A20092AFEDF5A6ECF5A775AF61E4A7
:101D3900FFFED378EAE29F18E29E402078EB120D6D
:101D4900028F828E83120BDFF5AE12000E05A6E517
:101D5900A6700205A70FBF00010E80D6A2AF9200A0
:101D6900C2AF75C7AA75C75553A5FDA20092AFA208
:101D7900AF9200C2AF75C7AA75C755539FFEA2009F
:021D890092AF17
:011D8B002235
:0B1F980078E9EEF208EFF208120D0BE2
:101FA300A2AF9200C2AF75C7AA75C755439F01A2DE
:101FB3000092AFEDF5A6ECF5A775AF40E4FFFED3B5
:101FC30078EAE29F18E29E402012000E78EB120D91
:101FD300028F828E83E5AE120C1E05A6E5A6700263
:101FE30005A70FBF00010E80D6A2AF9200C2AF7546
:0C1FF300C7AA75C755539FFEA20092AF0D
:011FFF0022BF
:0E1C6C0078D1EFF208ECF208EDF208120D0B41
:101C7A00E478D7F278D7E2FDC39420503478D1E2E1
:101C8A00FF7E00C007ED75F010A4FF78D3E22FFDA8
:101C9A0018E235F0FC78D4120D02D007121F98789A
:101CAA00D4120D02120BC6B4A50778D7E204F2804B
:101CBA00C378D7E27014C378D2E29402503508E2AE
:101CCA002400F218E23402F280A678D7E214F278FD
:101CDA00D1E2FF7E00C00778D7E275F010A4FF7842
:101CEA00D3E22FFD18E235F0FC78D4120D02D007AA
:031CFA00121F981E
:011CFD0022C4
:0E14FE0078D1EFF208ECF208EDF208120D0BB7
:10150C00E478E7F278E7E2FDC39420503078D1E23A
:10151C00FF7E00C007ED75F010A4FF78D3E22FFD1D
:10152C0018E235F0FC7BFE7A0079D7D007121F98B1
:10153C0078D7E2B4A50778E7E204F280C778E7E24F
:10154C00FF08F2EFB4201278D2E2FC08E2FD7F0033
:10155C007E02121B3DE478E7F278D1E2FF7E00C0F8
:10156C000778E7E275F010A4FF78D3E22FFD18E2BC
:10157C0035F0FC78D4120D02D007121CFE78E8E28C
:10158C00B4200F7D007C027F007E02121B3DE478AC
:10159C00E8F278D1E2FF7E00C00778E8E275F0103F
:1015AC00A4FF78D3E22FFF18E235F0CF2400FDEF33
:0D15BC003402FC78D4120D02D007021CFE90
:0322210081CD006C
:0825600043B30243B402C2922E
:07256800E4FFFEEF4E70FCE2
:01256F002249
:10003E0053B3FB43B40443B30443B404D29253B357
:0D004E00FD43B40243B30243B402D2912239
:1007EF00D291D292122568C291122568C292022527
:0107FF006891
:0A258700C291D292122568D291226F
:0223FB00AD072C
:1023FD00E4FCED30E704D2918002C291ED25E0FDC1
:0F240D00D292122568C2921225680CECB408E333
:01241C00229D
:03241D001223FB8C
:1024200043B30253B4FDD2921225683091091225AC
:0D243000871225607F01221225607F0022A7
:10243D00AC07AA051207EFAF0412241DAF02122438
:0C244D001DAF031223FB12242002258780
:0C257000C291C292122568D29202256826
:10236300E4FDFC43B30253B4FDC292122568D2923A
:10237300122568EC25E0FC3091010C0DEDB408E961
:0B23830043B30243B402122570AF0404
:01238E00222C
:07000300AE071FEE70FA22A8
:0622CF00C280C283D28030
:0222D500AD0753
:1022D700C2837F02120003E4FCED30E004D2818068
:1022E70002C2817F01120003D2837F01120003C261
:0A22F70083EDC313FD0CECB408DF07
:0123010022B9
:1022600053B1FD43B20243B10253B2FD7F021200EB
:1022700003E4FCEDC313FD3081034480FDD2837F72
:1022800001120003C2837F011200030CECB408E3C7
:0822900053B1FD43B202AF059A
:012298002223
:06253600AA07E4FD7F8E00
:0F253C00AB051222CFAF031222D5D283C2802269
:0A257C001222CF122260D283C28027
:012586002232
:1023D8001225367F8112257CEA6006EF4480FF8053
:1023E80004EF547FFFAD077F8012253C7D807F8EF0
:0323F80002253C7F
:100F8F0053B1F743B20853B1FD43B20253B1FE431D
:100F9F00B201C283C281C2807FC112257CEF64A8D7
:100FAF006049122538E4FD7F8012253C7D207F8229
:100FBF0012253C7D077F8412253C7D257F861225D7
:100FCF003C7D127F8812253C7D107F8A12253C7D47
:100FDF00067F8C12253CE4FD7F9012253C7DA87F77
:0C0FEF00C012253C7D807F8E12253C2224
:04254B00120BDFFF91
:10254F00EF54F0C4540F75F00AA4FEEF540F2EFF92
:01255F002259
:04245900120BDFFF84
:10245D00E4FEEFC3940A400A74102EFE74F62FFFAB
:07246D0080F0EE4FFEAF0608
:012474002245
:101741007F8112257CEF120C0C7F8312257C900087
:1017510001EF120C1E7F8512257C900002EF120C06
:101761001E7F8712257C900003EF120C1E7F8912C9
:10177100257C900004EF120C1E7F8B12257C9000BB
:1017810005EF120C1E7F8D12257CE42FFFE434201F
:101791009000068FF0120C78120BC6FF12254FEF46
:1017A100120C0C90000112254B900001EF120C1E3F
:1017B10090000212254B900002EF120C1E900003C4
:1017C10012254B900003EF120C1E90000412254BC2
:1017D100900004EF120C1E90000512254B9000059D
:1017E100EF120C1E900006120C40FF12254F9000C4
:0717F10006E48FF0020C7802
:051D8C0078CE120D0BE2
:101D91001225387DFF7FC012253C78CE120D02122C
:101DA1000BC6FF12245DAD077F8012253C78CE1251
:101DB1000D02900001122459AD077F8212253C7853
:101DC100CE120D02900002122459AD077F84122514
:101DD1003C78CE120D02900003122459AD077F8684
:101DE10012253C78CE120D02900004122459AD0741
:101DF1007F8812253C78CE120D02900006120C400D
:101E0100FF12245DAD077F8C12253C7DA87FC01297
:091E1100253C7D807F8E02253CFA
:1024F400122536AF0212245DAD077F8412253C7D80
:06250400807F8E02253CE1
:10250A00122536AF0212245DAD077F8212253C7D6B
:06251A00807F8E02253CCB
:10252000122536AF0212245DAD077F8012253C7D57
:06253000807F8E02253CB5
:030000000218AC37
:1018AC0075C7AA75C75575FD5A75C7AA75C75575FD
:1018BC00FDA5787FE4F6D8FD9000007FFF7E03E461
:0C18CC00F0A3DFFCDEFA75812002191386
:1018D8000224C4E493A3F8E493A34003F68001F23E
:1018E80008DFF48029E493A3F85407240CC8C33311
:1018F800C4540F4420C8834004F456800146F6DFE0
:10190800E4800B01020408102040809021E8E47E66
:10191800019360BCA3FF543F30E509541FFEE493D4
:10192800A360010ECF54C025E060A840B8E493A39B
:10193800FAE493A3F8E493A3C8C582C8CAC583CAC6
:10194800F0A3C8C582C8CAC583CADFE9DEE780BE7E
:0122240000B9
:100BC600BB010689828A83E0225002E722BBFE022D
:090BD600E32289828A83E4932260
:100BDF00BB010CE58229F582E5833AF583E02250CB
:100BEF0006E92582F8E622BBFE06E92582F8E22215
:0D0BFF00E58229F582E5833AF583E493222F
:100C0C00BB010689828A83F0225002F722BBFE01C7
:020C1C00F322C1
:100C1E00F8BB010DE58229F582E5833AF583E8F00C
:100C2E00225006E92582C8F622BBFE05E92582C8B8
:020C3E00F222A0
:100C4000BB0110E58229F582E5833AF583E0F5F0F2
:100C5000A3E0225009E92582F886F008E622BBFECF
:100C60000AE92582F8E2F5F008E222E5832AF58315
:080C7000E993F5F0A3E99322DA
:100C7800F8BB0111E58229F582E5833AF583E8F0AE
:100C8800E5F0A3F0225009E92582C8F608A6F0226B
:0D0C9800BBFE09E92582C8F2E5F008F22252
:0E0CA500C3EF9BFFEE9AFEED99FDEC98FC224A
:100CB300EB9FF5F0EA9E42F0E99D42F0E89C45F097
:010CC300220E
:0C0CC400E2FC08E2FD08E2FE08E2FF226C
:0D0CD000E2FB08E2F908E2FA08E2CBF822A4
:0C0CDD00ECF208EDF208EEF208EFF22253
:100CE900D083D082E493F208740193F208740293DA
:090CF900F208740393F274047311
:090D0200E2FB08E2FA08E2F92222
:090D0B00EBF208EAF208E9F22219
:00000001FF
