:03000B0002277C4D
:10277C00C0E0C0D075D000C000758CE5758AF578C6
:10278C00307401F278A1E204F2E2D394C84002E47E
:10279C00F278C5E22401F218E23400F278B8E224AF
:1027AC0001F218E23400F278B4E22401F218E234B7
:1027BC0000F2789EE22401F218E23400F2D000D04C
:0427CC00D0D0E03257
:102BD8007589FF5389F0438901538EF7758CE57524
:092BE8008AF5D2A9D2AFD28C22E9
:03005B0002251863
:10251800C0E0C0D075D000C000C001C005C006C072
:1025280007C2EFAFC378B5E2FD25E024A2F8E4F2D4
:1025380008EFF2ED25E024A2F8C000F909E3C4F899
:10254800540FC868FE19E3C454F048D000F208CE0E
:10255800F2ED25E024A2F8C000E5C2540FFFE2FE28
:1025680008E24FFFD000EEF208EFF278B5E204F28D
:10257800E2C394084002C2AED007D006D005D0010D
:07258800D000D0D0D0E032FA
:10272700E478B5F27F1478A2E4F208DFFC43DE0414
:1027370053E8F043E80343B14053B2BFE4F5F6432F
:10274700F60843E10153E8DF43E81053E1F753E1AB
:10275700FB43E10275D10775D9FF75D40275DCFF1C
:10276700D2DED2DFD2AED2AF78B5E2B408FAE478DF
:04277700B5F2D2AE37
:01277B00223B
:102BF100E4F5B1F5B2F5B3F5B4F5ACF5AD122BD8FA
:082C0100122727120E0780FBC9
:10005E00000808080808080808080808080800002A
:10006E0040404141414141414141414141404000B7
:10007E000000F010101010FF10101010F000000013
:10008E0000000F04040404FF040404040F00000025
:10009E0008080838C808090E0808C83808080800F3
:1000AE008080404020110A040A11204040808000C8
:1000BE0090523410FF10345280708F0808F80800E8
:1000CE00829A566322528E008040330C3340800059
:1000DE00100C042424242526A464240404140C00E7
:1000EE00020202020242827F0202020202020200A7
:1000FE0002E282F212D752D25217FA12169A120056
:10010E00128E621F003F253DA74027182641F000A2
:10011E0000FC0000FF0004848484848484FC0000BE
:10012E00008740300F00202020202020207F00005C
:10013E00100C05555555857F8555555505140C00E4
:10014E000404020A09292A4C48A9190202040400CF
:10015E00101014D4545454FC525252D31210100096
:10016E00404050575555557F5555555750404000B6
:10017E00001715D55557557D555755D515170000F0
:10018E004040407F555555555555557F4040400090
:10019E000000007F494949494949497F0000000054
:1001AE008141211D214181FF8989898989818100B0
:1001BE0000028282422212FA06222242428200006B
:1001CE00010100FC44444445444444FC0000010049
:1001DE007E8181817E000082FF800000C6A1918910
:1001EE0086004281898976003028A6FFA0005F89AB
:1001FE00898971007C92898972000001F10D0300DA
:10020E007689898976004E9191493E0000C0300C66
:10021E00030000F804020204F800000304080804B6
:10022E00030000000404FE000000000008080F0890
:10023E000800001C020282423C00000C0A09080859
:10024E000C00000C024242A21C000006080808081E
:10025E000700008060100CFE000000010109090F6C
:10026E000909007E222222428200000608080804A4
:10027E00030000F844222224C000000304080808EA
:10028E00070000060282621A06000000000F00003E
:10029E000000001CA24242A21C0000070808080829
:1002AE000700007C82828244F800000004080804E3
:1002BE000300000000C0300E01000018060100000F
:1002CE0000000000C038E0000000203C230202279E
:1002DE00382008F8888888700000203F20202011E0
:1002EE000E00C0300808080838000718202020101B
:1002FE00080008F808080810E000203F2020201011
:10030E000F0008F88888E8081000203F20202320DE
:10031E00180008F88888E8081000203F2000030025
:10032E000000C03008080838000007182020221EE0
:10033E00020008F808000008F808203F21010121FA
:10034E003F20000808F8080800000020203F202069
:10035E00000000000808F8080800C08080807F00B8
:10036E00000008F888C028180800203F2001263811
:10037E00200008F8080000000000203F2020202068
:10038E00300008F8F800F8F80800203F013E013F61
:10039E00200008F830C00008F808203F2000071899
:1003AE003F00E01008080810E0000F102020201079
:1003BE000F0008F808080808F000203F210101018D
:1003CE000000E01008080810E0000F102828305038
:1003DE004F0008F8888888887000203F2000030CA2
:1003EE0030200070880808083800003820212122AB
:1003FE001C00180808F8080818000000203F20000C
:10040E00000008F808000008F808001F202020202F
:10041E001F000878880000C83808000007380E0151
:10042E00000008F800F800F8080000033E013E0343
:10043E000000081868808068180820302C03032CF0
:10044E0030200838C800C83808000000203F2000BF
:10045E00000010080808C83808002038262120207F
:10046E0018000000C0201018183060C000000000F6
:10047E00030306060606020100000000381C0203F4
:10048E0083FF3F01000000008040201C0F0300008E
:10049E00000020181C068787C63C1E0100000000C5
:1004AE000201010103070E18608010080E06422398
:1004BE0023B2EF0000000000000004020303061C3C
:1004CE00780040E0980C1E387060E0C0808000001C
:1004DE00010302060C0C08181010007CFEC06030E0
:1004EE00FCFE0301000000000000000000030F3CB2
:1004FE00408000F0FC0E020000000080C0400003AF
:10050E000F3040848CFE730100000000000080C09C
:10051E00C080061F1CF000080FC360203F2710107C
:10052E000C0300202030303078EEC3800000000035
:10053E00000000000000010738C0000000E0700C51
:10054E000672DE8C000000003FCF000000000001AC
:0D055E00010000303000000C0C00002400F3
:1014580053B3EF43B410C294E478C4F208F2C378EB
:10146800C5E2940218E2940040F4D29412003EE4DB
:1014780078C4F208F2C378C5E2940218E2940040F6
:10148800F47BAEE4FD7F78122B6AE4FBFD7F7812D3
:101498002B6A7B12E4FD7F78122B6AE4FBFD7F78D0
:1014A800122B6A7BB0E4FD7F78122B6A7B81E4FD06
:1014B8007F78122B6A7BFFE4FD7F78122B6A7BA171
:1014C800E4FD7F78122B6A7BA6E4FD7F78122B6AF5
:1014D8007BA8E4FD7F78122B6A7B1FE4FD7F7812DE
:1014E8002B6A7BC8E4FD7F78122B6A7BD3E4FD7FEF
:1014F80078122B6AE4FBFD7F78122B6A7BD5E4FD1A
:101508007F78122B6A7B80E4FD7F78122B6A7BD967
:10151800E4FD7F78122B6A7B1FE4FD7F78122B6A2B
:101528007BDAE4FD7F78122B6A7B12E4FD7F781268
:101538002B6A7BDBE4FD7F78122B6A7B40E4FD7F1E
:1015480078122B6A7B8DE4FD7F78122B6A7B14E47A
:10155800FD7F78122B6A7BAFE4FD7F78122B6A7FC0
:0215680000225F
:1027D000EF242078DFF2ED24B0FBE4FD7F78122BAC
:1027E0006A78DFE254F0C4540F4410FBE4FD7F78B4
:1027F000122B6A78DFE2540FFBE4FD7F78022B6A2C
:102BA2007B8DE4FD7F78122B6A7B14E4FD7F781223
:0B2BB2002B6A7BAFE4FD7F78022B6AEA
:102BBD007B8DE4FD7F78122B6A7B10E4FD7F78120C
:0B2BCD002B6A7BAEE4FD7F78022B6AD0
:10284D00E478C8F278C8E2FFC39404503CEF24B09A
:10285D00FBE4FD7F78122B6AE4FBFD7F78122B6A77
:10286D007B12E4FD7F78122B6A78C97420F2E4FBA9
:10287D007D407F78122B6A78C9E204F2E2C394603E
:09288D0040EC78C8E204F280BBC3
:01289600221F
:0825FB0078D4EFF278D6EBF280
:10260300E478D8F208F278D7E2FF54077008EF13A2
:102613001313541F800978D7E2131313541F04783C
:10262300DBF278DBEDF278D7E2FF78DBE2FDC39FE4
:10263300502F78D4E2FF1227D078D4E278DAF278F8
:10264300D6E2FF78DAE2C39F5010E4FB7D407F7847
:10265300122B6A78DAE204F280E578DBE204F28096
:01266300C5B1
:012664002253
:0824140078D4EFF278D6EBF268
:10241C00E478DBF208F278D7E2FF54077008EF1388
:10242C001313541F800978D7E2131313541F047825
:10243C00DEF278DEEDF278D7E2FF78DEE2FDC39FC4
:10244C00504878D4E2FF1227D078D4E278DDF278C5
:10245C00D6E2FF78DDE2C39F502978D81210B1780C
:10246C00DB08E2FF2401F218E2FE3400F28F828EC8
:10247C0083120F8EFB7D407F78122B6A78DDE2048D
:0A248C00F280CC78DEE204F280ACAE
:012496002223
:1029DE00454E474C495348004E4F524D414C0054C2
:1029EE0049424554414E0052535400434E540059EF
:1029FE004553004E4F00444556001F1C1F1E1F1E00
:062A0E001F1F1E1F1E1F0A
:102B0D0081C60088BA1F111111111F0E00881E08F1
:0D2B1D0000085008BA094081B6FF812E0063
:102C0900E478C3F218F278B2F2789FF208F27810F9
:082C1900F243B38053B47F22A3
:1021D6007830E27002416CE4F2A2973378C3F218C9
:1021E600E2FF08E2FE6F605B18EEF2789FE2FE08FF
:1021F600E2FF4E700F78B2E2D39405400778107470
:1022060001F28034C3EF940CEE940040077810740A
:1022160004F28024789FE2FE08E2FFC39405EE9460
:1022260000400778107403F2800EC3EF9402EE9418
:1022360000400578107402F2E478B2F2789FF20852
:10224600F2801E78C3E2701E78B2E204F2E2D39402
:10225600C8400DE4F278A0E22401F218E23400F25C
:07226600E478C4F208F22243
:10292600EF6401703078D77402F27BFF7A00797E0B
:10293600081210BA7B20E4FD7F1012241478D77495
:1029460002F27BFF7A00799E081210BA7B30E4FD12
:102956007F2002241478D77402F27B30E4FD7F10C6
:042966001225FB2219
:102390007BFF7A2979DE78C81210BAEF6401706683
:1023A00078CBF278CBE2FE75F008A4FD2404FFC0E0
:1023B00007ED240CFBC00378D77404F278C8121020
:1023C000B1EEFF3395E08F82F583120F8EFF3395C8
:1023D000E0FEEFC4F8540FC868FFEEC454F048FEA6
:1023E00074C02FF974FE3EFA7BFF78D81210BAD071
:1023F00003D0077D0212241478CBE204F2E2C36416
:10240000809487409E2278D77404F27B3C7D02FF43
:032410001225FB97
:0124130022A6
:1020A400781BE2B4011AE4F278D77403F27B347D2E
:1020B400017F0C1225FB7F011229267F0112239038
:1020C4007810E2604FB4012078C6E27F01700A12F2
:1020D400292678C67401F28007122390E478C6F2A8
:1020E40078C6E27811F280287810E2C39402402086
:1020F40078C6E27811F278167403F2E478C6F278BE
:10210400A1F2781B04F2E4FF122390E4FF122926C3
:10211400E47810F278A1E2B4640C7811E27003FF61
:102124008011E4FF801078A1E2B4C80D7811E27F39
:0A21340001700302292612239022F5
:0528DF0078CE12107319
:0528E40078D412108CF5
:1028E900E478DCF208F278D812107378D412107FE9
:1028F900C3121062401F78DDE22401F218E23400AD
:10290900F278D412107378D812107F12105478D438
:0C29190012108C80D178DCE2FE08E2FF96
:01292500228F
:052A470078CE121073AF
:102A4C00801D78D812107378D412107FC3121062C4
:102A5C00401478D412107378D812107F1210547856
:0C2A6C00D412108C80DC78D4121073227D
:042CE3007800EFF294
:012CE70022CA
:042CE8007804EFF28B
:012CEC0022C5
:042CED007807EFF283
:012CF10022C0
:01000A0022D3
:101A6D00EF6401600261277813E278C8F2FFE4FCAD
:101A7D00FDFEC004C005C006C00778D8121098003E
:101A8D0000000AD007D006D005D0041228E478C98A
:101A9D00EFF218E2FFE4FCFDFEC004C005C006C075
:101AAD000778D81210980000000AD007D006D0058C
:101ABD00D004122A4C78C8EFF208E275F010A42475
:101ACD0020F9740235F0FA7BFF78D81210BA78D766
:101ADD007403F27B0B7D01FF12241478C8E208F227
:101AED00E275F010A42420F9740235F0FA7BFF782A
:101AFD00D81210BA78D77403F27B137D017F0B12C5
:101B0D00241478D77403F27BFF7A057960081210DC
:101B1D00BA7B177D017F1302241478D77403F27BEF
:071B2D00137D01FF1225FBEF
:011B3400228E
:1019A300EF64016002415E7814E278C8F2FFE4FC60
:1019B300FDFEC004C005C006C00778D81210980009
:1019C30000000AD007D006D005D0041228E478C955
:1019D300EFF218E2FFE4FCFDFEC004C005C006C040
:1019E3000778D81210980000000AD007D006D00557
:1019F300D004122A4C78C8EFF208E275F010A42440
:101A030020F9740235F0FA7BFF78D81210BA78D730
:101A13007403F27B207D017F1812241478C8E20836
:101A2300F2E275F010A42420F9740235F0FA7BFF7A
:101A330078D81210BA78D77403F27B287D017F20FF
:101A430012241478D77403F27BFF7A0579600812A5
:101A530010BA7B2C7D017F2802241478D77403F2FB
:091A63007B287D017F181225FB90
:011A6C002257
:101D6400EF64016002C1077815E278C8F2FFE4FC71
:101D7400FDFEC004C005C006C00778D81210980044
:101D840000000AD007D006D005D0041228E478C990
:101D9400EFF218E2FFE4FCFDFEC004C005C006C07B
:101DA4000778D81210980000000AD007D006D00592
:101DB400D004122A4C78C8EFF208E275F010A4247B
:101DC40020F9740235F0FA7BFF78D81210BA78D76C
:101DD4007403F27B357D017F2D12241478C8E20848
:101DE400F2E275F010A42420F9740235F0FA7BFFB6
:101DF40078D81210BA78D77403F27B3D7D017F3511
:101E040002241478D77403F27B3D7D017F2D1225C3
:011E1400FBD2
:011E150022AA
:10133500781BE2B4011DE4F2FF122926E4FF122313
:1013450090122B4E7F01121A6D7F011219A37F0196
:10135500121D647810E2FF7002811B6401704678EB
:10136500B904F278C6E2FF70117813E204F2E2D311
:10137500941750028117E4F28117EFB40111781424
:10138500E204F2E2D3943B50028117E4F28117782C
:10139500C6E26402707C7815E204F2E2D3943B4025
:1013A50071E4F2806D7810E2C39402406578C6E27C
:1013B5006402704378B9E2601DE4F27813E278289C
:1013C500F27814E27827F27815E27826F27BFE7A35
:1013D50000792612230278167404F2781B7401F240
:1013E500E478C6F278A1F2FF121A6DE4FF1219A390
:1013F500E4FF121D64800578C6E204F278C6E2B403
:1014050001057F01121A6D78C6E2B402057F01124B
:1014150019A3E47810F278A1E26464701678C6E244
:101425007003FF801C78C6E2B40104E4FF801DE46C
:10143500FF801C78A1E264C8701878C6E270057F49
:1014450001021A6D78C6E27F01B401030219A312E5
:031455001D6422F1
:0418000078C8EFF2C3
:101804007BFF7A2979E6081210BA7811E264017034
:101814007A78C8E26401706678CCF278CCE2FE751E
:10182400F008A4FD2408FFC007ED2410FBC00378D2
:10183400D77402F278C91210B1EEFF3395E08F82AB
:10184400F583120F8EFF3395E0FEEFC4F8540FC8F2
:1018540068FFEEC454F048FE74C02FF974FE3EFADB
:101864007BFF78D81210BAD003D007E4FD122414F9
:1018740078CCE204F2E2C364809486409E2278D756
:101884007402F27B38E4FD7F08804278C8E2640188
:10189400703078D77402F27BFF7A0079BE08121098
:1018A400BA7B20E4FD7F1012241478D77402F27BF3
:1018B400FF7A0079DE081210BA7B30E4FD7F200243
:1018C400241478D77402F27B30E4FD7F101225FBD8
:0118D40022F1
:0416750078C8EFF250
:101679007BFF7A2979ED081210BA7811E2640170BA
:101689007878C8E26401706678CCF278CCE2FE75AD
:10169900F008A4FD2404FFC007ED240CFBC0037867
:1016A900D77404F278C91210B1EEFF3395E08F8236
:1016B900F583120F8EFF3395E0FEEFC4F8540FC87F
:1016C90068FFEEC454F048FE74C02FF974FE3EFA68
:1016D9007BFF78D81210BAD003D0077D02122414E8
:1016E90078CCE204F2E2C364809487409E2278D7E2
:1016F9007404F27B3C7D02807178C8E264017060F9
:1017090078D77404F27BFF7A0079FE081210BA7B4D
:10171900107D02E4FF12241478D77404F27BFF7A57
:1017290000799E081210BA7B207D027F10122414C2
:1017390078D77404F27BFF7A0079BE081210BA7B5D
:10174900307D027F2012241478D77404F27BFF7A4B
:101759000079DE081210BA7B407D027F3002241422
:0E17690078D77404F27B407D02E4FF1225FB6A
:01177700224F
:10226D00781BE2B4010CE4F27F011218007F011219
:10227D0016757810E2604AB4011B78C6E27F01B48E
:10228D000109121675E478C6F2803212180078C66C
:10229D007401F280287810E2C394024020781674FD
:1022AD0005F278C6E27812F2E478C6F278A1F278F7
:1022BD001B04F2E4FF121800E4FF121675E4781007
:1022CD00F278A1E2B4641278C6E2B40104E4FF80AE
:1022DD001678C6E2701EFF801878A1E2B4C8157892
:1022ED00C6E2B401057F0102167578C6E270057F5E
:0522FD0001121800228F
:102C8D00EF6401600E78D77402F27B40E4FD7F049F
:032C9D001225FB02
:012CA0002211
:100BC600EF64016002A1F87815E2FF7E00780DEE71
:100BD600F208EFF2FFE4FCFDC004C005C006C00742
:100BE60078D81210980000000AD007D006D005D099
:100BF600041228E4780FEFF2780DE2FE08E2FFE433
:100C0600FCFDC004C005C006C00778D812109800C5
:100C160000000AD007D006D005D004122A4C780D61
:100C2600EEF208EFF208E275F006A424DEF974018C
:100C360035F0FA7BFF78D81210BA78D77401F27BB8
:100C46003AE4FD7F34122414780D08E208F2E275C6
:100C5600F006A424DEF9740135F0FA7BFF78D81289
:100C660010BA78D77401F27B40E4FD7F3A1224145F
:100C760078D77401F27BFF7A057968081210BA7B7F
:100C860034E4FD7F311224147814E2FF7E00780DDF
:100C9600EEF208EFF2FFE4FCFDC004C005C006C09A
:100CA6000778D81210980000000AD007D006D005A1
:100CB600D0041228E4780FEFF2780DE2FE08E2FF86
:100CC600E4FCFDC004C005C006C00778D812109821
:100CD6000000000AD007D006D005D004122A4C78AE
:100CE6000DEEF208EFF208E275F006A424DEF974C0
:100CF6000135F0FA7BFF78D81210BA78D77401F272
:100D06007B2BE4FD7F25122414780D08E208F2E21D
:100D160075F006A424DEF9740135F0FA7BFF78D865
:100D26001210BA78D77401F27B31E4FD7F2B1224BE
:100D36001478D77401F27BFF7A057968081210BA25
:100D46007B25E4FD7F221224147813E2FF7E0078CF
:100D56000DEEF208EFF2FFE4FCFDC004C005C0068C
:100D6600C00778D81210980000000AD007D006D025
:100D760005D0041228E4780FEFF2780DE2FE08E2BF
:100D8600FFE4FCFDC004C005C006C00778D81210F9
:100D9600980000000AD007D006D005D004122A4CCD
:100DA600780DEEF208EFF208E275F006A424DEF9FB
:100DB600740135F0FA7BFF78D81210BA78D774012F
:100DC600F27B1CE4FD7F16122414780D08E208F26B
:100DD600E275F006A424DEF9740135F0FA7BFF789B
:100DE600D81210BA78D77401F27B22E4FD7F1C0278
:100DF600241478D77402F27B40E4FD7F041225FBAD
:010E060022C9
:0508000078C812108C05
:10080500E478D2F208F278CCE2700E78D77404F26C
:100815007B407D02E4FF0225FB78C812107378CE79
:1008250012108C7812E2600221F778D3740CF278FA
:10083500D8121098000027101228DF78CDEFF27833
:10084500D812109800002710122A47E4FCFD78CE34
:1008550012108C78CDE2FF603075F010A42420F9D9
:10086500740235F0FA7BFF78D81210BA78D3E2FF1C
:100875002408FB78D77404F27D0212241478D2740C
:1008850001F208E22408F2800678D3E22404F27823
:10089500D8121098000003E81228DF78CDEFF2781F
:1008A500D8121098000003E8122A47E4FCFD78CE20
:1008B50012108C78D2E26401600578CDE26034785C
:1008C500D27401F278CDE275F010A42420F97402F7
:1008D50035F0FA7BFF78D81210BA78D3E2FF2408F6
:1008E500FB78D77404F27D0212241478D3E224082D
:1008F500F2800678D3E22404F278D812109800002A
:1009050000641228DF78CDEFF278D8121098000035
:100915000064122A47E4FCFD78CE12108C78D2E2EE
:100925006401600578CDE2603478D27401F278CD47
:10093500E275F010A42420F9740235F0FA7BFF78F3
:10094500D81210BA78D3E2FF2408FB78D77404F2E2
:100955007D0212241478D3E22408F2800678D3E2CB
:100965002404F278D81210980000000A1228DF78C3
:10097500CDEFF278D81210980000000A122A47E449
:10098500FCFD78CE12108C78D2E26401600578CD3A
:10099500E2603478D27401F278CDE275F010A424C7
:1009A50020F9740235F0FA7BFF78D81210BA78D3A3
:1009B500E2FF2408FB78D77404F27D021224147830
:1009C500D3E22408F2800678D3E22404F278CE122A
:1009D500107378CDEFF2E275F010A42420F97402BB
:1009E50035F0FA7BFF78D81210BA78D3E2FF2408E5
:1009F50061BA78D37402F278D812109800002710E3
:100A05001228DF78CDEFF278D81210980000271061
:100A1500122A47E4FCFD78CE12108C78CDE2FF60F7
:100A25003075F018A42470F9740435F0FA7BFF785A
:100A3500D81210BA78D3E2FF240CFB78D77404F2ED
:100A45007D0212241478D27401F208E2240CF2809B
:100A55000678D3E22406F278D8121098000003E84D
:100A65001228DF78CDEFF278D8121098000003E84D
:100A7500122A47E4FCFD78CE12108C78D2E264018C
:100A8500600578CDE2603378CDE275F018A4247066
:100A9500F9740435F0FA7BFF78D81210BA78D3E2EE
:100AA500FF240CFB78D77404F27D0212241478D24B
:100AB5007401F208E2240CF2800678D3E22406F2EF
:100AC50078D8121098000000641228DF78CDEFF274
:100AD50078D812109800000064122A47E4FCFD78CB
:100AE500CE12108C78D2E26401600578CDE26033D5
:100AF50078CDE275F018A42470F9740435F0FA7B0A
:100B0500FF78D81210BA78D3E2FF240CFB78D7749B
:100B150004F27D0212241478D27401F208E2240C46
:100B2500F2800678D3E22406F278D81210980000F5
:100B3500000A1228DF78CDEFF278D812109800005D
:100B4500000A122A47E4FCFD78CE12108C78D2E216
:100B55006401600578CDE2603378CDE275F018A4C4
:100B65002470F9740435F0FA7BFF78D81210BA783E
:100B7500D3E2FF240CFB78D77404F27D021224140F
:100B850078D27401F208E2240CF2800678D3E224CC
:100B950006F278CE12107378CDEFF2E275F018A454
:100BA5002470F9740435F0FA7BFF78D81210BA78FE
:100BB500D3E2FF240CFB78D77404F27D02122414CF
:010BC500220D
:1018D500E4FFFE78B5E26408600221A0FDED25E095
:1018E50024A2F8E2FA08E22FFFEA3EFE0DEDB40865
:1018F500ECEF7803CEC313CE13D8F9FF781FE2249B
:10190500F0FD18E234FFFCC3EF9DEE9C50037F0011
:1019150022781FE22410FD18E23400FCD3EF9DEE7F
:101925009C40157821E224F0FD18E234FFFCC3EF5A
:101935009DEE9C50037F01227821E22410FD18E2E0
:101945003400FCD3EF9DEE9C40157823E224F0FD96
:1019550018E234FFFCC3EF9DEE9C50037F02227812
:1019650023E22410FD18E23400FCD3EF9DEE9C40E9
:10197500157825E224F0FD18E234FFFCC3EF9DEE57
:101985009C50037F03227825E22410FD18E23400E1
:0D199500FCD3EF9DEE9C40037F04227FFFFA
:0119A2002222
:1026CD00EF700678BB74118033EFB4010A78BB74D8
:1026DD001FF20874118027EFB4020C78BB741FF23F
:1026ED0008F20874118019EF78BBB4030D741FF252
:1026FD0008F208F2087411F28009741FF208F2084A
:10270D00F208F278D77401F27BFE7A0079BA0812DA
:0A271D0010BA7B08E4FDFF0224144B
:1007D9001218D578C8EFF2F4601AE2FF78B6E26F22
:1007E9006006EFF2FF1226CD78C8E2781DF2E478B0
:0407F900B5F2D2AED5
:0107FD0022D9
:102897007BFE78CE1210BA78D1E4F2087403F20BFB
:0428A7007A057968CD
:0528AB0078CB1210BA09
:1028B000E4FFFED378D2E29F18E29E402178CB124B
:1028C00010B18F828E83120F8EFD78CE1210B18FD1
:0E28D000828E83ED120FCD0FBF00010E80D55A
:0128DE0022D7
:10056B00E4786DF208F208F27813E2FF7E0078C8A7
:10057B00EEF208EFF2FFE4FCFDC004C005C006C0BC
:10058B000778D81210980000000AD007D006D005C3
:10059B00D0041228E478CAEFF278C8E2FE08E2FF32
:1005AB00E4FCFDC004C005C006C00778D812109843
:1005BB000000000AD007D006D005D004122A4C78D0
:1005CB00C8EEF208EFF208E275F006A424DEF97427
:1005DB000135F0FA7BFFC003C002C0011B7A007922
:1005EB007078CE1210BA78D1E4F2087406F2D0010A
:1005FB00D002D0031228AB78C808E208F2E275F0FB
:10060B0006A424DEF9740135F0FA7BFFC003C002A7
:10061B00C0011B7A00797678CE1210BA78D1E4F249
:10062B00087406F2D001D002D0031228AB7A0079FD
:10063B007C1228977814E2FF7E0078C8EEF208EF60
:10064B00F2FFE4FCFDC004C005C006C00778D81259
:10065B0010980000000AD007D006D005D00412284D
:10066B00E478CAEFF278C8E2FE08E2FFE4FCFDC0D2
:10067B0004C005C006C00778D81210980000000A05
:10068B00D007D006D005D004122A4C78C8EEF20859
:10069B00EFF208E275F006A424DEF9740135F0FAE6
:1006AB007BFFC003C002C0011B7A00797F78CE129A
:1006BB0010BA78D1E4F2087406F2D001D002D0035C
:1006CB001228AB78C808E208F2E275F006A424DE23
:1006DB00F9740135F0FA7BFFC003C002C0011B7A2D
:1006EB0000798578CE1210BA78D1E4F2087406F24C
:1006FB00D001D002D0031228AB7A00798B12289745
:10070B007815E2FF7E0078C8EEF208EFF2FFE4FC0A
:10071B00FDC004C005C006C00778D81210980000B1
:10072B00000AD007D006D005D0041228E478CAEF0F
:10073B00F278C8E2FE08E2FFE4FCFDC004C005C08D
:10074B0006C00778D81210980000000AD007D00610
:10075B00D005D004122A4C78C8EEF208EFF208E26A
:10076B0075F006A424DEF9740135F0FA7BFFC003A3
:10077B00C002C0011B7A00798E78CE1210BA78D1E4
:10078B00E4F2087406F2D001D002D0031228AB7841
:10079B00C808E208F2E275F006A424DEF97401350C
:1007AB00F0FA7BFFC003C002C0011B7A007994787A
:1007BB00CE1210BA78D1E4F2087406F2D001D0024E
:0D07CB00D0031228ABE4789AF208F208F28D
:0107D80022FE
:102AA40078C8EFF2782E743FF278D77401F274315B
:102AB400243FF9E4FA7BFE081210BA7B40E4FD7F60
:042AC40016022414BE
:10156A00781BE264017030F2122727E4782EF21217
:10157A002B4E12056B7F01122AA4781DE2FF122658
:10158A00CD781712107378CC7401F2120800E4783F
:10159A00B7F208F2782FF21207D9C378B4E294C8E6
:1015AA0018E294004009E4F208F27F01122AA478B2
:1015BA0010E2FF7002C1746401704A781712107346
:1015CA00EF2401FFE43EFEE43DFDE43CFC78171203
:1015DA00108C7F9F7E867D017C00781712107FD346
:1015EA001210624014781712109800000000E47874
:1015FA00CCF2FFFEFDFC120800781712107378CCAB
:10160A007401F2805E7810E2B4032A78167406F246
:10161A00781B7401F2E478C6F278B674FFF278D7D0
:10162A007402F27B40E4FDFF1225FBE478CCF2FF62
:10163A00FEFDFC802E7810E2B4042B78167407F2B3
:10164A00781B7401F2E478C6F278B674FFF278D7A0
:10165A007402F27B40E4FDFF1225FBE478CCF2FF32
:0B166A00FEFDFC120800E47810F222E4
:0410C30078C8EFF208
:1010C7007BFF7A2979F578CA1210BA7A2979F978E3
:1010D700CD1210BA7811E26401600221B678C8E235
:1010E7006401600221A908F278C9E2FE75F008A43C
:1010F700FD2406FFC007ED240EFBC00378D774025A
:10110700F278CA1210B1EEFF3395E08F82F58312A1
:101117000F8EFF3395E0FEEFC4F8540FC868FFEE5B
:10112700C454F048FE74C02FF974FE3EFA7BFF7872
:10113700D81210BAD003D007E4FD12241478C9E2FC
:10114700FE75F008A4FD2420FFC007ED2428FBC08E
:101157000378D77402F278CD1210B1EEFF3395E021
:101167008F82F583120F8EFF3395E0FEEFC4F8549C
:101177000FC868FFEEC454F048FE74C02FF974FE20
:101187003EFA7BFF78D81210BAD003D007E4FD12DD
:10119700241478C9E204F2E2C36480948350020104
:1011A700EF2278D77402F27B38E4FD7F068042781D
:1011B700C8E26401703078D77402F27BFF7A017954
:1011C7001E081210BA7B20E4FD7F1012241478D772
:1011D7007402F27BFF7A01793E081210BA7B30E481
:1011E700FD7F2002241478D77402F27B30E4FD7F60
:0411F700101225FBB2
:0111FB0022D1
:041B350078C8EFF28B
:101B39007BFF7A2979FD78CA1210BA7811E264011B
:101B4900707978C8E26401706508F278C9E2FE75B7
:101B5900F008A4FD240AFFC007ED2412FBC0037896
:101B6900D77404F278CA1210B1EEFF3395E08F8270
:101B7900F583120F8EFF3395E0FEEFC4F8540FC8BA
:101B890068FFEEC454F048FE74C02FF974FE3EFAA3
:101B99007BFF78D81210BAD003D0077D0212241423
:101BA90078C9E204F2E2C364809483409E2278D724
:101BB9007404F27B227D027F0A802978C8E2B4018D
:101BC9001878D77404F27BFF7A01799E081210BA4B
:101BD9007B1C7D027F0C02241478D77404F27B1CD1
:071BE9007D027F0C1225FBB9
:011BF00022D2
:041BF10078C8EFF2CF
:101BF5007BFF7A2A790178CA1210BA7811E264015A
:101C0500707978C8E26401706508F278C9E2FE75FA
:101C1500F008A4FD2426FFC007ED242EFBC00378A1
:101C2500D77404F278CA1210B1EEFF3395E08F82B3
:101C3500F583120F8EFF3395E0FEEFC4F8540FC8FD
:101C450068FFEEC454F048FE74C02FF974FE3EFAE6
:101C55007BFF78D81210BAD003D0077D0212241466
:101C650078C9E204F2E2C364809482409E2278D768
:101C75007404F27B367D027F26802978C8E2B401A0
:101C85001878D77404F27BFF7A0179BE081210BA6E
:101C95007B347D027F2402241478D77404F27B34CC
:071CA5007D027F241225FBE4
:011CAC002215
:101E1600781BE2B40111E4F27F011210C37F0112B4
:101E26001B357F01121BF17810E2FF605BB40119CC
:101E360078C6E2700C7F01121B3578C67401F280F9
:101E460043E478C6F27F0180387810E2C3940240FA
:101E56003378C6E2700978171210980000000078EF
:101E6600167405F2E478C6F278A1F278B674FFF239
:101E7600781B7401F2E4FF1210C3E4FF121B35E471
:101E8600FF121BF1E47810F278A1E2B4641278C66E
:101E9600E27003FF801778C6E26401701EFF8018A7
:101EA60078A1E2B4C81578C6E270057F01021B3539
:0C1EB60078C6E2B401057F01121BF12286
:0411FC0078C8EFF2CE
:101200007BFF7A2979F578CA1210BA7A2A7904789C
:10121000CD1210BA7811E26401600241EF78C8E2A1
:101220006401600241E208F278C9E2FE75F008A4A8
:10123000FD2406FFC007ED240EFBC00378D774021F
:10124000F278CA1210B1EEFF3395E08F82F5831267
:101250000F8EFF3395E0FEEFC4F8540FC868FFEE21
:10126000C454F048FE74C02FF974FE3EFA7BFF7838
:10127000D81210BAD003D007E4FD12241478C9E2C2
:10128000FE75F008A4FD2420FFC007ED2428FBC054
:101290000378D77402F278CD1210B1EEFF3395E0E7
:1012A0008F82F583120F8EFF3395E0FEEFC4F85462
:1012B0000FC868FFEEC454F048FE74C02FF974FEE6
:1012C0003EFA7BFF78D81210BAD003D007E4FD12A3
:1012D000241478C9E204F2E2C3648094835002418A
:1012E000282278D77402F27B38E4FD7F06804278AA
:1012F000C8E26401703078D77402F27BFF7A01791A
:101300005E081210BA7B20E4FD7F1012241478D7F7
:101310007402F27BFF7A01797E081210BA7B30E406
:10132000FD7F2002241478D77402F27B30E4FD7F25
:04133000101225FB77
:011334002296
:10200000781BE2B40111E4F27F011211FC7F01128E
:102010001B357F01121BF17810E26054B4011C786B
:10202000C6E2700C7F01121B3578C67401F2803C49
:10203000E478C6F27F01121BF180317810E2C3947C
:10204000024029E4FF1211FCE4FF121B35E4FF12E9
:102050001BF178C6E278167003F280037405F2E48F
:1020600078C6F2781B04F278B674FFF2E47810F2C6
:1020700078A1E2B4641278C6E27003FF801778C6D4
:10208000E26401701EFF801878A1E2B4C81578C61A
:10209000E270057F01021B3578C6E2B401057F01BD
:0420A000121BF122FC
:102800007816E214B40700504390281325E05002D4
:10281000058373012101240127012A012D014601AD
:10282000490220A402000A02133502226D12156A21
:10283000C3789EE294C818E294004010E4F208F2D3
:0D284000122B4E02056B021E161220002204
:03003B00021FFCA5
:041FFC0075EC00324E
:10296A0043B38053B47FA2AF920075C7AA75C75507
:10297A0075910143B18075C7AA75C755E4F591A24F
:10298A000092AF43E90143E98043EA8053EB7F4376
:0B299A009B02D2AF43870253E9FE22EC
:100E0700122C0912145812284D12258F7BFE7A00D6
:100E17007911E4FDFC7F0D122497E478C6F2781B64
:100E270004F2E478C4F208F2789DF208F278B9F295
:100E370078B674FFF23097FD1221D6781CE2B4A57C
:100E4700077816E26002E12EE47811F208F208F260
:100E570008F208F2781712109800000000781C7446
:100E6700A5F278167401F2E4781DF278B674FFF2F1
:100E77007D017F071227D078D77403F27BFF7A03AF
:100E87007970081210BA7B147D017F0C1224147834
:100E9700D77403F27BFF7A00795E081210BA7B24BD
:100EA7007D017F1412241478D77403F27BFF7A0430
:100EB7007930081210BA7B2C7D017F241224147814
:100EC700D77403F27BFF7A0279D0081210BA7B3409
:100ED7007D017F2C122414E478C4F208F2782CF2F6
:100EE7000804F2782AF218F27813E27828F27814D4
:100EF700E27827F27815E27826F27BFE7A007926E7
:100F0700122302C378C5E2949018E2940140F4E4F6
:100F170078C4F208F2781B04F278D77403F27B34B2
:100F27007D017F0C1225FB122800C378C5E294E8E7
:100F370018E294035002C13F122BBD7BFE7A007961
:100F470011E4FDFC7F0D121778E4F5B1F5B2F5B3A6
:100F5700F5B4F5ACF5AD53E1FE43B31043B410C29D
:0E0F67009412296AE478C4F208F212272722B5
:102B4E007BFE7A007926121CAD7828E27813F27893
:0C2B5E0027E27814F27826E27815F222C3
:10000E00A2AF9200C2AF75C7AA75C75543A401A28D
:10001E000092AFE59F30E613A2AF9200C2AF75C754
:0C002E00AA75C755539FBFA20092AF22D5
:0B213E0078DFECF208EDF2AB07AA0618
:10214900EB4A700221D5EBAE027807CEC313CE134A
:10215900D8F979E2F3EE19F3EB547F600B78E2E2F8
:102169002401F218E23400F2A2AF9200C2AF75C79F
:10217900AA75C755439F01A20092AF75AEFF75AF0F
:1021890062A2AF9200C2AF75C7AA75C75543A5022F
:10219900A20092AFE4FDFCD378E2E29D18E29C40F4
:1021A9002BED75F080A4FF78DFE2FA08E2FB2FF54A
:1021B900A6EDAE047807C333CE33CED8F92BEA3E69
:0C21C900F5A712000E0DBD00010C80CB2C
:0121D50022E7
:0B1F6E0078DFEEF208EFF2081210BA64
:101F7900A2AF9200C2AF75C7AA75C755439F01A208
:101F89000092AFA2AF9200C2AF75C7AA75C75543F9
:101F9900A502A20092AFEDF5A6ECF5A775AF61E435
:101FA900FFFED378E0E29F18E29E402078E112100C
:101FB900B18F828E83120F8EF5AE12000E05A6E543
:101FC900A6700205A70FBF00010E80D6A2AF92002E
:101FD900C2AF75C7AA75C75553A5FDA20092AFA296
:101FE900AF9200C2AF75C7AA75C755539FFEA2002D
:021FF90092AFA5
:011FFB0022C3
:0B26650078DFEEF208EFF2081210BA66
:10267000A2AF9200C2AF75C7AA75C755439F01A20A
:102680000092AFEDF5A6ECF5A775AF40E4FFFED3E1
:1026900078E0E29F18E29E402012000E78E11210CE
:1026A000B18F828E83E5AE120FCD05A6E5A670022E
:1026B00005A70FBF00010E80D6A2AF9200C2AF7572
:0C26C000C7AA75C755539FFEA20092AF39
:0126CC0022EB
:0E24970078C8EFF208ECF208EDF2081210BA65
:1024A500E478CEF278CEE2FDC39420503778C8E2C6
:1024B500FF7E00C007ED75F010A4FF78CAE22FFD7E
:1024C50018E235F0FC78CB1210B1D00712266578EA
:1024D500CB1210B190000B120F8EB4A50778CEE287
:1024E50004F280C078CEE2602978CEE214F278C892
:1024F500E2FF7E00C00778CEE275F010A4FF78CA2F
:10250500E22FFD18E235F0FC78CB1210B1D007129E
:02251500266539
:0125170022A1
:0E17780078C8EFF208ECF208EDF2081210BA91
:10178600E478DEF278DEE2FDC39420503078C8E2D9
:10179600FF7E00C007ED75F010A4FF78CAE22FFDAA
:1017A60018E235F0FC7BFE7A0079CED0071226656A
:1017B60078D9E2B4A50778DEE204F280C778DEE2E3
:1017C600B4201278C9E2FC08E2FD7F007E021221F5
:1017D6003EE478DEF278C8E2FF7E00C00778DEE2FB
:1017E60075F010A4FF78CAE22FFD18E235F0FC78F8
:0917F600CB1210B1D007021F6EE6
:032B2A0081C70060
:082CB20043B30243B402C292D5
:072CBA00E4FFFEEF4E70FC89
:012CC10022F0
:10003E0053B3FB43B40443B30443B404D29253B357
:0D004E00FD43B40243B30243B402D2912239
:102CA100D291D292122CBAC291122CBAC292022C97
:012CB100BA68
:0A2CD900C291D292122CBAD29122BD
:022AEB00AD0735
:102AED00E4FCED30E704D2918002C291ED25E0FDCA
:0F2AFD00D292122CBAC292122CBA0CECB408E38B
:012B0C0022A6
:032B2E00122AEB7D
:102B310043B30253B4FDD292122CBA309109122C34
:0D2B4100D9122CB27F0122122CB27F00228B
:102B6A00AC07AA05122CA1AF04122B2EAF02122B0E
:0C2B7A002EAF03122AEB122B31022CD9D3
:0C2CC200C291C292122CBAD292022CBA1B
:102A7800E4FDFC43B30253B4FDC292122CBAD292C5
:102A8800122CBAEC25E0FC3091010C0DEDB408E9EC
:0B2A980043B30243B402122CC2AF048F
:012AA3002210
:07000300AE071FEE70FA22A8
:062A1400C280C283D280E3
:022A1A00AD0706
:102A1C00C2837F02120003E4FCED30E004D281801B
:102A2C0002C2817F01120003D2837F01120003C214
:0A2A3C0083EDC313FD0CECB408DFBA
:012A4600226D
:1029A50053B1FD43B20243B10253B2FD7F0212009F
:1029B50003E4FCEDC313FD3081034480FDD2837F26
:1029C50001120003C2837F011200030CECB408E37B
:0829D50053B1FD43B202AF054E
:0129DD0022D7
:062C6300AA07E4FD7F8ECC
:0F2C6900AB05122A14AF03122A1AD283C280229B
:0A2CCE00122A141229A5D283C28035
:012CD80022D9
:102AC800122C637F81122CCEEA6006EF4480FF80CF
:102AD80004EF547FFFAD077F80122C697D807F8EC5
:032AE800022C6954
:10258F0053B1F743B20853B1FD43B20253B1FE4307
:10259F00B201C283C281C2807FC1122CCEEF64A868
:1025AF006049122C65E4FD7F80122C697D207F82AB
:1025BF00122C697D077F84122C697D257F86122C52
:1025CF00697D127F88122C697D107F8A122C697D9C
:1025DF00067F8C122C69E4FD7F90122C697DA87FF9
:0C25EF00C0122C697D807F8E122C6922A6
:042C7800120F8EFFAA
:102C7C00EF54F0C4540F75F00AA4FEEF540F2EFF5E
:012C8C002225
:042B8600120F8EFF9D
:102B8A00E4FEEFC3940A400A74102EFE74F62FFF77
:072B9A0080F0EE4FFEAF06D4
:012BA1002211
:101CAD007F81122CCEEF120FBB7F83122CCE9000B2
:101CBD0001EF120FCD7F85122CCE900002EF120F87
:101CCD00CD7F87122CCE900003EF120FCD7F89129E
:101CDD002CCE900004EF120FCD7F8B122CCE9000E6
:101CED0005EF120FCD7F8D122CCEE42FFFE43420A3
:101CFD009000068FF0121027120F75FF122C7CEF3B
:101D0D00120FBB900001122C78900001EF120FCD35
:101D1D00900002122C78900002EF120FCD9000036C
:101D2D00122C78900003EF120FCD900004122C7836
:101D3D00900004EF120FCD900005122C7890000545
:101D4D00EF120FCD900006120FEFFF122C7C9000BA
:071D5D0006E48FF0021027DD
:0523020078C81210BABA
:10230700122C657DFF7FC0122C6978C81210B1129C
:102317000F75FF122B8AAD077F80122C6978C812C0
:1023270010B1900001122B86AD077F82122C6978BD
:10233700C81210B1900002122B86AD077F84122CB1
:102347006978C81210B1900003122B86AD077F86FB
:10235700122C6978C81210B1900004122B86AD07B1
:102367007F88122C6978C81210B1900006120FEFFF
:10237700FF122B8AAD077F8C122C697DA87FC012B4
:092387002C697D807F8E022C6917
:102C2100122C63AF02122B8AAD077F84122C697DAF
:062C3100807F8E022C6979
:102C3700122C63AF02122B8AAD077F82122C697D9B
:062C4700807F8E022C6963
:102C4D00122C63AF02122B8AAD077F80122C697D87
:062C5D00807F8E022C694D
:03000000021EC21B
:101EC20075C7AA75C75575FD5A75C7AA75C75575E1
:101ED200FDA5787FE4F6D8FD9000007FFF7E03E445
:0C1EE200F0A3DFFCDEFA758120021F294E
:101EEE00022BF1E493A3F8E493A34003F68001F2EE
:101EFE0008DFF48029E493A3F85407240CC8C333F5
:101F0E00C4540F4420C8834004F456800146F6DFC3
:101F1E00E4800B0102040810204080902B0DE47E1B
:101F2E00019360BCA3FF543F30E509541FFEE493B8
:101F3E00A360010ECF54C025E060A840B8E493A37F
:101F4E00FAE493A3F8E493A3C8C582C8CAC583CAAA
:101F5E00F0A3C8C582C8CAC583CADFE9DEE780BE62
:012B2D0000A7
:100F7500BB010689828A83E0225002E722BBFE027A
:090F8500E32289828A83E49322AD
:100F8E00BB010CE58229F582E5833AF583E0225018
:100F9E0006E92582F8E622BBFE06E92582F8E22262
:0D0FAE00E58229F582E5833AF583E493227C
:100FBB00BB010689828A83F0225002F722BBFE0115
:020FCB00F3220F
:100FCD00F8BB010DE58229F582E5833AF583E8F05A
:100FDD00225006E92582C8F622BBFE05E92582C806
:020FED00F222EE
:100FEF00BB0110E58229F582E5833AF583E0F5F040
:100FFF00A3E0225009E92582F886F008E622BBFE1D
:10100F000AE92582F8E2F5F008E222E5832AF58362
:08101F00E993F5F0A3E9932227
:10102700F8BB0111E58229F582E5833AF583E8F0FB
:10103700E5F0A3F0225009E92582C8F608A6F022B8
:0D104700BBFE09E92582C8F2E5F008F2229F
:0E105400C3EF9BFFEE9AFEED99FDEC98FC2297
:10106200EB9FF5F0EA9E42F0E99D42F0E89C45F0E4
:01107200225B
:0C107300E2FC08E2FD08E2FE08E2FF22B9
:0D107F00E2FB08E2F908E2FA08E2CBF822F1
:0C108C00ECF208EDF208EEF208EFF222A0
:10109800D083D082E493F208740193F20874029327
:0910A800F208740393F27404735E
:0910B100E2FB08E2FA08E2F92270
:0910BA00EBF208EAF208E9F22267
:00000001FF
