:03000B0002266E5C
:10266E00C0E0C0F0C083C082C0D075D000C000757D
:10267E008CE5758AF590005E7401F09000D1E0044F
:10268E00F0E0D394C84002E4F09000FFE475F0014E
:10269E00120F3E9000D8E475F001120F3E9000D557
:1026AE00E475F001120F3E9000CCE475F001120FAC
:0E26BE003ED000D0D0D082D083D0F0D0E03219
:102B0A007589FF5389F0438901538EF7758CE575F2
:092B1A008AF5D2A9D2AFD28C22B7
:1024C000900123E02402FF900122E03400FE9000FE
:1024D000CCE0FCA3E0FDC39FEC9E404D900122ECBC
:1024E000F0A3EDF0C2EFD2EE30EFFDAFC37E00EF10
:1024F000C4F8540FC868FFEEC454F048FEE5C25457
:102500000FFDEF4DFFEEC313FEEF13FF9000D2EE71
:102510008FF0120F3E9000D2E0C313FEA3E013FF32
:0D2520009000D2EEF0A3EFF0227EFF7FFFCF
:01252D00228B
:10276A00E4FB9000D2F0A3F0900122F0A3F053E82A
:10277A00F043E80343B14053B2BFF5F643F60843CA
:10278A00E101C3EB64809490500E1224C0EFF47000
:10279A0002EEF460ED0B80EA9000CCE0FFA3E0903B
:0727AA000122CFF0A3EFF0C4
:0127B1002205
:102B2300E4F5B1F5B2F5B3F5B4F5ACF5AD122B0A96
:082B330012276A120B4580E82D
:10003E00000808080808080808080808080800004A
:10004E0040404141414141414141414141404000D7
:10005E000000F010101010FF10101010F000000033
:10006E0000000F04040404FF040404040F00000045
:10007E0008080838C808090E0808C8380808080013
:10008E008080404020110A040A11204040808000E8
:10009E0090523410FF10345280708F0808F8080008
:1000AE00829A566322528E008040330C3340800079
:1000BE00100C042424242526A464240404140C0007
:1000CE00020202020242827F0202020202020200C7
:1000DE0002E282F212D752D25217FA12169A120076
:1000EE00128E621F003F253DA74027182641F000C3
:1000FE0000FC0000FF0004848484848484FC0000DF
:10010E00008740300F00202020202020207F00007C
:10011E00100C05555555857F8555555505140C0004
:10012E000404020A09292A4C48A9190202040400EF
:10013E00101014D4545454FC525252D312101000B6
:10014E00404050575555557F5555555750404000D6
:10015E00001715D55557557D555755D51517000010
:10016E004040407F555555555555557F40404000B0
:10017E000000007F494949494949497F0000000074
:10018E008141211D214181FF8989898989818100D0
:10019E0000028282422212FA06222242428200008B
:1001AE00010100FC44444445444444FC0000010069
:1001BE007E8181817E000082FF800000C6A1918930
:1001CE0086004281898976003028A6FFA0005F89CB
:1001DE00898971007C92898972000001F10D0300FA
:1001EE007689898976004E9191493E0000C0300C87
:1001FE00030000F804020204F800000304080804D7
:10020E00030000000404FE000000000008080F08B0
:10021E000800001C020282423C00000C0A09080879
:10022E000C00000C024242A21C000006080808083E
:10023E000700008060100CFE000000010109090F8C
:10024E000909007E222222428200000608080804C4
:10025E00030000F844222224C0000003040808080A
:10026E00070000060282621A06000000000F00005E
:10027E000000001CA24242A21C0000070808080849
:10028E000700007C82828244F80000000408080403
:10029E000300000000C0300E01000018060100002F
:1002AE0000000000C038E0000000203C23020227BE
:1002BE00382008F8888888700000203F2020201100
:1002CE000E00C0300808080838000718202020103B
:1002DE00080008F808080810E000203F2020201031
:1002EE000F0008F88888E8081000203F20202320FF
:1002FE00180008F88888E8081000203F2000030046
:10030E000000C03008080838000007182020221E00
:10031E00020008F808000008F808203F210101211A
:10032E003F20000808F8080800000020203F202089
:10033E00000000000808F8080800C08080807F00D8
:10034E00000008F888C028180800203F2001263831
:10035E00200008F8080000000000203F2020202088
:10036E00300008F8F800F8F80800203F013E013F81
:10037E00200008F830C00008F808203F20000718B9
:10038E003F00E01008080810E0000F102020201099
:10039E000F0008F808080808F000203F21010101AD
:1003AE000000E01008080810E0000F102828305058
:1003BE004F0008F8888888887000203F2000030CC2
:1003CE0030200070880808083800003820212122CB
:1003DE001C00180808F8080818000000203F20002C
:1003EE00000008F808000008F808001F2020202050
:1003FE001F000878880000C83808000007380E0172
:10040E00000008F800F800F8080000033E013E0363
:10041E000000081868808068180820302C03032C10
:10042E0030200838C800C83808000000203F2000DF
:10043E00000010080808C83808002038262120209F
:10044E0018000000C0201018183060C00000000016
:10045E00030306060606020100000000381C020314
:10046E0083FF3F01000000008040201C0F030000AE
:10047E00000020181C068787C63C1E0100000000E5
:10048E000201010103070E18608010080E064223B8
:10049E0023B2EF0000000000000004020303061C5C
:1004AE00780040E0980C1E387060E0C0808000003C
:1004BE00010302060C0C08181010007CFEC0603000
:1004CE00FCFE0301000000000000000000030F3CD2
:1004DE00408000F0FC0E020000000080C0400003CF
:1004EE000F3040848CFE730100000000000080C0BD
:1004FE00C080061F1CF000080FC360203F2710109D
:10050E000C0300202030303078EEC3800000000055
:10051E00000000000000010738C0000000E0700C71
:10052E000672DE8C000000003FCF000000000001CC
:0D053E00010000303000000C0C0000240013
:10141A0053B3EF43B410C294E49000FFF0A3F0C3B7
:10142A00900100E094029000FFE0940040F1D29411
:10143A00122A7FE49000FFF0A3F0C3900100E09429
:10144A00029000FFE0940040F17BAEE4FD7F781249
:10145A002A9CE4FBFD7F78122A9C7B12E4FD7F78AC
:10146A00122A9CE4FBFD7F78122A9C7BB0E4FD7F64
:10147A0078122A9C7B81E4FD7F78122A9C7BFFE408
:10148A00FD7F78122A9C7BA1E4FD7F78122A9C7B3F
:10149A00A6E4FD7F78122A9C7BA8E4FD7F78122AB5
:1014AA009C7B1FE4FD7F78122A9C7BC8E4FD7F7831
:1014BA00122A9C7BD3E4FD7F78122A9CE4FBFD7FF1
:1014CA0078122A9C7BD5E4FD7F78122A9C7B80E4E3
:1014DA00FD7F78122A9C7BD9E4FD7F78122A9C7BB7
:1014EA001FE4FD7F78122A9C7BDAE4FD7F78122ABA
:1014FA009C7B12E4FD7F78122A9C7BDBE4FD7F78DB
:10150A00122A9C7B40E4FD7F78122A9C7B8DE4FDA5
:10151A007F78122A9C7B14E4FD7F78122A9C7BAF89
:0A152A00E4FD7F78122A9C7F002266
:10290900EF2420900119F0ED24B0FBE4FD7F78124B
:102919002A9C900119E054F0C4540F4410FBE4FDC3
:102929007F78122A9C900119E0540FFBE4FD7F780F
:03293900022A9CD3
:102AD4007B8DE4FD7F78122A9C7B14E4FD7F7812C1
:0B2AE4002A9C7BAFE4FD7F78022A9C57
:102AEF007B8DE4FD7F78122A9C7B10E4FD7F7812AA
:0B2AFF002A9C7BAEE4FD7F78022A9C3D
:1026CC00E4900102F0900102E0FFC39404503FEF4C
:1026DC0024B0FBE4FD7F78122A9CE4FBFD7F78128A
:1026EC002A9C7B12E4FD7F78122A9C9001037420B3
:1026FC00F0E4FB7D407F78122A9C900103E004F00B
:0E270C00E0C3946040EB900102E004F080B75F
:01271A00229C
:0A24460090010EEFF0900110EBF092
:10245000E4900112F0A3F0900111E0FF540770081E
:10246000EF131313541F800A900111E01313135438
:102470001F04900115F0900115EDF0900111E0FF9F
:10248000900115E0FDC39F503690010EE0FF122928
:102490000990010EE0900114F0900110E0FF90010E
:1024A00014E0C39F5011E4FB7D407F78122A9C907A
:0F24B0000114E004F080E2900115E004F080BC1C
:0124BF0022FA
:0A22A10090010EEFF0900110EBF039
:1022AB00E4900115F0A3F0900111E0FF54077008C2
:1022BB00EF131313541F800A900111E013131354DF
:1022CB001F04900118F0900118EDF0900111E0FF40
:1022DB00900118E0FDC39F504D90010EE0FF1229B5
:1022EB000990010EE0900117F0900110E0FF9001B2
:1022FB0017E0C39F5028900112121043900115E470
:10230B0075F001120F5485F082F583120EDDFB7D03
:10231B00407F78122A9C900117E004F080CB90014B
:06232B0018E004F080A59B
:012331002289
:10286A00454E474C495348004E4F524D414C005437
:10287A0049424554414E0052535400434E54005964
:10288A004553004E4F00444556001F1C1F1E1F1E75
:06289A001F1F1E1F1E1F80
:1023BE0041010100602000DD0000F8F8181818181F
:1023CE0018181818F8F0E00000000F0F0C0C0C0C89
:1023DE000C0C0C0C0F07030060400014FFFF0303EE
:1023EE0003030303030303030303030303030303AF
:1023FE00030303030303FFFFF8F80000FFFFC0C051
:10240E00C0C0C0C0C0C0C0C0C0C0C0C0C0C0C0C0BE
:10241E00C0C0C0C0C0C0FFFF1F1F000048000C049A
:10242E00000420045004784100D7FF4100CE004143
:03243E00005C003F
:1028D500E49000FEF09000FDF09000D4F09000CF61
:1028E500F0A3F0900001F043B38053B47F43AC01F3
:1028F50053ADFE43B11053B2EF9000DAF0A3F09060
:042905000000F022BC
:1015340090005EE0700302164CE4F0A29733900032
:10154400FEF09000FDE0FFA3E0FE6F60669000FDFA
:10155400EEF09000CFE0FEA3E0FF4E70119000D4B7
:10156400E0D3940540089000017401F08038C3EF83
:10157400940AEE940040089000017404F0802790CF
:1015840000CFE0FEA3E0FFC39403EE940040089074
:1015940000017403F0800FC3EF9402EE9400400640
:1015A4009000017402F0E49000D4F09000CFF0A316
:1015B400F0801E9000FEE0701E9000D4E004F0E085
:1015C400D394C8400BE4F09000CF75F001120F3EA5
:1015D400E49000FFF0A3F020B02DE49000DAF0A333
:1015E400F0900000E06401705FF09000CBE09000A8
:1015F40005F090000A7401F09001117403F07B303F
:101604007D017F10022446E49000FFF0A3F09000D7
:10161400DA75F001120F3ED39000DBE0940A9000DB
:10162400DAE094004022E4F0A3740AF0900000E0B1
:10163400701604F0900005E09000CBF09000057463
:0916440008F090000A7401F02284
:1027B200EF640170329001117402F07BFF7A0079AC
:1027C2005EA312104C7B20E4FD7F101222A1900127
:1027D200117402F07BFF7A00797EA312104C7B30D9
:1027E200E4FD7F200222A19001117402F07B30E40B
:0727F200FD7F1012244622B6
:102332007BFF7A28796A90010212104CEF640170D7
:102342006C900105F0900105E0FE75F008A4FD24F3
:1023520004FFC007ED240CFBC0039001117404F0CC
:10236200900102121043EEFF3395E08F82F5831243
:102372000EDDFF3395E0FEEFC4F8540FC868FFEEA0
:10238200C454F048FE74A02FF974FE3EFA7BFF900D
:10239200011212104CD003D0077D021222A190012B
:1023A20005E004F0E0C36480948740992290011113
:0B23B2007404F07B3C7D02FF12244607
:0123BD0022FD
:101D5B0090000AE0B40129E4F09001117403F07BC8
:101D6B00347D017F0C1224467F011227B27F0112B2
:101D7B002332900003E0900101F09000D174C8F081
:101D8B00900001E0605CB40125900101E07F0170DF
:101D9B000B1227B29001017401F08008122332E478
:101DAB00900101F0900101E0900003F0802F900072
:101DBB0001E0C394024026900101E0900003F090F3
:101DCB0000057404F0E4900101F09000D1F0900054
:101DDB000A04F0E4FF122332E4FF1227B2E490006E
:101DEB0001F09000D1E0B4640D900003E07003FFAC
:101DFB008013E4FF80129000D1E0B4C80E90000372
:0C1E0B00E07F0170030227B21223322294
:06271B00900108120FEE10
:0627210090010E121006EB
:10272700E4900116F0A3F0900112120FEE90010E43
:10273700120FFAC3120FDD4021900116E475F00164
:10274700120F3E90010E120FEE900112120FFA12A5
:102757000FCF90010E12100680CD900116E0FEA358
:02276700E0FF91
:01276900224D
:06283200900108120FEEF8
:102838008021900112120FEE90010E120FFAC312AE
:102848000FDD401790010E120FEE900112120FFAD1
:10285800120FCF90010E12100680D790010E120FA2
:02286800EE225E
:05187600900102EFF0FB
:10187B007BFF7A287972A312104C900003E064016D
:10188B006003021912900102E06401706C90010672
:10189B00F0900106E0FE75F008A4FD2408FFC007D8
:1018AB00ED2410FBC0039001117402F090010312A0
:1018BB001043EEFF3395E08F82F583120EDDFF337D
:1018CB0095E0FEEFC4F8540FC868FFEEC454F0481F
:1018DB00FE74A02FF974FE3EFA7BFF9001121210DA
:1018EB004CD003D007E4FD1222A1900106E004F0D6
:1018FB00E0C3648094864099229001117402F07BBE
:10190B0038E4FD7F088046900102E064017032905C
:10191B0001117402F07BFF7A00799EA312104C7BAD
:10192B0020E4FD7F101222A19001117402F07BFFC5
:10193B007A0079BEA312104C7B30E4FD7F2002228B
:10194B00A19001117402F07B30E4FD7F101224464C
:01195B002269
:05164D00900102EFF026
:101652007BFF7A287979A312104C900003E0640191
:1016620060030216E7900102E06401706C900106CB
:10167200F0900106E0FE75F008A4FD2404FFC00707
:10168200ED240CFBC0039001117404F090010312CD
:101692001043EEFF3395E08F82F583120EDDFF33A8
:1016A20095E0FEEFC4F8540FC868FFEEC454F0484A
:1016B200FE74A02FF974FE3EFA7BFF900112121005
:1016C2004CD003D0077D021222A1900106E004F063
:1016D200E0C3648094874099229001117404F07BE6
:1016E2003C7D028077900102E064017064900111F8
:1016F2007404F07BFF7A0079DEA312104C7B107D1C
:1017020002E4FF1222A19001117404F07BFF7A001F
:10171200797EA312104C7B207D027F101222A190B1
:1017220001117404F07BFF7A00799EA312104C7BA6
:10173200307D027F201222A19001117404F07BFF00
:101742007A0079BEA312104C7B407D027F300222C8
:10175200A19001117404F07B407D02E4FF12244643
:011762002264
:101C9D0090000AE0B4011AE4F07F011218767F017A
:101CAD0012164D900004E0900101F09000D174C81F
:101CBD00F0900001E0605DB40126900101E07F012C
:101CCD00B4010A12164DE4900101F0800912187644
:101CDD009001017401F0900101E0900004F0802F5B
:101CED00900001E0C3940240269000057405F09029
:101CFD000101E0900004F0E4900101F09000D1F0BA
:101D0D0090000A04F0E4FF121876E4FF12164DE479
:101D1D00900001F09000D1E0B46414900101E0B4A2
:101D2D000104E4FF8019900101E07021FF801B90F8
:101D3D0000D1E0B4C817900101E0B401057F0102A4
:0E1D4D00164D900101E070057F0112187622FC
:06054B00900102121006EF
:10055100E490010CF0A3F0900106E0700F900111FE
:100561007404F07B407D02E4FF02244690010212F4
:100571000FEE900108121006900004E060030207DC
:100581008190010D740CF0900112121012000027DD
:100591001012271B900107EFF090011212101200A8
:1005A100002710122832E4FCFD9001081210069079
:1005B1000107E0FF603475F010A42400F9740235DE
:1005C100F0FA7BFF90011212104C90010DE0FF2414
:1005D10008FB9001117404F07D021222A190010C1C
:1005E1007401F0A3E02408F0800790010DE02404D9
:1005F100F0900112121012000003E812271B900163
:1006010007EFF0900112121012000003E8122832D5
:10061100E4FCFD90010812100690010CE0640160F9
:1006210006900107E0603A90010C7401F090010717
:10063100E075F010A42400F9740235F0FA7BFF9004
:10064100011212104C90010DE0FF2408FB900111E2
:100651007404F07D021222A190010DE02408F080C3
:100661000790010DE02404F0900112121012000015
:10067100006412271B900107EFF090011212101273
:1006810000000064122832E4FCFD900108121006FB
:1006910090010CE064016006900107E0603A90016E
:1006A1000C7401F0900107E075F010A42400F974B6
:1006B1000235F0FA7BFF90011212104C90010DE00F
:1006C100FF2408FB9001117404F07D021222A19015
:1006D100010DE02408F0800790010DE02404F09062
:1006E10001121210120000000A12271B900107EFDD
:1006F100F09001121210120000000A122832E4FCDC
:10070100FD90010812100690010CE0640160069052
:100711000107E0603A90010C7401F0900107E07567
:10072100F010A42400F9740235F0FA7BFF90011255
:1007310012104C90010DE0FF2408FB90011174048C
:10074100F07D021222A190010DE02408F0800790B3
:10075100010DE02404F0900108120FEE900107EF63
:10076100F0E075F010A42400F9740235F0FA7BFF73
:1007710090011212104C90010DE0FF24080209773C
:1007810090010D7402F09001121210120000271056
:1007910012271B900107EFF09001121210120000B6
:1007A1002710122832E4FCFD900108121006900176
:1007B10007E0FF603475F018A42450F9740435F093
:1007C100FA7BFF90011212104C90010DE0FF240CF6
:1007D100FB9001117404F07D021222A190010C74AE
:1007E10001F0A3E0240CF0800790010DE02406F055
:1007F100900112121012000003E812271B9001074A
:10080100EFF0900112121012000003E8122832E4F6
:10081100FCFD90010812100690010CE064016006D5
:10082100900107E06038900107E075F018A42450AA
:10083100F9740435F0FA7BFF90011212104C90010B
:100841000DE0FF240CFB9001117404F07D021222D3
:10085100A190010C7401F0A3E0240CF08007900139
:100861000DE02406F0900112121012000000641233
:10087100271B900107EFF0900112121012000000E7
:1008810064122832E4FCFD90010812100690010C5C
:10089100E064016006900107E06038900107E075AF
:1008A100F018A42450F9740435F0FA7BFF9001127A
:1008B10012104C90010DE0FF240CFB900111740407
:1008C100F07D021222A190010C7401F0A3E0240C2E
:1008D100F0800790010DE02406F090011212101231
:1008E1000000000A12271B900107EFF0900112127D
:1008F10010120000000A122832E4FCFD90010812D7
:10090100100690010CE064016006900107E0603878
:10091100900107E075F018A42450F9740435F0FA39
:100921007BFF90011212104C90010DE0FF240CFB93
:100931009001117404F07D021222A190010C740146
:10094100F0A3E0240CF0800790010DE02406F09064
:100951000108120FEE900107EFF0E075F018A424E2
:1009610050F9740435F0FA7BFF90011212104C908B
:10097100010DE0FF240CFB9001117404F07D0212C3
:0209810022A1B1
:010983002251
:1012F3007EFF9000D2E0FCA3E0FDEFB4010874F0A0
:101303002DFD74FF3CFC9000CEE0704DC3900013A4
:10131300E09D900012E09C50057E04021417C390D8
:101323000011E09D900010E09C50057E030214170D
:10133300C390000FE09D90000EE09C50057E0202DA
:101343001417C390000DE09D90000CE09C50057EA7
:1013530001021417E4FE02141790000DE024FCFBB5
:1013630090000CE034FFFAC3ED9BEC9A5005E4FEC9
:1013730002141790000DE02404FB90000CE03400ED
:10138300FAD3ED9BEC9A401990000FE024FCFB90FC
:10139300000EE034FFFAC3ED9BEC9A50047E01800B
:1013A3007390000FE02404FB90000EE03400FAD3A6
:1013B300ED9BEC9A4019900011E024FCFB90001087
:1013C300E034FFFAC3ED9BEC9A50047E0280459013
:1013D3000011E02404FB900010E03400FAD3ED9BED
:1013E300EC9A4019900013E024FCFB900012E034C7
:1013F300FFFAC3ED9BEC9A50047E03801790001311
:10140300E02404FB900012E03400FAD3ED9BEC9A45
:0614130040027E04AF065A
:0114190022B0
:100D0500EF7033900103F0900103E0FEC3940840B7
:100D150003020EA774E12EF582E43400F5837418FE
:100D2500F074F12EF582E43400F583740CF0900133
:100D350003E004F080D1EF64017065900103F09049
:100D45000103E0FEC39402502274E12EF582E434DF
:100D550000F58374F8F074F12EF582E43400F58320
:100D6500740FF0900103E004F080D4900103740245
:100D7500F0900103E0FEC394084003020EA774E15E
:100D85002EF582E43400F5837418F074F12EF582A3
:100D9500E43400F583740CF0900103E004F080D195
:100DA500EF64027065900103F0900103E0FEC394C7
:100DB50004502274E12EF582E43400F58374F8F0D2
:100DC50074F12EF582E43400F583740FF09001037D
:100DD500E004F080D49001037404F0900103E0FE78
:100DE500C394084003020EA774E12EF582E4340093
:100DF500F5837418F074F12EF582E43400F58374EC
:100E05000CF0900103E004F080D1EF640370629070
:100E15000103F0900103E0FFC39406502274E12F13
:100E2500F582E43400F58374F8F074F12FF582E46B
:100E35003400F583740FF0900103E004F080D49042
:100E450001037406F0900103E0FFC3940850537446
:100E5500E12FF582E43400F5837418F074F12FF571
:100E650082E43400F583740CF0900103E004F08013
:100E7500D4E4900103F0900103E0FFC394085022ED
:100E850074E12FF582E43400F58374F8F074F12FE2
:100E9500F582E43400F583740FF0900103E004F06B
:100EA50080D49000CE7401F090011104F07B017A9A
:0F0EB5000079DDA312104C7B10E4FDFF0222A197
:10001600E4FF1212F3900102EFF0F46016E0FF9095
:1000260000D7E06F6005EFF0120D05900102E09039
:03003600000BF0CC
:0100390022A4
:1017630090000AE064017034F090005CF090000691
:10177300120FEE9001067401F012054BE49000CEB7
:10178300F090000BE0FF9000D7F0120D05E49000FD
:10179300D8F0A3F090005DF09000D1F01200169005
:1017A3000001E0FF70030218756401705190000698
:1017B300120FEEEF2401FFE43EFEE43DFDE43CFCAA
:1017C3009000061210067F9F7E867D017C009000AC
:1017D30006120FFAD3120FDD4016900006121012F4
:1017E30000000000E4900106F0FFFEFDFC12054B33
:1017F300900006120FEE9001067401F0806C9000C9
:1018030001E0B403309000057406F090000A7401FF
:10181300F0E4900101F09000D774FFF0900111748F
:1018230002F07B40E4FDFF122446E4900106F0FF42
:10183300FEFDFC8035900001E0B404319000057496
:1018430007F090000A7401F0E4900101F09000D7D2
:1018530074FFF09001117402F07B40E4FDFF122449
:1018630046E4900106F0FFFEFDFC12054BE49000F8
:0318730001F0225F
:05105500900102EFF024
:10105A007BFF7A28798190010412104C7A287985CD
:10106A0090010712104C900003E064016003021122
:10107A005A900102E06401600302114CA3F090014E
:10108A0003E0FE75F008A4FD2406FFC007ED240E58
:10109A00FBC0039001117402F0900104121043EE98
:1010AA00FF3395E08F82F583120EDDFF3395E0FE64
:1010BA00EFC4F8540FC868FFEEC454F048FE74A099
:1010CA002FF974FE3EFA7BFF90011212104CD003E6
:1010DA00D007E4FD1222A1900103E0FE75F008A4F6
:1010EA00FD2420FFC007ED2428FBC00390011174E2
:1010FA0002F0900107121043EEFF3395E08F82F55C
:10110A0083120EDDFF3395E0FEEFC4F8540FC86872
:10111A00FFEEC454F048FE74A02FF974FE3EFA7B29
:10112A00FF90011212104CD003D007E4FD1222A145
:10113A00900103E004F0E0C364809483500302103A
:10114A0088229001117402F07B38E4FD7F06804604
:10115A00900102E0640170329001117402F07BFF89
:10116A007A0079FEA312104C7B20E4FD7F10122234
:10117A00A19001117402F07BFF7A01791EA312106B
:10118A004C7B30E4FD7F200222A19001117402F011
:09119A007B30E4FD7F10122446B5
:0111A3002229
:051A3F00900102EFF030
:101A44007BFF7A28798990010412104C900003E0FE
:101A540064016003021ADB900102E06401706AA36E
:101A6400F0900103E0FE75F008A4FD240AFFC0070E
:101A7400ED2412FBC0039001117404F090010412D0
:101A84001043EEFF3395E08F82F583120EDDFF33B2
:101A940095E0FEEFC4F8540FC868FFEEC454F04854
:101AA400FE74A02FF974FE3EFA7BFF90011212100F
:101AB4004CD003D0077D021222A1900103E004F070
:101AC400E0C3648094834099229001117404F07BF4
:101AD400227D027F0A802C900102E0B4011990015A
:101AE400117404F07BFF7A01797EA312104C7B1CE5
:101AF4007D027F0C0222A19001117404F07B1C7DF5
:061B0400027F0C122446D2
:011B0A0022B8
:051B0B00900102EFF063
:101B10007BFF7A28798D90010412104C900003E02D
:101B200064016003021BA7900102E06401706AA3D4
:101B3000F0900103E0FE75F008A4FD2426FFC00725
:101B4000ED242EFBC0039001117404F090010412E7
:101B50001043EEFF3395E08F82F583120EDDFF33E5
:101B600095E0FEEFC4F8540FC868FFEEC454F04887
:101B7000FE74A02FF974FE3EFA7BFF900112121042
:101B80004CD003D0077D021222A1900103E004F0A3
:101B9000E0C3648094824099229001117404F07B28
:101BA000367D027F26802C900102E0B4011990015D
:101BB000117404F07BFF7A01799EA312104C7B34E0
:101BC0007D027F240222A19001117404F07B347DF8
:061BD000027F24122446EE
:011BD60022EC
:101BD70090000AE0B40117E4F07F011210557F016D
:101BE700121A3F7F01121B0B9000D174C8F09000AE
:101BF70001E0FF6067B4011C900101E0700D7F01F7
:101C0700121A3F9001017401F0804CE4900101F039
:101C17007F018040900001E0C39402403A900101A7
:101C2700E0700A90000612101200000000900005F4
:101C37007405F0E4900101F09000D1F09000D774A2
:101C4700FFF090000A7401F0E4FF121055E4FF1250
:101C57001A3FE4FF121B0BE4900001F09000D1E063
:101C6700B46414900101E07003FF801A900101E051
:101C770064017021FF801B9000D1E0B4C817900168
:101C870001E070057F01021A3F900101E0B40105F0
:061C97007F01121B0B226D
:0511A400900102EFF0D4
:1011A9007BFF7A28798190010412104C7A28799072
:1011B90090010712104C900003E0640160030212D1
:1011C900A9900102E06401600302129BA3F090015F
:1011D90003E0FE75F008A4FD2406FFC007ED240E08
:1011E900FBC0039001117402F0900104121043EE48
:1011F900FF3395E08F82F583120EDDFF3395E0FE14
:10120900EFC4F8540FC868FFEEC454F048FE74A048
:101219002FF974FE3EFA7BFF90011212104CD00395
:10122900D007E4FD1222A1900103E0FE75F008A4A5
:10123900FD2420FFC007ED2428FBC0039001117491
:1012490002F0900107121043EEFF3395E08F82F50B
:1012590083120EDDFF3395E0FEEFC4F8540FC86822
:10126900FFEEC454F048FE74A02FF974FE3EFA7BD9
:10127900FF90011212104CD003D007E4FD1222A1F5
:10128900900103E004F0E0C36480948350030211E9
:10129900D7229001117402F07B38E4FD7F06804665
:1012A900900102E0640170329001117402F07BFF39
:1012B9007A01793EA312104C7B20E4FD7F101222A3
:1012C900A19001117402F07BFF7A01795EA31210DB
:1012D9004C7B30E4FD7F200222A19001117402F0C1
:0912E9007B30E4FD7F1012244665
:0112F20022D9
:101E170090000AE0B40117E4F07F011211A47F01DA
:101E2700121A3F7F01121B0B9000D174C8F090006B
:101E370001E0605EB4011F900101E0700D7F0112A7
:101E47001A3F9001017401F08043E4900101F07F93
:101E570001121B0B8037900001E0C39402402EE46F
:101E6700FF1211A4E4FF121A3FE4FF121B0B9001AB
:101E770001E09000057003F080037405F0E4900121
:101E870001F090000A04F09000D774FFF0E490008E
:101E970001F09000D1E0B46414900101E07003FFF9
:101EA700801A900101E064017021FF801B9000D12E
:101EB700E0B4C817900101E070057F01021A3F9056
:0C1EC7000101E0B401057F01121B0B2299
:10098400EF7033900103F0900103E0FEC39418402C
:1009940003020B2674162EF582E43400F5837403E7
:1009A400F074362EF582E43400F58374C0F09001BF
:1009B40003E004F080D1EF64017065900103F090CE
:1009C4000103E0FEC39406502274162EF582E4342B
:1009D40000F58374FFF074362EF582E43400F58359
:1009E40074FFF0900103E004F080D49001037406D6
:1009F400F0900103E0FEC394184003020B26741622
:100A04002EF582E43400F5837403F074362EF582F7
:100A1400E43400F58374C0F0900103E004F080D165
:100A2400EF64027065900103F0900103E0FEC3944B
:100A34000C502274162EF582E43400F58374FFF012
:100A440074362EF582E43400F58374FFF0900103CC
:100A5400E004F080D4900103740CF0900103E0FEF4
:100A6400C394184003020B2674162EF582E4340056
:100A7400F5837403F074362EF582E43400F5837440
:100A8400C0F0900103E004F080D1EF640370629041
:100A94000103F0900103E0FFC39412502274162F57
:100AA400F582E43400F58374FFF074362FF582E4A4
:100AB4003400F58374FFF0900103E004F080D490D7
:100AC40001037412F0900103E0FFC39418505374AF
:100AD400162FF582E43400F5837403F074362FF591
:100AE40082E43400F58374C0F0900103E004F080E4
:100AF400D4E4900103F0900103E0FFC39418502262
:100B040074162FF582E43400F58374FFF074362FE5
:100B1400F582E43400F58374FFF0900103E004F0FF
:100B240080D49000CE7401F09001117403F07B0125
:100B34007A007914A312104C7B307D017F100222BD
:010B4400A10F
:1026070090000AE06401702BF09001117404F07BD4
:1026170040E4FDFF1224467F011212F390000BEFF6
:10262700F0E49000CEF09000D7EFF0120984E49028
:1026370000D1F0900001E06002E4F09000D1E06486
:10264700C870237F011212F3900102EFF0F46016B5
:10265700E0FF9000D7E06F6005EFF012098490016A
:0626670002E090000BF000
:01266D00224A
:1029C700900005E024FC6013146013146013146076
:1029D7001314601324077012021D5B021C9D02175B
:0B29E70063021BD7021E1712260722F6
:03003B00020006BA
:0400060075EC003263
:0300030002000AEE
:01000A0032C3
:0300130002000EDA
:01000E0032BF
:1028A00043AC0153ADFEA2AF920075C7AA75C755E0
:1028B00075910143AC0175C7AA75C755E4F591A29E
:1028C0000092AF43E90453EAFE43EB0143E90343BB
:0528D0009B02D2AF22C3
:1029F20043B38053B47FA2AF920075C7AA75C7557F
:102A020075910143B38075C7AA75C755E4F591A2C4
:082A12000092AFD2AAD2AF225C
:102BA7001228A01229F243870253E9FEC2A8C2AA3B
:042BB700539BFD220D
:100B4500539BFD1228D512141A1226CC7B017A006C
:100B55007902E4FDFC7F0A122036E4900101F09051
:100B6500000A04F0E49000FFF0A3F09000CCF0A39D
:100B7500F09000DCF09000CEF09000D774FFF0A26A
:100B8500B0E433FF1212F390000BEFF03097FD1233
:100B95001534900002E0B4A509900005E060030259
:100BA5000CA6E4900003F0A3F090000612101200CA
:100BB50000000090000274A5F09000057401F0900B
:100BC500000B74FFF09000D7F07D017F0712290913
:100BD5009001117403F07BFF7A037950A312104C36
:100BE5007B147D017F0C1222A19001117403F07B0F
:100BF500FF7A00793EA312104C7B247D017F1412ED
:100C050022A19001117403F07BFF7A047910A312DD
:100C1500104C7B2C7D017F241222A19001117403BD
:100C2500F07BFF7A0279B0A312104C7B347D017FF3
:100C35002C1222A1E49000FFF0A3F090005AF0A33B
:100C450004F0900058F0900057F0E4FDFCFF7E02A0
:100C55001220D97D007C027F007E021220D99000EF
:100C65000BE0B4FF121224C0A2B0E433FF1212F35A
:100C750090000BEFF080E7C3900100E094909000A6
:100C8500FFE0940140F1E49000FFF0A3F090000A2A
:100C950004F09001117403F07B347D017F0C122464
:100CA500461229C71224C0C3900100E094E89000C1
:100CB500FFE094035003020B94122AEF900005E025
:100CC500FF64066004EFB407069000057405F07B29
:100CD500017A007902E4FDFC7F0A12195CE4F5B1A2
:100CE500F5B2F5B3F5B4F5ACF5AD53E1FE43B3108C
:100CF50043B410C294122BA7E49000FFF0A3F02296
:01000F0022CE
:10296F00A2AF9200C2AF75C7AA75C75543A401A203
:10297F000092AFE59F30E613A2AF9200C2AF75C7CA
:0C298F00AA75C755539FBFA20092AF224B
:0C20D90090011AECF0A3EDF0AB07AA0692
:1020E500EB4A7003022178EBAE027807CEC313CE1C
:1020F50013D8F9FF90011CEEF0A3EFF0EB547F60CD
:102105000A90011CE475F001120F3EA2AF9200C2C5
:10211500AF75C7AA75C755439F01A20092AF75AEAB
:10212500FF75AF62A2AF9200C2AF75C7AA75C7555A
:1021350043A502A20092AFE4FDFCD390011DE09DF2
:1021450090011CE09C402CED75F080A4FF90011AD5
:10215500E0FAA3E0FB2FF5A6EDAE047807C333CE76
:1021650033CED8F92BEA3EF5A712296F0DBD000134
:032175000C80C714
:012178002244
:0C220E0090011AEEF0A3EFF0A312104CA8
:10221A00A2AF9200C2AF75C7AA75C755439F01A264
:10222A000092AFA2AF9200C2AF75C7AA75C7554355
:10223A00A502A20092AFEDF5A6ECF5A775AF61E491
:10224A00FFFED390011BE09F90011AE09E4021906F
:10225A00011C1210438F828E83120EDDF5AE1229F5
:10226A006F05A6E5A6700205A70FBF00010E80D272
:10227A00A2AF9200C2AF75C7AA75C75553A5FDA2F2
:10228A000092AFA2AF9200C2AF75C7AA75C75553E5
:06229A009FFEA20092AFBE
:0122A000221B
:0C252E0090011AEEF0A3EFF0A312104C85
:10253A00A2AF9200C2AF75C7AA75C755439F01A241
:10254A000092AFEDF5A6ECF5A775AF40E4FFFED318
:10255A0090011BE09F90011AE09E402112296F9082
:10256A00011C1210438F828E83E5AE120F1C05A642
:10257A00E5A6700205A70FBF00010E80D2A2AF9296
:10258A0000C2AF75C7AA75C755539FFEA20092AF86
:01259A00221E
:0F203600900102EFF0A3ECF0A3EDF0A312104C19
:10204500E4900108F0900108E0FDC39420503B9016
:102055000102E0FF7E00C007ED75F010A4FF9001BE
:1020650004E02FFD900103E035F0FC90010512100E
:1020750043D00712252E900105121043120EC4B449
:10208500A508900108E004F080BB900108E07013FA
:10209500C3900103E09402503A740275F000120FE8
:1020A5003E809D900108E014F0900102E0FF7E0063
:1020B500C007900108E075F010A4FF900104E02F1F
:1020C500FD900103E035F0FC900105121043D007A7
:0320D50012252EA3
:0120D80022E5
:0F195C00900102EFF0A3ECF0A3EDF0A312104CFA
:10196B00E4900118F0900118E0FDC39420503690DC
:10197B000102E0FF7E00C007ED75F010A4FF90019F
:10198B0004E02FFD900103E035F0FC7B017A017937
:10199B0008D00712252E900108E0B4A50890011875
:1019AB00E004F080C0900118E0A3F0B42014900183
:1019BB0003E0FCA3E0FD7F007E021220D9E490013E
:1019CB0018F0900102E0FF7E00C007900118E0754F
:1019DB00F010A4FF900104E02FFD900103E035F01F
:1019EB00FC900105121043D00712220E900119E052
:1019FB00B420107D007C027F007E021220D9E4907F
:101A0B000119F0900102E0FF7E00C007900119E080
:101A1B0075F010A4FF900104E02FFF900103E03557
:101A2B00F0CF2400FDEF3402FC900105121043D0DF
:041A3B000702220E6E
:042441004101240031
:082BCC0043B30243B402C292BC
:072BD400E4FFFEEF4E70FC70
:012BDB0022D7
:102A7F0053B3FB43B40443B30443B404D29253B3EC
:0D2A8F00FD43B40243B30243B402D29122CE
:102BBB00D291D292122BD4C291122BD4C292022B4D
:012BCB00D435
:0A2BF300C291D292122BD4D291228B
:022A3D00AD07E3
:102A3F00E4FCED30E704D2918002C291ED25E0FD78
:0F2A4F00D292122BD4C292122BD40CECB408E307
:012A5E002255
:032A5F00122A3DFB
:102A620043B30253B4FDD292122BD4309109122BEC
:0D2A7200F3122BCC7F0122122BCC7F00220F
:102A9C00AC07AA05122BBBAF04122A5FAF02122A95
:0C2AAC005FAF03122A3D122A62022BF3D6
:0C2BDC00C291C292122BD4D292022BD4D0
:10299B00E4FDFC43B30253B4FDC292122BD4D2928A
:1029AB00122BD4EC25E0FC3091010C0DEDB408E9B1
:0B29BB0043B30243B402122BDCAF0454
:0129C60022EE
:072BFD00AE071FEE70FA2283
:06293C00C280C283D280BC
:02294200AD07DF
:10294400C2837F02122BFDE4FCED30E004D28180CF
:1029540002C2817F01122BFDD2837F01122BFDC2A3
:0A29640083EDC313FD0CECB408DF93
:01296E002246
:1027F90053B1FD43B20243B10253B2FD7F02122B22
:10280900FDE4FCEDC313FD3081034480FDD2837FD9
:1028190001122BFDC2837F01122BFD0CECB408E3DE
:0828290053B1FD43B202AF05FB
:012831002284
:062B7D00AA07E4FD7F8EB3
:0F2B8300AB0512293CAF03122942D283C2802234
:0A2BE80012293C1227F9D283C280A3
:012BF20022C0
:102A1A00122B7D7F81122BE8EA6006EF4480FF804B
:102A2A0004EF547FFFAD077F80122B837D807F8E5A
:032A3A00022B83E9
:10259B0053B1F743B20853B1FD43B20253B1FE43FB
:1025AB00B201C283C281C2807FC1122BE8EF64A843
:1025BB006049122B7FE4FD7F80122B837D207F826D
:1025CB00122B837D077F84122B837D257F86122B15
:1025DB00837D127F88122B837D107F8A122B837D44
:1025EB00067F8C122B83E4FD7F90122B837DA87FBB
:0C25FB00C0122B837D807F8E122B832268
:042B9200120EDDFF43
:102B9600EF54F0C4540F75F00AA4FEEF540F2EFF45
:012BA600220C
:042AB800120EDDFF1E
:102ABC00E4FEEFC3940A400A74102EFE74F62FFF46
:072ACC0080F0EE4FFEAF06A3
:012AD30022E0
:101ED3007F81122BE8EF120F0A7F83122BE8900009
:101EE30001EF120F1C7F85122BE8900002EF120FF7
:101EF3001C7F87122BE8900003EF120F1C7F8912BF
:101F03002BE8900004EF120F1C7F8B122BE890003C
:101F130005EF120F1C7F8D122BE8E42FFFE4342012
:101F23009000068FF0120FA2120EC4FF122B96EF31
:101F3300120F0A900001122B92900001EF120F1C56
:101F4300900002122B92900002EF120F1C900003DC
:101F5300122B92900003EF120F1C900004122B928D
:101F6300900004EF120F1C900005122B92900005B5
:101F7300EF120F1C900006120F6AFF122B969000AF
:071F830006E48FF0020FA23B
:0621790090011F12104C42
:10217F00122B7F7DFF7FC0122B8390011F12104304
:10218F00120EC4FF122ABCAD077F80122B83900161
:10219F001F121043900001122AB8AD077F82122B35
:1021AF008390011F121043900002122AB8AD077FCF
:1021BF0084122B8390011F121043900003122AB830
:1021CF00AD077F86122B8390011F121043900004DE
:1021DF00122AB8AD077F88122B8390011F1210436C
:1021EF00900006120F6AFF122ABCAD077F8C122BCC
:0F21FF00837DA87FC0122B837D807F8E022B8370
:102B3B00122B7DAF02122ABCAD077F84122B837D33
:062B4B00807F8E022B8347
:102B5100122B7DAF02122ABCAD077F82122B837D1F
:062B6100807F8E022B8331
:102B6700122B7DAF02122ABCAD077F80122B837D0B
:062B7700807F8E022B831B
:03000000021F8A52
:101F8A0075C7AA75C75575FD5A75C7AA75C7557518
:101F9A00FDA5787FE4F6D8FD9000007FFF7E03E47C
:0C1FAA00F0A3DFFCDEFA758120021FF1BD
:101FB600022B23E493A3F8E493A34003F68001F2F3
:101FC60008DFF48029E493A3F85407240CC8C3332C
:101FD600C4540F4420C8834004F456800146F6DFFB
:101FE600E4800B01020408102040809023BEE47EAA
:101FF600019360BCA3FF543F30E509541FFEE493F0
:10200600A360010ECF54C025E060A840B8E493A3B6
:10201600FAE493A3F8E493A3C8C582C8CAC583CAE1
:10202600F0A3C8C582C8CAC583CADFE9DEE780BE99
:012445000096
:100EC400BB010689828A83E0225002E722BBFE022C
:090ED400E32289828A83E493225F
:100EDD00BB010CE58229F582E5833AF583E02250CA
:100EED0006E92582F8E622BBFE06E92582F8E22214
:0D0EFD00E58229F582E5833AF583E493222E
:100F0A00BB010689828A83F0225002F722BBFE01C6
:020F1A00F322C0
:100F1C00F8BB010DE58229F582E5833AF583E8F00B
:100F2C00225006E92582C8F622BBFE05E92582C8B7
:020F3C00F2229F
:100F3E00C5F0F8A3E028F0C5F0F8E582158270023E
:060F4E001583E038F022DB
:100F5400A3F8E0C5F025F0F0E58215827002158350
:060F6400E0C838F0E822AD
:100F6A00BB0110E58229F582E5833AF583E0F5F0C5
:100F7A00A3E0225009E92582F886F008E622BBFEA2
:100F8A000AE92582F8E2F5F008E222E5832AF583E8
:080F9A00E993F5F0A3E99322AD
:100FA200F8BB0111E58229F582E5833AF583E8F081
:100FB200E5F0A3F0225009E92582C8F608A6F0223E
:0D0FC200BBFE09E92582C8F2E5F008F22225
:0E0FCF00C3EF9BFFEE9AFEED99FDEC98FC221D
:100FDD00EB9FF5F0EA9E42F0E99D42F0E89C45F06A
:010FED0022E1
:0C0FEE00E0FCA3E0FDA3E0FEA3E0FF2276
:0C0FFA00E0F8A3E0F9A3E0FAA3E0FB227A
:0C100600ECF0A3EDF0A3EEF0A3EFF0225D
:10101200A8828583F0D083D082121029121029125F
:101022001029121029E473E493A3C583C5F0C58384
:10103200C8C582C8F0A3C583C5F0C583C8C582C828
:01104200228B
:09104300E0FBA3E0FAA3E0F922AE
:09104C00EBF0A3EAF0A3E9F022A5
:00000001FF
