:03000B00021EFBD7
:101EFB00C0E0C0D075D000C000758CE5758AF57850
:101F0B001D7401F2788EE204F2E2D394C84002E42D
:101F1B00F278B2E22401F218E23400F278A5E2245E
:101F2B0001F218E23400F278A1E22401F218E23453
:101F3B0000F2788BE22401F218E23400F2D000D0E8
:041F4B00D0D0E032E0
:1022CB007589FF5389F0438901538EF7758CE5753A
:0922DB008AF5D2A9D2AFD28C22FF
:03005B00021CEC98
:101CEC00C0E0C0D075D000C000C001C005C006C0A7
:101CFC0007C2EFAFC378A2E2FD25E0248FF8E4F22F
:101D0C0008EFF2ED25E0248FF8C000F909E3C4F8E0
:101D1C00540FC868FE19E3C454F048D000F208CE42
:101D2C00F2ED25E0248FF8C000E5C2540FFFE2FE6F
:101D3C0008E24FFFD000EEF208EFF278A2E204F2D4
:101D4C00E2C394084002C2AED007D006D005D00141
:071D5C00D000D0D0D0E0322E
:1017AB00E478A2F27F14788FE4F208DFFC43DE04C6
:1017BB0053E8F043E80343B14053B2BFE4F5F643BB
:1017CB00F60843E10153E8DF43E81053E1F753E137
:1017DB00FB43E10275D10775D9FF75D40275DCFFA8
:1017EB00D2DED2DFD2AED2AF78A2E2B408FAE4787E
:0417FB00A2F2D2AED6
:0117FF0022C7
:1022E400E4F5B1F5B2F5B3F5B4F5ACF5AD1222CB26
:0822F4001217AB120BC680FBB0
:10005E00000808080808080808080808080800002A
:10006E0040404141414141414141414141404000B7
:10007E000000F010101010FF10101010F000000013
:10008E0000000F04040404FF040404040F00000025
:10009E0008080838C808090E0808C83808080800F3
:1000AE008080404020110A040A11204040808000C8
:1000BE0090523410FF10345280708F0808F80800E8
:1000CE00829A566322528E008040330C3340800059
:1000DE00100C042424242526A464240404140C00E7
:1000EE00020202020242827F0202020202020200A7
:1000FE0002E282F212D752D25217FA12169A120056
:10010E00128E621F003F253DA74027182641F000A2
:10011E0000FC0000FF0004848484848484FC0000BE
:10012E00008740300F00202020202020207F00005C
:10013E00100C05555555857F8555555505140C00E4
:10014E000404020A09292A4C48A9190202040400CF
:10015E00101014D4545454FC525252D31210100096
:10016E00404050575555557F5555555750404000B6
:10017E00001715D55557557D555755D515170000F0
:10018E004040407F555555555555557F4040400090
:10019E000000007F494949494949497F0000000054
:1001AE008141211D214181FF8989898989818100B0
:1001BE0000028282422212FA06222242428200006B
:1001CE00010100FC44444445444444FC0000010049
:1001DE007E8181817E000082FF800000C6A1918910
:1001EE0086004281898976003028A6FFA0005F89AB
:1001FE00898971007C92898972000001F10D0300DA
:10020E007689898976004E9191493E0000C0300C66
:10021E00030000F804020204F800000304080804B6
:10022E00030000000404FE000000000008080F0890
:10023E000800001C020282423C00000C0A09080859
:10024E000C00000C024242A21C000006080808081E
:10025E000700008060100CFE000000010109090F6C
:10026E000909007E222222428200000608080804A4
:10027E00030000F844222224C000000304080808EA
:10028E00070000060282621A06000000000F00003E
:10029E000000001CA24242A21C0000070808080829
:1002AE000700007C82828244F800000004080804E3
:1002BE000300000000C0300E01000018060100000F
:1002CE0000000000C038E0000000203C230202279E
:1002DE00382008F8888888700000203F20202011E0
:1002EE000E00C0300808080838000718202020101B
:1002FE00080008F808080810E000203F2020201011
:10030E000F0008F88888E8081000203F20202320DE
:10031E00180008F88888E8081000203F2000030025
:10032E000000C03008080838000007182020221EE0
:10033E00020008F808000008F808203F21010121FA
:10034E003F20000808F8080800000020203F202069
:10035E00000000000808F8080800C08080807F00B8
:10036E00000008F888C028180800203F2001263811
:10037E00200008F8080000000000203F2020202068
:10038E00300008F8F800F8F80800203F013E013F61
:10039E00200008F830C00008F808203F2000071899
:1003AE003F00E01008080810E0000F102020201079
:1003BE000F0008F808080808F000203F210101018D
:1003CE000000E01008080810E0000F102828305038
:1003DE004F0008F8888888887000203F2000030CA2
:1003EE0030200070880808083800003820212122AB
:1003FE001C00180808F8080818000000203F20000C
:10040E00000008F808000008F808001F202020202F
:10041E001F000878880000C83808000007380E0151
:10042E00000008F800F800F8080000033E013E0343
:10043E000000081868808068180820302C03032CF0
:10044E0030200838C800C83808000000203F2000BF
:10045E00000010080808C83808002038262120207F
:10046E0018000000C0201018183060C000000000F6
:10047E00030306060606020100000000381C0203F4
:10048E0083FF3F01000000008040201C0F0300008E
:10049E00000020181C068787C63C1E0100000000C5
:1004AE000201010103070E18608010080E06422398
:1004BE0023B2EF0000000000000004020303061C3C
:1004CE00780040E0980C1E387060E0C0808000001C
:1004DE00010302060C0C08181010007CFEC06030E0
:1004EE00FCFE0301000000000000000000030F3CB2
:1004FE00408000F0FC0E020000000080C0400003AF
:10050E000F3040848CFE730100000000000080C09C
:10051E00C080061F1CF000080FC360203F2710107C
:10052E000C0300202030303078EEC3800000000035
:10053E00000000000000010738C0000000E0700C51
:10054E000672DE8C000000003FCF000000000001AC
:0D055E00010000303000000C0C00002400F3
:100E490053B3EF43B410C294E478B1F208F2C37813
:100E5900B2E2940218E2940040F4D29412003EE403
:100E690078B1F208F2C378B2E2940218E294004031
:100E7900F47BAEE4FD7F7812225DE4FBFD7F7812FE
:100E8900225D7B12E4FD7F7812225DE4FBFD7F7811
:100E990012225D7BB0E4FD7F7812225D7B81E4FD47
:100EA9007F7812225D7BFFE4FD7F7812225D7BA1B2
:100EB900E4FD7F7812225D7BA6E4FD7F7812225D36
:100EC9007BA8E4FD7F7812225D7B1FE4FD7F781209
:100ED900225D7BC8E4FD7F7812225D7BD3E4FD7F30
:100EE9007812225DE4FBFD7F7812225D7BD5E4FD5B
:100EF9007F7812225D7B80E4FD7F7812225D7BD9A9
:100F0900E4FD7F7812225D7B1FE4FD7F7812225D6C
:100F19007BDAE4FD7F7812225D7B12E4FD7F781293
:100F2900225D7BDBE4FD7F7812225D7B40E4FD7F5F
:100F39007812225D7B8DE4FD7F7812225D7B14E4BB
:100F4900FD7F7812225D7BAFE4FD7F7812225D7F01
:020F5900002274
:10215200EF242078CFF2ED24B0FBE4FD7F78122249
:102162005D78CFE254F0C4540F4410FBE4FD7F7855
:1021720012225D78CFE2540FFBE4FD7F7802225DEC
:102295007B8DE4FD7F7812225D7B14E4FD7F78124F
:0B22A500225D7BAFE4FD7F7802225D2C
:1022B0007B8DE4FD7F7812225D7B10E4FD7F781238
:0B22C000225D7BAEE4FD7F7802225D12
:101F4F00E478B8F278B8E2FFC39404503CEF24B0C1
:101F5F00FBE4FD7F7812225DE4FBFD7F7812225DAA
:101F6F007B12E4FD7F7812225D78B97420F2E4FBD6
:101F7F007D407F7812225D78B9E204F2E2C394606B
:091F8F0040EC78B8E204F280BBDA
:011F98002226
:081DCF0078C4EFF278C6EBF2D4
:101DD700E478C8F208F278C7E2FF54077008EF13F7
:101DE7001313541F800978C7E2131313541F047881
:101DF700CBF278CBEDF278C7E2FF78CBE2FDC39F59
:101E0700502F78C4E2FF12215278C4E278CAF278E0
:101E1700C6E2FF78CAE2C39F5010E4FB7D407F789B
:101E270012225D78CAE204F280E578CBE204F28000
:011E3700C5E5
:011E38002287
:081BEB0078C4EFF278C6EBF2BA
:101BF300E478CBF208F278C7E2FF54077008EF13DA
:101C03001313541F800978C7E2131313541F047866
:101C1300CEF278CEEDF278C7E2FF78CEE2FDC39F35
:101C2300504878C4E2FF12215278C4E278CDF278AA
:101C3300C6E2FF78CDE2C39F502978C81206A77881
:101C4300CB08E2FF2401F218E2FE3400F28F828E09
:101C530083120584FB7D407F7812225D78CDE204F8
:0A1C6300F280CC78CEE204F280ACEF
:011C6D002254
:1020B800454E474C495348004E4F524D414C0054F1
:1020C80049424554414E0052535400434E5400591E
:1020D8004553004E4F00444556001F1C1F1E1F1E2F
:0620E8001F1F1E1F1E1F3A
:10223C0081B30088A71F111111111F0E00880B0804
:0D224C0000085008BA094081A3FF811B0063
:1022FC00E478B0F218F2789FF2788CF208F2780059
:08230C00F243B38053B47F22B9
:10189800781DE27002212EE4F2A2973378B0F21894
:1018A800E2FF08E2FE6F605B18EEF2788CE2FE0859
:1018B800E2FF4E700F789FE2D394054007780074DA
:1018C80001F28034C3EF940CEE9400400778007462
:1018D80004F28024788CE2FE08E2FFC39405EE94BB
:1018E80000400778007403F2800EC3EF9402EE9470
:1018F80000400578007402F2E4789FF2788CF208D0
:10190800F2801E78B0E2701E789FE204F2E2D3946F
:10191800C8400DE4F2788DE22401F218E23400F2B6
:07192800E478B1F208F2229D
:10200000EF6401703078C77402F27BFF7A00797E4A
:10201000081206B07B20E4FD7F10121BEB78C7741A
:1020200002F27BFF7A00799E081206B07B30E4FD55
:102030007F20021BEB78C77402F27B30E4FD7F1037
:04204000121DCF227C
:101B67007BFF7A2079B878B81206B0EF6401706607
:101B770078BBF278BBE2FE75F008A4FD2404FFC031
:101B870007ED240CFBC00378C77404F278B812067B
:101B9700A7EEFF3395E08F82F583120584FF339517
:101BA700E0FEEFC4F8540FC868FFEEC454F048FED7
:101BB70074C02FF974FE3EFA7BFF78C81206B0D0C6
:101BC70003D0077D02121BEB78BBE204F2E2C36489
:101BD700809487409E2278C77404F27B3C7D02FF85
:031BE700121DCFFD
:011BEA0022D8
:101711007809E2B4011AE4F278C77403F27B347DEC
:10172100017F0C121DCF7F011220007F01121B6768
:101731007800E2604FB4012078B3E27F01700A12B1
:10174100200078B37401F28007121B67E478B3F2CA
:1017510078B3E27802F280287800E2C39402402054
:1017610078B3E27802F278047404F2E478B3F278A0
:101771008EF2780904F2E4FF121B67E4FF122000E5
:10178100E47800F2788EE2B4640C7802E27003FF30
:101791008011E4FF8010788EE2B4C80D7802E27FF8
:0A17A100017003022000121B6722F2
:051F990078BE1206698C
:051F9E0078C412068268
:101FA300E478CCF208F278C812066978C412067590
:101FB300C3120658401F78CDE22401F218E2340020
:101FC300F278C412066978C812067512064A78C4F4
:0C1FD30012068280D178CCE2FE08E2FF0A
:011FDF0022DF
:0521210078BE12066902
:10212600801D78C812066978C4120675C31206584F
:10213600401478C412066978C812067512064A78E1
:0C214600C412068280DC78C412066922F4
:0411E70078B8EFF2F3
:1011EB007BFF7A2079C0081206B07802E2640170A6
:1011FB007A78B8E26401706678BCF278BCE2FE756E
:10120B00F008A4FD2408FFC007ED2410FBC00378F1
:10121B00C77402F278B91206A7EEFF3395E08F82FE
:10122B00F583120584FF3395E0FEEFC4F8540FC825
:10123B0068FFEEC454F048FE74C02FF974FE3EFAFA
:10124B007BFF78C81206B0D003D007E4FD121BEB6E
:10125B0078BCE204F2E2C364809486409E2278C795
:10126B007402F27B38E4FD7F08804278B8E26401B7
:10127B00703078C77402F27BFF7A0079BE081206D1
:10128B00B07B20E4FD7F10121BEB78C77402F27B5E
:10129B00FF7A0079DE081206B07B30E4FD7F200276
:1012AB001BEB78C77402F27B30E4FD7F10121DCF6D
:0112BB002210
:0410000078B8EFF2DB
:101004007BFF7A2079C7081206B07802E264017087
:101014007878B8E26401706678BCF278BCE2FE7558
:10102400F008A4FD2404FFC007ED240CFBC00378E2
:10103400C77404F278B91206A7EEFF3395E08F82E5
:10104400F583120584FF3395E0FEEFC4F8540FC80E
:1010540068FFEEC454F048FE74C02FF974FE3EFAE3
:101064007BFF78C81206B0D003D0077D02121BEBB9
:1010740078BCE204F2E2C364809487409E2278C77D
:101084007404F27B3C7D02807178B8E26401706084
:1010940078C77404F27BFF7A0079FE081206B07BED
:1010A400107D02E4FF121BEB78C77404F27BFF7A15
:1010B40000799E081206B07B207D027F10121BEB84
:1010C40078C77404F27BFF7A0079BE081206B07BFD
:1010D400307D027F20121BEB78C77404F27BFF7A09
:1010E4000079DE081206B07B407D027F30021BEBE4
:0E10F40078C77404F27B407D02E4FF121DCF2A
:0111020022CA
:10192F007809E2B4010CE4F27F011211E77F011292
:10193F0010007800E2604AB4011B78B3E27F01B473
:10194F000109121000E478B3F280321211E778B374
:10195F007401F280287800E2C39402402078047466
:10196F0005F278B3E27803F2E478B3F2788EF27886
:10197F000904F2E4FF1211E7E4FF121000E478000B
:10198F00F2788EE2B4641278B3E2B40104E4FF801B
:10199F001678B3E2701EFF8018788EE2B4C81578FF
:1019AF00B3E2B401057F0102100078B3E270057F46
:0519BF00011211E722F6
:0508000078B812068229
:10080500E478C2F208F278BCE2700E78C77404F29C
:100815007B407D02E4FF021DCF78B812066978BEE1
:100825001206827803E2600221F778C3740CF2782D
:10083500C812068E00002710121F9978BDEFF278B6
:10084500C812068E00002710122121E4FCFD78BE97
:1008550012068278BDE2FF603075F010A42420F9FD
:10086500740235F0FA7BFF78C81206B078C3E2FF50
:100875002408FB78C77404F27D02121BEB78C2745E
:1008850001F208E22408F2800678C3E22404F27833
:10089500C812068E000003E8121F9978BDEFF278A2
:1008A500C812068E000003E8122121E4FCFD78BE83
:1008B50012068278C2E26401600578BDE260347890
:1008C500C27401F278BDE275F010A42420F9740217
:1008D50035F0FA7BFF78C81206B078C3E2FF24082A
:1008E500FB78C77404F27D02121BEB78C3E224087F
:1008F500F2800678C3E22404F278C812068E00005E
:100905000064121F9978BDEFF278C812068E0000B8
:100915000064122121E4FCFD78BE12068278C2E251
:100925006401600578BDE2603478C27401F278BD77
:10093500E275F010A42420F9740235F0FA7BFF78F3
:10094500C81206B078C3E2FF2408FB78C77404F226
:100955007D02121BEB78C3E22408F2800678C3E21D
:100965002404F278C812068E0000000A121F997836
:10097500BDEFF278C812068E0000000A122121E4AC
:10098500FCFD78BE12068278C2E26401600578BD7E
:10099500E2603478C27401F278BDE275F010A424E7
:1009A50020F9740235F0FA7BFF78C81206B078C3D7
:1009B500E2FF2408FB78C77404F27D02121BEB7872
:1009C500C3E22408F2800678C3E22404F278BE125A
:1009D500066978BDEFF2E275F010A42420F97402DF
:1009E50035F0FA7BFF78C81206B078C3E2FF240819
:1009F50061BA78C37402F278C812068E0000271017
:100A0500121F9978BDEFF278C812068E00002710E4
:100A1500122121E4FCFD78BE12068278BDE2FF605A
:100A25003075F018A42470F9740435F0FA7BFF785A
:100A3500C81206B078C3E2FF240CFB78C77404F231
:100A45007D02121BEB78C27401F208E2240CF280DD
:100A55000678C3E22406F278C812068E000003E881
:100A6500121F9978BDEFF278C812068E000003E8D0
:100A7500122121E4FCFD78BE12068278C2E26401EF
:100A8500600578BDE2603378BDE275F018A4247086
:100A9500F9740435F0FA7BFF78C81206B078C3E222
:100AA500FF240CFB78C77404F27D02121BEB78C29D
:100AB5007401F208E2240CF2800678C3E22406F2FF
:100AC50078C812068E00000064121F9978BDEFF2F7
:100AD50078C812068E00000064122121E4FCFD781E
:100AE500BE12068278C2E26401600578BDE2603319
:100AF50078BDE275F018A42470F9740435F0FA7B1A
:100B0500FF78C81206B078C3E2FF240CFB78C774DF
:100B150004F27D02121BEB78C27401F208E2240C88
:100B2500F2800678C3E22406F278C812068E000029
:100B3500000A121F9978BDEFF278C812068E0000E0
:100B4500000A122121E4FCFD78BE12068278C2E279
:100B55006401600578BDE2603378BDE275F018A4E4
:100B65002470F9740435F0FA7BFF78C81206B07862
:100B7500C3E2FF240CFB78C77404F27D02121BEB61
:100B850078C27401F208E2240CF2800678C3E224EC
:100B950006F278BE12066978BDEFF2E275F018A488
:100BA5002470F9740435F0FA7BFF78C81206B07822
:100BB500C3E2FF240CFB78C77404F27D02121BEB21
:010BC500220D
:1012BC00E4FFFE78A2E2640860026187FDED25E0A0
:1012CC00248FF8E2FA08E22FFFEA3EFE0DEDB40897
:1012DC00ECEF7803CEC313CE13D8F9FF780CE224CD
:1012EC00F0FD18E234FFFCC3EF9DEE9C50037F0031
:1012FC0022780CE22410FD18E23400FCD3EF9DEEB2
:10130C009C4015780EE224F0FD18E234FFFCC3EF8C
:10131C009DEE9C50037F0122780EE22410FD18E212
:10132C003400FCD3EF9DEE9C40157810E224F0FDC8
:10133C0018E234FFFCC3EF9DEE9C50037F02227831
:10134C0010E22410FD18E23400FCD3EF9DEE9C401B
:10135C00157812E224F0FD18E234FFFCC3EF9DEE89
:10136C009C50037F03227812E22410FD18E2340013
:0D137C00FCD3EF9DEE9C40037F04227FFF19
:011389002241
:101EA100EF700678A874118033EFB4010A78A87432
:101EB1001FF20874118027EFB4020C78A8741FF286
:101EC10008F20874118019EF78A8B4030D741FF299
:101ED10008F208F2087411F28009741FF208F2087E
:101EE100F208F278C77401F27BFE7A0079A7081232
:0A1EF10006B07B08E4FDFF021BEBC6
:1021AE001212BC78B8EFF2F4601AE2FF78A3E26F75
:1021BE006006EFF2FF121EA178B8E2780AF2E47818
:0421CE00A2F2D2AEF9
:0121D20022EA
:101103007809E2B4011FE4F21217ABE4781BF2781A
:101113000512066978BC7401F2120800E478A4F29F
:1011230008F2781CF21221AE7800E2FF700221E689
:101133006401704A7805120669EF2401FFE43EFE5C
:10114300E43DFDE43CFC78051206827F9F7E867DAC
:10115300017C007805120675D312065840147805F1
:1011630012068E00000000E478BCF2FFFEFDFC12C4
:101173000800780512066978BC7401F2805E780075
:10118300E2B4032A78047406F278097401F2E4786D
:10119300B3F278A374FFF278C77402F27B40E4FDE4
:1011A300FF121DCFE478BCF2FFFEFDFC802E780019
:1011B300E2B4042B78047407F278097401F2E4783A
:1011C300B3F278A374FFF278C77402F27B40E4FDB4
:1011D300FF121DCFE478BCF2FFFEFDFC120800E411
:0411E3007800F2227C
:0406B90078B8EFF22C
:1006BD007BFF7A2079CF78BA1206B07A2079D37879
:1006CD00BD1206B07802E264016002E1AC78B8E2D6
:1006DD0064016002E19F08F278B9E2FE75F008A4AA
:1006ED00FD2406FFC007ED240EFBC00378C774027E
:1006FD00F278BA1206A7EEFF3395E08F82F58312DA
:10070D000584FF3395E0FEEFC4F8540FC868FFEE83
:10071D00C454F048FE74C02FF974FE3EFA7BFF7886
:10072D00C81206B0D003D007E4FD121BEB78B9E276
:10073D00FE75F008A4FD2420FFC007ED2428FBC0A2
:10074D000378C77402F278BD1206A7EEFF3395E069
:10075D008F82F583120584FF3395E0FEEFC4F854C4
:10076D000FC868FFEEC454F048FE74C02FF974FE34
:10077D003EFA7BFF78C81206B0D003D007E4FD1215
:10078D001BEB78B9E204F2E2C3648094835002C19A
:10079D00E52278C77402F27B38E4FD7F068042784B
:1007AD00B8E26401703078C77402F27BFF7A017988
:1007BD001E081206B07B20E4FD7F10121BEB78C7DC
:1007CD007402F27BFF7A01793E081206B07B30E4A9
:1007DD00FD7F20021BEB78C77402F27B30E4FD7FB6
:0407ED0010121DCFFA
:0107F10022E5
:04138A0078B8EFF24E
:10138E007BFF7A2079D778BA1206B07802E2640130
:10139E00707978B8E26401706508F278B9E2FE758A
:1013AE00F008A4FD240AFFC007ED2412FBC0037849
:1013BE00C77404F278BA1206A7EEFF3395E08F8257
:1013CE00F583120584FF3395E0FEEFC4F8540FC881
:1013DE0068FFEEC454F048FE74C02FF974FE3EFA56
:1013EE007BFF78C81206B0D003D0077D02121BEB2C
:1013FE0078B9E204F2E2C364809483409E2278C7F7
:10140E007404F27B227D027F0A802978B8E2B4014F
:10141E001878C77404F27BFF7A01799E081206B021
:10142E007B1C7D027F0C021BEB78C77404F27B1CC5
:07143E007D027F0C121DCF9F
:011445002284
:0414460078B8EFF291
:10144A007BFF7A2079DB78BA1206B07802E264016F
:10145A00707978B8E26401706508F278B9E2FE75CD
:10146A00F008A4FD2426FFC007ED242EFBC0037854
:10147A00C77404F278BA1206A7EEFF3395E08F829A
:10148A00F583120584FF3395E0FEEFC4F8540FC8C4
:10149A0068FFEEC454F048FE74C02FF974FE3EFA99
:1014AA007BFF78C81206B0D003D0077D02121BEB6F
:1014BA0078B9E204F2E2C364809482409E2278C73B
:1014CA007404F27B367D027F26802978B8E2B40163
:1014DA001878C77404F27BFF7A0179BE081206B045
:1014EA007B347D027F24021BEB78C77404F27B34C1
:0714FA007D027F24121DCFCB
:0115010022C7
:1015B9007809E2B40111E4F27F011206B97F011240
:1015C900138A7F011214467800E2FF605BB40119A7
:1015D90078B3E2700C7F0112138A78B37401F28038
:1015E90043E478B3F27F0180387800E2C394024083
:1015F9003378B3E27009780512068E00000000788E
:10160900047405F2E478B3F2788EF278A374FFF2E9
:1016190078097401F2E4FF1206B9E4FF12138AE4AF
:10162900FF121446E47800F2788EE2B4641278B3BB
:10163900E27003FF801778B3E26401701EFF80181F
:10164900788EE2B4C81578B3E270057F0102138A77
:0C16590078B3E2B401057F0112144622B0
:040D100078B8EFF2CE
:100D14007BFF7A2079CF78BA1206B07A2079DE7810
:100D2400BD1206B07802E264016002C10378B8E241
:100D340064016002A1F608F278B9E2FE75F008A435
:100D4400FD2406FFC007ED240EFBC00378C7740220
:100D5400F278BA1206A7EEFF3395E08F82F583127C
:100D64000584FF3395E0FEEFC4F8540FC868FFEE26
:100D7400C454F048FE74C02FF974FE3EFA7BFF7829
:100D8400C81206B0D003D007E4FD121BEB78B9E219
:100D9400FE75F008A4FD2420FFC007ED2428FBC045
:100DA4000378C77402F278BD1206A7EEFF3395E00C
:100DB4008F82F583120584FF3395E0FEEFC4F85467
:100DC4000FC868FFEEC454F048FE74C02FF974FED7
:100DD4003EFA7BFF78C81206B0D003D007E4FD12B8
:100DE4001BEB78B9E204F2E2C3648094835002A15D
:100DF4003C2278C77402F27B38E4FD7F0680427897
:100E0400B8E26401703078C77402F27BFF7A01792A
:100E14005E081206B07B20E4FD7F10121BEB78C73E
:100E24007402F27BFF7A01797E081206B07B30E40B
:100E3400FD7F20021BEB78C77402F27B30E4FD7F58
:040E440010121DCF9C
:010E48002287
:100F5B007809E2B40111E4F27F01120D107F011246
:100F6B00138A7F011214467800E26054B4011C7896
:100F7B00B3E2700C7F0112138A78B37401F2803CD8
:100F8B00E478B3F27F0112144680317800E2C39407
:100F9B00024029E4FF120D10E4FF12138AE4FF1242
:100FAB00144678B3E278047003F280037405F2E41C
:100FBB0078B3F2780904F278A374FFF2E47800F2C4
:100FCB00788EE2B4641278B3E27003FF801778B3C3
:100FDB00E26401701EFF8018788EE2B4C81578B3F6
:100FEB00E270057F0102138A78B3E2B401057F0139
:040FFB001214462264
:1021D3007804E224FC601014601014601014601082
:1021E3002406700F02171102192F0211030215B9E9
:0421F300120F5B224A
:03003B000223B6E7
:0423B60075EC003290
:1020440043B38053B47FA2AF920075C7AA75C75536
:1020540075910143B18075C7AA75C755E4F591A27E
:102064000092AF43E90143E98043EA8053EB7F43A5
:0B2074009B02D2AF43870253E9FE221B
:100BC6001222FC120E49121F4F7BFE7A007901E4B5
:100BD600FDFC7F0A121C6EE478B3F2780904F2E495
:100BE60078B1F208F2788AF208F278A6F278A3745D
:100BF600FFF23097FD1218987801E2B4A507780441
:100C0600E2600281C9E47802F208F2780512068EE3
:100C160000000000780174A5F278047401F2E4780B
:100C26000AF278A374FFF27D017F0712215278C77A
:100C36007403F27BFF7A037970081206B07B147D89
:100C4600017F0C121BEB78C77403F27BFF7A0079E5
:100C56005E081206B07B247D017F14121BEB78C759
:100C66007403F27BFF7A047930081206B07B2C7D80
:100C7600017F24121BEB78C77403F27BFF7A02799B
:100C8600D0081206B07B347D017F2C121BEBE47872
:100C9600B1F208F27819F20804F27817F218F2C3E2
:100CA60078B2E2949018E2940140F4E478B1F20844
:100CB600F2780904F278C77403F27B347D017F0C65
:100CC600121DCF1221D3C378B2E294E818E294033E
:100CD600500261FB1222B07BFE7A007901E4FDFC32
:100CE6007F0A121AE0E4F5B1F5B2F5B3F5B4F5AC46
:100CF600F5AD53E1FE43B31043B410C29412204441
:0A0D0600E478B1F208F21217AB22F4
:01000A0022D3
:10000E00A2AF9200C2AF75C7AA75C75543A401A28D
:10001E000092AFE59F30E613A2AF9200C2AF75C754
:0C002E00AA75C755539FBFA20092AF22D5
:0B18000078CFECF208EDF2AB07AA066F
:10180B00EB4A70020197EBAE027807CEC313CE13EF
:10181B00D8F979D2F3EE19F3EB547F600B78D2E25F
:10182B002401F218E23400F2A2AF9200C2AF75C7E6
:10183B00AA75C755439F01A20092AF75AEFF75AF56
:10184B0062A2AF9200C2AF75C7AA75C75543A50276
:10185B00A20092AFE4FDFCD378D2E29D18E29C404B
:10186B002BED75F080A4FF78CFE2FA08E2FB2FF5A1
:10187B00A6EDAE047807C333CE33CED8F92BEA3EB0
:0C188B00F5A712000E0DBD00010C80CB73
:01189700222E
:0B19C40078CFEEF208EFF2081206B038
:1019CF00A2AF9200C2AF75C7AA75C755439F01A2B8
:1019DF000092AFA2AF9200C2AF75C7AA75C75543A9
:1019EF00A502A20092AFEDF5A6ECF5A775AF61E4E5
:1019FF00FFFED378D0E29F18E29E402078D11206E6
:101A0F00A78F828E83120584F5AE12000E05A6E510
:101A1F00A6700205A70FBF00010E80D6A2AF9200DD
:101A2F00C2AF75C7AA75C75553A5FDA20092AFA245
:101A3F00AF9200C2AF75C7AA75C755539FFEA200DC
:021A4F0092AF54
:011A51002272
:0B1E390078CFEEF208EFF2081206B0BE
:101E4400A2AF9200C2AF75C7AA75C755439F01A23E
:101E54000092AFEDF5A6ECF5A775AF40E4FFFED315
:101E640078D0E29F18E29E402012000E78D112062C
:101E7400A78F828E83E5AE1205C305A6E5A6700280
:101E840005A70FBF00010E80D6A2AF9200C2AF75A6
:0C1E9400C7AA75C755539FFEA20092AF6D
:011EA000221F
:0E1C6E0078B8EFF208ECF208EDF2081206B0BA
:101C7C00E478BEF278BEE2FDC39420503478B8E22A
:101C8C00FF7E00C007ED75F010A4FF78BAE22FFDBF
:101C9C0018E235F0FC78BB1206A7D007121E397873
:101CAC00BB1206A712056BB4A50778BEE204F2803E
:101CBC00C378BEE2602978BEE214F278B8E2FF7E07
:101CCC0000C00778BEE275F010A4FF78BAE22FFDD1
:0F1CDC0018E235F0FC78BB1206A7D007121E39AC
:011CEB0022D6
:0E1AE00078B8EFF208ECF208EDF2081206B04A
:101AEE00E478CEF278CEE2FDC39420503078B8E29E
:101AFE00FF7E00C007ED75F010A4FF78BAE22FFD4F
:101B0E0018E235F0FC7BFE7A0079BED007121E3942
:101B1E0078BEE2B4A50778CEE204F280C778CEE2B2
:101B2E00B4201278B9E2FC08E2FD7F007E021218A2
:101B3E0000E478CEF278B8E2FF7E00C00778CEE2FD
:101B4E0075F010A4FF78BAE22FFD18E235F0FC789C
:091B5E00BB1206A7D0070219C44E
:0322590081B4004D
:0823910043B30243B402C292FF
:07239900E4FFFEEF4E70FCB3
:0123A000221A
:10003E0053B3FB43B40443B30443B404D29253B357
:0D004E00FD43B40243B30243B402D2912239
:10238000D291D292122399C291122399C29202231E
:0123900099B3
:0A23AC00C291D292122399D291221D
:02221A00AD070E
:10221C00E4FCED30E704D2918002C291ED25E0FDA3
:0F222C00D292122399C2921223990CECB408E3B8
:01223B002280
:031FE00012221AB0
:101FE30043B30253B4FDD2921223993091091223C1
:0D1FF300AC1223917F01221223917F002266
:10225D00AC07AA05122380AF04121FE0AF02121FB4
:0C226D00E0AF0312221A121FE30223ACA0
:0C07F200C291C292122399D29202239964
:10218200E4FDFC43B30253B4FDC292122399D292EE
:10219200122399EC25E0FC3091010C0DEDB408E915
:0B21A20043B30243B4021207F2AF0483
:0121AD00220F
:07000300AE071FEE70FA22A8
:0620EE00C280C283D28013
:0220F400AD0736
:1020F600C2837F02120003E4FCED30E004D281804B
:1021060002C2817F01120003D2837F01120003C243
:0A21160083EDC313FD0CECB408DFE9
:01212000229C
:10207F0053B1FD43B20243B10253B2FD7F021200CE
:10208F0003E4FCEDC313FD3081034480FDD2837F55
:10209F0001120003C2837F011200030CECB408E3AA
:0820AF0053B1FD43B202AF057D
:0120B7002206
:06235600AA07E4FD7F8EE2
:0F235C00AB051220EEAF031220F4D283C2802211
:0A23A1001220EE12207FD283C280CA
:0123AB00220F
:1021F7001223567F811223A1EA6006EF4480FF80F5
:1022070004EF547FFFAD077F8012235C7D807F8EB4
:0322170002235C43
:101D630053B1F743B20853B1FD43B20253B1FE433B
:101D7300B201C283C281C2807FC11223A1EF64A8D2
:101D83006049122358E4FD7F8012235C7D207F820B
:101D930012235C7D077F8412235C7D257F861223BB
:101DA3005C7D127F8812235C7D107F8A12235C7D09
:101DB300067F8C12235CE4FD7F9012235C7DA87F59
:0C1DC300C012235C7D807F8E12235C2206
:04236B00120584FFD4
:10236F00EF54F0C4540F75F00AA4FEEF540F2EFF74
:01237F00223B
:04227900120584FFC7
:10227D00E4FEEFC3940A400A74102EFE74F62FFF8D
:07228D0080F0EE4FFEAF06EA
:012294002227
:101502007F811223A1EF1205B17F831223A19000E4
:1015120001EF1205C37F851223A1900002EF12058D
:10152200C37F871223A1900003EF1205C37F8912A4
:1015320023A1900004EF1205C37F8B1223A1900018
:1015420005EF1205C37F8D1223A1E42FFFE434209F
:101552009000068FF012061D12056BFF12236FEF2B
:101562001205B190000112236B900001EF1205C326
:1015720090000212236B900002EF1205C390000349
:1015820012236B900003EF1205C390000412236B29
:10159200900004EF1205C390000512236B90000522
:1015A200EF1205C39000061205E5FF12236F9000AB
:0715B20006E48FF002061DA4
:051A520078B51206B09A
:101A57001223587DFF7FC012235C78B51206A712A8
:101A6700056BFF12227DAD077F8012235C78B512CC
:101A770006A7900001122279AD077F8212235C78B6
:101A8700B51206A7900002122279AD077F841223B0
:101A97005C78B51206A7900003122279AD077F86FE
:101AA70012235C78B51206A7900004122279AD07BD
:101AB7007F8812235C78B51206A79000061205E509
:101AC700FF12227DAD077F8C12235C7DA87FC01299
:091AD700235C7D807F8E02235CFC
:10231400122356AF0212227DAD077F8412235C7D07
:06232400807F8E02235CA5
:10232A00122356AF0212227DAD077F8212235C7DF3
:06233A00807F8E02235C8F
:10234000122356AF0212227DAD077F8012235C7DDF
:06235000807F8E02235C79
:0300000002166580
:1016650075C7AA75C75575FD5A75C7AA75C7557546
:10167500FDA5787FE4F6D8FD9000007FFF7E03E4AA
:0C168500F0A3DFFCDEFA7581200216CC19
:101691000222E4E493A3F8E493A34003F68001F269
:1016A10008DFF48029E493A3F85407240CC8C3335A
:1016B100C4540F4420C8834004F456800146F6DF29
:1016C100E4800B010204081020408090223CE47E5B
:1016D100019360BCA3FF543F30E509541FFEE4931E
:1016E100A360010ECF54C025E060A840B8E493A3E5
:1016F100FAE493A3F8E493A3C8C582C8CAC583CA10
:10170100F0A3C8C582C8CAC583CADFE9DEE780BEC7
:01225C000081
:10056B00BB010689828A83E0225002E722BBFE028E
:09057B00E32289828A83E49322C1
:10058400BB010CE58229F582E5833AF583E022502C
:1005940006E92582F8E622BBFE06E92582F8E22276
:0D05A400E58229F582E5833AF583E4932290
:1005B100BB010689828A83F0225002F722BBFE0129
:0205C100F32223
:1005C300F8BB010DE58229F582E5833AF583E8F06E
:1005D300225006E92582C8F622BBFE05E92582C81A
:0205E300F22202
:1005E500BB0110E58229F582E5833AF583E0F5F054
:1005F500A3E0225009E92582F886F008E622BBFE31
:100605000AE92582F8E2F5F008E222E5832AF58376
:08061500E993F5F0A3E993223B
:10061D00F8BB0111E58229F582E5833AF583E8F00F
:10062D00E5F0A3F0225009E92582C8F608A6F022CC
:0D063D00BBFE09E92582C8F2E5F008F222B3
:0E064A00C3EF9BFFEE9AFEED99FDEC98FC22AB
:10065800EB9FF5F0EA9E42F0E99D42F0E89C45F0F8
:01066800226F
:0C066900E2FC08E2FD08E2FE08E2FF22CD
:0D067500E2FB08E2F908E2FA08E2CBF82205
:0C068200ECF208EDF208EEF208EFF222B4
:10068E00D083D082E493F208740193F2087402933B
:09069E00F208740393F274047372
:0906A700E2FB08E2FA08E2F92284
:0906B000EBF208EAF208E9F2227B
:00000001FF
