:03000B00021E656D
:101E6500C0E0C0D0758CE5758AF5D2000548E54817
:101E7500D394C840037548000553E55370020552D5
:0D1E85000545E54570020544D0D0D0E0329F
:102052007589FF5389F0438901538EF7758CE575B5
:092062008AF5D2A9D2AFD28C227A
:101BFA00E5092401FFE43508FEC3E5459FE5449E57
:101C0A004041854408854509C2EFD2EE30EFFDAF69
:101C1A00C37E00EFC4F8540FC868FFEEC454F048FE
:101C2A00FEE5C2540F4207EEC313FEEF13254AF531
:101C3A004AEE3549F549C313F549E54A13F54AAE63
:071C4A0049FF227EFF7FFF2E
:011C51002270
:101D8400E4FDF549F54AF508F50953E8F043E8039D
:101D940043B14053B2BFF5F643F60843E101C3ED46
:101DA400648094C0500E121BFAEFF47002EEF460DB
:0A1DB400ED0D80EA8544088545091D
:011DBE002202
:10206B00E4F5B1F5B2F5B3F5B4F5ACF5AD1220521C
:08207B00121D8412065480E8D6
:10003E00000808080808080808080808080800004A
:10004E0040404141414141414141414141404000D7
:10005E000000F010101010FF10101010F000000033
:10006E0000000F04040404FF040404040F00000045
:10007E0008080838C808090E0808C8380808080013
:10008E008080404020110A040A11204040808000E8
:10009E0090523410FF10345280708F0808F8080008
:1000AE00829A566322528E008040330C3340800079
:1000BE00100C042424242526A464240404140C0007
:1000CE00020202020242827F0202020202020200C7
:1000DE0002E282F212D752D25217FA12169A120076
:1000EE00128E621F003F253DA74027182641F000C3
:1000FE0000FC0000FF0004848484848484FC0000DF
:10010E00008740300F00202020202020207F00007C
:10011E00100C05555555857F8555555505140C0004
:10012E000404020A09292A4C48A9190202040400EF
:10013E00101014D4545454FC525252D312101000B6
:10014E00404050575555557F5555555750404000D6
:10015E00001715D55557557D555755D51517000010
:10016E004040407F555555555555557F40404000B0
:10017E000000007F494949494949497F0000000074
:10018E008141211D214181FF8989898989818100D0
:10019E0000028282422212FA06222242428200008B
:1001AE00010100FC44444445444444FC0000010069
:1001BE0000F804020204F800000304080804030017
:1001CE0000000404FE000000000008080F080800EC
:1001DE00001C020282423C00000C0A0908080C00B6
:1001EE00000C024242A21C00000608080808070084
:1001FE00008060100CFE000000010109090F0909C2
:10020E00007E222222428200000608080804030013
:10021E0000F844222224C000000304080808070046
:10022E0000060282621A06000000000F00000000A5
:10023E00001CA24242A21C00000708080808070082
:10024E00007C82828244F800000004080804030047
:10025E00000000C0300E0100001806010000000072
:10026E000000C038E0000000203C230202273820A6
:10027E0008F8888888700000203F202020110E008A
:10028E00C030080808083800071820202010080081
:10029E0008F808080810E000203F202020100F006A
:1002AE0008F88888E8081000203F20202320180036
:1002BE0008F88888E8081000203F2000030000009E
:1002CE00C03008080838000007182020221E02003F
:1002DE0008F808000008F808203F210101213F20FE
:1002EE00000808F8080800000020203F2020000029
:1002FE0000000808F8080800C08080807F00000019
:10030E0008F888C028180800203F20012638200051
:10031E0008F8080000000000203F202020203000B8
:10032E0008F8F800F8F80800203F013E013F2000D1
:10033E0008F830C00008F808203F200007183F00DA
:10034E00E01008080810E0000F10202020100F0009
:10035E0008F808080808F000203F210101010000FC
:10036E00E01008080810E0000F10282830504F0049
:10037E0008F8888888887000203F2000030C302001
:10038E0000708808080838000038202121221C003F
:10039E00180808F8080818000000203F2000000088
:1003AE0008F808000008F808001F202020201F0071
:1003BE000878880000C83808000007380E010000D1
:1003CE0008F800F800F8080000033E013E030000A4
:1003DE00081868808068180820302C03032C302001
:1003EE000838C800C83808000000203F2000000070
:1003FE0010080808C83808002038262120201800C8
:10040E000000C0201018183060C000000000030368
:10041E0006060606020100000000381C020383FFD8
:10042E003F01000000008040201C0F030000000070
:10043E0020181C068787C63C1E0100000000020122
:10044E00010103070E18608010080E06422323B226
:10045E00EF0000000000000004020303061C7800F9
:10046E0040E0980C1E387060E0C0808000000103F0
:10047E0002060C0C08181010007CFEC06030FCFE4A
:10048E000301000000000000000000030F3C40804C
:10049E0000F0FC0E020000000080C04000030F3090
:1004AE0040848CFE730100000000000080C0C080FC
:1004BE00061F1CF000080FC360203F2710100C030E
:1004CE0000202030303078EEC380000000000000A5
:1004DE0000000000010738C0000000E0700C06723A
:1004EE00DE8C000000003FCF000000000001010084
:100E830053B3EF43B410C294E4F552F553C3E5539F
:100E93009402E552940040F5D294121FD1E4F55226
:100EA300F553C3E5539402E552940040F57BAEE459
:100EB300FD7F78122000E4FBFD7F781220007B1277
:100EC300E4FD7F78122000E4FBFD7F781220007B95
:100ED300B0E4FD7F781220007B81E4FD7F7812204F
:100EE300007BFFE4FD7F781220007BA1E4FD7F7887
:100EF3001220007BA6E4FD7F781220007BA8E4FD8E
:100F03007F781220007B1FE4FD7F781220007BC8CE
:100F1300E4FD7F781220007BD3E4FD7F781220006C
:100F2300E4FBFD7F781220007BD5E4FD7F7812205F
:100F3300007B80E4FD7F781220007BD9E4FD7F787D
:100F43001220007B1FE4FD7F781220007BDAE4FD92
:100F53007F781220007B12E4FD7F781220007BDB78
:100F6300E4FD7F781220007B40E4FD7F78122000AF
:100F73007B8DE4FD7F781220007B14E4FD7F7812E3
:0E0F830020007BAFE4FD7F781220007F00226B
:101E9200EF2420F56CED24B0FBE4FD7F78122000E6
:101EA200E56C54F0C4540F4410FBE4FD7F7812201B
:0D1EB20000E56C540FFBE4FD7F780220007A
:10201C007B8DE4FD7F781220007B14E4FD7F781229
:0B202C0020007BAFE4FD7F7802200065
:102037007B8DE4FD7F781220007B10E4FD7F781212
:0B20470020007BAEE4FD7F780220004B
:101D4500E4F555E55524B0FBE4FD7F78122000E469
:101D5500FBFD7F781220007B12E4FD7F78122000C6
:101D6500755620E4FB7D407F781220000556E55628
:0E1D7500C3946040EE0555E555C3940440C587
:011D8300223D
:041CA6008F618B635C
:101CAA00E4F565F566E5645407700BE564131313F0
:101CBA00541FF568800AE564131313541F04F5686A
:101CCA008D68E568C395645022AD68AF61121E92B3
:101CDA00856167E567C39563500DE4FB7D407F78B6
:0B1CEA00122000056780EC056880D721
:011CF50022CC
:040F91008F618B637E
:100F9500E4F568F569E5645407700BE5641313130C
:100FA500541FF56B800AE564131313541F04F56B86
:100FB5008D6BE56BC395645039AD6BAF61121E92B5
:100FC50085616AE56AC395635024AB65AA66A9671E
:100FD5000569E569AE687002056814F5828E8312AD
:100FE5001B34FB7D407F78122000056A80D5056B98
:020FF50080C0BA
:010FF70022D7
:101DFA00454E474C495348004E4F524D414C0054B2
:101E0A0049424554414E0052535400434E540059DE
:101E1A004553004E4F00444556001F1C1F1E1F1EEF
:061E2A001F1F1E1F1E1FFA
:10208300015400082D0400042004400460014CFFA7
:0320930001460003
:10001600C203C202E4F54BF547F52243B38053B45D
:100026007F43AC0153ADFE43B11053B2EFF54DF52E
:040036004EF5212240
:10135600200002810AC200A2979203A20330020172
:10136600B3503DA2039202E547700CE54BD39405BA
:1013760040057522018022E547C3940A400575227F
:10138600048016E547C394034005752203800AE5E9
:1013960047C394024003752202E4F54BF5478012D9
:1013A600200313054BE54BD394C84005E4F54B05E4
:1013B60047E4F552F55320B01FE4F54DF54EE5210F
:1013C60064017040F521854326752B017564037B06
:1013D600307D017F10021CA6E4F552F553054EE55B
:1013E6004E7002054DD3940AE54D94004016754D96
:1013F60000754E0AE521700C752101852643752678
:0514060006752B012218
:101DBF00EF640170297564027565FF7566007567BC
:101DCF005E7B20FD7F10120F917564027565FF75A4
:101DDF00660075677E7B30E4FD7F20020F9175648E
:0B1DEF00027B30E4FD7F10121CA622D6
:101AA0007555FF75561D7557FAEF64017060F5584E
:101AB000E55875F008A4FE2404FFC007EE240CFBD3
:101AC000C003756404AB55AA56A957AF58EF3395B8
:101AD000E08F82F583121B34FF3395E0FEEFC4F8EC
:101AE000540FC868FFEEC454F048FE745E2FF974BA
:101AF000FE3E7565FFF5668967D003D0077D02124B
:101B00000F910558C3E5586480948740A3227564FB
:0A1B1000047B3C7D027F04121CA63A
:011B1A0022A8
:10199C00E52BB4011FE4F52B7564037B347D017FCB
:1019AC000C121CA67F01121DBF7F01121AA08524E8
:1019BC00547548C8E522603DB40119E5547F0170A7
:1019CC0008121DBF7554018006121AA0E4F5548547
:1019DC005424801EE522C394024017855424752696
:1019EC0002E4F554F548752B01FF121AA0E4FF121E
:1019FC001DBFE4F522E548B4640BE5247003FF80B9
:101A0C000FE4FF800EE548B4C80CE5247F01700399
:071A1C00021DBF121AA022F7
:1007A900E4756864F567F566F565AF5EAE5DAD5CE9
:0207B900AC5B37
:0807BB008F648E638D628C6176
:1007C300900000AF68AE67AD66AC65AB64AA63A981
:1007D30062A861C3121B83401EA3E5649568FFE50D
:1007E300639567FEE5629566FDE56195658F648EA9
:0B07F300638D62F56180CCAE83AF82A5
:0107FE0022D8
:101C52008F5AE4756864F567F566F565AF5EAE5D4B
:041C6200AD5CAC5B6E
:101C66008F648E638D628C61AF68AE67AD66AC655E
:101C7600AB64AA63A962A861C3121B83401DE56415
:101C86009568FFE5639567FEE5629566FDE56195F6
:101C9600658F648E638D62F56180CDAE63AF64221D
:021298008F5570
:10129A007556FF75571E755802E52464017071E58D
:1012AA005564017060F559E55975F008A4FE2408E3
:1012BA00FFC007EE2410FBC003756402AB56AA57A1
:1012CA00A958AF59EF3395E08F82F583121B34FF8B
:1012DA003395E0FEEFC4F8540FC868FFEEC454F02B
:1012EA0048FE745E2FF974FE3E7565FFF5668967E0
:1012FA00D003D007E4FD120F910559C3E559648064
:10130A00948640A3227564027B38E4FD7F08803806
:10131A00E555640170297564027565FF7566007587
:10132A00679E7B20FD7F10120F917564027565FF21
:10133A007566007567BE7B30E4FD7F20020F9175EC
:0B134A0064027B30E4FD7F10121CA643
:011355002275
:021000008F550A
:101002007556FF75571E755809E52464017071E520
:101012005564017060F559E55975F008A4FE240481
:10102200FFC007EE240CFBC003756404AB56AA573D
:10103200A958AF59EF3395E08F82F583121B34FF25
:101042003395E0FEEFC4F8540FC868FFEEC454F0C5
:1010520048FE745E2FF974FE3E7565FFF56689677A
:10106200D003D0077D02120F910559C3E559648060
:10107200948740A3227564047B3C7D027F048062D6
:10108200E555640170537564047565FF75660075F6
:1010920067DE7B107D02FF120F917564047565FF98
:1010A20075660075677E7B207D027F10120F917539
:1010B20064047565FF75660075679E7B307D027FEF
:1010C20020120F917564047565FF7566007567BE21
:1010D2007B407D027F30020F917564047B407D026C
:0510E200E4FF121CA652
:0110E70022E6
:10188C00E52BB40113E4F52B7F011212987F0112A2
:10189C0010008525547548C8E522603EB4011AE550
:1018AC00547F01B40108121000E4F55480061212A2
:1018BC0098755401855425801EE522C39402401767
:1018CC00752603855425E4F554F548752B01FF1254
:1018DC001298E4FF121000E4F522E548B46410E518
:1018EC0054B40104E4FF8013E554701BFF8015E52C
:1018FC0048B4C813E554B401057F01021000E55447
:08190C0070057F011212982200
:080800008F588E578D568C5560
:10080800E4F55FF560E559700B7564047B407D0283
:10081800FF021CA685585E85575D85565C85555B2D
:10082800E5256002219375600C75681075672712BD
:1008380007AF8F5AE4756810756727121C5AE48F42
:100848005E8E5DF55CF55BE55A602875F010A424B2
:10085800BEF9740135F07565FFF5668967E56024B2
:1008680008FB7564047D02AF60120F91755F017417
:1008780008800274042560F560E47568E87567030C
:100888001207AF8F5AE47568E8756703121C5AE4BB
:100898008F5E8E5DF55CF55BE55F64016004E55A8B
:1008A800602A755F01E55A75F010A424BEF9740139
:1008B80035F07565FFF5668967E5602408FB7564A2
:1008C800047D02AF60120F917408800274042560E1
:1008D800F5601207A9121C52E48F5E8E5DF55CF577
:1008E8005BE55F64016004E55A602A755F01E55ABB
:1008F80075F010A424BEF9740135F07565FFF5662E
:100908008967E5602408FB7564047D02AF60120FF7
:10091800917408800274042560F560E475680A1211
:1009280007AD8F5AE475680A121C58E48F5E8E5D15
:10093800F55CF55BE55F64016004E55A602A755F64
:1009480001E55A75F010A424BEF9740135F07565F7
:10095800FFF5668967E5602408FB7564047D02AFCE
:1009680060120F917408800274042560F560855E3A
:100978005AE55A75F010A424BEF9740135F075656E
:10098800FFF5668967E560240841F7756002E4753C
:1009980068107567271207AF8F5AE4756810756776
:1009A80027121C5AE48F5E8E5DF55CF55BE55A6094
:1009B8002875F018A4240EF9740435F07565FFF550
:1009C800668967E560240CFB7564047D02AF6012DC
:1009D8000F91755F01740C800274062560F560E460
:1009E8007568E87567031207AF8F5AE47568E8758C
:1009F8006703121C5AE48F5E8E5DF55CF55BE55F5C
:100A080064016004E55A602AE55A75F018A4240EBA
:100A1800F9740435F07565FFF5668967E560240C9F
:100A2800FB7564047D02AF60120F91755F01740C51
:100A3800800274062560F5601207A9121C52E48F23
:100A48005E8E5DF55CF55BE55F64016004E55A6008
:100A58002AE55A75F018A4240EF9740435F0756562
:100A6800FFF5668967E560240CFB7564047D02AFB9
:100A780060120F91755F01740C800274062560F591
:100A880060E475680A1207AD8F5AE475680A121C8B
:100A980058E48F5E8E5DF55CF55BE55F640160048C
:100AA800E55A602AE55A75F018A4240EF97404353D
:100AB800F07565FFF5668967E560240CFB756404CD
:100AC8007D02AF60120F91755F01740C800274068D
:100AD8002560F560855E5AE55A75F018A4240EF96C
:100AE800740435F07565FFF5668967E560240CFBCD
:0A0AF8007564047D02AF60120F91D7
:010B020022D0
:1010E8007EFFAC49AD4ABF010874F02DFD74FF3C8A
:1010F800FCE5467038D3ED9534EC953340047E0416
:1011080021CBD3ED9532EC953140047E0321CBD32E
:10111800ED9530EC952F40047E0221CBD3ED952E32
:10112800EC952D40047E0121CBE4FE21CBE52E2455
:10113800F8FBE52D34FFFAC3ED9BEC9A5004E4FE6E
:1011480021CBE52E2408FBE4352DFAD3ED9BEC9A50
:101158004015E53024F8FBE52F34FFFAC3ED9BEC8E
:101168009A50047E01805CE5302408FBE4352FFAB0
:10117800D3ED9BEC9A4015E53224F8FBE53134FFBA
:10118800FAC3ED9BEC9A50047E028037E5322408BE
:10119800FBE43531FAD3ED9BEC9A4015E53424F89D
:1011A800FBE53334FFFAC3ED9BEC9A50047E0380D1
:1011B80012E5342408FBE43533FAD3ED9BEC9A406E
:0511C800027E04AF06E9
:0111CD0022FF
:020B03008F560B
:100B0500754FF87550F87564017565007566007563
:100B1500674F7B04E4FD7F02120F91E55625E0F552
:100B250058E4F557E557C395585027754FF8755054
:100B3500F8E5572404FFE5572406FB756401756540
:100B45000075660075674FE4FD120F91055705574F
:100B550080D2855857E557C394085027754F1875A7
:100B65005018E5572404FFE5572406FB7564017505
:100B7500650075660075674FE4FD120F9105570511
:100B85005780D2754FF87550F07551E07564017551
:100B9500650075660075674F7B0FE4FD7F0C120FCE
:100BA50091754F0F75500F75640275650075660078
:100BB50075674F7B047D017F02120F91E4F557E5C0
:100BC50057C395585027754F0F75500FE557240497
:100BD500FFE5572406FB75640275650075660075AB
:100BE500674F7D01120F910557055780D2855857DC
:100BF500E557C394085027754F0C75500CE55724DD
:100C050004FFE5572406FB756402756500756600EB
:100C150075674F7D01120F910557055780D2754FA6
:100C25000F7550077551037564027565007566008B
:0F0C350075674F7B0F7D017F0C120F9175460184
:010C4400228D
:101FB300E4FF1210E88F55E555F46011E54C6555C3
:0D1FC300600885554CAF4C120B0385552C62
:011FD00022EE
:1011CE00E52BB4011FE4F52BAF2AAE29AD28AC27D1
:1011DE00755901120800E4F546852C4CAF2C120B04
:1011EE0003E4F548121FB3E52270024197640170C3
:1011FE004CE52A2401FFE43529FEE43528FDE435CB
:10120E00278F2A8E298D28F5277F9F7E867D017C4C
:10121E0000AB2AAA29A928F8D3121B834012E4F5A1
:10122E002AF529F528F527F559FFFEFDFC120800D1
:10123E00AF2AAE29AD28AC277559018046E522B4F8
:10124E00031F752604752B01E4F554754CFF756468
:10125E00027B40FDFF121CA6E4F559FFFEFDFC804B
:10126E0022E522B40420752605752B01E4F554758C
:10127E004CFF7564027B40FDFF121CA6E4F559FF7E
:0A128E00FEFDFC120800E4F5222228
:020C45008F55C9
:100C47007557FF75581E755911755AFF755B1E75D7
:100C57005C15E52464016002A128E5556401600282
:100C6700A11DF556E55675F008A4FE2406FFC0073A
:100C7700EE240EFBC003756402AB57AA58A959AFFF
:100C870056EF3395E08F82F583121B34FF3395E0DF
:100C9700FEEFC4F8540FC868FFEEC454F048FE7462
:100CA7005E2FF974FE3E7565FFF5668967D003D040
:100CB70007E4FD120F91E55675F008A4FE2420FF06
:100CC700C007EE2428FBC003756402AB5AAA5BA9D0
:100CD7005CAF56EF3395E08F82F583121B34FF33F9
:100CE70095E0FEEFC4F8540FC868FFEEC454F0480F
:100CF700FE745E2FF974FE3E7565FFF5668967D051
:100D070003D007E4FD120F910556C3E5566480949E
:100D1700835002816B227564027B38E4FD7F068075
:100D270038E555640170297564027565FF756600BD
:100D37007567FE7B20FD7F10120F91756402756544
:100D4700FF75660175671E7B30E4FD7F20020F91FA
:0C0D57007564027B30E4FD7F10121CA6C6
:010D6300226D
:021562008F55A3
:101564007557FF75581E755919E52464017071E5A6
:101574005564017060F556E55675F008A4FE240A1A
:10158400FFC007EE2412FBC003756404AB57AA58CE
:10159400A959AF56EF3395E08F82F583121B34FFC0
:1015A4003395E0FEEFC4F8540FC868FFEEC454F05E
:1015B40048FE745E2FF974FE3E7565FFF566896713
:1015C400D003D0077D02120F910556C3E5566480FF
:1015D400948340A3227564047B227D027F0A8023C6
:1015E400E555B401157564047565FF756601756785
:1015F4007E7B1C7D027F0C020F917564047B1C7D35
:06160400027F0C121CA67F
:01160A0022BD
:02160B008F55F9
:10160D007557FF75581E75591DE52464017071E5F8
:10161D005564017060F556E55675F008A4FE242654
:10162D00FFC007EE242EFBC003756404AB57AA5808
:10163D00A959AF56EF3395E08F82F583121B34FF16
:10164D003395E0FEEFC4F8540FC868FFEEC454F0B4
:10165D0048FE745E2FF974FE3E7565FFF566896769
:10166D00D003D0077D02120F910556C3E556648055
:10167D00948240A3227564047B367D027F268023ED
:10168D00E555B401157564047565FF7566017567DB
:10169D009E7B347D027F24020F917564047B347D23
:0616AD00027F24121CA6BE
:0116B3002214
:1016B400E52BB40115E4F52B7F01120C457F0112D3
:1016C40015627F0112160B7548C8E522604AB40101
:1016D40015E554700A7F011215627554018036E4D1
:1016E400F5547F01802CE522C394024028E5547010
:1016F40008F52AF529F528F527752603E4F554F5A8
:1017040048754CFF752B01FF120C45E4FF1215625E
:10171400E4FF12160BE4F522E548B46410E55470B6
:1017240003FF8014E5546401701BFF8015E548B481
:10173400C813E55470057F01021562E554B4010530
:061744007F0112160B22CA
:020D64008F55A9
:100D66007557FF75581E755911755AFF755B1E75B7
:100D76005C20E52464016002C147E5556401600218
:100D8600C13CF556E55675F008A4FE2406FFC007DB
:100D9600EE240EFBC003756402AB57AA58A959AFDF
:100DA60056EF3395E08F82F583121B34FF3395E0BF
:100DB600FEEFC4F8540FC868FFEEC454F048FE7442
:100DC6005E2FF974FE3E7565FFF5668967D003D020
:100DD60007E4FD120F91E55675F008A4FE2420FFE6
:100DE600C007EE2428FBC003756402AB5AAA5BA9B0
:100DF6005CAF56EF3395E08F82F583121B34FF33D9
:100E060095E0FEEFC4F8540FC868FFEEC454F048EE
:100E1600FE745E2FF974FE3E7565FFF5668967D030
:100E260003D007E4FD120F910556C3E5566480947E
:100E3600835002A18A227564027B38E4FD7F068016
:100E460038E555640170297564027565FF7566019C
:100E560075673E7B20FD7F10120F917564027565E4
:100E6600FF75660175675E7B30E4FD7F20020F919A
:0C0E76007564027B30E4FD7F10121CA6A6
:010E8200224D
:10174A00E52BB40115E4F52B7F01120D647F01121C
:10175A0015627F0112160B7548C8E5226048B4016C
:10176A0018E554700A7F011215627554018034E439
:10177A00F5547F0112160B802AE522C394024023F6
:10178A00E4FF120D64E4FF121562E4FF12160BE582
:10179A00547004F5268003752603E4F554752B016D
:1017AA00754CFFE4F522E548B46410E5547003FF74
:1017BA008014E5546401701BFF8015E548B4C81312
:1017CA00E55470057F01021562E554B401057F01F5
:0417DA0012160B22B6
:0B1EBF007B007A007935755D067DFF21
:061ECA008B598A5A895B66
:101ED000E4FFEFC3955D5012AB59AA5AA95B8F82FC
:0A1EE000758300ED121B610F80E80E
:011EEA0022D5
:0204FE008F5617
:100500007535FF7536FF7564027565007566007593
:1005100067357B127D017F10120F91E55675F0064D
:10052000A4F558E4F557E557C395585026121EBF59
:10053000E5572412FFE5572418FB75640275650022
:100540007566007567357D01120F9174062557F5A4
:100550005780D3855857E557C3941850317B007A9C
:10056000007935755D067D03121ECAE5572412FF1A
:10057000E5572418FB75640275650075660075679C
:10058000357D01120F9174062557F55780C87535D2
:10059000FF7536FF7537F87538F8756402756500B4
:1005A0007566007567357B2E7D017F2A120F917568
:1005B00064037565007566007567357B127D027F83
:1005C00010120F91E4F557E557C395585026121EA7
:1005D000BFE5572412FFE5572418FB7564037565C2
:1005E000007566007567357D02120F9174062557F8
:1005F000F55780D3855857E557C3941850317B0081
:100600007A007935755D067DC0121ECAE557241241
:10061000FFE5572418FB7564037565007566007562
:1006200067357D02120F9174062557F55780C875FE
:1006300035FF7536FF75371F75381F75640375658F
:10064000007566007567357B2E7D027F2A120F913B
:03065000754601EB
:010653002284
:101CF600E52B6401701FF52B7564047B40FDFF1214
:101D06001CA67F011210E88F2CE4F546852C4C1298
:101D160004FEE4F548E5226003E4F522E548B4C88C
:101D26001D7F011210E88F55E555F46011E54C65ED
:0E1D360055600885554CAF4C1204FE85552CA7
:011D4400227C
:101F4200E52624FE60131460131460131460131446
:101F520060132405701202199C02188C0211CE0221
:091F620016B402174A121CF62203
:03003B00020006BA
:0400060075EC003263
:0300030002000AEE
:01000A0032C3
:0300130002000EDA
:01000E0032BF
:101E300043AC0153ADFEA2AF920175C7AA75C75559
:101E400075910143AC0175C7AA75C755E4F591A218
:101E50000192AF43E90453EAFE43EB0143E9034334
:051E60009B02D2AF223D
:101F6B0043B38053B47FA2AF920175C7AA75C7550F
:101F7B0075910143B38075C7AA75C755E4F591A256
:081F8B000192AFD2AAD2AF22ED
:10209A00121E30121F6B43870253E9FEC2A8C2AA5E
:0420AA00539BFD2225
:10065400539BFD120016120E83121D457B007A0077
:100664007923E4FDFC7F0A121A23E4F554752B0167
:10067400F552F553F546754CFFA2B033FF1210E85E
:100684008F2C3097FD121356E523B4A506E526609A
:1006940002E156E4F524F525F52AF529F528F52790
:1006A4007523A5752601752CFF754CFF7D017F0709
:1006B400121E927564037565FF75660375670E7B7C
:1006C400147D017F0C120F917564037565FF7566C7
:1006D4000075673E7B247D017F14120F91756403BE
:1006E4007565FF7566037567CE7B2C7D017F2412CB
:1006F4000F917564037565FF75660275676E7B34CB
:100704007D017F2C120F91E4F552F553FDFCFF7E21
:10071400021219147D007C027F007E02121914E576
:100724002CB4FF0F121BFAA2B0E433FF1210E88FAF
:100734002C80ECC3E5539490E552940140F5E4F524
:1007440052F553752B017564037B347D017F0C12C4
:100754001CA6121F42121BFAC3E55394E8E55294F7
:10076400035002C189122037E52664046005E5269A
:10077400B405037526037B007A007923E4FDFC7F2E
:100784000A1214B7E4F5B1F5B2F5B3F5B4F5ACF566
:10079400AD53E1FE43B31043B410C29412209AE463
:0507A400F552F553229F
:101EEB00A2AF9201C2AF75C7AA75C75543A401A291
:101EFB000192AFE59F30E613A2AF9201C2AF75C757
:0C1F0B00AA75C755539FBFA20192AF22D8
:081914008C6D8D6EAB07AA0675
:10191C00EB4A607BEBAE027807CEC313CE13D8F93B
:10192C00F5708E6FEB547F60080570E570700205E2
:10193C006FA2AF9201C2AF75C7AA75C755439F017D
:10194C00A20192AF75AEFF75AF62A2AF9201C2AFAA
:10195C0075C7AA75C75543A502A20192AFE4FDFC59
:10196C00C3ED9570EC956F5026ED75F080A4256E47
:10197C00F5A6EDAE047807C333CE33CED8F9256E79
:0F198C00E56D3EF5A7121EEB0DBD00010C80D1DD
:01199B002229
:0A1800008E6D8F6E8B6F8A708971F8
:10180A00A2AF9201C2AF75C7AA75C755439F01A27D
:10181A000192AFA2AF9201C2AF75C7AA75C755436D
:10182A00A502A20192AFEDF5A68CA775AF61E4FF00
:10183A00FEC3EF956EEE956D5021AB6FAA70A9713C
:10184A008F828E83121B34F5AE121EEB05A6E5A617
:10185A00700205A70FBF00010E80D6A2AF9201C287
:10186A00AF75C7AA75C75553A5FDA20192AFA2AF1E
:10187A009201C2AF75C7AA75C755539FFEA20192BE
:01188A00AFAE
:01188B00223A
:0A1B94008E6D8F6E8B6F8A70897161
:101B9E00A2AF9201C2AF75C7AA75C755439F01A2E6
:101BAE000192AFEDF5A68CA775AF40E4FFFEC3EF33
:101BBE00956EEE956D5021121EEBAB6FAA70A9714A
:101BCE008F828E83E5AE121B6105A6E5A670020517
:101BDE00A70FBF00010E80D6A2AF9201C2AF75C78C
:0B1BEE00AA75C755539FFEA20192AFDD
:011BF90022C9
:0C1A23008F558C568D578B588A59895A64
:101A2F00E4F55BAF557E00C007E55B75F010A425AC
:101A3F0057FDE55635F0FCAB58AA59A95AD00712F5
:101A4F001B94AB58AA59A95A121B1BB4A509055BC5
:101A5F00E55BC3942040CCE55B7014C3E55694025C
:101A6F00502EE42557F55774023556F55680B115AB
:101A7F005BAF557E00C007E55B75F010A42557FDE1
:101A8F00E55635F0FCAB58AA59A95AD007121B944A
:011A9F002224
:0C14B7008F558C568D578B588A59895AD6
:1014C300E4F56BAF557E00C007E56B75F010A425FE
:1014D30057FDE55635F0FC7B007A00795BD00712A7
:1014E3001B94E55BB4A509056BE56BC3942040D35E
:1014F300856B6CE56BB4200EAD57AC567F007E0256
:10150300121914E4F56BAF557E00C007E56B75F057
:1015130010A42557FDE55635F0FCAB58AA59A95A36
:10152300D007121800E56CB4200E7D007C027F000A
:101533007E02121914E4F56CAF557E00C007E56C0A
:1015430075F010A4FF2557CFE55635F0CF2400FDE5
:0F155300EF3402FCAB58AA59A95AD0070218006E
:03209600010A003C
:0820AE0043B30243B402C292E5
:0720B600E4FFFEEF4E70FC99
:0120BD002200
:101FD10053B3FB43B40443B30443B404D29253B3A5
:0D1FE100FD43B40243B30243B402D2912287
:101FEE00D291D2921220B6C2911220B6C292022083
:011FFE00B62C
:0A20CA00C291D2921220B6D29122E8
:0217DE00AD0755
:1017E000E4FCED30E704D2918002C291ED25E0FDEA
:0E17F000D2921220B6C2921220B60CBC08E4AF
:0117FE0022C8
:031F93001217DE44
:101F960043B30253B4FDD2921220B63091091220F7
:0D1FA600CA1220AE7F01221220AE7F002261
:10200000AC07AA05121FEEAF04121F93AF02121FF6
:0C20100093AF031217DE121F960220CAC5
:0C20BE00C291C2921220B6D2920220B64B
:101F1700E4FDFC43B30253B4FDC2921220B6D29241
:101F27001220B6EC25E0FC3091010C0DBD08EA4308
:0A1F3700B30243B4021220BEAF044F
:011F4100227D
:0300000002140BDC
:10140B0075C7AA75C75575FD5A75C7AA75C75575A2
:10141B00FDA5787FE4F6D8FD9000007FFF7E03E406
:0C142B00F0A3DFFCDEFA75817102147280
:1014370002206BE493A3F8E493A34003F68001F240
:1014470008DFF48029E493A3F85407240CC8C333B6
:10145700C4540F4420C8834004F456800146F6DF85
:10146700E4800B0102040810204080902083E47E72
:10147700019360BCA3FF543F30E509541FFEE4937A
:10148700A360010ECF54C025E060A840B8E493A341
:10149700FAE493A3F8E493A3C8C582C8CAC583CA6C
:1014A700F0A3C8C582C8CAC583CADFE9DEE780BE24
:012099000046
:101B1B00BB010689828A83E0225002E722BBFE02C8
:091B2B00E32289828A83E49322FB
:101B3400BB010CE58229F582E5833AF583E0225066
:101B440006E92582F8E622BBFE06E92582F8E222B0
:0D1B5400E58229F582E5833AF583E49322CA
:101B6100F8BB010DE58229F582E5833AF583E8F0BA
:101B7100225006E92582C8F622BBFE05E92582C866
:021B8100F2224E
:101B8300EB9FF5F0EA9E42F0E99D42F0E89C45F0B8
:011B9300222F
:00000001FF
