:03000B0002266169
:10266100C0E0C0F0C083C082C0D075D000C000758A
:102671008CE5758AF590005E7401F09000D1E0045C
:10268100F0E0D394C84002E4F090010EE475F0014B
:102691001210099000E7E475F0011210099000E3AF
:1026A100E475F0011210099000CCE475F0011210EC
:0E26B10009D000D0D0D082D083D0F0D0E0325B
:102A9D007589FF5389F0438901538EF7758CE57560
:092AAD008AF5D2A9D2AFD28C2225
:03005B000220A3DD
:1020A300C0E0C083C082C0D075D000C000C005C0EE
:1020B30006C007C2EFAFC39000E5E0FD25E024D2E0
:1020C300F582E43400F583E4F0A3EFF0ED25E0249A
:1020D300D2F582E43400F583C083C082A3E0C4F860
:1020E300540FC868FF0582D5820215831582E0C4A8
:1020F30054F048D082D083F0A3EFF0ED25E024D252
:10210300F582E43400F583C083C082E0FEA3E0FFE0
:10211300E5C2540FFDEF4DFFD082D083EEF0A3EF65
:10212300F09000E5E004F0E0C394084002C2AED0B2
:1021330007D006D005D000D0D0D082D083D0E032F3
:1026BF00E49000E5F07F109000D2E4F0A3DFFC433C
:1026CF00DE0453E8F043E80343B14053B2BFE4F5EF
:1026DF00F643F60843E10153E8DF43E81053E1F70F
:1026EF0053E1FB43E10275D10775D9FF75D402752C
:1026FF00DCFFD2DED2DFD2AED2AF9000E5E0B4087D
:08270F00F9E49000E5F0D2AE00
:01271700229F
:102AB600E4F5B1F5B2F5B3F5B4F5ACF5AD122A9D72
:082AC6001226BF120DF380FB84
:10005E00000808080808080808080808080800002A
:10006E0040404141414141414141414141404000B7
:10007E000000F010101010FF10101010F000000013
:10008E0000000F04040404FF040404040F00000025
:10009E0008080838C808090E0808C83808080800F3
:1000AE008080404020110A040A11204040808000C8
:1000BE0090523410FF10345280708F0808F80800E8
:1000CE00829A566322528E008040330C3340800059
:1000DE00100C042424242526A464240404140C00E7
:1000EE00020202020242827F0202020202020200A7
:1000FE0002E282F212D752D25217FA12169A120056
:10010E00128E621F003F253DA74027182641F000A2
:10011E0000FC0000FF0004848484848484FC0000BE
:10012E00008740300F00202020202020207F00005C
:10013E00100C05555555857F8555555505140C00E4
:10014E000404020A09292A4C48A9190202040400CF
:10015E00101014D4545454FC525252D31210100096
:10016E00404050575555557F5555555750404000B6
:10017E00001715D55557557D555755D515170000F0
:10018E004040407F555555555555557F4040400090
:10019E000000007F494949494949497F0000000054
:1001AE008141211D214181FF8989898989818100B0
:1001BE0000028282422212FA06222242428200006B
:1001CE00010100FC44444445444444FC0000010049
:1001DE007E8181817E000082FF800000C6A1918910
:1001EE0086004281898976003028A6FFA0005F89AB
:1001FE00898971007C92898972000001F10D0300DA
:10020E007689898976004E9191493E0000C0300C66
:10021E00030000F804020204F800000304080804B6
:10022E00030000000404FE000000000008080F0890
:10023E000800001C020282423C00000C0A09080859
:10024E000C00000C024242A21C000006080808081E
:10025E000700008060100CFE000000010109090F6C
:10026E000909007E222222428200000608080804A4
:10027E00030000F844222224C000000304080808EA
:10028E00070000060282621A06000000000F00003E
:10029E000000001CA24242A21C0000070808080829
:1002AE000700007C82828244F800000004080804E3
:1002BE000300000000C0300E01000018060100000F
:1002CE0000000000C038E0000000203C230202279E
:1002DE00382008F8888888700000203F20202011E0
:1002EE000E00C0300808080838000718202020101B
:1002FE00080008F808080810E000203F2020201011
:10030E000F0008F88888E8081000203F20202320DE
:10031E00180008F88888E8081000203F2000030025
:10032E000000C03008080838000007182020221EE0
:10033E00020008F808000008F808203F21010121FA
:10034E003F20000808F8080800000020203F202069
:10035E00000000000808F8080800C08080807F00B8
:10036E00000008F888C028180800203F2001263811
:10037E00200008F8080000000000203F2020202068
:10038E00300008F8F800F8F80800203F013E013F61
:10039E00200008F830C00008F808203F2000071899
:1003AE003F00E01008080810E0000F102020201079
:1003BE000F0008F808080808F000203F210101018D
:1003CE000000E01008080810E0000F102828305038
:1003DE004F0008F8888888887000203F2000030CA2
:1003EE0030200070880808083800003820212122AB
:1003FE001C00180808F8080818000000203F20000C
:10040E00000008F808000008F808001F202020202F
:10041E001F000878880000C83808000007380E0151
:10042E00000008F800F800F8080000033E013E0343
:10043E000000081868808068180820302C03032CF0
:10044E0030200838C800C83808000000203F2000BF
:10045E00000010080808C83808002038262120207F
:10046E0018000000C0201018183060C000000000F6
:10047E00030306060606020100000000381C0203F4
:10048E0083FF3F01000000008040201C0F0300008E
:10049E00000020181C068787C63C1E0100000000C5
:1004AE000201010103070E18608010080E06422398
:1004BE0023B2EF0000000000000004020303061C3C
:1004CE00780040E0980C1E387060E0C0808000001C
:1004DE00010302060C0C08181010007CFEC06030E0
:1004EE00FCFE0301000000000000000000030F3CB2
:1004FE00408000F0FC0E020000000080C0400003AF
:10050E000F3040848CFE730100000000000080C09C
:10051E00C080061F1CF000080FC360203F2710107C
:10052E000C0300202030303078EEC3800000000035
:10053E00000000000000010738C0000000E0700C51
:10054E000672DE8C000000003FCF000000000001AC
:0D055E00010000303000000C0C00002400F3
:1014E80053B3EF43B410C294E490010EF0A3F0C3D9
:1014F80090010FE0940290010EE0940040F1D29424
:1015080012003EE490010EF0A3F0C390010FE094A6
:101518000290010EE0940040F17BAEE4FD7F78126A
:101528002A2FE4FBFD7F78122A2F7B12E4FD7F78B7
:10153800122A2FE4FBFD7F78122A2F7BB0E4FD7F6F
:1015480078122A2F7B81E4FD7F78122A2F7BFFE413
:10155800FD7F78122A2F7BA1E4FD7F78122A2F7B4A
:10156800A6E4FD7F78122A2F7BA8E4FD7F78122A53
:101578002F7B1FE4FD7F78122A2F7BC8E4FD7F783C
:10158800122A2F7BD3E4FD7F78122A2FE4FBFD7FFC
:1015980078122A2F7BD5E4FD7F78122A2F7B80E4EE
:1015A800FD7F78122A2F7BD9E4FD7F78122A2F7BC2
:1015B8001FE4FD7F78122A2F7BDAE4FD7F78122A58
:1015C8002F7B12E4FD7F78122A2F7BDBE4FD7F78E6
:1015D800122A2F7B40E4FD7F78122A2F7B8DE4FDB1
:1015E8007F78122A2F7B14E4FD7F78122A2F7BAF95
:0A15F800E4FD7F78122A2F7F002205
:1028DB00EF2420900128F0ED24B0FBE4FD7F78126B
:1028EB002A2F900128E054F0C4540F4410FBE4FD50
:1028FB007F78122A2F900128E0540FFBE4FD7F789C
:03290B00022A2F6E
:102A67007B8DE4FD7F78122A2F7B14E4FD7F78129B
:0B2A77002A2F7BAFE4FD7F78022A2F9E
:102A82007B8DE4FD7F78122A2F7B10E4FD7F781284
:0B2A92002A2F7BAEE4FD7F78022A2F84
:10271800E4900111F0900111E0FFC39404503FEFE1
:1027280024B0FBE4FD7F78122A2FE4FBFD7F7812AA
:102738002A2F7B12E4FD7F78122A2F900112742031
:10274800F0E4FB7D407F78122A2F900112E004F01C
:0E275800E0C3946040EB900111E004F080B704
:012766002250
:0A24AF0090011DEFF090011FEBF00B
:1024B900E4900121F0A3F0900120E0FF5407700897
:1024C900EF131313541F800A900120E013131354C0
:1024D9001F04900124F0900124EDF0900120E0FF09
:1024E900900124E0FDC39F503690011DE0FF1228A2
:1024F900DB90011DE0900123F090011FE0FF9001A6
:1025090023E0C39F5011E4FB7D407F78122A2F906E
:0F2519000123E004F080E2900124E004F080BC94
:012528002290
:0A230A0090011DEFF090011FEBF0B1
:10231400E4900124F0A3F0900120E0FF540770083A
:10232400EF131313541F800A900120E01313135466
:102334001F04900127F0900127EDF0900120E0FFA9
:10234400900127E0FDC39F504D90011DE0FF12282E
:10235400DB90011DE0900126F090011FE0FF900149
:1023640026E0C39F502890012112110E900124E40D
:1023740075F00112101F85F082F583120FA8FB7D02
:10238400407F78122A2F900126E004F080CB900140
:0623940027E004F080A523
:01239A002220
:10287100454E474C495348004E4F524D414C005430
:1028810049424554414E0052535400434E5400595D
:102891004553004E4F00444556001F1C1F1E1F1E6E
:0628A1001F1F1E1F1E1F79
:1024270041011000602000EC0000F8F81818181897
:1024370018181818F8F0E00000000F0F0C0C0C0C1F
:102447000C0C0C0C0F07030060400014FFFF030384
:102457000303030303030303030303030303030345
:10246700030303030303FFFFF8F80000FFFFC0C0E7
:10247700C0C0C0C0C0C0C0C0C0C0C0C0C0C0C0C055
:10248700C0C0C0C0C0C0FFFF1F1F000048000C082D
:10249700000880090009804100E6FF4100CE0041A5
:0324A700005C00D6
:1028A700E490010DF090010CF09000E2F09000CF61
:1028B700F0A3F0900001F043B38053B47F43AC0121
:1028C70053ADFE43B11053B2EF9000E9F0A3F0907F
:0428D7000000F022EB
:1018000090005EE070022103E4F0A2973390010D96
:10181000F090010CE0FFA3E0FE6F606690010CEE1B
:10182000F09000CFE0FEA3E0FF4E70119000E2E0E8
:10183000D3940540089000017401F08038C3EF9400
:101840000AEE940040089000017404F08027900094
:10185000CFE0FEA3E0FFC39403EE940040089000A5
:10186000017403F0800FC3EF9402EE9400400690E1
:1018700000017402F0E49000E2F09000CFF0A3F0D9
:10188000801E90010DE0701E9000E2E004F0E0D3B5
:1018900094C8400BE4F09000CF75F001121009E4F9
:1018A00090010EF0A3F020B019E49000E9F0A3F04D
:1018B000900000E06401704BF09000CBE0900005D8
:1018C000803AE490010EF0A3F09000E975F0011267
:1018D0001009D39000EAE0940A9000E9E0940040F7
:1018E00022E4F0A3740AF0900000E0701604F09077
:1018F0000005E09000CBF09000057408F090000A1D
:041900007401F0225C
:1027B600EF640170329001207402F07BFF7A007999
:1027C6007EA31211177B20E4FD7F1012230A9001CD
:1027D600207402F07BFF7A00799EA31211177B30DA
:1027E600E4FD7F2002230A9001207402F07B30E48E
:0727F600FD7F101224AF2249
:10239B007BFF7A287971900111121117EF6401708C
:1023AB006C900114F0900114E0FE75F008A4FD246C
:1023BB0004FFC007ED240CFBC0039001207404F054
:1023CB0090011112110EEEFF3395E08F82F58312FF
:1023DB000FA8FF3395E0FEEFC4F8540FC868FFEE6B
:1023EB00C454F048FE74C02FF974FE3EFA7BFF9084
:1023FB000121121117D003D0077D0212230A90017D
:10240B0014E004F0E0C3648094874099229001208B
:0B241B007404F07B3C7D02FF1224AF34
:012426002293
:101DE20090000AE0B40123E4F09001207403F07B38
:101DF200347D017F0C1224AF7F011227B67F0112BE
:101E0200239B900003E0900110F0900001E0605CE1
:101E1200B40125900110E07F01700B1227B69001EA
:101E2200107401F0800812239BE4900110F09001DD
:101E320010E0900003F0802F900001E0C394024074
:101E420026900110E0900003F09000057404F0E485
:101E5200900110F09000D1F090000A04F0E4FF121B
:101E6200239BE4FF1227B6E4900001F09000D1E03A
:101E7200B4640D900003E07003FF8013E4FF80124E
:101E82009000D1E0B4C80E900003E07F017003021D
:061E920027B612239B227B
:062767009001171210B9E9
:06276D0090011D1210D1C5
:10277300E4900125F0A3F09001211210B990011DFE
:102783001210C5C31210A84021900125E475F00171
:1027930012100990011D1210B99001211210C512D7
:1027A300109A90011D1210D180CD900125E0FEA357
:0227B300E0FF45
:0127B5002201
:062839009001171210B916
:10283F0080219001211210B990011D1210C5C312F1
:10284F0010A8401790011D1210B99001211210C548
:10285F0012109A90011D1210D180D790011D1210E5
:02286F00B9228C
:05171700900111EFF04C
:10171C007BFF7A287979A3121117900003E06401FA
:10172C006002E1B2900111E06401706C900115F05F
:10173C00900115E0FE75F008A4FD2408FFC007ED2C
:10174C002410FBC0039001207402F09001121211BE
:10175C000EEEFF3395E08F82F583120FA8FF3395C1
:10176C00E0FEEFC4F8540FC868FFEEC454F048FE16
:10177C0074C02FF974FE3EFA7BFF900121121117F1
:10178C00D003D007E4FD12230A900115E004F0E029
:10179C00C3648094864099229001207402F07B38B7
:1017AC00E4FD7F088046900111E0640170329001E5
:1017BC00207402F07BFF7A0079BEA31211177B20F4
:1017CC00E4FD7F1012230A9001207402F07BFF7A53
:1017DC000079DEA31211177B30E4FD7F2002230A6F
:0F17EC009001207402F07B30E4FD7F101224AFD7
:0117FB0022CB
:05160200900111EFF062
:101607007BFF7A287980A3121117900003E0640109
:101617006002C19B900111E06401706C900115F0AC
:10162700900115E0FE75F008A4FD2404FFC007ED46
:10163700240CFBC0039001207404F09001121211D6
:101647000EEEFF3395E08F82F583120FA8FF3395D7
:10165700E0FEEFC4F8540FC868FFEEC454F048FE2C
:1016670074C02FF974FE3EFA7BFF90012112111707
:10167700D003D0077D0212230A900115E004F0E0A1
:10168700C3648094874099229001207404F07B3CC6
:101697007D028077900111E06401706490012074ED
:1016A70004F07BFF7A0079FEA31211177B107D02ED
:1016B700E4FF12230A9001207404F07BFF7A00797B
:1016C7009EA31211177B207D027F1012230A90011F
:1016D700207404F07BFF7A0079BEA31211177B30C8
:1016E7007D027F2012230A9001207404F07BFF7A89
:1016F7000079DEA31211177B407D027F3002230A97
:0F1707009001207404F07B407D02E4FF1224AFB8
:0117160022B0
:101C730090000AE0B40114E4F07F011217177F010A
:101C8300121602900004E0900110F0900001E06051
:101C93005DB40126900110E07F01B4010A1216021F
:101CA300E4900110F080091217179001107401F0ED
:101CB300900110E0900004F0802F900001E0C394A5
:101CC3000240269000057405F0900110E090000496
:101CD300F0E4900110F09000D1F090000A04F0E4D9
:101CE300FF121717E4FF121602E4900001F09000B0
:101CF300D1E0B46414900110E0B40104E4FF80194E
:101D0300900110E07021FF801B9000D1E0B4C81750
:101D1300900110E0B401057F01021602900110E06A
:081D230070057F011217172261
:060800009001111210D15D
:10080600E490011BF0A3F0900115E0700F90012019
:100816007404F07B407D02E4FF0224AF90011112C4
:1008260010B99001171210D1900004E06002413413
:1008360090011C740CF09001211210DD00002710AD
:10084600122767900116EFF09001211210DD0000CB
:100856002710122839E4FCFD9001171210D19001DF
:1008660016E0FF603475F010A42420F9740235F008
:10087600FA7BFF90012112111790011CE0FF24085A
:10088600FB9001207404F07D0212230A90011B7470
:1008960001F0A3E02408F0800790011CE02404F096
:1008A6009001211210DD000003E81227679001165F
:1008B600EFF09001211210DD000003E8122839E460
:1008C600FCFD9001171210D190011BE06401600637
:1008D600900116E0603A90011B7401F0900116E059
:1008E60075F010A42420F9740235F0FA7BFF90010C
:1008F6002112111790011CE0FF2408FB90012074BF
:1009060004F07D0212230A90011CE02408F08007FF
:1009160090011CE02404F09001211210DD0000007B
:1009260064122767900116EFF09001211210DD0086
:10093600000064122839E4FCFD9001171210D190D2
:10094600011BE064016006900116E0603A90011B0D
:100956007401F0900116E075F010A42420F97402D9
:1009660035F0FA7BFF90012112111790011CE0FF70
:100976002408FB9001207404F07D0212230A9001E2
:100986001CE02408F0800790011CE02404F090018C
:10099600211210DD0000000A122767900116EFF001
:1009A6009001211210DD0000000A122839E4FCFD36
:1009B6009001171210D190011BE0640160069001AE
:1009C60016E0603A90011B7401F0900116E075F094
:1009D60010A42420F9740235F0FA7BFF900121124D
:1009E600111790011CE0FF2408FB9001207404F00D
:1009F6007D0212230A90011CE02408F08007900172
:100A06001CE02404F09001171210B9900116EFF0C3
:100A1600E075F010A42420F9740235F0FA7BFF90FB
:100A2600012112111790011CE0FF2408812A900170
:100A36001C7402F09001211210DD0000271012270D
:100A460067900116EFF09001211210DD00002710CB
:100A5600122839E4FCFD9001171210D1900116E01E
:100A6600FF603475F018A42470F9740435F0FA7B2D
:100A7600FF90012112111790011CE0FF240CFB903E
:100A860001207404F07D0212230A90011B7401F008
:100A9600A3E0240CF0800790011CE02406F09001EE
:100AA600211210DD000003E8122767900116EFF00F
:100AB6009001211210DD000003E8122839E4FCFD44
:100AC6009001171210D190011BE06401600690019D
:100AD60016E06038900116E075F018A42470F974D9
:100AE6000435F0FA7BFF90012112111790011CE0EA
:100AF600FF240CFB9001207404F07D0212230A905F
:100B0600011B7401F0A3E0240CF0800790011CE0A7
:100B16002406F09001211210DD0000006412276700
:100B2600900116EFF09001211210DD000000641212
:100B36002839E4FCFD9001171210D190011BE064E6
:100B4600016006900116E06038900116E075F01815
:100B5600A42470F9740435F0FA7BFF900121121178
:100B66001790011CE0FF240CFB9001207404F07D1B
:100B76000212230A90011B7401F0A3E0240CF080FA
:100B86000790011CE02406F09001211210DD000000
:100B9600000A122767900116EFF09001211210DD6E
:100BA6000000000A122839E4FCFD9001171210D14A
:100BB60090011BE064016006900116E06038900128
:100BC60016E075F018A42470F9740435F0FA7BFF6A
:100BD60090012112111790011CE0FF240CFB9001DB
:100BE600207404F07D0212230A90011B7401F0A305
:100BF600E0240CF0800790011CE02406F090011719
:100C06001210B9900116EFF0E075F018A42470F9EF
:100C1600740435F0FA7BFF90012112111790011C24
:100C2600E0FF240CFB9001207404F07D0212230ADD
:010C3600229B
:1013B800E4FFFE9000E5E06408600281E5FDED25AC
:1013C800E024D2F582E43400F583E0FAA3E02FFFAD
:1013D800EA3EFE0DEDB408E6EF7803CEC313CE1354
:1013E800D8F9FF9000CEE07043C3900013E09F90BF
:1013F8000012E09E50037F0422C3900011E09F90EA
:101408000010E09E50037F0322C390000FE09F90DE
:10141800000EE09E50037F0222C390000DE09F90D3
:10142800000CE09E50037F01227F002290000CE018
:10143800FCA3E0FD24F0FBEC34FFFAC3EF9BEE9A2B
:1014480050037F0022ED2410FDE43CFCD3EF9DEE19
:101458009C401890000FE024F0FD90000EE034FF4F
:10146800FCC3EF9DEE9C50037F012290000FE02407
:1014780010FD90000EE03400FCD3EF9DEE9C401868
:10148800900011E024F0FD900010E034FFFCC3EF61
:101498009DEE9C50037F0222900011E02410FD90E5
:1014A8000010E03400FCD3EF9DEE9C401890001330
:1014B800E024F0FD900012E034FFFCC3EF9DEE9CA9
:1014C80050037F0322900013E02410FD900012E0E7
:0F14D8003400FCD3EF9DEE9C40037F04227FFF86
:0114E70022E2
:100C3700EF7032900112F0900112E0FEC394084069
:100C470002A1D674F02EF582E43400F5837418F00F
:100C570074002EF582E43401F583740CF0900112D0
:100C6700E004F080D2EF64017064900112F090010B
:100C770012E0FEC39402502274F02EF582E4340091
:100C8700F58374F8F074002EF582E43401F583746B
:100C97000FF0900112E004F080D49001127402F07A
:100CA700900112E0FEC394084002A1D674F02EF51D
:100CB70082E43400F5837418F074002EF582E4346E
:100CC70001F583740CF0900112E004F080D2EF6418
:100CD700027064900112F0900112E0FEC394045078
:100CE7002274F02EF582E43400F58374F8F0740072
:100CF7002EF582E43401F583740FF0900112E004BD
:100D0700F080D49001127404F0900112E0FEC394B5
:100D1700084002A1D674F02EF582E43400F58374FE
:100D270018F074002EF582E43401F583740CF0900A
:100D37000112E004F080D2EF64037062900112F0B8
:100D4700900112E0FFC39406502274F02FF582E45D
:100D57003400F58374F8F074002FF582E43401F55C
:100D670083740FF0900112E004F080D490011274A4
:100D770006F0900112E0FFC39408505374F02FF56A
:100D870082E43400F5837418F074002FF582E4349C
:100D970001F583740CF0900112E004F080D4E49024
:100DA7000112F0900112E0FFC39408502274F02F53
:100DB700F582E43400F58374F8F074002FF582E4CB
:100DC7003401F583740FF0900112E004F080D490A1
:100DD70000CE7401F090012004F07B017A0079ECD9
:0C0DE700A31211177B10E4FDFF02230A89
:1029C4001213B8900111EFF0F4601DE0FF9000E6DF
:1029D400E06F6005EFF0120C37900111E090000BEE
:0829E400F0E49000E5F0D2AE32
:0129EC0022C8
:1019040090000AE0B40124E4F01226BFE490005CE5
:10191400F09000061210B99001157401F01208003D
:10192400E49000E7F0A3F090005DF01229C4900069
:1019340001E0FF700241046401705190000612102E
:10194400B9EF2401FFE43EFEE43DFDE43CFC9000DD
:10195400061210D17F9F7E867D017C0090000612C6
:1019640010C5D31210A840169000061210DD000016
:101974000000E4900115F0FFFEFDFC120800900049
:10198400061210B99001157401F0806C900001E00A
:10199400B403309000057406F090000A7401F0E47A
:1019A400900110F09000E674FFF09001207402F0B2
:1019B4007B40E4FDFF1224AFE4900115F0FFFEFD2F
:1019C400FC8035900001E0B404319000057407F008
:1019D40090000A7401F0E4900110F09000E674FFA6
:1019E400F09001207402F07B40E4FDFF1224AFE488
:1019F400900115F0FFFEFDFC120800E4900001F0D8
:011A040022BF
:05112000900111EFF049
:101125007BFF7A2879889001131211177A28798C18
:10113500900116121117900003E06401600241222C
:10114500900111E0640160024114A3F0900112E0E6
:10115500FE75F008A4FD2406FFC007ED240EFBC0B4
:10116500039001207402F090011312110EEEFF336B
:1011750095E08F82F583120FA8FF3395E0FEEFC44B
:10118500F8540FC868FFEEC454F048FE74C02FF938
:1011950074FE3EFA7BFF900121121117D003D00790
:1011A500E4FD12230A900112E0FE75F008A4FD2467
:1011B50020FFC007ED2428FBC0039001207402F036
:1011C50090011612110EEEFF3395E08F82F5831212
:1011D5000FA8FF3395E0FEEFC4F8540FC868FFEE83
:1011E500C454F048FE74C02FF974FE3EFA7BFF909C
:1011F5000121121117D003D007E4FD12230A900133
:1012050012E004F0E0C364809483500221512290DF
:1012150001207402F07B38E4FD7F068046900111C1
:10122500E0640170329001207402F07BFF7A01794D
:101235001EA31211177B20E4FD7F1012230A9001D3
:10124500207402F07BFF7A01793EA31211177B30DF
:10125500E4FD7F2002230A9001207402F07B30E434
:06126500FD7F101224AF12
:01126B002260
:05072900900111EFF04A
:10072E007BFF7A287990900113121117900003E045
:10073E0064016002E1C4900111E06401706AA3F0EB
:10074E00900112E0FE75F008A4FD240AFFC007ED2B
:10075E002412FBC0039001207404F09001131211B7
:10076E000EEEFF3395E08F82F583120FA8FF3395BF
:10077E00E0FEEFC4F8540FC868FFEEC454F048FE14
:10078E0074C02FF974FE3EFA7BFF900121121117EF
:10079E00D003D0077D0212230A900112E004F0E08C
:1007AE00C3648094834099229001207404F07B22CC
:1007BE007D027F0A802C900111E0B4011990012076
:1007CE007404F07BFF7A01799EA31211177B1C7DB6
:1007DE00027F0C02230A9001207404F07B1C7D0220
:0507EE007F0C1224AF96
:0107F30022E3
:051AE800900111EFF078
:101AED007BFF7A287994900113121117900003E06F
:101AFD00640160026183900111E06401706AA3F0DA
:101B0D00900112E0FE75F008A4FD2426FFC007ED3C
:101B1D00242EFBC0039001207404F09001131211C8
:101B2D000EEEFF3395E08F82F583120FA8FF3395EC
:101B3D00E0FEEFC4F8540FC868FFEEC454F048FE41
:101B4D0074C02FF974FE3EFA7BFF9001211211171C
:101B5D00D003D0077D0212230A900112E004F0E0B9
:101B6D00C3648094824099229001207404F07B36E6
:101B7D007D027F26802C900111E0B4011990012087
:101B8D007404F07BFF7A0179BEA31211177B347DAB
:101B9D00027F2402230A9001207404F07B347D021D
:051BAD007F241224AFAB
:011BB2002210
:101BB30090000AE0B40111E4F07F011211207F01CB
:101BC3001207297F01121AE8900001E0FF6067B451
:101BD300011C900110E0700D7F0112072990011084
:101BE3007401F0804CE4900110F07F01804090007C
:101BF30001E0C39402403A900110E0700A9000069D
:101C03001210DD000000009000057405F0E490015F
:101C130010F09000D1F09000E674FFF090000A7489
:101C230001F0E4FF121120E4FF120729E4FF121A66
:101C3300E8E4900001F09000D1E0B4641490011046
:101C4300E07003FF801A900110E064017021FF80AF
:101C53001B9000D1E0B4C817900110E070057F011C
:101C6300020729900110E0B401057F01121AE8224E
:05126C00900111EFF0FC
:101271007BFF7A2879889001131211177A287997C0
:10128100900116121117900003E064016002616E73
:10129100900111E0640160026160A3F0900112E02D
:1012A100FE75F008A4FD2406FFC007ED240EFBC067
:1012B100039001207402F090011312110EEEFF331E
:1012C10095E08F82F583120FA8FF3395E0FEEFC4FE
:1012D100F8540FC868FFEEC454F048FE74C02FF9EB
:1012E10074FE3EFA7BFF900121121117D003D00743
:1012F100E4FD12230A900112E0FE75F008A4FD241A
:1013010020FFC007ED2428FBC0039001207402F0E8
:1013110090011612110EEEFF3395E08F82F58312C4
:101321000FA8FF3395E0FEEFC4F8540FC868FFEE35
:10133100C454F048FE74C02FF974FE3EFA7BFF904E
:101341000121121117D003D007E4FD12230A9001E5
:1013510012E004F0E0C3648094835002419D229026
:1013610001207402F07B38E4FD7F06804690011174
:10137100E0640170329001207402F07BFF7A017900
:101381005EA31211177B20E4FD7F1012230A900146
:10139100207402F07BFF7A01797EA31211177B3052
:1013A100E4FD7F2002230A9001207402F07B30E4E7
:0613B100FD7F101224AFC5
:0113B7002213
:101E980090000AE0B40111E4F07F0112126C7F0196
:101EA8001207297F01121AE8900001E0605EB40170
:101EB8001F900110E0700D7F011207299001107426
:101EC80001F08043E4900110F07F01121AE8803796
:101ED800900001E0C39402402EE4FF12126CE4FF6C
:101EE800120729E4FF121AE8900110E0900005702B
:101EF80003F080037405F0E4900110F090000A04E8
:101F0800F09000E674FFF0E4900001F09000D1E05A
:101F1800B46414900110E07003FF801A900110E07F
:101F280064017021FF801B9000D1E0B4C8179001B4
:101F380010E070057F01020729900110E0B4010547
:061F48007F01121AE822DD
:10056B00EF7032900112F0900112E0FEC39418402C
:10057B0002E10A74162EF582E43400F5837403F05D
:10058B0074362EF582E43400F58374C0F0900112BA
:10059B00E004F080D2EF64017064900112F09001DE
:1005AB0012E0FEC39406502274162EF582E434003A
:1005BB00F58374FFF074362EF582E43400F5837402
:1005CB00FFF0900112E004F080D49001127406F059
:1005DB00900112E0FEC394184002E10A74162EF546
:1005EB0082E43400F5837403F074362EF582E43420
:1005FB0000F58374C0F0900112E004F080D2EF6438
:10060B00027064900112F0900112E0FEC3940C5042
:10061B002274162EF582E43400F58374FFF07436E1
:10062B002EF582E43400F58374FFF0900112E004A0
:10063B00F080D4900112740CF0900112E0FEC39480
:10064B00184002E10A74162EF582E43400F5837427
:10065B0003F074362EF582E43400F58374C0F09009
:10066B000112E004F080D2EF64037062900112F08B
:10067B00900112E0FFC39412502274162FF582E4FE
:10068B003400F58374FFF074362FF582E43400F5F3
:10069B008374FFF0900112E004F080D49001127487
:1006AB0012F0900112E0FFC39418505374162FF5FB
:1006BB0082E43400F5837403F074362FF582E4344E
:1006CB0000F58374C0F0900112E004F080D4E49044
:1006DB000112F0900112E0FFC39418502274162FF0
:1006EB00F582E43400F58374FFF074362FF582E461
:1006FB003400F58374FFF0900112E004F080D49085
:10070B0000CE7401F09001207403F07B017A007924
:0E071B0014A31211177B307D017F1002230AF8
:1026020090000AE0B4011FE4F09001207404F07B12
:1026120040E4FDFF1224AF1226BF9000E674FFF0E3
:102622009000D174C8F0900001E06002E4F09000E4
:10263200D1E064C870281213B8900111EFF0F46071
:102642001DE0FF9000E6E06F6005EFF012056B9071
:0E2652000111E090000BF0E49000E5F0D2AE34
:012660002257
:10299900900005E024FC60131460131460131460A4
:1029A9001314601324077012021DE2021C7302192A
:0B29B90004021BB3021E98122602222B
:0300030002000AEE
:01000A0032C3
:0300130002000EDA
:01000E0032BF
:03003B00020006BA
:0400060075EC003263
:0B2B5B00D2AAD2AF43870253E9FE224A
:100DF300539BFD1228A71214E81227187B017A00CF
:100E03007902E4FDFC7F0A122000E4900110F090C7
:100E1300000A04F0E490010EF0A3F09000CCF0A3DC
:100E2300F09000EBF09000CEF09000E674FFF0300D
:100E330097FD121800900002E0B4A508900005E0A9
:100E43006002E12EE4900003F0A3F090000612107C
:100E5300DD0000000090000274A5F090000574010D
:100E6300F0E490000BF09000E674FFF07D017F0743
:100E73001228DB9001207403F07BFF7A037970A3BF
:100E83001211177B147D017F0C12230A9001207429
:100E930003F07BFF7A00795EA31211177B247D0197
:100EA3007F1412230A9001207403F07BFF7A0479E4
:100EB30030A31211177B2C7D017F2412230A90018A
:100EC300207403F07BFF7A0279D0A31211177B34CD
:100ED3007D017F2C12230AE490010EF0A3F0900011
:100EE3005AF0A304F0900058F0900057F0E4FDFC92
:100EF300FF7E021221437D007C027F007E021221CD
:100F030043C390010FE0949090010EE0940140F1EF
:100F1300E490010EF0A3F090000A04F09001207415
:100F230003F07B347D017F0C1224AF122999C39007
:100F3300010FE094E890010EE094035002C13512D2
:100F43002A82900005E0FF64066004EFB407069070
:100F530000057405F07B017A007902E4FDFC7F0A49
:100F6300121A05E4F5B1F5B2F5B3F5B4F5ACF5AD88
:100F730053E1FE43B31043B410C294122B5B9001B0
:0C0F83000EF0A3F01226BFC2A8C2AA22E2
:01000F0022CE
:10294100A2AF9200C2AF75C7AA75C75543A401A231
:102951000092AFE59F30E613A2AF9200C2AF75C7F8
:0C296100AA75C755539FBFA20092AF2279
:0C214300900129ECF0A3EDF0AB07AA0618
:10214F00EB4A700221E1EBAE027807CEC313CE1338
:10215F00D8F9FF90012BEEF0A3EFF0EB547F600A5C
:10216F0090012BE475F001121009A2AF9200C2AFDB
:10217F0075C7AA75C755439F01A20092AF75AEFFF1
:10218F0075AF62A2AF9200C2AF75C7AA75C75543AC
:10219F00A502A20092AFE4FDFCD390012CE09D902C
:1021AF00012BE09C402CED75F080A4FF900129E0FD
:1021BF00FAA3E0FB2FF5A6EDAE047807C333CE33B9
:1021CF00CED8F92BEA3EF5A71229410DBD00010C1F
:0221DF0080C7B7
:0121E10022DB
:0C227700900129EEF0A3EFF0A312111764
:10228300A2AF9200C2AF75C7AA75C755439F01A2FB
:102293000092AFA2AF9200C2AF75C7AA75C75543EC
:1022A300A502A20092AFEDF5A6ECF5A775AF61E428
:1022B300FFFED390012AE09F900129E09E402190E8
:1022C300012B12110E8F828E83120FA8F5AE1229E5
:1022D3004105A6E5A6700205A70FBF00010E80D237
:1022E300A2AF9200C2AF75C7AA75C75553A5FDA289
:1022F3000092AFA2AF9200C2AF75C7AA75C755537C
:062303009FFEA20092AF54
:0123090022B1
:0C252900900129EEF0A3EFF0A3121117AF
:10253500A2AF9200C2AF75C7AA75C755439F01A246
:102545000092AFEDF5A6ECF5A775AF40E4FFFED31D
:1025550090012AE09F900129E09E40211229419097
:10256500012B12110E8F828E83E5AE120FE705A6A1
:10257500E5A6700205A70FBF00010E80D2A2AF929B
:1025850000C2AF75C7AA75C755539FFEA20092AF8B
:012595002223
:0F200000900111EFF0A3ECF0A3EDF0A312111774
:10200F00E4900117F0900117E0FDC39420503B902E
:10201F000111E0FF7E00C007ED75F010A4FF9001E5
:10202F0013E02FFD900112E035F0FC900114121116
:10203F000ED00712252990011412110E120F8FB412
:10204F00A508900117E004F080BB900117E0701312
:10205F00C3900112E09402503A740275F00012100E
:10206F0009809D900117E014F0900111E0FF7E00B0
:10207F00C007900117E075F010A4FF900113E02F37
:10208F00FD900112E035F0FC90011412110ED007F3
:03209F00122529DE
:0120A200221B
:0F1A0500900111EFF0A3ECF0A3EDF0A312111775
:101A1400E4900127F0900127E0FDC3942050369014
:101A24000111E0FF7E00C007ED75F010A4FF9001E6
:101A340013E02FFD900112E035F0FC7B017A01796F
:101A440017D007122529900117E0B4A508900127A3
:101A5400E004F080C0900127E0A3F0B420149001CA
:101A640012E0FCA3E0FD7F007E02122143E490011A
:101A740027F0900111E0FF7E00C007900127E07578
:101A8400F010A4FF900113E02FFD900112E035F057
:101A9400FC90011412110ED007122277900128E055
:101AA400B420107D007C027F007E02122143E4906A
:101AB4000128F0900111E0FF7E00C007900128E0AA
:101AC40075F010A4FF900113E02FFF900112E03590
:101AD400F0CF2400FDEF3402FC90011412110ED05B
:041AE400070222775C
:0424AA0041013100BB
:082B4B0043B30243B402C2923D
:072B5300E4FFFEEF4E70FCF1
:012B5A002258
:10003E0053B3FB43B40443B30443B404D29253B357
:0D004E00FD43B40243B30243B402D2912239
:102B3A00D291D292122B53C291122B53C292022BD0
:012B4A005337
:0A2B7100C291D292122B53D291228E
:0229ED00AD0734
:1029EF00E4FCED30E704D2918002C291ED25E0FDC9
:0F29FF00D292122B53C292122B530CECB408E35A
:012A0E0022A5
:032A0F001229ED9C
:102A120043B30253B4FDD292122B53309109122BBD
:0D2A220071122B4B7F0122122B4B7F0022E3
:102A2F00AC07AA05122B3AAF04122A0FAF02122AD3
:0C2A3F000FAF031229ED122A12022B71B6
:0C07F400C291C292122B53D292022B53DE
:10296D00E4FDFC43B30253B4FDC292122B53D29239
:10297D00122B53EC25E0FC3091010C0DEDB408E960
:0B298D0043B30243B4021207F4AF048E
:01299800221C
:072B7B00AE071FEE70FA2205
:06290E00C280C283D280EA
:02291400AD070D
:10291600C2837F02122B7BE4FCED30E004D281807F
:1029260002C2817F01122B7BD2837F01122B7BC2D5
:0A29360083EDC313FD0CECB408DFC1
:012940002274
:1028000053B1FD43B20243B10253B2FD7F02122B1A
:102810007BE4FCEDC313FD3081034480FDD2837F54
:1028200001122B7BC2837F01122B7B0CECB408E3DB
:0828300053B1FD43B202AF05F4
:01283800227D
:062B1000AA07E4FD7F8E20
:0F2B1600AB0512290EAF03122914D283C28022FD
:0A2B660012290E122800D283C2804B
:012B70002242
:10001600122B107F81122B66EA6006EF4480FF8068
:1000260004EF547FFFAD077F80122B167D807F8EF5
:03003600022B1684
:1025960053B1F743B20853B1FD43B20253B1FE4300
:1025A600B201C283C281C2807FC1122B66EF64A8CA
:1025B6006049122B12E4FD7F80122B167D207F824C
:1025C600122B167D077F84122B167D257F86122BF4
:1025D600167D127F88122B167D107F8A122B167D90
:1025E600067F8C122B16E4FD7F90122B167DA87F9A
:0C25F600C0122B167D807F8E122B162247
:042B2500120FA8FFE4
:102B2900EF54F0C4540F75F00AA4FEEF540F2EFFB2
:012B39002279
:042A4B00120FA8FFBF
:102A4F00E4FEEFC3940A400A74102EFE74F62FFFB3
:072A5F0080F0EE4FFEAF0610
:012A6600224D
:101D2B007F81122B66EF120FD57F83122B669000EB
:101D3B0001EF120FE77F85122B66900002EF120F57
:101D4B00E77F87122B66900003EF120FE77F891254
:101D5B002B66900004EF120FE77F8B122B6690001F
:101D6B0005EF120FE77F8D122B66E42FFFE4342073
:101D7B009000068FF012106D120F8FFF122B29EFB0
:101D8B00120FD5900001122B25900001EF120FE7D7
:101D9B00900002122B25900002EF120FE790000328
:101DAB00122B25900003EF120FE7900004122B2546
:101DBB00900004EF120FE7900005122B2590000501
:101DCB00EF120FE7900006121035FF122B2990002F
:071DDB0006E48FF002106D19
:0621E20090012E121117FE
:1021E800122B127DFF7FC0122B1690012E12110E9A
:1021F800120F8FFF122A4FAD077F80122B16900106
:102208002E12110E900001122A4BAD077F82122B5D
:102218001690012E12110E900002122A4BAD077F64
:1022280084122B1690012E12110E900003122A4BC5
:10223800AD077F86122B1690012E12110E90000406
:10224800122A4BAD077F88122B1690012E12110E01
:10225800900006121035FF122A4FAD077F8C122B03
:0F226800167DA87FC0122B167D807F8E022B164D
:102ACE00122B10AF02122A4FAD077F84122B167DE8
:062ADE00807F8E022B1622
:102AE400122B10AF02122A4FAD077F82122B167DD4
:062AF400807F8E022B160C
:102AFA00122B10AF02122A4FAD077F80122B167DC0
:062B0A00807F8E022B16F5
:03000000021F4E8E
:101F4E0075C7AA75C75575FD5A75C7AA75C7557554
:101F5E00FDA5787FE4F6D8FD9000007FFF7E03E4B8
:0C1F6E00F0A3DFFCDEFA758120021FB535
:101F7A00022AB6E493A3F8E493A34003F68001F29D
:101F8A0008DFF48029E493A3F85407240CC8C33368
:101F9A00C4540F4420C8834004F456800146F6DF37
:101FAA00E4800B0102040810204080902427E47E7C
:101FBA00019360BCA3FF543F30E509541FFEE4932C
:101FCA00A360010ECF54C025E060A840B8E493A3F3
:101FDA00FAE493A3F8E493A3C8C582C8CAC583CA1E
:101FEA00F0A3C8C582C8CAC583CADFE9DEE780BED6
:0124AE00002D
:100F8F00BB010689828A83E0225002E722BBFE0260
:090F9F00E32289828A83E4932293
:100FA800BB010CE58229F582E5833AF583E02250FE
:100FB80006E92582F8E622BBFE06E92582F8E22248
:0D0FC800E58229F582E5833AF583E4932262
:100FD500BB010689828A83F0225002F722BBFE01FB
:020FE500F322F5
:100FE700F8BB010DE58229F582E5833AF583E8F040
:100FF700225006E92582C8F622BBFE05E92582C8EC
:02100700F222D3
:10100900C5F0F8A3E028F0C5F0F8E5821582700272
:061019001583E038F0220F
:10101F00A3F8E0C5F025F0F0E58215827002158384
:06102F00E0C838F0E822E1
:10103500BB0110E58229F582E5833AF583E0F5F0F9
:10104500A3E0225009E92582F886F008E622BBFED6
:101055000AE92582F8E2F5F008E222E5832AF5831C
:08106500E993F5F0A3E99322E1
:10106D00F8BB0111E58229F582E5833AF583E8F0B5
:10107D00E5F0A3F0225009E92582C8F608A6F02272
:0D108D00BBFE09E92582C8F2E5F008F22259
:0E109A00C3EF9BFFEE9AFEED99FDEC98FC2251
:1010A800EB9FF5F0EA9E42F0E99D42F0E89C45F09E
:0110B8002215
:0C10B900E0FCA3E0FDA3E0FEA3E0FF22AA
:0C10C500E0F8A3E0F9A3E0FAA3E0FB22AE
:0C10D100ECF0A3EDF0A3EEF0A3EFF02292
:1010DD00A8828583F0D083D0821210F41210F412FE
:1010ED0010F41210F4E473E493A3C583C5F0C58323
:1010FD00C8C582C8F0A3C583C5F0C583C8C582C85D
:01110D0022BF
:09110E00E0FBA3E0FAA3E0F922E2
:09111700EBF0A3EAF0A3E9F022D9
:00000001FF
