:03000B0002309729
:10309700C0E0C0D075D000C000758CE5758AF578A2
:1030A7002A7401F2789BE204F2E2D394C84002E466
:1030B700F278BFE22401F218E23400F278B2E22497
:1030C70001F218E23400F278AEE22401F218E23499
:1030D70000F27898E22401F218E23400F2D000D02E
:0430E700D0D0E03233
:10354C007589FF5389F0438901538EF7758CE575A6
:09355C008AF5D2A9D2AFD28C226B
:03005B00022E333F
:102E3300C0E0C0D075D000C000C001C005C006C04E
:102E430007C2EFAFC378AFE2FD25E0249CF8E4F2BC
:102E530008EFF2ED25E0249CF8C000F909E3C4F87B
:102E6300540FC868FE19E3C454F048D000F208CEEA
:102E7300F2ED25E0249CF8C000E5C2540FFFE2FE0A
:102E830008E24FFFD000EEF208EFF278AFE204F26F
:102E9300E2C394084002C2AED007D006D005D001E9
:072EA300D000D0D0D0E032D6
:10304200E478AFF27F14789CE4F208DFFC43DE04FC
:1030520053E8F043E80343B14053B2BFE4F5F6430B
:10306200F60843E10153E8DF43E81053E1F753E187
:10307200FB43E10275D10775D9FF75D40275DCFFF8
:10308200D2DED2DFD2AED2AF78AFE2B408FAE478C1
:04309200AFF2D2AE19
:013096002217
:10356500E4F5B1F5B2F5B3F5B4F5ACF5AD12354CFE
:0835750012304212152180FB07
:1005F500000808080808080808080808080800008E
:10060500404041414141414141414141414040001A
:100615000000F010101010FF10101010F000000076
:1006250000000F04040404FF040404040F00000088
:1006350008080838C808090E0808C8380808080056
:100645008080404020110A040A112040408080002B
:1006550090523410FF10345280708F0808F808004B
:10066500829A566322528E008040330C33408000BC
:10067500100C042424242526A464240404140C004A
:10068500020202020242827F02020202020202000A
:1006950002E282F212D752D25217FA12169A1200B9
:1006A500128E621F003F253DA74027182641F00006
:1006B50000FC0000FF0004848484848484FC000022
:1006C500008740300F00202020202020207F0000C0
:1006D500100C05555555857F8555555505140C0048
:1006E5000404020A09292A4C48A919020204040033
:1006F500101014D4545454FC525252D312101000FA
:10070500404050575555557F555555575040400019
:10071500001715D55557557D555755D51517000053
:100725004040407F555555555555557F40404000F3
:100735000000007F494949494949497F00000000B7
:100745008141211D214181FF898989898981810013
:1007550000028282422212FA0622224242820000CE
:10076500010100FC44444445444444FC00000100AC
:100775007E8181817E000082FF800000C6A1918973
:1007850086004281898976003028A6FFA0005F890E
:10079500898971007C92898972000001F10D03003D
:1007A5007689898976004E9191493E0000C0300CCA
:1007B500030000F804020204F8000003040808041A
:1007C500030000000404FE000000000008080F08F4
:1007D5000800001C020282423C00000C0A090808BD
:1007E5000C00000C024242A21C0000060808080882
:1007F5000700008060100CFE000000010109090FD0
:100805000909007E22222242820000060808080407
:10081500030000F844222224C0000003040808084D
:10082500070000060282621A06000000000F0000A1
:100835000000001CA24242A21C000007080808088C
:100845000700007C82828244F80000000408080446
:100855000300000000C0300E010000180601000072
:1008650000000000C038E0000000203C2302022701
:10087500382008F8888888700000203F2020201143
:100885000E00C0300808080838000718202020107E
:10089500080008F808080810E000203F2020201074
:1008A5000F0008F88888E8081000203F2020232042
:1008B500180008F88888E8081000203F2000030089
:1008C5000000C03008080838000007182020221E44
:1008D500020008F808000008F808203F210101215E
:1008E5003F20000808F8080800000020203F2020CD
:1008F500000000000808F8080800C08080807F001C
:10090500000008F888C028180800203F2001263874
:10091500200008F8080000000000203F20202020CB
:10092500300008F8F800F8F80800203F013E013FC4
:10093500200008F830C00008F808203F20000718FC
:100945003F00E01008080810E0000F1020202010DC
:100955000F0008F808080808F000203F21010101F0
:100965000000E01008080810E0000F10282830509B
:100975004F0008F8888888887000203F2000030C05
:10098500302000708808080838000038202121220E
:100995001C00180808F8080818000000203F20006F
:1009A500000008F808000008F808001F2020202093
:1009B5001F000878880000C83808000007380E01B5
:1009C500000008F800F800F8080000033E013E03A7
:1009D5000000081868808068180820302C03032C54
:1009E50030200838C800C83808000000203F200023
:1009F500000010080808C8380800203826212020E3
:100A050018000000C0201018183060C00000000059
:100A1500030306060606020100000000381C020357
:100A250083FF3F01000000008040201C0F030000F1
:100A3500000020181C068787C63C1E010000000028
:100A45000201010103070E18608010080E064223FB
:100A550023B2EF0000000000000004020303061C9F
:100A6500780040E0980C1E387060E0C0808000007F
:100A7500010302060C0C08181010007CFEC0603043
:100A8500FCFE0301000000000000000000030F3C15
:100A9500408000F0FC0E020000000080C040000312
:100AA5000F3040848CFE730100000000000080C000
:100AB500C080061F1CF000080FC360203F271010E0
:100AC5000C0300202030303078EEC3800000000099
:100AD500000000000000010738C0000000E0700CB5
:100AE5000672DE8C000000003FCF00000000000110
:0D0AF500010000303000000C0C0000240057
:101CFB0053B3EF43B410C294E478BEF208F2C37846
:101D0B00BFE2940218E2940040F4D29412003EE435
:101D1B0078BEF208F2C378BFE2940218E294004056
:101D2B00F47BAEE4FD7F781234DEE4FBFD7F7812AA
:101D3B0034DE7B12E4FD7F781234DEE4FBFD7F782A
:101D4B001234DE7BB0E4FD7F781234DE7B81E4FD60
:101D5B007F781234DE7BFFE4FD7F781234DE7BA1CB
:101D6B00E4FD7F781234DE7BA6E4FD7F781234DE4F
:101D7B007BA8E4FD7F781234DE7B1FE4FD7F7812B5
:101D8B0034DE7BC8E4FD7F781234DE7BD3E4FD7F49
:101D9B00781234DEE4FBFD7F781234DE7BD5E4FD74
:101DAB007F781234DE7B80E4FD7F781234DE7BD9C2
:101DBB00E4FD7F781234DE7B1FE4FD7F781234DE86
:101DCB007BDAE4FD7F781234DE7B12E4FD7F781240
:101DDB0034DE7BDBE4FD7F781234DE7B40E4FD7F79
:101DEB00781234DE7B8DE4FD7F781234DE7B14E4D5
:101DFB00FD7F781234DE7BAFE4FD7F781234DE7F1B
:021E0B000022B3
:10336100EF242078D8F2ED24B0FBE4FD7F7812340D
:10337100DE78D8E254F0C4540F4410FBE4FD7F78AA
:103381001234DE78D8E2540FFBE4FD7F780234DE9C
:103516007B8DE4FD7F781234DE7B14E4FD7F781228
:0B35260034DE7BAFE4FD7F780234DE72
:103531007B8DE4FD7F781234DE7B10E4FD7F781211
:0B35410034DE7BAEE4FD7F780234DE58
:10313600E478C2F278C2E2FFC39404503CEF24B0B4
:10314600FBE4FD7F781234DEE4FBFD7F781234DE8B
:103156007B12E4FD7F781234DE78C37420F2E4FB40
:103166007D407F781234DE78C3E204F2E2C39460D5
:0931760040EC78C2E204F280BBD7
:01317F00222D
:082F160078CDEFF278CFEBF269
:102F1E00E478D1F208F278D0E2FF54077008EF138C
:102F2E001313541F800978D0E2131313541F04781F
:102F3E00D4F278D4EDF278D0E2FF78D4E2FDC39FDC
:102F4E00502F78CDE2FF12336178CDE278D3F2784C
:102F5E00CFE2FF78D3E2C39F5010E4FB7D407F7831
:102F6E001234DE78D3E204F280E578D4E204F28003
:012F7E00C58D
:012F7F00222F
:082DB00078CDEFF278CFEBF2D1
:102DB800E478D4F208F278D0E2FF54077008EF13F1
:102DC8001313541F800978D0E2131313541F047887
:102DD800D7F278D7EDF278D0E2FF78D7E2FDC39F3B
:102DE800504878CDE2FF12336178CDE278D6F27898
:102DF800CFE2FF78D6E2C39F502978D11214E97840
:102E0800D408E2FF2401F218E2FE3400F28F828E29
:102E180083121371FB7D407F781234DE78D6E2048A
:0A2E2800F280CC78D7E204F280AC0F
:012E3200227D
:1032C700454E474C495348004E4F524D414C0054D0
:1032D70049424554414E0052535400434E540059FD
:1032E7004553004E4F00444556001F1C1F1E1F1E0E
:0632F7001F1F1E1F1E1F19
:10349D0081C00088B41F111111111F0E008818086A
:0D34AD0000085008BA097081B0FF812800A6
:10357D00E478BDF218F278ACF27899F208F2780698
:08358D00F243B38053B47F2226
:102AE300782AE27003022B7AE4F2A2973378BDF2DC
:102AF30018E2FF08E2FE6F605B18EEF27899E2FEDF
:102B030008E2FF4E700F78ACE2D3940540077806D5
:102B13007401F28034C3EF940CEE940040077806FE
:102B23007404F280247899E2FE08E2FFC39405EE70
:102B33009400400778067403F2800EC3EF9402EE0C
:102B43009400400578067402F2E478ACF27899F2C6
:102B530008F2801E78BDE2701E78ACE204F2E2D384
:102B630094C8400DE4F2789AE22401F218E23400AA
:082B7300F2E478BEF208F22240
:10320F00EF6401703078D07402F27BFF7A06791583
:10321F00081214F27B20E4FD7F10122DB078D074C9
:10322F0002F27BFF7A067935081214F27B30E4FD47
:10323F007F20022DB078D07402F27B30E4FD7F1036
:04324F00122F162202
:102D2C007BFF7A3279C778C21214F2EF64017066B5
:102D3C0078C5F278C5E2FE75F008A4FD2404FFC046
:102D4C0007ED240CFBC00378D07404F278C2121483
:102D5C00E9EEFF3395E08F82F583121371FF339503
:102D6C00E0FEEFC4F8540FC868FFEEC454F048FE00
:102D7C0074572FF974043EFA7BFF78D11214F2D0F9
:102D8C0003D0077D02122DB078C5E204F2E2C364D1
:102D9C00809487409E2278D07404F27B3C7D02FFA5
:032DAC00122F16CD
:012DAF002201
:1029B0007814E2B4011AE4F278D07403F27B347D27
:1029C000017F0C122F167F0112320F7F01122D2C66
:1029D0007806E2604FB4012078C0E27F01700A12ED
:1029E000320F78C07401F28007122D2CE478C0F207
:1029F00078C0E27807F280287806E2C3940240208B
:102A000078C0E27807F2780F7403F2E478C0F278C5
:102A10009BF2781404F2E4FF122D2CE4FF12320F23
:102A2000E47806F2789BE2B4640C7807E27003FF66
:102A30008011E4FF8010789BE2B4C80D7807E27F34
:0A2A400001700302320F122D2C2248
:0531C80078C81214ABF1
:0531CD0078CD1214C4CE
:1031D200E478D5F208F278D11214AB78CD1214B794
:1031E200C312149A401F78D6E22401F218E2340086
:1031F200F278CD1214AB78D11214B712148C78CDA8
:0C3202001214C480D178D5E2FE08E2FF6F
:01320E00229D
:0533300078C81214AB87
:10333500801D78D11214AB78CD1214B7C312149A2C
:10334500401478CD1214AB78D11214B712148C78BE
:0C335500CD1214C480DC78CD1214AB2221
:1016C300EF6401600302180C7809E2241178C4F274
:1016D300E43318F278D07402F27BFF7A0779D708E3
:1016E3001214F27B18E4FD7F10122DB078C3E2FED2
:1016F30008E2FFE4FCFDC004C005C006C00778D1C2
:101703001214D000000064D007D006D005D0041214
:1017130031CD78C2EFF208E2FE08E2FFE4FCFDC03F
:1017230004C005C006C00778D11214D000000064BD
:10173300D007D006D005D00412333578C3EEF208B3
:10174300EFF278C2E275F010A424B7F9740735F00C
:10175300FA7BFF78D11214F278D07402F27B20E482
:10176300FD7F18122DB078C3E2FE08E2FFE4FCFD12
:10177300C004C005C006C00778D11214D000000011
:101783000AD007D006D005D0041231CD78C2EFF2CB
:1017930008E2FE08E2FFE4FCFDC004C005C006C089
:1017A3000778D11214D00000000AD007D006D00564
:1017B300D00412333578C3EEF208EFF278C2E27543
:1017C300F010A424B7F9740735F0FA7BFF78D1122F
:1017D30014F278D07402F27B28E4FD7F20122DB03E
:1017E30078C308E278C2F2E275F010A424B7F97462
:1017F3000735F0FA7BFF78D11214F278D07402F235
:101803007B30E4FD7F28022DB078D07402F27B3068
:07181300E4FD7F10122F1607
:01181A0022AB
:1021C000EF6401600302227C780AE278C2F2FFE445
:1021D000FCFDFEC004C005C006C00778D11214D0B3
:1021E0000000000AD007D006D005D0041231CD7807
:1021F000C3EFF218E2FFE4FCFDFEC004C005C00618
:10220000C00778D11214D00000000AD007D006D041
:1022100005D00412333578C2EFF208E275F010A44D
:1022200024B7F9740735F0FA7BFF78D11214F278ED
:10223000D07404F27B147D027F0C122DB078C2E2C0
:1022400008F2E275F010A424B7F9740735F0FA7BB0
:10225000FF78D11214F278D07404F27B1C7D027FD7
:1022600014122DB078D07404F27BFF7A08795708E5
:102270001214F27B247D027F1C022DB078D07404EE
:0A228000F27B1C7D027F0C122F166A
:01228A002231
:10264E00EF640160030226F2780BE278C2F2FFE437
:10265E00FCFDFEC004C005C006C00778D11214D020
:10266E000000000AD007D006D005D0041231CD7874
:10267E00C3EFF218E2FFE4FCFDFEC004C005C00685
:10268E00C00778D11214D00000000AD007D006D0AF
:10269E0005D00412333578C2EFF208E275F010A4BB
:1026AE0024B7F9740735F0FA7BFF78D11214F2785B
:1026BE00D07404F27B2C7D027F24122DB078C2E2FE
:1026CE0008F2E275F010A424B7F9740735F0FA7B1E
:1026DE00FF78D11214F278D07404F27B347D027F2D
:1026EE002C022DB078D07404F27B367D027F24123A
:0226FE002F1695
:0127000022B6
:101BD8007814E2B4011AE4F2FF12320FE4FF122D76
:101BE8002C7F011216C37F011221C07F0112264EDD
:101BF8007806E27003021CBE6401706C78C0E2FFD4
:101C080070087809E204F2021CBAEFB40110780AED
:101C1800E204F2E2D3940C5003021CBA804578C067
:101C2800E264026003021CBA780AE29032F093FB85
:101C380008E204F27809E224E1FF54037009EF7521
:101C4800F06484E5F0700D7E007C017D901213D263
:101C5800ED4C7008780AE2B402027B1D780BE2D3DF
:101C68009B404F7401F2804A7806E2C394024042D6
:101C780078C0E2B40221780F7403F278147401F288
:101C8800E478C0F2789BF2FF1216C3E4FF1221C079
:101C9800E4FF12264E800578C0E204F278C0E2B470
:101CA80001057F011216C378C0E2B402057F011254
:101CB80021C0E47806F2789BE26464701678C0E28A
:101CC8007003FF801C78C0E2B40104E4FF801DE4C7
:101CD800FF801C789BE264C8701878C0E270057FAA
:101CE800010216C378C0E27F01B401030221C012C9
:021CF800264E76
:011CFA0022C7
:10235600EF64016003022411780CE278C2F2FFE414
:10236600FCFDFEC004C005C006C00778D11214D01B
:102376000000000AD007D006D005D0041231CD786F
:10238600C3EFF218E2FFE4FCFDFEC004C005C00680
:10239600C00778D11214D00000000AD007D006D0AA
:1023A60005D00412333578C2EFF208E275F010A4B6
:1023B60024B7F9740735F0FA7BFF78D11214F27856
:1023C600D07403F27B0B7D01FF122DB078C2E208B8
:1023D600F2E275F010A424B7F9740735F0FA7BFF22
:1023E60078D11214F278D07403F27B137D017F0B3F
:1023F600122DB078D07403F27BFF7A0A79F70812AF
:1024060014F27B177D017F13022DB078D07403F28E
:082416007B137D01FF122F165C
:01241E00229B
:10228B00EF64016003022347780DE278C2F2FFE4AA
:10229B00FCFDFEC004C005C006C00778D11214D0E7
:1022AB000000000AD007D006D005D0041231CD783B
:1022BB00C3EFF218E2FFE4FCFDFEC004C005C0064C
:1022CB00C00778D11214D00000000AD007D006D076
:1022DB0005D00412333578C2EFF208E275F010A482
:1022EB0024B7F9740735F0FA7BFF78D11214F27822
:1022FB00D07403F27B207D017F18122DB078C2E2DF
:10230B0008F2E275F010A424B7F9740735F0FA7BE4
:10231B00FF78D11214F278D07403F27B287D017F01
:10232B0020122DB078D07403F27BFF7A0A79F7086C
:10233B001214F27B2C7D017F28022DB078D0740310
:0A234B00F27B287D017F18122F1687
:012355002265
:10270100EF640160030227A5780EE278C2F2FFE4CC
:10271100FCFDFEC004C005C006C00778D11214D06C
:102721000000000AD007D006D005D0041231CD78C0
:10273100C3EFF218E2FFE4FCFDFEC004C005C006D1
:10274100C00778D11214D00000000AD007D006D0FB
:1027510005D00412333578C2EFF208E275F010A407
:1027610024B7F9740735F0FA7BFF78D11214F278A7
:10277100D07403F27B357D017F2D122DB078C2E23A
:1027810008F2E275F010A424B7F9740735F0FA7B6A
:10279100FF78D11214F278D07403F27B3D7D017F72
:1027A10035022DB078D07403F27B3D7D017F2D126F
:0227B1002F16E1
:0127B3002203
:10181B007814E2B4011DE4F2FF12320FE4FF122D33
:10182B002C1233917F011223567F0112228B7F01E1
:10183B001227017806E270030219236401705178B4
:10184B00B304F278C0E2FF7013780CE204F2E2D337
:10185B009417500302191FE4F202191FEFB401137E
:10186B00780DE204F2E2D3943B500302191FE4F229
:10187B0002191F78C0E26402600302191F780EE29E
:10188B0004F2E2D3943B500302191FE4F202191F36
:10189B007806E2C39402407C78C0E26402705A7806
:1018AB00B3E26034E4F27809E2FF7826E4F208EF61
:1018BB00F2780AE27824F2780BE27823F2780CE2E1
:1018CB007822F2780DE27821F2780EE27820F27B22
:1018DB00FE7A007920122C9E780F7404F27814741F
:1018EB0001F2E478C0F2789BF2FF122356E4FF1268
:1018FB00228BE4FF122701800578C0E204F278C046
:10190B00E2B401057F0112235678C0E2B402057FD1
:10191B000112228BE47806F2789BE26464701678ED
:10192B00C0E27003FF801C78C0E2B40104E4FF80C6
:10193B001DE4FF801C789BE264C8701878C0E270CD
:10194B00057F0102235678C0E27F01B40103022216
:05195B008B12270122A0
:04201C0078C2EFF2A5
:102020007BFF7A3279CF081214F27807E2640170EC
:102030007A78C2E26401706678C6F278C6E2FE750C
:10204000F008A4FD2408FFC007ED2410FBC00378AE
:10205000D07402F278C31214E9EEFF3395E08F8258
:10206000F583121371FF3395E0FEEFC4F8540FC8E7
:1020700068FFEEC454F048FE74572FF974043EFA1A
:102080007BFF78D11214F2D003D007E4FD122DB0FB
:1020900078C6E204F2E2C364809486409E2278D03F
:1020A0007402F27B38E4FD7F08804278C2E264016A
:1020B000703078D07402F27BFF7A067955081214DA
:1020C000F27B20E4FD7F10122DB078D07402F27BF9
:1020D000FF7A067975081214F27B30E4FD7F200246
:1020E0002DB078D07402F27B30E4FD7F10122F16F1
:0120F00022CD
:041F190078C2EFF2A9
:101F1D007BFF7A3279D6081214F27807E2640170E9
:101F2D007878C2E26401706678C6F278C6E2FE7512
:101F3D00F008A4FD2404FFC007ED240CFBC00378BA
:101F4D00D07404F278C31214E9EEFF3395E08F825A
:101F5D00F583121371FF3395E0FEEFC4F8540FC8EB
:101F6D0068FFEEC454F048FE74572FF974043EFA1E
:101F7D007BFF78D11214F2D003D0077D02122DB061
:101F8D0078C6E204F2E2C364809487409E2278D042
:101F9D007404F27B3C7D02807178C2E26401706052
:101FAD0078D07404F27BFF7A067995081214F27BCF
:101FBD00107D02E4FF122DB078D07404F27BFF7A0D
:101FCD00067935081214F27B207D027F10122DB098
:101FDD0078D07404F27BFF7A067955081214F27BDF
:101FED00307D027F20122DB078D07404F27BFF7A01
:101FFD00067975081214F27B407D027F30022DB0F8
:0E200D0078D07404F27B407D02E4FF122F169F
:01201B0022A2
:102B7B007814E2B4010CE4F27F0112201C7F0112E5
:102B8B001F197806E2604AB4011B78C0E27F01B4DA
:102B9B000109121F19E478C0F2803212201C78C090
:102BAB007401F280287806E2C394024020780F74F7
:102BBB0005F278C0E27808F2E478C0F2789BF278FC
:102BCB001404F2E4FF12201CE4FF121F19E4780630
:102BDB00F2789BE2B4641278C0E2B40104E4FF80A3
:102BEB001678C0E2701EFF8018789BE2B4C8157887
:102BFB00C0E2B401057F01021F1978C0E270057FA6
:052C0B000112201C2253
:100E3D00EF64016003021107780BE2FF7E0078007A
:100E4D00EEF208EFF2FFE4FCFDC004C005C006C0E1
:100E5D000778D11214D00000000AD007D006D005B3
:100E6D00D0041231CD7802EFF27800E2FE08E2FFF5
:100E7D00E4FCFDC004C005C006C00778D11214D033
:100E8D000000000AD007D006D005D0041233357803
:100E9D0000EEF208EFF208E275F006A42475F9747D
:100EAD000735F0FA7BFF78D11214F278D07401F285
:100EBD007B3AE4FD7F34122DB0780008E208F2E2AF
:100ECD0075F006A42475F9740735F0FA7BFF78D117
:100EDD001214F278D07401F27B40E4FD7F3A122DAA
:100EED00B078D07401F27BFF7A0779B1081214F251
:100EFD007B34E4FD7F2E122DB0780AE2FF7E007860
:100F0D0000EEF208EFF2FFE4FCFDC004C005C006E0
:100F1D00C00778D11214D00000000AD007D006D037
:100F2D0005D0041231CD7802EFF27800E2FE08E22E
:100F3D00FFE4FCFDC004C005C006C00778D1121443
:100F4D00D00000000AD007D006D005D004123335EA
:100F5D007800EEF208EFF208E275F006A42475F9B8
:100F6D00740735F0FA7BFF78D11214F278D0740142
:100F7D00F27B28E4FD7F22122DB0780008E208F202
:100F8D00E275F006A42475F9740735F0FA7BFF7845
:100F9D00D11214F278D07401F27B2EE4FD7F281269
:100FAD002DB078D07401F27BFF7A0779B108121455
:100FBD00F27B22E4FD7F1C122DB07809E22411781A
:100FCD0001F2E43318F278D07401F27BFF7A0779DD
:100FDD0081081214F27B0AE4FD7F04122DB0780013
:100FED00E2FE08E2FFE4FCFDC004C005C006C00738
:100FFD0078D11214D000000064D007D006D005D0EF
:10100D00041231CD7802EFF27800E2FE08E2FFE43F
:10101D00FCFDC004C005C006C00778D11214D00075
:10102D00000064D007D006D005D004123335780007
:10103D00EEF208EFF208E275F006A42475F97407D4
:10104D0035F0FA7BFF78D11214F278D07401F27B6F
:10105D0010E4FD7F0A122DB07800E2FE08E2FFE4F5
:10106D00FCFDC004C005C006C00778D11214D00025
:10107D0000000AD007D006D005D0041231CD780279
:10108D00EFF27800E2FE08E2FFE4FCFDC004C005CB
:10109D00C006C00778D11214D00000000AD007D0C6
:1010AD0006D005D0041233357800EEF208EFF208C1
:1010BD00E275F006A42475F9740735F0FA7BFF7814
:1010CD00D11214F278D07401F27B16E4FD7F101268
:1010DD002DB0780008E208F2E275F006A42475F947
:1010ED00740735F0FA7BFF78D11214F278D07401C1
:1010FD00F27B1CE4FD7F16022DB078D07402F27BDA
:08110D0040E4FD7F04122F16DF
:0111150022B7
:10111600EF64016003021349780EE2FF7E00780354
:10112600EEF208EFF2FFE4FCFDC004C005C006C005
:101136000778D11214D00000000AD007D006D005D7
:10114600D0041231CD7805EFF27803E2FE08E2FF13
:10115600E4FCFDC004C005C006C00778D11214D057
:101166000000000AD007D006D005D0041233357827
:1011760003EEF208EFF208E275F006A42475F9749E
:101186000735F0FA7BFF78D11214F278D07401F2A9
:101196007B3AE4FD7F34122DB0780308E208F2E2D0
:1011A60075F006A42475F9740735F0FA7BFF78D13B
:1011B6001214F278D07401F27B40E4FD7F3A122DCE
:1011C600B078D07401F27BFF7A0A79FF081214F224
:1011D6007B34E4FD7F31122DB0780DE2FF7E00787E
:1011E60003EEF208EFF2FFE4FCFDC004C005C00602
:1011F600C00778D11214D00000000AD007D006D05C
:1012060005D0041231CD7805EFF27803E2FE08E24C
:10121600FFE4FCFDC004C005C006C00778D1121467
:10122600D00000000AD007D006D005D0041233350E
:101236007803EEF208EFF208E275F006A42475F9D9
:10124600740735F0FA7BFF78D11214F278D0740166
:10125600F27B2BE4FD7F25122DB0780308E208F21D
:10126600E275F006A42475F9740735F0FA7BFF7869
:10127600D11214F278D07401F27B31E4FD7F2B1287
:101286002DB078D07401F27BFF7A0A79FF08121428
:10129600F27B25E4FD7F22122DB0780CE2FF7E0062
:1012A6007803EEF208EFF2FFE4FCFDC004C005C0CF
:1012B60006C00778D11214D00000000AD007D00665
:1012C600D005D0041231CD7805EFF27803E2FE089E
:1012D600E2FFE4FCFDC004C005C006C00778D112D9
:1012E60014D00000000AD007D006D005D00412336F
:1012F600357803EEF208EFF208E275F006A42475DD
:10130600F9740735F0FA7BFF78D11214F278D074AD
:1013160001F27B1CE4FD7F16122DB0780308E2086B
:10132600F2E275F006A42475F9740735F0FA7BFF2E
:1013360078D11214F278D07401F27B22E4FD7F1C7E
:10134600022DB078D07402F27B40E4FD7F04122FA8
:011356001680
:011357002273
:050B020078C21214C4CA
:100B0700E478CCF278C6E2700E78D07404F27B40B9
:100B17007D02E4FF022F1678C21214AB78C81214B4
:100B2700C47808E26003020CB678D11214D0000032
:100B370027101231C878C7EFF278D11214D000000D
:100B47002710123330E4FCFD78C81214C478C7E2CA
:100B5700FF602675F010A424B7F9740735F0FA7B07
:100B6700FF78D11214F278D07404F27B1D7D027FD6
:100B770015122DB078CC7401F278D11214D0000080
:100B870003E81231C878C7EFF278D11214D0000009
:100B970003E8123330E4FCFD78C81214C478CCE2C1
:100BA7006401600578C7E2602978CC7401F278C7E0
:100BB700E275F010A424B7F9740735F0FA7BFF78D3
:100BC700D11214F278D07404F27B257D027F1D12B6
:100BD7002DB078D11214D0000000641231C878C744
:100BE700EFF278D11214D000000064123330E4FC25
:100BF700FD78C81214C478CCE26401600578C7E2B6
:100C0700602978CC7401F278C7E275F010A424B794
:100C1700F9740735F0FA7BFF78D11214F278D074A3
:100C270004F27B2D7D027F25122DB078D11214D0CE
:100C37000000000A1231C878C7EFF278D11214D039
:100C47000000000A123330E4FCFD78C81214C4789F
:100C5700CCE26401600578C7E2602978CC7401F2C0
:100C670078C7E275F010A424B7F9740735F0FA7B5A
:100C7700FF78D11214F278D07404F27B357D027FAD
:100C87002D122DB078C81214AB78C7EFF2E275F0C9
:100C970010A424B7F9740735F0FA7BFF78D1121442
:100CA700F278D07404F27B3D7D027F35020E3978ED
:100CB700D11214D0000027101231C878C7EFF2788C
:100CC700D11214D000002710123330E4FCFD78C88D
:100CD7001214C478C7E2FF602675F018A42407F938
:100CE700740A35F0FA7BFF78D11214F278D07404C5
:100CF700F27B0D7D027F01122DB078CC7401F27862
:100D0700D11214D0000003E81231C878C7EFF27887
:100D1700D11214D0000003E8123330E4FCFD78C888
:100D27001214C478CCE26401600578C7E2602978C0
:100D3700C7E275F018A42407F9740A35F0FA7BFFA7
:100D470078D11214F278D07404F27B197D027F0DEA
:100D5700122DB078CC7401F278D11214D0000000B3
:100D6700641231C878C7EFF278D11214D0000000AE
:100D770064123330E4FCFD78C81214C478CCE26402
:100D870001600578C7E2602978C7E275F018A424E6
:100D970007F9740A35F0FA7BFF78D11214F278D08C
:100DA7007404F27B257D027F19122DB078CC740173
:100DB700F278D11214D00000000A1231C878C7EFB8
:100DC700F278D11214D00000000A123330E4FCFD8F
:100DD70078C81214C478CCE26401600578C7E26071
:100DE7002978C7E275F018A42407F9740A35F0FAD0
:100DF7007BFF78D11214F278D07404F27B317D0234
:100E07007F25122DB078CC7401F278C81214AB7814
:100E1700C7EFF2E275F018A42407F9740A35F0FA5F
:100E27007BFF78D11214F278D07404F27B3D7D02F7
:050E37007F31122DB017
:010E3C002293
:1020F100E4FFFE78AFE2640860030221BDFDED2537
:10210100E0249CF8E2FA08E22FFFEA3EFE0DEDB46E
:1021110008ECEF7803CEC313CE13D8F9FF7819E298
:1021210024F0FD18E234FFFCC3EF9DEE9C50037FC9
:1021310000227819E22410FD18E23400FCD3EF9D4F
:10214100EE9C4015781BE224F0FD18E234FFFCC33D
:10215100EF9DEE9C50037F0122781BE22410FD18B5
:10216100E23400FCD3EF9DEE9C4015781DE224F093
:10217100FD18E234FFFCC3EF9DEE9C50037F022269
:10218100781DE22410FD18E23400FCD3EF9DEE9C93
:102191004015781FE224F0FD18E234FFFCC3EF9DE7
:1021A100EE9C50037F0322781FE22410FD18E234D5
:0E21B10000FCD3EF9DEE9C40037F04227FFFD5
:0121BF0022FD
:102FE800EF700678B574118033EFB4010A78B574C0
:102FF8001FF20874118027EFB4020C78B5741FF221
:1030080008F20874118019EF78B5B4030D741FF233
:1030180008F208F2087411F28009741FF208F20825
:10302800F208F278D07401F27BFE7A0079B40812C3
:0A30380014F27B08E4FDFF022DB046
:1033EC001220F178C2EFF2F4601AE2FF78B0E26FCB
:1033FC006006EFF2FF122FE878C2E27817F2E47859
:04340C00AFF2D2AE9B
:013410002299
:103180007BFE78C81214F278CBE4F2087406F20BD6
:043190007A0779B190
:0531940078C51214F2E1
:10319900E4FFFED378CCE29F18E29E402178C51265
:1031A90014E98F828E83121371FD78C81214E98F86
:0E31B900828E83ED1213B00FBF00010E80D581
:0131C70022E5
:10005E007BFE7A00792B78C81214F278CBE4F20882
:10006E007406F20B7A0779811231947809E2241121
:10007E00FFE433FE78C2F208EFF2E4FCFDC004C0E8
:10008E0005C006C00778D11214D000000064D00756
:10009E00D006D005D0041231CD78C4EFF278C2E28A
:1000AE00FE08E2FFE4FCFDC004C005C006C00778F0
:1000BE00D11214D000000064D007D006D005D004B1
:1000CE0012333578C2EEF208EFF208E275F006A4AC
:1000DE002475F9740735F0FA7BFFC003C002C00126
:1000EE001B7A00793178C81214F278CBE4F20874D6
:1000FE0006F2D001D002D00312319478C2E2FE088B
:10010E00E2FFE4FCFDC004C005C006C00778D112B2
:10011E0014D00000000AD007D006D005D00412314A
:10012E00CD78C4EFF278C2E2FE08E2FFE4FCFDC037
:10013E0004C005C006C00778D11214D00000000A12
:10014E00D007D006D005D00412333578C2EEF208AF
:10015E00EFF208E275F006A42475F9740735F0FA8B
:10016E007BFFC003C002C0011B7A00793778C8122A
:10017E0014F278CBE4F2087406F2D001D002D00368
:10018E0012319478C208E208F2E275F006A42475E2
:10019E00F9740735F0FA7BFFC003C002C0011B7A69
:1001AE0000793D78C81214F278CBE4F2087406F2A6
:1001BE00D001D002D0031231947A007943123180EB
:1001CE00780AE2FF7E0078C2EEF208EFF2FFE4FC5E
:1001DE00FDC004C005C006C00778D11214D00000BF
:1001EE00000AD007D006D005D0041231CD78C4EF66
:1001FE00F278C2E2FE08E2FFE4FCFDC004C005C0D6
:10020E0006C00778D11214D00000000AD007D0061D
:10021E00D005D00412333578C2EEF208EFF208E2C0
:10022E0075F006A42475F9740735F0FA7BFFC00348
:10023E00C002C0011B7A00794978C81214F278CB3B
:10024E00E4F2087406F2D001D002D0031231947891
:10025E00C208E208F2E275F006A42475F9740735B7
:10026E00F0FA7BFFC003C002C0011B7A00794F7801
:10027E00C81214F278CBE4F2087406F2D001D00260
:10028E00D0031231947A007955123180780BE2FF47
:10029E007E0078C2EEF208EFF2FFE4FCFDC004C06F
:1002AE0005C006C00778D11214D00000000AD0078E
:1002BE00D006D005D0041231CD78C4EFF278C2E268
:1002CE00FE08E2FFE4FCFDC004C005C006C00778CE
:1002DE00D11214D00000000AD007D006D005D004E9
:1002EE0012333578C2EEF208EFF208E275F006A48A
:1002FE002475F9740735F0FA7BFFC003C002C00104
:10030E001B7A00795B78C81214F278CBE4F2087489
:10031E0006F2D001D002D00312319478C208E2085E
:10032E00F2E275F006A42475F9740735F0FA7BFF36
:10033E00C003C002C0011B7A00796178C81214F2A2
:10034E0078CBE4F2087406F2D001D002D003123159
:10035E0094E47867F208F208F2780CE2FF7E0078F7
:10036E00C2EEF208EFF2FFE4FCFDC004C005C006C9
:10037E00C00778D11214D00000000AD007D006D0E2
:10038E0005D0041231CD78C4EFF278C2E2FE08E255
:10039E00FFE4FCFDC004C005C006C00778D11214EE
:1003AE00D00000000AD007D006D005D00412333595
:1003BE0078C2EEF208EFF208E275F006A42475F9A1
:1003CE00740735F0FA7BFFC003C002C0011B7A0030
:1003DE00796A78C81214F278CBE4F2087406F2D077
:1003EE0001D002D00312319478C208E208F2E2750D
:1003FE00F006A42475F9740735F0FA7BFFC003C02C
:10040E0002C0011B7A00797078C81214F278CBE41E
:10041E00F2087406F2D001D002D0031231947BFEA2
:10042E007A00797678C81214F278CBE4F208740365
:10043E00F20B7A0A79FF123194780DE2FF7E007882
:10044E00C2EEF208EFF2FFE4FCFDC004C005C006E8
:10045E00C00778D11214D00000000AD007D006D001
:10046E0005D0041231CD78C4EFF278C2E2FE08E274
:10047E00FFE4FCFDC004C005C006C00778D112140D
:10048E00D00000000AD007D006D005D004123335B4
:10049E0078C2EEF208EFF208E275F006A42475F9C0
:1004AE00740735F0FA7BFFC003C002C0011B7A004F
:1004BE00797978C81214F278CBE4F2087406F2D087
:1004CE0001D002D00312319478C208E208F2E2752C
:1004DE00F006A42475F9740735F0FA7BFFC003C04B
:1004EE0002C0011B7A00797F78C81214F278CBE42F
:1004FE00F2087406F2D001D002D0031231947BFEC2
:10050E007A00798578C81214F278CBE4F208740375
:10051E00F20B7A0A79FF123194780EE2FF7E0078A0
:10052E00C2EEF208EFF2FFE4FCFDC004C005C00607
:10053E00C00778D11214D00000000AD007D006D020
:10054E0005D0041231CD78C4EFF278C2E2FE08E293
:10055E00FFE4FCFDC004C005C006C00778D112142C
:10056E00D00000000AD007D006D005D004123335D3
:10057E0078C2EEF208EFF208E275F006A42475F9DF
:10058E00740735F0FA7BFFC003C002C0011B7A006E
:10059E00798878C81214F278CBE4F2087406F2D097
:1005AE0001D002D00312319478C208E208F2E2754B
:1005BE00F006A42475F9740735F0FA7BFFC003C06A
:1005CE0002C0011B7A00798E78C81214F278CBE43F
:1005DE00F2087406F2D001D002D003123194E478FE
:0605EE0094F208F208F28D
:0105F40022E4
:1034110078C2EFF27828743FF278D07401F2742BFD
:10342100243FF9E4FA7BFE081214F27B40E4FD7FAD
:0434310016022DB0A2
:101E0D007814E264017030F2123042E47828F21254
:101E1D00339112005E7F011234117817E2FF122FF9
:101E2D00E878101214AB78C67401F2120B02E47844
:101E3D00B1F208F27829F21233ECC378AEE294C80D
:101E4D0018E294004009E4F208F27F01123411788F
:101E5D0006E2FF7003021F186401704A7810121415
:101E6D00ABEF2401FFE43EFEE43DFDE43CFC7810C5
:101E7D001214C47F9F7E867D017C0078101214B7EA
:101E8D00D312149A401478101214D000000000E4FC
:101E9D0078C6F2FFFEFDFC120B0278101214AB781F
:101EAD00C67401F2805E7806E2B4032A780F7406D8
:101EBD00F278147401F2E478C0F278B074FFF2781D
:101ECD00D07402F27B40E4FDFF122F16E478C6F2C7
:101EDD00FFFEFDFC802E7806E2B4042B780F74070C
:101EED00F278147401F2E478C0F278B074FFF278ED
:101EFD00D07402F27B40E4FDFF122F16E478C6F297
:0C1F0D00FFFEFDFC120B02E47806F2223D
:0419600078C2EFF268
:101964007BFF7A3279DE78C41214F27A3279E27823
:10197400C71214F27807E264016003021A5678C2AF
:10198400E264016003021A4908F278C3E2FE75F0CA
:1019940008A4FD2406FFC007ED240EFBC00378D085
:1019A4007402F278C41214E9EEFF3395E08F82F5E5
:1019B40083121371FF3395E0FEEFC4F8540FC86827
:1019C400FFEEC454F048FE74572FF974043EFA7BBA
:1019D400FF78D11214F2D003D007E4FD122DB078B1
:1019E400C3E2FE75F008A4FD2420FFC007ED2428FF
:1019F400FBC00378D07402F278C71214E9EEFF3307
:101A040095E08F82F583121371FF3395E0FEEFC4E6
:101A1400F8540FC868FFEEC454F048FE74572FF909
:101A240074043EFA7BFF78D11214F2D003D007E499
:101A3400FD122DB078C3E204F2E2C36480948350B3
:101A44000302198E2278D07402F27B38E4FD7F06FB
:101A5400804278C2E26401703078D07402F27BFF75
:101A64007A0679B5081214F27B20E4FD7F10122D5A
:101A7400B078D07402F27BFF7A0679D5081214F29A
:101A84007B30E4FD7F20022DB078D07402F27B30ED
:071A9400E4FD7F10122F1684
:011A9B002228
:04241F0078C2EFF29E
:102423007BFF7A3279E678C41214F27807E264010A
:10243300707978C2E26401706508F278C3E2FE75D0
:10244300F008A4FD240AFFC007ED2412FBC00378A3
:10245300D07404F278C41214E9EEFF3395E08F824E
:10246300F583121371FF3395E0FEEFC4F8540FC8E0
:1024730068FFEEC454F048FE74572FF974043EFA13
:102483007BFF78D11214F2D003D0077D02122DB056
:1024930078C3E204F2E2C364809483409E2278D03E
:1024A3007404F27B227D027F0A802978C2E2B401A0
:1024B3001878D07404F27BFF7A077935081214F286
:1024C3007B1C7D027F0C022DB078D07404F27B1C40
:0724D3007D027F0C122F16A1
:0124DA0022DF
:0424DB0078C2EFF2E2
:1024DF007BFF7A3279EA78C41214F27807E264014A
:1024EF00707978C2E26401706508F278C3E2FE7514
:1024FF00F008A4FD2426FFC007ED242EFBC00378AF
:10250F00D07404F278C41214E9EEFF3395E08F8291
:10251F00F583121371FF3395E0FEEFC4F8540FC823
:10252F0068FFEEC454F048FE74572FF974043EFA56
:10253F007BFF78D11214F2D003D0077D02122DB099
:10254F0078C3E204F2E2C364809482409E2278D082
:10255F007404F27B367D027F26802978C2E2B401B3
:10256F001878D07404F27BFF7A077955081214F2A9
:10257F007B347D027F24022DB078D07404F27B343B
:07258F007D027F24122F16CC
:012596002222
:1027B4007814E2B40111E4F27F011219607F01126E
:1027C400241F7F011224DB7806E2FF605BB4011949
:1027D40078C0E2700C7F0112241F78C07401F2806B
:1027E40043E478C0F27F0180387806E2C394024063
:1027F4003378C0E2700978101214D0000000007819
:102804000F7405F2E478C0F2789BF278B074FFF2AA
:1028140078147401F2E4FF121960E4FF12241FE437
:10282400FF1224DBE47806F2789BE2B4641278C0E9
:10283400E27003FF801778C0E26401701EFF801805
:10284400789BE2B4C81578C0E270057F0102241FAA
:0C28540078C0E2B401057F011224DB22F1
:041A9C0078C2EFF22B
:101AA0007BFF7A3279DE78C41214F27A3279ED78DB
:101AB000C71214F27807E264016003021B9278C235
:101AC000E264016003021B8508F278C3E2FE75F050
:101AD00008A4FD2406FFC007ED240EFBC00378D048
:101AE0007402F278C41214E9EEFF3395E08F82F5A8
:101AF00083121371FF3395E0FEEFC4F8540FC868EA
:101B0000FFEEC454F048FE74572FF974043EFA7B7C
:101B1000FF78D11214F2D003D007E4FD122DB07873
:101B2000C3E2FE75F008A4FD2420FFC007ED2428C1
:101B3000FBC00378D07402F278C71214E9EEFF33C9
:101B400095E08F82F583121371FF3395E0FEEFC4A9
:101B5000F8540FC868FFEEC454F048FE74572FF9CC
:101B600074043EFA7BFF78D11214F2D003D007E45C
:101B7000FD122DB078C3E204F2E2C3648094835076
:101B800003021ACA2278D07402F27B38E4FD7F0681
:101B9000804278C2E26401703078D07402F27BFF38
:101BA0007A0679F5081214F27B20E4FD7F10122DDD
:101BB000B078D07402F27BFF7A077915081214F21C
:101BC0007B30E4FD7F20022DB078D07402F27B30B0
:071BD000E4FD7F10122F1647
:011BD70022EB
:10290C007814E2B40111E4F27F01121A9C7F0112D7
:10291C00241F7F011224DB7806E26054B4011C787A
:10292C00C0E2700C7F0112241F78C07401F2803C4D
:10293C00E478C0F27F011224DB80317806E2C39484
:10294C00024029E4FF121A9CE4FF12241FE4FF1238
:10295C0024DB78C0E2780F7003F280037405F2E494
:10296C0078C0F2781404F278B074FFF2E47806F2CE
:10297C00789BE2B4641278C0E27003FF801778C0D1
:10298C00E26401701EFF8018789BE2B4C81578C011
:10299C00E270057F0102241F78C0E2B401057F01BB
:0429AC001224DB22F4
:1030EB00780FE21214FB310A01310D02311003315A
:1030FB001304311605312F0631320700003135022A
:10310B0029B0021BD802181B022B7B121E0DC37891
:10311B0098E294C818E294004010E4F208F21233DB
:0B312B009102005E0227B412290C2262
:03003B0002364842
:0436480075EC0032EB
:1032530043B38053B47FA2AF920075C7AA75C75515
:1032630075910143B18075C7AA75C755E4F591A25D
:103273000092AF43E90143E98043EA8053EB7F4384
:0B3283009B02D2AF43870253E9FE22FA
:1015210012357D121CFB123136122EAA7BFE7A0077
:101531007907E4FDFC7F11123643E478C0F2781696
:10154100F2781404F2E478BEF208F27897F208F225
:1015510078B3F278B074FFF23097FD122AE3781570
:10156100E2B4A508780FE26003021662E47807F29C
:1015710008F208F20804F208F2E408F208F208F2AC
:1015810078101214D000000000781574A5F2780FBD
:101591007401F2E47816F208F278B074FFF27D017A
:1015A1007F0712336178D07403F27BFF7A097907E0
:1015B100081214F27B147D017F0C122DB078D074C7
:1015C10003F27BFF7A0579F5081214F27B247D0181
:1015D1007F14122DB078D07403F27BFF7A0979C79A
:1015E100081214F27B2C7D017F24122DB078D07467
:1015F10003F27BFF7A087967081214F27B347D01CC
:101601007F2C122DB0E478BEF208F27809E2FF785F
:1016110026E4F208EFF2780AE27824F2780BE27815
:1016210023F2780CE27822F2780DE27821F2780E3A
:10163100E27820F27BFE7A007920122C9EC378BFDB
:10164100E2949018E2940140F4E478BEF208F27852
:101651001404F278D07403F27B347D017F0C122FD5
:10166100167816E270051230EB800D7806E26008FC
:10167100E4F27816F2123516C378BFE294E818E264
:101681009403500302155C12353178167401F27B14
:10169100FE7A007907E4FDFC7F11123435E4F5B1DF
:1016A100F5B2F5B3F5B4F5ACF5AD53E1FE43B310C6
:1016B10043B410C294123253E478BEF208F21230ED
:0216C1004222C3
:103391007BFE7A007920122597782608E27809F2D7
:1033A1007824E2780AF27823E2780BF27822E27844
:0F33B1000CF27821E2780DF27820E2780EF22209
:10000E00A2AF9200C2AF75C7AA75C75543A401A28D
:10001E000092AFE59F30E613A2AF9200C2AF75C754
:0C002E00AA75C755539FBFA20092AF22D5
:0B2A4A0078C6ECF208EDF2AB07AA061C
:102A5500EB4A7003022AE2EBAE027807CEC313CE2F
:102A650013D8F979C9F3EE19F3EB547F600B78C9E4
:102A7500E22401F218E23400F2A2AF9200C2AF756F
:102A8500C7AA75C755439F01A20092AF75AEFF75E2
:102A9500AF62A2AF9200C2AF75C7AA75C75543A56D
:102AA50002A20092AFE4FDFCD378C9E29D18E29C36
:102AB500402BED75F080A4FF78C6E2FA08E2FB2F03
:102AC500F5A6EDAE047807C333CE33CED8F92BEA9D
:0D2AD5003EF5A712000E0DBD00010C80CBD8
:012AE20022D1
:0B2C100078C6EEF208EFF2081214F292
:102C1B00A2AF9200C2AF75C7AA75C755439F01A259
:102C2B000092AFA2AF9200C2AF75C7AA75C755434A
:102C3B00A502A20092AFEDF5A6ECF5A775AF61E486
:102C4B00FFFED378C7E29F18E29E402078C812148B
:102C5B00E98F828E83121371F5AE12000E05A6E575
:102C6B00A6700205A70FBF00010E80D6A2AF92007F
:102C7B00C2AF75C7AA75C75553A5FDA20092AFA2E7
:102C8B00AF9200C2AF75C7AA75C755539FFEA2007E
:022C9B0092AFF6
:012C9D002214
:0B2F800078C2EEF208EFF2081214F223
:102F8B00A2AF9200C2AF75C7AA75C755439F01A2E6
:102F9B000092AFEDF5A6ECF5A775AF40E4FFFED3BD
:102FAB0078C3E29F18E29E402012000E78C41214E0
:102FBB00E98F828E83E5AE1213B005A6E5A67002EB
:102FCB0005A70FBF00010E80D6A2AF9200C2AF754E
:0C2FDB00C7AA75C755539FFEA20092AF15
:012FE70022C7
:053643007E00022F8053
:1034350078C31214F28D828C8378C2EFF27E00126B
:103445002A4A78C2E2FF7E00AC83AD82081214E9F5
:03345500022C1036
:0334BA0081C100CD
:0836120043B30243B402C2926B
:07361A00E4FFFEEF4E70FC1F
:013621002286
:10003E0053B3FB43B40443B30443B404D29253B357
:0D004E00FD43B40243B30243B402D2912239
:10360100D291D29212361AC29112361AC29202364F
:013611001A9E
:0A363900C291D29212361AD29122E9
:02347B00AD079B
:10347D00E4FCED30E704D2918002C291ED25E0FD30
:0F348D00D29212361AC29212361A0CECB408E31D
:01349C00220D
:0334BE0012347B4A
:1034C10043B30253B4FDD29212361A309109123627
:0D34D100391236127F01221236127F0022BE
:1034DE00AC07AA05123601AF041234BEAF02123485
:0C34EE00BEAF0312347B1234C102363929
:0C362200C291C29212361AD29202361ADD
:1033C000E4FDFC43B30253B4FDC29212361AD2920A
:1033D00012361AEC25E0FC3091010C0DEDB408E931
:0B33E00043B30243B402123622AF04D4
:0133EB0022BF
:07000300AE071FEE70FA22A8
:0632FD00C280C283D280F2
:02330300AD0714
:10330500C2837F02120003E4FCED30E004D2818029
:1033150002C2817F01120003D2837F01120003C222
:0A33250083EDC313FD0CECB408DFC8
:01332F00227B
:10328E0053B1FD43B20243B10253B2FD7F021200AD
:10329E0003E4FCEDC313FD3081034480FDD2837F34
:1032AE0001120003C2837F011200030CECB408E389
:0832BE0053B1FD43B202AF055C
:0132C60022E5
:0635D700AA07E4FD7F8E4F
:0F35DD00AB051232FDAF03123303D283C280223B
:0A362E001232FD12328ED283C280E8
:01363800226F
:103458001235D77F8112362EEA6006EF4480FF804E
:1034680004EF547FFFAD077F801235DD7D807F8EAE
:033478000235DD3D
:102EAA0053B1F743B20853B1FD43B20253B1FE43E3
:102EBA00B201C283C281C2807FC112362EEF64A8DA
:102ECA0060491235D9E4FD7F801235DD7D207F828D
:102EDA001235DD7D077F841235DD7D257F8612352B
:102EEA00DD7D127F881235DD7D107F8A1235DD7D0A
:102EFA00067F8C1235DDE4FD7F901235DD7DA87FDB
:0C2F0A00C01235DD7D807F8E1235DD2287
:0435EC00121371FF46
:1035F000EF54F0C4540F75F00AA4FEEF540F2EFFE1
:0136000022A7
:0434FA00121371FF39
:1034FE00E4FEEFC3940A400A74102EFE74F62FFFFA
:07350E0080F0EE4FFEAF0656
:013515002293
:102597007F8112362EEF12139E7F8312362E900004
:1025A70001EF1213B07F8512362E900002EF12133F
:1025B700B07F8712362E900003EF1213B07F891277
:1025C700362E900004EF1213B07F8B12362E900038
:1025D70005EF1213B07F8D12362EE42FFFE434205F
:1025E7009000068FF012145F121358FF1235F0EFA8
:1025F70012139E9000011235EC900001EF1213B0F8
:102607009000021235EC900002EF1213B090000315
:102617001235EC900003EF1213B09000041235EC62
:10262700900004EF1213B09000051235EC900005EE
:10263700EF1213B0900006121427FF1235F0900026
:0726470006E48FF002145FAE
:052C9E0078C21214F2DF
:102CA3001235D97DFF7FC01235DD78C21214E912C7
:102CB3001358FF1234FEAD077F801235DD78C21240
:102CC30014E99000011234FAAD077F821235DD78E2
:102CD300C21214E99000021234FAAD077F84123550
:102CE300DD78C21214E99000031234FAAD077F862F
:102CF3001235DD78C21214E99000041234FAAD07DC
:102D03007F881235DD78C21214E990000612142769
:102D1300FF1234FEAD077F8C1235DD7DA87FC01214
:092D230035DD7D807F8E0235DD77
:103595001235D7AF021234FEAD077F841235DD7DBB
:0635A500807F8E0235DD7F
:1035AB001235D7AF021234FEAD077F821235DD7DA7
:0635BB00807F8E0235DD69
:1035C1001235D7AF021234FEAD077F801235DD7D93
:0635D100807F8E0235DD53
:0300000002286073
:1028600075C7AA75C75575FD5A75C7AA75C7557539
:10287000FDA5787FE4F6D8FD9000007FFF7E03E49D
:0C288000F0A3DFFCDEFA7581200228C7FF
:10288C00023565E493A3F8E493A34003F68001F2C8
:10289C0008DFF48029E493A3F85407240CC8C3334D
:1028AC00C4540F4420C8834004F456800146F6DF1C
:1028BC00E4800B010204081020408090349DE47EDB
:1028CC00019360BCA3FF543F30E509541FFEE49311
:1028DC00A360010ECF54C025E060A840B8E493A3D8
:1028EC00FAE493A3F8E493A3C8C582C8CAC583CA03
:1028FC00F0A3C8C582C8CAC583CADFE9DEE780BEBB
:0134BD00000E
:10135800BB010689828A83E0225002E722BBFE0293
:09136800E32289828A83E49322C6
:10137100BB010CE58229F582E5833AF583E0225031
:1013810006E92582F8E622BBFE06E92582F8E2227B
:0D139100E58229F582E5833AF583E4932295
:10139E00BB010689828A83F0225002F722BBFE012E
:0213AE00F32228
:1013B000F8BB010DE58229F582E5833AF583E8F073
:1013C000225006E92582C8F622BBFE05E92582C81F
:0213D000F22207
:1013D200BC000BBE0029EF8DF084FFADF022E4CCFF
:1013E200F875F008EF2FFFEE33FEEC33FCEE9DECC8
:1013F200984005FCEE9DFE0FD5F0E9E4CEFD22ED0E
:10140200F8F5F0EE8420D21CFEADF075F008EF2F57
:10141200FFED33FD4007985006D5F0F222C398FD48
:051422000FD5F0EA22E5
:10142700BB0110E58229F582E5833AF583E0F5F003
:10143700A3E0225009E92582F886F008E622BBFEE0
:101447000AE92582F8E2F5F008E222E5832AF58326
:08145700E993F5F0A3E99322EB
:10145F00F8BB0111E58229F582E5833AF583E8F0BF
:10146F00E5F0A3F0225009E92582C8F608A6F0227C
:0D147F00BBFE09E92582C8F2E5F008F22263
:0E148C00C3EF9BFFEE9AFEED99FDEC98FC225B
:10149A00EB9FF5F0EA9E42F0E99D42F0E89C45F0A8
:0114AA00221F
:0C14AB00E2FC08E2FD08E2FE08E2FF227D
:0D14B700E2FB08E2F908E2FA08E2CBF822B5
:0C14C400ECF208EDF208EEF208EFF22264
:1014D000D083D082E493F208740193F208740293EB
:0914E000F208740393F274047322
:0914E900E2FB08E2FA08E2F92234
:0914F200EBF208EAF208E9F2222B
:1014FB00D083D082F8E4937012740193700DA3A380
:10150B0093F8740193F5828883E473740293686093
:06151B00EFA3A3A380DF93
:00000001FF
