:03000B0002286C5C
:10286C00C0E0C0F0C083C082C0D075D000C000757D
:10287C008CE5758AF590005E7401F09000D1E0044F
:10288C00F0E0D394C84002E4F090011EE475F0012E
:10289C001212329000F7E475F0011212329000F32C
:1028AC00E475F0011212329000CCE475F0011212B2
:0E28BC0032D000D0D0D082D083D0F0D0E03225
:102C69007589FF5389F0438901538EF7758CE57592
:092C79008AF5D2A9D2AFD28C2257
:03005B0002200080
:10200000C0E0C083C082C0D075D000C000C005C091
:0320100006C00700
:102013009000F5E0FF900121F0C2EFAEC3EEFDEFBB
:102023003395E0FEEF25E0FFEE33FE74D22FF58209
:1020330074003EF583E4F0A3EDF074D22FF58274BF
:10204300003EF583C083C082A3E0C4F8540FC86880
:10205300FF0582D5820215831582E0C454F048D06F
:1020630082D083F0A3EFF0900121E0FF3395E0FEEF
:10207300EF25E0FFEE33FE74D22FF58274003EF5B8
:1020830083C083C082E0FEA3E0FFE5C2540FFDEFEF
:102093004DFFD082D083EEF0A3EFF09000F5E00483
:0920A300F0E0C394104002C2AE4B
:1020AC00D007D006D005D000D0D0D082D083D0E0DD
:0120BC0032F1
:1028CA00E49000F5F07F209000D2E4F0A3DFFC430F
:1028DA00DE0453E8F043E80343B14053B2BFE4F5E2
:1028EA00F643F60843E10153E8DF43E81053E1F702
:1028FA0053E1FB43E10275D10775D9FF75D402751F
:10290A00DCFFD2DED2DFD2AED2AF9000F5E0C394C4
:05291A001040F7D2AEF1
:01291F002295
:102C8200E4F5B1F5B2F5B3F5B4F5ACF5AD122C69D6
:082C92001228CA12100080FB99
:10005E00000808080808080808080808080800002A
:10006E0040404141414141414141414141404000B7
:10007E000000F010101010FF10101010F000000013
:10008E0000000F04040404FF040404040F00000025
:10009E0008080838C808090E0808C83808080800F3
:1000AE008080404020110A040A11204040808000C8
:1000BE0090523410FF10345280708F0808F80800E8
:1000CE00829A566322528E008040330C3340800059
:1000DE00100C042424242526A464240404140C00E7
:1000EE00020202020242827F0202020202020200A7
:1000FE0002E282F212D752D25217FA12169A120056
:10010E00128E621F003F253DA74027182641F000A2
:10011E0000FC0000FF0004848484848484FC0000BE
:10012E00008740300F00202020202020207F00005C
:10013E00100C05555555857F8555555505140C00E4
:10014E000404020A09292A4C48A9190202040400CF
:10015E00101014D4545454FC525252D31210100096
:10016E00404050575555557F5555555750404000B6
:10017E00001715D55557557D555755D515170000F0
:10018E004040407F555555555555557F4040400090
:10019E000000007F494949494949497F0000000054
:1001AE008141211D214181FF8989898989818100B0
:1001BE0000028282422212FA06222242428200006B
:1001CE00010100FC44444445444444FC0000010049
:1001DE007E8181817E000082FF800000C6A1918910
:1001EE0086004281898976003028A6FFA0005F89AB
:1001FE00898971007C92898972000001F10D0300DA
:10020E007689898976004E9191493E0000C0300C66
:10021E00030000F804020204F800000304080804B6
:10022E00030000000404FE000000000008080F0890
:10023E000800001C020282423C00000C0A09080859
:10024E000C00000C024242A21C000006080808081E
:10025E000700008060100CFE000000010109090F6C
:10026E000909007E222222428200000608080804A4
:10027E00030000F844222224C000000304080808EA
:10028E00070000060282621A06000000000F00003E
:10029E000000001CA24242A21C0000070808080829
:1002AE000700007C82828244F800000004080804E3
:1002BE000300000000C0300E01000018060100000F
:1002CE0000000000C038E0000000203C230202279E
:1002DE00382008F8888888700000203F20202011E0
:1002EE000E00C0300808080838000718202020101B
:1002FE00080008F808080810E000203F2020201011
:10030E000F0008F88888E8081000203F20202320DE
:10031E00180008F88888E8081000203F2000030025
:10032E000000C03008080838000007182020221EE0
:10033E00020008F808000008F808203F21010121FA
:10034E003F20000808F8080800000020203F202069
:10035E00000000000808F8080800C08080807F00B8
:10036E00000008F888C028180800203F2001263811
:10037E00200008F8080000000000203F2020202068
:10038E00300008F8F800F8F80800203F013E013F61
:10039E00200008F830C00008F808203F2000071899
:1003AE003F00E01008080810E0000F102020201079
:1003BE000F0008F808080808F000203F210101018D
:1003CE000000E01008080810E0000F102828305038
:1003DE004F0008F8888888887000203F2000030CA2
:1003EE0030200070880808083800003820212122AB
:1003FE001C00180808F8080818000000203F20000C
:10040E00000008F808000008F808001F202020202F
:10041E001F000878880000C83808000007380E0151
:10042E00000008F800F800F8080000033E013E0343
:10043E000000081868808068180820302C03032CF0
:10044E0030200838C800C83808000000203F2000BF
:10045E00000010080808C83808002038262120207F
:10046E0018000000C0201018183060C000000000F6
:10047E00030306060606020100000000381C0203F4
:10048E0083FF3F01000000008040201C0F0300008E
:10049E00000020181C068787C63C1E0100000000C5
:1004AE000201010103070E18608010080E06422398
:1004BE0023B2EF0000000000000004020303061C3C
:1004CE00780040E0980C1E387060E0C0808000001C
:1004DE00010302060C0C08181010007CFEC06030E0
:1004EE00FCFE0301000000000000000000030F3CB2
:1004FE00408000F0FC0E020000000080C0400003AF
:10050E000F3040848CFE730100000000000080C09C
:10051E00C080061F1CF000080FC360203F2710107C
:10052E000C0300202030303078EEC3800000000035
:10053E00000000000000010738C0000000E0700C51
:10054E000672DE8C000000003FCF000000000001AC
:0D055E00010000303000000C0C00002400F3
:1018000053B3EF43B410C294E490011EF0A3F0C3AD
:1018100090011FE0940290011EE0940040F1D294E8
:1018200012003EE490011EF0A3F0C390011FE0946B
:101830000290011EE0940040F17BAEE4FD7F78123F
:101840002BFBE4FBFD7F78122BFB7B12E4FD7F7802
:10185000122BFBE4FBFD7F78122BFB7BB0E4FD7FBA
:1018600078122BFB7B81E4FD7F78122BFB7BFFE45E
:10187000FD7F78122BFB7BA1E4FD7F78122BFB7B95
:10188000A6E4FD7F78122BFB7BA8E4FD7F78122B6A
:10189000FB7B1FE4FD7F78122BFB7BC8E4FD7F7888
:1018A000122BFB7BD3E4FD7F78122BFBE4FBFD7F47
:1018B00078122BFB7BD5E4FD7F78122BFB7B80E439
:1018C000FD7F78122BFB7BD9E4FD7F78122BFB7B0D
:1018D0001FE4FD7F78122BFB7BDAE4FD7F78122B6F
:1018E000FB7B12E4FD7F78122BFB7BDBE4FD7F7832
:1018F000122BFB7B40E4FD7F78122BFB7B8DE4FDFC
:101900007F78122BFB7B14E4FD7F78122BFB7BAFDF
:0A191000E4FD7F78122BFB7F00221C
:102A7F00EF2420900139F0ED24B0FBE4FD7F7812B4
:102A8F002BFB900139E054F0C4540F4410FBE4FDCC
:102A9F007F78122BFB900139E0540FFBE4FD7F7818
:032AAF00022BFBFC
:102C33007B8DE4FD7F78122BFB7B14E4FD7F781200
:0B2C43002BFB7BAFE4FD7F78022BFB36
:102C4E007B8DE4FD7F78122BFB7B10E4FD7F7812E9
:0B2C5E002BFB7BAEE4FD7F78022BFB1C
:100FB100E4900122F0900122E0FFC39404503FEF3E
:100FC10024B0FBE4FD7F78122BFBE4FBFD7F78125C
:100FD1002BFB7B12E4FD7F78122BFB900123742005
:100FE100F0E4FB7D407F78122BFB900123E004F0BD
:0E0FF100E0C3946040EB900122E004F080B772
:010FFF0022CF
:0A265F0090012EEFF0900130EBF037
:10266900E4900132F0A3F0900131E0FF54077008C3
:10267900EF131313541F800A900131E013131354FD
:102689001F04900135F0900135EDF0900131E0FF24
:10269900900135E0FDC39F503690012EE0FF122ACC
:1026A9007F90012EE0900134F0900130E0FF90011D
:1026B90034E0C39F5011E4FB7D407F78122BFB90DF
:0F26C9000134E004F080E2900135E004F080BCC1
:0126D80022DF
:0A25460090012EEFF0900130EBF051
:10255000E4900135F0A3F0900131E0FF54077008DA
:10256000EF131313541F800A900131E01313135417
:102570001F04900138F0900138EDF0900131E0FF38
:10258000900138E0FDC39F504D90012EE0FF122ACC
:102590007F90012EE0900137F0900130E0FF900134
:1025A00037E0C39F5028900132121337900135E471
:1025B00075F00112124885F082F5831211D1FB7D6E
:1025C000407F78122BFB900137E004F080CB900124
:0625D00038E004F080A5D4
:0125D60022E2
:1029E000454E474C495348004E4F524D414C0054C0
:1029F00049424554414E0052535400434E540059ED
:102A00004553004E4F00444556001F1C1F1E1F1EFD
:062A10001F1F1E1F1E1F08
:1025D70041012000602000FC0000F8F818181818C6
:1025E70018181818F8F0E00000000F0F0C0C0C0C6E
:1025F7000C0C0C0C0F07030060400014FFFF0303D3
:102607000303030303030303030303030303030393
:10261700030303030303FFFFF8F80000FFFFC0C035
:10262700C0C0C0C0C0C0C0C0C0C0C0C0C0C0C0C0A3
:10263700C0C0C0C0C0C0FFFF1F1F000048000C087B
:1026470000088008E009404100F6FF4100CE004144
:03265700005C0024
:102A4B00E490011DF090011CF09000F2F09000CF8B
:102A5B00F0A3F0900001F043B38053B47F43AC017B
:102A6B0053ADFE43B11053B2EF9000F9F0A3F090C9
:042A7B000000F02245
:10191A0090005EE070024131E4F0A2973390011D1D
:10192A00F090011CE0FFA3E0FE6F606690011CEEE0
:10193A00F09000CFE0FEA3E0FF4E70119000F2E0BD
:10194A00D3940540089000017401F08038C3EF94E5
:10195A000AEE940040089000017404F08027900079
:10196A00CFE0FEA3E0FFC39403EE9400400890008A
:10197A00017403F0800FC3EF9402EE9400400690C6
:10198A0000017402F0E49000F2F09000CFF0A3F0AE
:10199A00801E90011DE0701E9000F2E004F0E0D37A
:1019AA0094C8400BE4F09000CF75F001121232E4B3
:1019BA0090011EF0A3F020B02DE49000F9F0A3F0FE
:1019CA00900000E06401705FF09000CBE0900005A9
:1019DA00F090000A7401F09001317403F07B307DBD
:1019EA00017F1002265FE490011EF0A3F09000F937
:1019FA0075F001121232D39000FAE0940A9000F9BD
:101A0A00E094004022E4F0A3740AF0900000E07031
:101A1A001604F0900005E09000CBF09000057408E1
:081A2A00F090000A7401F022A3
:1027B900EF640170329001317402F07BFF7A007985
:1027C9007EA31213407B20E4FD7F10122546900161
:1027D900317402F07BFF7A00799EA31213407B309B
:1027E900E4FD7F200225469001317402F07B30E43C
:0727F900FD7F1012265F2294
:100771007BFF7A2979E0900122121340EF64017026
:100781006C900125F0900125E0FE75F008A4FD2490
:1007910004FFC007ED240CFBC0039001317404F089
:1007A100900122121337EEFF3395E08F82F5831209
:1007B10011D1FF3395E0FEEFC4F8540FC868FFEE86
:1007C100C454F048FE74C02FF974FE3EFA7BFF90CA
:1007D1000132121340D003D0077D02122546900149
:1007E10025E004F0E0C364809487409922900131B0
:0B07F1007404F07B3C7D02FF12265FC9
:0107FC0022DA
:101F440090000AE0B40129E4F09001317403F07BBD
:101F5400347D017F0C12265F7F011227B97F0112A5
:101F64000771900003E0900120F09000D174C8F054
:101F7400900001E0605CB40125900120E07F0170D5
:101F84000B1227B99001207401F08008120771E444
:101F9400900120F0900120E0900003F0802F900049
:101FA40001E0C394024026900120E0900003F090E9
:101FB40000057404F0E4900120F09000D1F090004A
:101FC4000A04F0E4FF120771E4FF1227B9E4900059
:101FD40001F09000D1E0B4640D900003E07003FFC1
:101FE4008013E4FF80129000D1E0B4C80E90000387
:0C1FF400E07F0170030227B91207712280
:062920009001281212E2F2
:0629260090012E1212FACE
:10292C00E4900136F0A3F09001321212E290012EE5
:10293C001212EEC31212D14021900136E475F0014F
:10294C0012123290012E1212E29001321212EE1279
:10295C0012C390012E1212FA80CD900136E0FEA324
:02296C00E0FF8A
:01296E002246
:0629A8009001281212E26A
:1029AE0080219001321212E290012E1212EEC31209
:1029BE0012D1401790012E1212E29001321212EE35
:1029CE001212C390012E1212FA80D790012E1212FB
:0229DE00E222F3
:05170500900122EFF04D
:10170A007BFF7A2979E8A3121340900003E0640171
:10171A006002E1A0900122E06401706C900126F061
:10172A00900126E0FE75F008A4FD2408FFC007ED2D
:10173A002410FBC0039001317402F09001231213AC
:10174A0037EEFF3395E08F82F5831211D1FF33957F
:10175A00E0FEEFC4F8540FC868FFEEC454F048FE28
:10176A0074C02FF974FE3EFA7BFF900132121340C7
:10177A00D003D007E4FD122546900126E004F0E0EC
:10178A00C3648094864099229001317402F07B38B8
:10179A00E4FD7F088046900122E0640170329001E6
:1017AA00317402F07BFF7A0079BEA31213407B20CA
:1017BA00E4FD7F101225469001317402F07BFF7A16
:1017CA000079DEA31213407B30E4FD7F2002254618
:0F17DA009001317402F07B30E4FD7F1012265F26
:0117E90022DD
:051A3200900122EFF01D
:101A37007BFF7A2979EFA3121340900003E064013A
:101A4700600241CB900122E06401706C900126F0A6
:101A5700900126E0FE75F008A4FD2404FFC007ED01
:101A6700240CFBC0039001317404F090012312137E
:101A770037EEFF3395E08F82F5831211D1FF33954F
:101A8700E0FEEFC4F8540FC868FFEEC454F048FEF8
:101A970074C02FF974FE3EFA7BFF90013212134097
:101AA700D003D0077D02122546900126E004F0E01E
:101AB700C3648094874099229001317404F07B3C81
:101AC7007D028077900122E0640170649001317497
:101AD70004F07BFF7A0079FEA31213407B107D028E
:101AE700E4FF1225469001317404F07BFF7A0079F8
:101AF7009EA31213407B207D027F10122546900182
:101B0700317404F07BFF7A0079BEA31213407B3057
:101B17007D027F201225469001317404F07BFF7A05
:101B27000079DEA31213407B407D027F30022546F9
:0F1B37009001317404F07B407D02E4FF12265FC1
:011B4600227C
:101E860090000AE0B4011AE4F07F011217057F0101
:101E9600121A32900004E0900120F09000D174C82C
:101EA600F0900001E0605DB40126900120E07F0122
:101EB600B4010A121A32E4900120F08009121705C3
:101EC6009001207401F0900120E0900004F0802F32
:101ED600900001E0C3940240269000057405F0903E
:101EE6000120E0900004F0E4900120F09000D1F091
:101EF60090000A04F0E4FF121705E4FF121A32E418
:101F0600900001F09000D1E0B46414900120E0B498
:101F16000104E4FF8019900120E07021FF801B90EE
:101F260000D1E0B4C817900120E0B401057F01029A
:0E1F36001A32900120E070057F01121705227B
:060800009001221212FA21
:10080600E490012CF0A3F0900126E0700F900131E6
:100816007404F07B407D02E4FF02265F9001221201
:1008260012E29001281212FA900004E060024134AC
:1008360090012D740CF0900132121306000027105F
:10084600122920900127EFF09001321213060000C2
:1008560027101229A8E4FCFD9001281212FA900133
:1008660027E0FF603475F010A42420F9740235F0F7
:10087600FA7BFF90013212134090012DE0FF24080D
:10088600FB9001317404F07D0212254690012C7410
:1008960001F0A3E02408F0800790012DE02404F085
:1008A600900132121306000003E812292090012756
:1008B600EFF0900132121306000003E81229A8E4B3
:1008C600FCFD9001281212FA90012CE064016006EA
:1008D600900127E0603A90012C7401F0900127E026
:1008E60075F010A42420F9740235F0FA7BFF90010C
:1008F6003212134090012DE0FF2408FB9001317461
:1009060004F07D0212254690012DE02408F08007B0
:1009160090012DE02404F09001321213060000002D
:1009260064122920900127EFF0900132121306007D
:100936000000641229A8E4FCFD9001281212FA9026
:10094600012CE064016006900127E0603A90012CDA
:100956007401F0900127E075F010A42420F97402C8
:1009660035F0FA7BFF90013212134090012DE0FF23
:100976002408FB9001317404F07D02122546900193
:100986002DE02408F0800790012DE02404F090016A
:10099600321213060000000A122920900127EFF0F8
:1009A6009001321213060000000A1229A8E4FCFD89
:1009B6009001281212FA90012CE064016006900161
:1009C60027E0603A90012C7401F0900127E075F061
:1009D60010A42420F9740235F0FA7BFF900132123C
:1009E600134090012DE0FF2408FB9001317404F0C0
:1009F6007D0212254690012DE02408F08007900123
:100A06002DE02404F09001281212E2900127EFF065
:100A1600E075F010A42420F9740235F0FA7BFF90FB
:100A2600013212134090012DE0FF2408812A900123
:100A36002D7402F0900132121306000027101229BD
:100A460020900127EFF090013212130600002710C4
:100A56001229A8E4FCFD9001281212FA900127E061
:100A6600FF603475F018A42470F9740435F0FA7B2D
:100A7600FF90013212134090012DE0FF240CFB90F1
:100A860001317404F07D0212254690012C7401F0A8
:100A9600A3E0240CF0800790012DE02406F09001DD
:100AA60032121306000003E8122920900127EFF006
:100AB600900132121306000003E81229A8E4FCFD97
:100AC6009001281212FA90012CE064016006900150
:100AD60027E06038900127E075F018A42470F974B7
:100AE6000435F0FA7BFF90013212134090012DE09D
:100AF600FF240CFB9001317404F07D021225469010
:100B0600012C7401F0A3E0240CF0800790012DE085
:100B16002406F09001321213060000006412292008
:100B2600900127EFF09001321213060000006412C4
:100B360029A8E4FCFD9001281212FA90012CE06429
:100B4600016006900127E06038900127E075F018F3
:100B5600A42470F9740435F0FA7BFF900132121365
:100B66004090012DE0FF240CFB9001317404F07DD0
:100B76000212254690012C7401F0A3E0240CF080AB
:100B86000790012DE02406F09001321213060000B2
:100B9600000A122920900127EFF090013212130665
:100BA6000000000A1229A8E4FCFD9001281212FA9E
:100BB60090012CE064016006900127E06038900106
:100BC60027E075F018A42470F9740435F0FA7BFF59
:100BD60090013212134090012DE0FF240CFB90018E
:100BE600317404F07D0212254690012C7401F0A3A5
:100BF600E0240CF0800790012DE02406F0900128F7
:100C06001212E2900127EFF0E075F018A42470F9B3
:100C1600740435F0FA7BFF90013212134090012DD7
:100C2600E0FF240CFB9001317404F07D021225468E
:010C3600229B
:07056B00E49000CEF07F01D7
:05057200900123EFF0F1
:10057700E4A3F0A3F079FF9000F5E0C394105002D4
:10058700E16EC2AEE4F0FFEF04FEEEC39410505DDF
:10059700EE25E024D2F582E43400F583E0FCA3E005
:1005A700FD900124ECF0A3EDF0EF25E024D2F582D5
:1005B700E43400F583E0FAA3E0FBC39DEA9C502AEC
:1005C700EE25E024D2F582E43400F583EAF0A3EBCC
:1005D700F0900124E0FCA3E0FDEF25E024D2F582B2
:1005E700E43400F583ECF0A3EDF00E809D0FEFB43B
:1005F7001095E4900124F0A3F07F04EF25E024D2C6
:10060700F582E43400F583E0FCA3E0FD900124ECDF
:100617008DF01212320FEFB40CE1900124E0FEA32B
:10062700E07803CEC313CE13D8F9F0EE900124F08F
:100637009000CEE07060900012E0FEA3E0FF900112
:1006470024E0FCA3E0FDD39FEC9E400479048042A4
:10065700900010E0FEA3E0FFD3ED9FEC9E400479ED
:1006670003802F90000EE0FEA3E0FF900124E0FC42
:10067700A3E0FDD39FEC9E40047902801590000C07
:10068700E0FEA3E0FFD3ED9FEC9E400479018002DA
:10069700E4F9D2AEE16C90000CE0FEA3E0FF24F099
:1006A700FDEE34FFFC900124E0FAA3E0FBC39DEAD2
:1006B7009C5004E4F9E16CEF2410FFE43EFED3EB19
:1006C7009FEA9E401F90000FE024F0FF90000EE08D
:1006D70034FFFEC3900125E09F900124E09E500463
:1006E7007901E16C90000FE02410FF90000EE034D8
:1006F70000FE900124E0FCA3E0FDD39FEC9E40198F
:10070700900011E024F0FF900010E034FFFEC3EDED
:100717009FEC9E50047902804C900011E02410FF5A
:10072700900010E03400FE900124E0FCA3E0FDD32C
:100737009FEC9E4019900013E024F0FF900012E018
:1007470034FFFEC3ED9FEC9E5004790380179000A1
:1007570013E02410FF900012E03400FED3ED9FEC6D
:090767009E40027904D2AEAF01FC
:010770002266
:100DF500EF7032900123F0900123E0FEC394084088
:100E050002E19474002EF582E43401F5837418F040
:100E150074102EF582E43401F583740CF0900123EF
:100E2500E004F080D2EF64017064900123F090013A
:100E350023E0FEC39402502274002EF582E43401AF
:100E4500F58374F8F074102EF582E43401F583749B
:100E55000FF0900123E004F080D49001237402F098
:100E6500900123E0FEC394084002E19474002EF53E
:100E750082E43401F5837418F074102EF582E4349D
:100E850001F583740CF0900123E004F080D2EF6447
:100E9500027064900123F0900123E0FEC394045096
:100EA5002274002EF582E43401F58374F8F0741091
:100EB5002EF582E43401F583740FF0900123E004EC
:100EC500F080D49001237404F0900123E0FEC394D4
:100ED500084002E19474002EF582E43401F5837430
:100EE50018F074102EF582E43401F583740CF0903B
:100EF5000123E004F080D2EF64037062900123F0D7
:100F0500900123E0FFC39406502274002FF582E47C
:100F15003401F58374F8F074102FF582E43401F58B
:100F250083740FF0900123E004F080D490012374C2
:100F350006F0900123E0FFC39408505374002FF589
:100F450082E43401F5837418F074102FF582E434CB
:100F550001F583740CF0900123E004F080D4E49053
:100F65000123F0900123E0FFC39408502274002F61
:100F7500F582E43401F58374F8F074102FF582E4FA
:100F85003401F583740FF0900123E004F080D490D0
:100F950000CE7401F090013104F07B017A0079FCF8
:0C0FA500A31213407B10E4FDFF02254660
:102B6800E4FF120572900122EFF0F4601BE0FF9081
:102B780000F6E06F6005EFF0120DF5900122E0908D
:082B8800000BF0E49000F5F0F1
:012B90002222
:1015E10090000AE064017046F01228CAE490005CA1
:1015F100F09000061212E29001267401F012080028
:1016010090000BE0B4FF0812056B90000BEFF09017
:10161100000BE0FF9000F6F0120DF5E49000F7F0FA
:10162100A3F090005DF09000D1F09000CEF0122B6D
:1016310068900001E0FF7002E104640170519000C4
:10164100061212E2EF2401FFE43EFEE43DFDE43C1C
:10165100FC9000061212FA7F9F7E867D017C00902D
:1016610000061212EED31212D14016900006121388
:101671000600000000E4900126F0FFFEFDFC1208C8
:10168100009000061212E29001267401F0806C9025
:101691000001E0B403309000057406F090000A7474
:1016A10001F0E4900120F09000F674FFF090013118
:1016B1007402F07B40E4FDFF12265FE4900126F006
:1016C100FFFEFDFC8035900001E0B404319000057F
:1016D1007407F090000A7401F0E4900120F090008A
:1016E100F674FFF09001317402F07B40E4FDFF12CB
:1016F100265FE4900126F0FFFEFDFC120800E49055
:041701000001F022D1
:05134900900122EFF00D
:10134E007BFF7A2979F79001241213407A2979FBD1
:10135E00900127121340900003E064016002814B5C
:10136E00900122E064016002813DA3F0900123E030
:10137E00FE75F008A4FD2406FFC007ED240EFBC089
:10138E00039001317402F0900124121337EEFF33F3
:10139E0095E08F82F5831211D1FF3395E0FEEFC4F5
:1013AE00F8540FC868FFEEC454F048FE74C02FF90D
:1013BE0074FE3EFA7BFF900132121340D003D00729
:1013CE00E4FD122546900123E0FE75F008A4FD24ED
:1013DE0020FFC007ED2428FBC0039001317402F0FA
:1013EE00900127121337EEFF3395E08F82F58312AB
:1013FE0011D1FF3395E0FEEFC4F8540FC868FFEE2D
:10140E00C454F048FE74C02FF974FE3EFA7BFF9070
:10141E000132121340D003D007E4FD12254690018D
:10142E0023E004F0E0C3648094835002617A22903A
:10143E0001317402F07B38E4FD7F06804690012274
:10144E00E0640170329001317402F07BFF7A017911
:10145E001EA31213407B20E4FD7F1012254690013F
:10146E00317402F07BFF7A01793EA31213407B3078
:10147E00E4FD7F200225469001317402F07B30E4BA
:06148E00FD7F1012265F35
:011494002235
:051C2A00900122EFF023
:101C2F007BFF7A2979FF900124121340900003E083
:101C3F006401600281C5900122E06401706AA3F023
:101C4F00900123E0FE75F008A4FD240AFFC007ED04
:101C5F002412FBC0039001317404F090012412137D
:101C6F0037EEFF3395E08F82F5831211D1FF339555
:101C7F00E0FEEFC4F8540FC868FFEEC454F048FEFE
:101C8F0074C02FF974FE3EFA7BFF9001321213409D
:101C9F00D003D0077D02122546900123E004F0E027
:101CAF00C3648094834099229001317404F07B22A5
:101CBF007D027F0A802C900122E0B401199001313E
:101CCF007404F07BFF7A01799EA31213407B1C7D75
:101CDF00027F0C0225469001317404F07B1C7D02BB
:051CEF007F0C12265FCE
:011CF40022CD
:051CF500900122EFF058
:101CFA007BFF7A2A7903900124121340900003E0B3
:101D0A0064016002A190900122E06401706AA3F06C
:101D1A00900123E0FE75F008A4FD2426FFC007ED1C
:101D2A00242EFBC0039001317404F0900124121395
:101D3A0037EEFF3395E08F82F5831211D1FF339589
:101D4A00E0FEEFC4F8540FC868FFEEC454F048FE32
:101D5A0074C02FF974FE3EFA7BFF900132121340D1
:101D6A00D003D0077D02122546900123E004F0E05B
:101D7A00C3648094824099229001317404F07B36C6
:101D8A007D027F26802C900122E0B4011990013156
:101D9A007404F07BFF7A0179BEA31213407B347D71
:101DAA00027F240225469001317404F07B347D02BF
:051DBA007F2412265FEA
:011DBF002201
:101DC00090000AE0B40117E4F07F011213497F018B
:101DD000121C2A7F01121CF59000D174C8F09000EB
:101DE00001E0FF6067B4011C900120E0700D7F01ED
:101DF000121C2A9001207401F0804CE4900120F024
:101E00007F018040900001E0C39402403A9001209D
:101E1000E0700A9000061213060000000090000512
:101E20007405F0E4900120F09000D1F09000F67479
:101E3000FFF090000A7401F0E4FF121349E4FF126E
:101E40001C2AE4FF121CF5E4900001F09000D1E0A0
:101E5000B46414900120E07003FF801A900120E028
:101E600064017021FF801B9000D1E0B4C81790017D
:101E700020E070057F01021C2A900120E0B40105DA
:061E80007F01121CF52297
:05149500900122EFF0C0
:10149A007BFF7A2979F79001241213407A2A790678
:1014AA00900127121340900003E064016002A197A3
:1014BA00900122E064016002A189A3F0900123E077
:1014CA00FE75F008A4FD2406FFC007ED240EFBC03C
:1014DA00039001317402F0900124121337EEFF33A6
:1014EA0095E08F82F5831211D1FF3395E0FEEFC4A8
:1014FA00F8540FC868FFEEC454F048FE74C02FF9C0
:10150A0074FE3EFA7BFF900132121340D003D007DB
:10151A00E4FD122546900123E0FE75F008A4FD249F
:10152A0020FFC007ED2428FBC0039001317402F0AC
:10153A00900127121337EEFF3395E08F82F583125D
:10154A0011D1FF3395E0FEEFC4F8540FC868FFEEDF
:10155A00C454F048FE74C02FF974FE3EFA7BFF9023
:10156A000132121340D003D007E4FD122546900140
:10157A0023E004F0E0C364809483500281C6229081
:10158A0001317402F07B38E4FD7F06804690012227
:10159A00E0640170329001317402F07BFF7A0179C4
:1015AA005EA31213407B20E4FD7F101225469001B2
:1015BA00317402F07BFF7A01797EA31213407B30EB
:1015CA00E4FD7F200225469001317402F07B30E46D
:0615DA00FD7F1012265FE8
:0115E00022E8
:1020BD0090000AE0B40117E4F07F011214957F013E
:1020CD00121C2A7F01121CF59000D174C8F09000EB
:1020DD0001E0605EB4011F900120E0700D7F0112E0
:1020ED001C2A9001207401F08043E4900120F07FC0
:1020FD0001121CF58037900001E0C39402402EE4DC
:10210D00FF121495E4FF121C2AE4FF121CF5900136
:10211D0020E09000057003F080037405F0E4900159
:10212D0020F090000A04F09000F674FFF0E49000A7
:10213D0001F09000D1E0B46414900120E07003FF31
:10214D00801A900120E064017021FF801B9000D166
:10215D00E0B4C817900120E070057F01021C2A90A1
:0C216D000120E0B401057F01121CF522E6
:100C3700EF7032900123F0900123E0FEC394184037
:100C470002A1D674162EF582E43400F5837403F0FE
:100C570074362EF582E43400F58374C0F0900123D6
:100C6700E004F080D2EF64017064900123F09001FA
:100C770023E0FEC39406502274162EF582E4340056
:100C8700F58374FFF074362EF582E43400F583742F
:100C9700FFF0900123E004F080D49001237406F064
:100CA700900123E0FEC394184002A1D674162EF5D6
:100CB70082E43400F5837403F074362EF582E4344D
:100CC70000F58374C0F0900123E004F080D2EF6454
:100CD700027064900123F0900123E0FEC3940C504E
:100CE7002274162EF582E43400F58374FFF074360F
:100CF7002EF582E43400F58374FFF0900123E004BD
:100D0700F080D4900123740CF0900123E0FEC3948B
:100D1700184002A1D674162EF582E43400F58374C8
:100D270003F074362EF582E43400F58374C0F09036
:100D37000123E004F080D2EF64037062900123F096
:100D4700900123E0FFC39412502274162FF582E41A
:100D57003400F58374FFF074362FF582E43400F520
:100D67008374FFF0900123E004F080D49001237492
:100D770012F0900123E0FFC39418505374162FF517
:100D870082E43400F5837403F074362FF582E4347B
:100D970000F58374C0F0900123E004F080D4E49060
:100DA7000123F0900123E0FFC39418502274162FFB
:100DB700F582E43400F58374FFF074362FF582E48E
:100DC7003400F58374FFF0900123E004F080D490A1
:100DD70000CE7401F09001317403F07B017A007941
:0E0DE70014A31213407B307D017F10022546BD
:1026D90090000AE064017032F09001317404F07BDB
:1026E90040E4FDFF12265F1228CA90000BE0B4FFF8
:1026F9000812056B90000BEFF090000BE0FF9000C3
:10270900F6F0120C37E49000D1F0900001E060027D
:10271900E4F09000D1E064C870287F01120572903E
:102729000122EFF0F4601BE0FF9000F6E06F600516
:10273900EFF0120C37900122E090000BF0E49000CA
:02274900F5F0A9
:01274B00226B
:102B3D00900005E024FC60131460131460131460FE
:102B4D001314601324077012021F44021E8602150F
:0B2B5D00E1021DC00220BD1226D9229B
:03003B00020006BA
:0400060075EC003263
:0300030002000AEE
:01000A0032C3
:0300130002000EDA
:01000E0032BF
:102A160043AC0153ADFEA2AF920075C7AA75C75568
:102A260075910143AC0175C7AA75C755E4F591A226
:102A36000092AF43E90453EAFE43EB0143E9034343
:052A46009B02D2AF224B
:102B910043B38053B47FA2AF920075C7AA75C755DE
:102BA10075910143B38075C7AA75C755E4F591A224
:082BB1000092AFD2AAD2AF22BC
:102CF000122A16122B9143870253E9FEC2A8C2AAD8
:042D0000539BFD22C2
:10100000539BFD122A4B121800120FB17B017A007C
:101010007902E4FDFC7F0A1222DCE4900120F090CA
:10102000000A04F0E490011EF0A3F09000CCF0A3BD
:10103000F09000FBF09000CEF09000F674FFF012FC
:1010400028CAA2B0E433FF12057290000BEFF03013
:1010500097FD12191A900002E0B4A508900005E06F
:101060006002215AE4900003F0A3F09000061213EE
:10107000060000000090000274A5F09000057401C5
:10108000F090000B74FFF09000F6F07D017F0712E6
:101090002A7F9001317403F07BFF7A037970A312E9
:1010A00013407B147D017F0C12254690013174039F
:1010B000F07BFF7A00795EA31213407B247D017FD1
:1010C000141225469001317403F07BFF7A047930C5
:1010D000A31213407B2C7D017F2412254690013101
:1010E0007403F07BFF7A0279D0A31213407B347D26
:1010F000017F2C122546E490011EF0A3F090005AC7
:10110000F0A304F0900058F0900057F0E4FDFCFFCD
:101110007E0212237F7D007C027F007E0212237FED
:101120001228CAA2B0E433FF12057290000BEFF050
:10113000C390011FE0949090011EE0940140F1E4FF
:1011400090011EF0A3F090000A04F09001317403A6
:10115000F07B347D017F0C12265F122B3DC3900182
:101160001FE094E890011EE0940350020152122CFB
:101170004E900005E0FF64066004EFB4070690009F
:10118000057405F07B017A007902E4FDFC7F0A1208
:101190001B47E4F5B1F5B2F5B3F5B4F5ACF5AD53D5
:1011A000E1FE43B31043B410C294122CF0E490015A
:0811B0001EF0A3F01228CA2270
:01000F0022CE
:102AE500A2AF9200C2AF75C7AA75C75543A401A28C
:102AF5000092AFE59F30E613A2AF9200C2AF75C753
:0C2B0500AA75C755539FBFA20092AF22D3
:0C237F0090013AECF0A3EDF0AB07AA06C9
:10238B00EB4A7002811DEBAE027807CEC313CE135E
:10239B00D8F9FF90013CEEF0A3EFF0EB547F600A0D
:1023AB0090013CE475F001121232A2AF9200C2AF61
:1023BB0075C7AA75C755439F01A20092AF75AEFFB3
:1023CB0075AF62A2AF9200C2AF75C7AA75C755436E
:1023DB00A502A20092AFE4FDFCD390013DE09D90DD
:1023EB00013CE09C402CED75F080A4FF90013AE09D
:1023FB00FAA3E0FB2FF5A6EDAE047807C333CE337B
:10240B00CED8F92BEA3EF5A7122AE50DBD00010C3B
:02241B0080C778
:01241D00229C
:0C24B30090013AEEF0A3EFF0A3121340EA
:1024BF00A2AF9200C2AF75C7AA75C755439F01A2BD
:1024CF000092AFA2AF9200C2AF75C7AA75C75543AE
:1024DF00A502A20092AFEDF5A6ECF5A775AF61E4EA
:1024EF00FFFED390013BE09F90013AE09E40219088
:1024FF00013C1213378F828E831211D1F5AE122A3F
:10250F00E505A6E5A6700205A70FBF00010E80D254
:10251F00A2AF9200C2AF75C7AA75C75553A5FDA24A
:10252F000092AFA2AF9200C2AF75C7AA75C755533D
:06253F009FFEA20092AF16
:012545002273
:0C274C0090013AEEF0A3EFF0A31213404E
:10275800A2AF9200C2AF75C7AA75C755439F01A221
:102768000092AFEDF5A6ECF5A775AF40E4FFFED3F8
:1027780090013BE09F90013AE09E4021122AE590AB
:10278800013C1213378F828E83E5AE12121005A614
:10279800E5A6700205A70FBF00010E80D2A2AF9276
:1027A80000C2AF75C7AA75C755539FFEA20092AF66
:0127B80022FE
:0F22DC00900122EFF0A3ECF0A3EDF0A31213405A
:1022EB00E4900128F0900128E0FDC39420503B902E
:1022FB000122E0FF7E00C007ED75F010A4FF9001F6
:10230B0024E02FFD900123E035F0FC900125121302
:10231B0037D00712274C9001251213371211B8B47E
:10232B00A508900128E004F080BB900128E0701311
:10233B00C3900123E09402503A740275F00012121C
:10234B0032809D900128E014F0900122E0FF7E0086
:10235B00C007900128E075F010A4FF900124E02F36
:10236B00FD900123E035F0FC900125121337D007C7
:03237B0012274CDA
:01237E00223C
:0F1B4700900122EFF0A3ECF0A3EDF0A3121340F6
:101B5600E4900138F0900138E0FDC39420503690AF
:101B66000122E0FF7E00C007ED75F010A4FF900192
:101B760024E02FFD900123E035F0FC7B017A01790A
:101B860028D00712274C900128E0B4A50890013808
:101B9600E004F080C0900138E0A3F0B42014900176
:101BA60023E0FCA3E0FD7F007E0212237FE4900188
:101BB60038F0900122E0FF7E00C007900138E07502
:101BC600F010A4FF900124E02FFD900123E035F0F2
:101BD600FC900125121337D0071224B3900139E087
:101BE600B420107D007C027F007E0212237FE490E9
:101BF6000139F0900122E0FF7E00C007900139E034
:101C060075F010A4FF900124E02FFF900123E0352A
:101C1600F0CF2400FDEF3402FC900125121337D0DB
:041C2600070224B3DA
:04265A0041014200F8
:082D150043B30243B402C29271
:072D1D00E4FFFEEF4E70FC25
:012D2400228C
:10003E0053B3FB43B40443B30443B404D29253B357
:0D004E00FD43B40243B30243B402D2912239
:102D0400D291D292122D1DC291122D1DC292022D6A
:012D14001DA1
:0A2D3C00C291D292122D1DD29122F5
:022BB900AD0766
:102BBB00E4FCED30E704D2918002C291ED25E0FDFB
:0F2BCB00D292122D1DC292122D1D0CECB408E3F4
:012BDA0022D8
:032BDB00122BB901
:102BDE0043B30253B4FDD292122D1D309109122D22
:0D2BEE003C122D157F0122122D157F0022B3
:102BFB00AC07AA05122D04AF04122BDBAF02122B6C
:0C2C0B00DBAF03122BB9122BDE022D3CB4
:0C2D2500C291C292122D1DD292022D1DEF
:102B1100E4FDFC43B30253B4FDC292122D1DD292C7
:102B2100122D1DEC25E0FC3091010C0DEDB408E9EE
:0B2B310043B30243B402122D25AF0491
:012B3C002276
:072D4600AE071FEE70FA2238
:062AB200C280C283D28045
:022AB800AD0768
:102ABA00C2837F02122D46E4FCED30E004D281800D
:102ACA0002C2817F01122D46D2837F01122D46C296
:0A2ADA0083EDC313FD0CECB408DF1C
:012AE40022CF
:10296F0053B1FD43B20243B10253B2FD7F02122DA8
:10297F0046E4FCEDC313FD3081034480FDD2837F19
:10298F0001122D46C2837F01122D460CECB408E3D1
:08299F0053B1FD43B202AF0584
:0129A700220D
:062CC600AA07E4FD7F8E69
:0F2CCC00AB05122AB2AF03122AB8D283C28022FC
:0A2D3100122AB212296FD283C28069
:012D3B002275
:10001600122CC67F81122D31EA6006EF4480FF80E4
:1000260004EF547FFFAD077F80122CCC7D807F8E3E
:03003600022CCCCD
:1028000053B1F743B20853B1FD43B20253B1FE4393
:10281000B201C283C281C2807FC1122D31EF64A890
:102820006049122CC8E4FD7F80122CCC7D207F8271
:10283000122CCC7D077F84122CCC7D257F86122C18
:10284000CC7D127F88122CCC7D107F8A122CCC7DFF
:10285000067F8C122CCCE4FD7F90122CCC7DA87FBF
:0C286000C0122CCC7D807F8E122CCC226C
:042CDB001211D1FF02
:102CDF00EF54F0C4540F75F00AA4FEEF540F2EFFFB
:012CEF0022C2
:042C17001211D1FFC6
:102C1B00E4FEEFC3940A400A74102EFE74F62FFFE5
:072C2B0080F0EE4FFEAF0642
:012C3200227F
:102179007F81122D31EF1211FE7F83122D319000D4
:1021890001EF1212107F85122D31900002EF121209
:10219900107F87122D31900003EF1212107F8912E0
:1021A9002D31900004EF1212107F8B122D31900007
:1021B90005EF1212107F8D122D31E42FFFE4342028
:1021C9009000068FF01212961211B8FF122CDFEF51
:1021D9001211FE900001122CDB900001EF12121077
:1021E900900002122CDB900002EF121210900003F3
:1021F900122CDB900003EF121210900004122CDB5A
:10220900900004EF121210900005122CDB900005CB
:10221900EF12121090000612125EFF122CDF9000CE
:0722290006E48FF00212969B
:06241E0090013F12134083
:10242400122CC87DFF7FC0122CCC90013F121337B1
:102434001211B8FF122C1BAD077F80122CCC900117
:102444003F121337900001122C17AD077F82122C14
:10245400CC90013F121337900002122C17AD077F66
:1024640084122CCC90013F121337900003122C17C6
:10247400AD077F86122CCC90013F121337900004D5
:10248400122C17AD077F88122CCC90013F12133702
:1024940090000612125EFF122C1BAD077F8C122CCB
:0F24A400CC7DA87FC0122CCC7D807F8E022CCCEB
:1017EA00122CC6AF02122C1BAD077F84122CCC7DA3
:0617FA00807F8E022CCC62
:102C9A00122CC6AF02122C1BAD077F82122CCC7DE0
:062CAA00807F8E022CCC9D
:102CB000122CC6AF02122C1BAD077F80122CCC7DCC
:062CC000807F8E022CCC87
:03000000022230A9
:1022300075C7AA75C75575FD5A75C7AA75C755756F
:10224000FDA5787FE4F6D8FD9000007FFF7E03E4D3
:0C225000F0A3DFFCDEFA7581200222976B
:10225C00022C82E493A3F8E493A34003F68001F2EA
:10226C0008DFF48029E493A3F85407240CC8C33383
:10227C00C4540F4420C8834004F456800146F6DF52
:10228C00E4800B01020408102040809025D7E47EE6
:10229C00019360BCA3FF543F30E509541FFEE49347
:1022AC00A360010ECF54C025E060A840B8E493A30E
:1022BC00FAE493A3F8E493A3C8C582C8CAC583CA39
:1022CC00F0A3C8C582C8CAC583CADFE9DEE780BEF1
:01265E00007B
:1011B800BB010689828A83E0225002E722BBFE0235
:0911C800E32289828A83E4932268
:1011D100BB010CE58229F582E5833AF583E02250D3
:1011E10006E92582F8E622BBFE06E92582F8E2221D
:0D11F100E58229F582E5833AF583E4932237
:1011FE00BB010689828A83F0225002F722BBFE01D0
:02120E00F322C9
:10121000F8BB010DE58229F582E5833AF583E8F014
:10122000225006E92582C8F622BBFE05E92582C8C0
:02123000F222A8
:10123200C5F0F8A3E028F0C5F0F8E5821582700247
:061242001583E038F022E4
:10124800A3F8E0C5F025F0F0E58215827002158359
:06125800E0C838F0E822B6
:10125E00BB0110E58229F582E5833AF583E0F5F0CE
:10126E00A3E0225009E92582F886F008E622BBFEAB
:10127E000AE92582F8E2F5F008E222E5832AF583F1
:08128E00E993F5F0A3E99322B6
:10129600F8BB0111E58229F582E5833AF583E8F08A
:1012A600E5F0A3F0225009E92582C8F608A6F02247
:0D12B600BBFE09E92582C8F2E5F008F2222E
:0E12C300C3EF9BFFEE9AFEED99FDEC98FC2226
:1012D100EB9FF5F0EA9E42F0E99D42F0E89C45F073
:0112E10022EA
:0C12E200E0FCA3E0FDA3E0FEA3E0FF227F
:0C12EE00E0F8A3E0F9A3E0FAA3E0FB2283
:0C12FA00ECF0A3EDF0A3EEF0A3EFF02267
:10130600A8828583F0D083D08212131D12131D127A
:10131600131D12131DE473E493A3C583C5F0C5839F
:10132600C8C582C8F0A3C583C5F0C583C8C582C831
:011336002294
:09133700E0FBA3E0FAA3E0F922B7
:09134000EBF0A3EAF0A3E9F022AE
:00000001FF
