:03000B00021E8949
:101E8900C0E0C0D0758CE5758AF5752C010533E580
:101E990033D394C84003753300055BE55B700205D5
:101EA9005A0500E500700205000500E5007002050D
:081EB90000052DD0D0D0E0326D
:102108007589FF5389F0438901538EF7758CE575FE
:092118008AF5D2A9D2AFD28C22C3
:03005B00021B94F1
:0F1B9400C0E0C0D075D000C000C005C006C007BB
:101BA300AD55C2EFAFC3ED25E02434F8760008A6A7
:101BB30007ED25E02434F8C000E6FE08E6C4F85437
:101BC3000FC868FFEEC454F048D000F608A607AF6C
:101BD30005EF25E02434F8C000E6FE08E6FFE5C281
:101BE300540FFDEF4DD000A60608F60555E555C385
:061BF30094104002C2AE96
:0D1BF900D007D006D005D000D0D0D0E0320B
:101D6E00E4F5557F207834E4F608DFFC43DE0453B7
:101D7E00E8F043E80343B14053B2BFE4F5F643F64F
:101D8E000843E10153E8DF43E81053E1F753E1FB69
:101D9E0043E10275D10F75D9FF75D40775DCFFD2FB
:101DAE00DED2DFD2AED2AFE555C3941040F9D2AE3B
:011DBE002202
:10212100E4F5B1F5B2F5B3F5B4F5ACF5AD122108AE
:08213100121D6E120CCC80FBA4
:10005E00000808080808080808080808080800002A
:10006E0040404141414141414141414141404000B7
:10007E000000F010101010FF10101010F000000013
:10008E0000000F04040404FF040404040F00000025
:10009E0008080838C808090E0808C83808080800F3
:1000AE008080404020110A040A11204040808000C8
:1000BE0090523410FF10345280708F0808F80800E8
:1000CE00829A566322528E008040330C3340800059
:1000DE00100C042424242526A464240404140C00E7
:1000EE00020202020242827F0202020202020200A7
:1000FE0002E282F212D752D25217FA12169A120056
:10010E00128E621F003F253DA74027182641F000A2
:10011E0000FC0000FF0004848484848484FC0000BE
:10012E00008740300F00202020202020207F00005C
:10013E00100C05555555857F8555555505140C00E4
:10014E000404020A09292A4C48A9190202040400CF
:10015E00101014D4545454FC525252D31210100096
:10016E00404050575555557F5555555750404000B6
:10017E00001715D55557557D555755D515170000F0
:10018E004040407F555555555555557F4040400090
:10019E000000007F494949494949497F0000000054
:1001AE008141211D214181FF8989898989818100B0
:1001BE0000028282422212FA06222242428200006B
:1001CE00010100FC44444445444444FC0000010049
:1001DE007E8181817E000082FF800000C6A1918910
:1001EE0086004281898976003028A6FFA0005F89AB
:1001FE00898971007C92898972000001F10D0300DA
:10020E007689898976004E9191493E0000C0300C66
:10021E00030000F804020204F800000304080804B6
:10022E00030000000404FE000000000008080F0890
:10023E000800001C020282423C00000C0A09080859
:10024E000C00000C024242A21C000006080808081E
:10025E000700008060100CFE000000010109090F6C
:10026E000909007E222222428200000608080804A4
:10027E00030000F844222224C000000304080808EA
:10028E00070000060282621A06000000000F00003E
:10029E000000001CA24242A21C0000070808080829
:1002AE000700007C82828244F800000004080804E3
:1002BE000300000000C0300E01000018060100000F
:1002CE0000000000C038E0000000203C230202279E
:1002DE00382008F8888888700000203F20202011E0
:1002EE000E00C0300808080838000718202020101B
:1002FE00080008F808080810E000203F2020201011
:10030E000F0008F88888E8081000203F20202320DE
:10031E00180008F88888E8081000203F2000030025
:10032E000000C03008080838000007182020221EE0
:10033E00020008F808000008F808203F21010121FA
:10034E003F20000808F8080800000020203F202069
:10035E00000000000808F8080800C08080807F00B8
:10036E00000008F888C028180800203F2001263811
:10037E00200008F8080000000000203F2020202068
:10038E00300008F8F800F8F80800203F013E013F61
:10039E00200008F830C00008F808203F2000071899
:1003AE003F00E01008080810E0000F102020201079
:1003BE000F0008F808080808F000203F210101018D
:1003CE000000E01008080810E0000F102828305038
:1003DE004F0008F8888888887000203F2000030CA2
:1003EE0030200070880808083800003820212122AB
:1003FE001C00180808F8080818000000203F20000C
:10040E00000008F808000008F808001F202020202F
:10041E001F000878880000C83808000007380E0151
:10042E00000008F800F800F8080000033E013E0343
:10043E000000081868808068180820302C03032CF0
:10044E0030200838C800C83808000000203F2000BF
:10045E00000010080808C83808002038262120207F
:10046E0018000000C0201018183060C000000000F6
:10047E00030306060606020100000000381C0203F4
:10048E0083FF3F01000000008040201C0F0300008E
:10049E00000020181C068787C63C1E0100000000C5
:1004AE000201010103070E18608010080E06422398
:1004BE0023B2EF0000000000000004020303061C3C
:1004CE00780040E0980C1E387060E0C0808000001C
:1004DE00010302060C0C08181010007CFEC06030E0
:1004EE00FCFE0301000000000000000000030F3CB2
:1004FE00408000F0FC0E020000000080C0400003AF
:10050E000F3040848CFE730100000000000080C09C
:10051E00C080061F1CF000080FC360203F2710107C
:10052E000C0300202030303078EEC3800000000035
:10053E00000000000000010738C0000000E0700C51
:10054E000672DE8C000000003FCF000000000001AC
:10055E00010000303000000C0C00002400FFFF03EF
:10056E00030303030303030303030303030303034D
:10057E0003030303030303FFFFF8F80000FFFFC0AC
:10058E00C0C0C0C0C0C0C0C0C0C0C0C0C0C0C0C05D
:10059E00C0C0C0C0C0C0C0FFFF1F1F0000FFFFFFD4
:1005AE00FFFFFFFFFF030303030303030303030321
:1005BE0003030303030303FFFFF8F80000FFFFFF2D
:1005CE00FFFFFFFFFFC0C0C0C0C0C0C0C0C0C0C0E2
:1005DE00C0C0C0C0C0C0C0FFFF1F1F0000FFFFFF94
:1005EE00FFFFFFFFFFFFFFFFFFFFFF0303030303F9
:1005FE0003030303030303FFFFF8F80000FFFFFFED
:10060E00FFFFFFFFFFFFFFFFFFFFFFC0C0C0C0C027
:10061E00C0C0C0C0C0C0C0FFFF1F1F0000FFFFFF53
:10062E00FFFFFFFFFFFFFFFFFFFFFFFFFFFFFFFFCC
:10063E00FF030303030303FFFFF8F80000FFFFFFB0
:10064E00FFFFFFFFFFFFFFFFFFFFFFFFFFFFFFFFAC
:10065E00FFC0C0C0C0C0C0FFFF1F1F0000FFFFFFD4
:10066E00FFFFFFFFFFFFFFFFFFFFFFFFFFFFFFFF8C
:10067E00FFFFFFFFFFFFFFFFFFF8F80000FFFFFF88
:10068E00FFFFFFFFFFFFFFFFFFFFFFFFFFFFFFFF6C
:10069E00FFFFFFFFFFFFFFFFFF1F1F00000000F81F
:1006AE00F81818181818181818F8F0E00000000FAD
:1006BE000F0C0C0C0C0C0C0C0C0F0703000000F8AC
:1006CE00F8F8F8181818181818F8F0E00000000FCD
:1006DE000F0F0F0C0C0C0C0C0C0F0703000000F886
:1006EE00F8F8F8F8F818181818F8F0E00000000FED
:1006FE000F0F0F0F0F0C0C0C0C0F0703000000F860
:10070E00F8F8F8F8F8F8F81818F8F0E00000000F0C
:10071E000F0F0F0F0F0F0F0C0C0F0703000000F839
:10072E00F8F8F8F8F8F8F8F8F8F8F0E00000000F2C
:0D073E000F0F0F0F0F0F0F0F0F0F0703000E
:10111F0053B3EF43B410C294E4F55AF55BC3E55BE8
:10112F009402E55A940040F5D29412003EE4F55A29
:10113F00F55BC3E55B9402E55A940040F57BAEE4A2
:10114F00FD7F781220B6E4FBFD7F781220B67B126C
:10115F00E4FD7F781220B6E4FBFD7F781220B67B8A
:10116F00B0E4FD7F781220B67B81E4FD7F781220FA
:10117F00B67BFFE4FD7F781220B67BA1E4FD7F787C
:10118F001220B67BA6E4FD7F781220B67BA8E4FD83
:10119F007F781220B67B1FE4FD7F781220B67BC8C4
:1011AF00E4FD7F781220B67BD3E4FD7F781220B662
:1011BF00E4FBFD7F781220B67BD5E4FD7F7812200B
:1011CF00B67B80E4FD7F781220B67BD9E4FD7F7873
:1011DF001220B67B1FE4FD7F781220B67BDAE4FD88
:1011EF007F781220B67B12E4FD7F781220B67BDB6E
:1011FF00E4FD7F781220B67B40E4FD7F781220B6A5
:10120F007B8DE4FD7F781220B67B14E4FD7F78128E
:0E121F0020B67BAFE4FD7F781220B67F002260
:101F5500EF2420F574ED24B0FBE4FD7F781220B664
:101F6500E57454F0C4540F4410FBE4FD7F7812204F
:0D1F7500B6E574540FFBE4FD7F780220B642
:1020D2007B8DE4FD7F781220B67B14E4FD7F7812BD
:0B20E20020B67BAFE4FD7F780220B643
:1020ED007B8DE4FD7F781220B67B10E4FD7F7812A6
:0B20FD0020B67BAEE4FD7F780220B629
:101E0F00E4F55DE55D24B0FBE4FD7F781220B6E4D8
:101E1F00FBFD7F781220B67B12E4FD7F781220B68F
:101E2F00755E20E4FB7D407F781220B6055EE55E8F
:0E1E3F00C3946040EE055DE55DC3940440C5AC
:011E4D002272
:041DBF008F698B6B32
:101DC300E4F56DF56EE56C5407700BE56C131313B6
:101DD300541FF570800AE56C131313541F04F57038
:101DE3008D70E570C3956C5022AD70AF69121F55AD
:101DF30085696FE56FC3956B500DE4FB7D407F787C
:0B1E03001220B6056F80EC057080D740
:011E0E0022B1
:041796008F698B6B61
:10179A00E4F570F571E56C5407700BE56C131313DF
:1017AA00541FF573800AE56C131313541F04F57361
:1017BA008D73E573C3956C5039AD73AF69121F55BC
:1017CA00856972E572C3956B5024AB6DAA6EA96FD9
:1017DA000571E571AE707002057014F5828E831280
:1017EA001B34FB7D407F781220B6057280D50573C5
:0217FA0080C0AD
:0117FC0022CA
:101FD900454E474C495348004E4F524D414C0054D1
:101FE90049424554414E0052535400434E540059FE
:0A1FF9004553004E4F0044455600CA
:10214D00015C000156FFC101013200012D0002307A
:02215D00000080
:10001600E4F559755801F554F52FF52143B380538E
:10002600B47F43AC0153ADFE43B11053B2EFF55765
:03003600C20022E3
:1015D000E52C7002C171E4F52CA29733F5596558DA
:1015E000603C855958E52F700CE554D3940A4005AA
:1015F0007521018022E52FC39405400575210480E3
:1016000016E52FC394034005752103800AE52FC317
:1016100094024003752102E4F554F52F8013E55937
:1016200070130554E554D394C84005E4F554052FD0
:10163000E4F55AF55B20B01AE4F557300033C200E8
:10164000852E25752A01756C037B307D017F100284
:101650001DBFE4F55AF55B0557E557D3940A4011D1
:1016600075570A20000BD20085252E752506752A90
:02167000012255
:101E4E00EF64017029756C02756DFF756E00756F0C
:101E5E007E7B20FD7F10121796756C02756DFF75D7
:101E6E006E00756F9E7B30E4FD7F20021796756CB9
:0B1E7E00027B30E4FD7F10121DBF222C
:101AA000755DFF755E1F755FD9EF64017060F5604D
:101AB000E56075F008A4FE2404FFC007EE240CFBCB
:101AC000C003756C04AB5DAA5EA95FAF60EF339590
:101AD000E08F82F583121B34FF3395E0FEEFC4F8EC
:101AE000540FC868FFEEC454F048FE74C02FF97458
:101AF000FE3E756DFFF56E896FD003D0077D021233
:101B000017960560C3E5606480948740A322756CD6
:0A1B1000047B3C7D027F04121DBF20
:011B1A0022A8
:10199C00E52AB4011FE4F52A756C037B347D017FC5
:1019AC000C121DBF7F01121E4E7F01121AA085233F
:1019BC005C7533C8E521603DB40119E55C7F0170AD
:1019CC0008121E4E755C018006121AA0E4F55C85A7
:1019DC005C23801EE521C394024017855C2375258A
:1019EC0002E4F55CF533752A01FF121AA0E4FF122C
:1019FC001E4EE4F521E533B4640BE5237003FF8040
:101A0C000FE4FF800EE533B4C80CE5237F017003AF
:071A1C00021E4E121AA02267
:101CC400E4757064F56FF56EF56DAF66AE65AD6481
:021CD400AC63FF
:081CD6008F6C8E6B8D6A8C6926
:101CDE00900000AF70AE6FAD6EAC6DAB6CAA6BA921
:101CEE006AA869C3121B83401EA3E56C9570FFE5BD
:101CFE006B956FFEE56A956EFDE569956D8F6C8E41
:0B1D0E006B8D6AF56980CCAE83AF825C
:011D190022A7
:101D1A008F62E4757064F56FF56EF56DAF66AE654A
:041D2A00AD64AC6395
:101D2E008F6C8E6B8D6A8C69AF70AE6FAD6EAC6D55
:101D3E00AB6CAA6BA96AA869C3121B83401DE56C24
:101D4E009570FFE56B956FFEE56A956EFDE56995FD
:101D5E006D8F6C8E6B8D6AF56980CDAE6BAF6C221C
:021315008F5DEA
:10131700755EFF755F1F7560E1E52364017071E518
:101327005D64017060F561E56175F008A4FE24084D
:10133700FFC007EE2410FBC003756C02AB5EAA5F0B
:10134700A960AF61EF3395E08F82F583121B34FFFD
:101357003395E0FEEFC4F8540FC868FFEEC454F0AD
:1013670048FE74C02FF974FE3E756DFFF56E896FE8
:10137700D003D007E4FD1217960561C3E5616480C9
:10138700948640A322756C027B38E4FD7F08803881
:10139700E55D64017029756C02756DFF756E0075EA
:1013A7006FBE7B20FD7F10121796756C02756DFF5F
:1013B700756E00756FDE7B30E4FD7F200217967532
:0B13C7006C027B30E4FD7F10121DBFA4
:0113D20022F8
:02122D008F5DD3
:10122F00755EFF755F1F7560E8E52364017071E5FA
:10123F005D64017060F561E56175F008A4FE24043A
:10124F00FFC007EE240CFBC003756C04AB5EAA5FF6
:10125F00A960AF61EF3395E08F82F583121B34FFE6
:10126F003395E0FEEFC4F8540FC868FFEEC454F096
:10127F0048FE74C02FF974FE3E756DFFF56E896FD1
:10128F00D003D0077D021217960561C3E561648014
:10129F00948740A322756C047B3C7D027F0480629F
:1012AF00E55D64017053756C04756DFF756E0075A7
:1012BF006FFE7B107D02FF121796756C04756DFF24
:1012CF00756E00756F9E7B207D027F1012179675CD
:1012DF006C04756DFF756E00756FBE7B307D027F80
:1012EF0020121796756C04756DFF756E00756FDEA5
:1012FF007B407D027F30021796756C047B407D0228
:05130F00E4FF121DBF08
:0113140022B6
:10188C00E52AB40113E4F52A7F011213157F011226
:10189C00122D85245C7533C8E521603EB4011AE530
:1018AC005C7F01B4010812122DE4F55C8006121362
:1018BC0015755C01855C24801EE521C394024017DC
:1018CC00752503855C24E4F55CF533752A01FF125C
:1018DC001315E4FF12122DE4F521E533B46410E581
:1018EC005CB40104E4FF8013E55C701BFF8015E51C
:1018FC0033B4C813E55CB401057F0102122DE55C1D
:08190C0070057F011213152282
:080800008F608E5F8D5E8C5D40
:10080800E4F567F568E561700B756C047B407D0263
:10081800FF021DBF856066855F65855E64855D63D3
:10082800E5246002219375680C757010756F2712A6
:100838001CCA8F62E4757010756F27121D22E48F31
:10084800668E65F564F563E562602875F010A4248A
:1008580020F9740235F0756DFFF56E896FE568242F
:1008680008FB756C047D02AF6812179675670174F2
:1008780008800274042568F568E47570E8756F03EC
:10088800121CCA8F62E47570E8756F03121D22E4AA
:100898008F668E65F564F563E56764016004E5625B
:1008A800602A756701E56275F010A42420F97402C6
:1008B80035F0756DFFF56E896FE5682408FB756C7A
:1008C800047D02AF681217967408800274042568C4
:1008D800F568121CC4121D1AE48F668E65F564F55E
:1008E80063E56764016004E562602A756701E56293
:1008F80075F010A42420F9740235F0756DFFF56EBB
:10090800896FE5682408FB756C047D02AF681217CF
:10091800967408800274042568F568E475700A12F4
:100928001CC88F62E475700A121D20E48F668E65FC
:10093800F564F563E56764016004E562602A75673C
:1009480001E56275F010A42420F9740235F0756D84
:10095800FFF56E896FE5682408FB756C047D02AFAE
:10096800681217967408800274042568F56885660D
:1009780062E56275F010A42420F9740235F0756DF3
:10098800FFF56E896FE568240841F7756802E4751C
:100998007010756F27121CCA8F62E4757010756F1E
:1009A80027121D22E48F668E65F564F563E56260A3
:1009B8002875F018A42470F9740435F0756DFFF5E6
:1009C8006E896FE568240CFB756C047D02AF6812B4
:1009D8001796756701740C800274062568F568E43B
:1009E8007570E8756F03121CCA8F62E47570E8753C
:1009F8006F03121D22E48F668E65F564F563E56763
:100A080064016004E562602AE56275F018A4247048
:100A1800F9740435F0756DFFF56E896FE568240C7F
:100A2800FB756C047D02AF68121796756701740C2C
:100A3800800274062568F568121CC4121D1AE48F1A
:100A4800668E65F564F563E56764016004E56260D8
:100A58002AE56275F018A42470F9740435F0756DF0
:100A6800FFF56E896FE568240CFB756C047D02AF99
:100A780068121796756701740C800274062568F56C
:100A880068E475700A121CC88F62E475700A121D3A
:100A980020E48F668E65F564F563E567640160049C
:100AA800E562602AE56275F018A42470F9740435CB
:100AB800F0756DFFF56E896FE568240CFB756C04A5
:100AC8007D02AF68121796756701740C8002740670
:100AD8002568F568856662E56275F018A42470F9E2
:100AE800740435F0756DFFF56E896FE568240CFBAD
:0A0AF800756C047D02AF68121796BA
:010B020022D0
:020B03008F5E03
:100B0500E4FFFE79FFE555C39410500281C9C2AEDA
:100B1500E4F555FDED04FCECC394105036EC25E0EE
:100B25002434F8E6FE08E6FFED25E02434F8E6FA7D
:100B350008E6FBD3EF9BEE9A4016EC25E02434F84B
:100B4500A60208A603ED25E02434F8A60608A607A4
:100B55000C80C40DBD10BDE4FEFF7D04ED25E02431
:100B650034F8E6FA08E62FFFEA3EFE0DBD0CEDEF80
:100B75007803CEC313CE13D8F9FFE55EB40108742C
:100B8500E02FFF74FF3EFEE531453070028070E5D1
:100B9500312405FDE43530FCD3EF9DEE9C400B057B
:100BA50031E531700205307FFF22EF2405FDE43E7B
:100BB500FCC3ED9531EC9530500BE53115317002E4
:100BC50015307FFF22EF2414FDE43EFCC3ED953183
:100BD500EC953050048C308D31E5312FFFE5303EFA
:100BE500C313FEEF13FFE55EB4010BD3EF9531EEB2
:100BF5009530400F8009D3E5319FE5309E40048E46
:100C0500308F31200140D3E5319480E5309409409F
:100C150004790481C6D3E5319420E5309409400474
:100C2500790381C6D3E53194C0E530940840047951
:100C35000281C6D3E5319460E5309408400479011A
:100C4500807FE4F9807BC3E5319458E53094085002
:100C550004E4F98058D3E5319468E5309408400EF2
:100C6500E53194B8E530940850047901803FD3E527
:100C75003194C8E5309408400EE5319418E5309478
:100C850009500479028026D3E5319428E53094098A
:100C9500400EE5319478E530940950047903800DD0
:100CA500D3E5319488E530940940027904E9655625
:100CB500600F0532E532C394055004A956800580BE
:060CC50000E4F532AF016E
:010CCB002206
:101F2600EFD3940440027F04EF75F020A424ABF9AC
:101F3600740635F0755EFFF55F8960D201756C0237
:0F1F4600855E6DF56E896F7B10E4FDFF021796C7
:10205400E4FF120B038F5DE55DF46014E556655DE6
:102064006008855D56AF56121F26855D2BE4F55535
:012074002249
:100F3700E52A64017023F52AF533C201AF29AE28EB
:100F4700AD27AC26756101120800C201E4FF120B40
:100F5700038F2B852B56121F26122054E521700272
:100F6700E1FF6401704CE5292401FFE43528FEE424
:100F77003527FDE435268F298E288D27F5267F9F77
:100F87007E867D017C00AB29AA28A927F8D3121BEE
:100F9700834012E4F529F528F527F526F561FFFECC
:100FA700FDFC120800AF29AE28AD27AC26756101FC
:100FB7008040E521B4031C752504752A01E4F55C1E
:100FC700756C027B40FDFF121DBFE4F561FFFEFD5E
:100FD700FC801FE521B4041D752505752A01E4F57C
:100FE7005C756C027B40FDFF121DBFE4F561FFFEDF
:090FF700FDFC120800E4F52122C2
:020E18008F5DEC
:100E1A00755FFF75601F7561F07562FF75631F75F9
:100E2A0064F4E52364016002C1FBE55D64016002CC
:100E3A00C1F0F55EE55E75F008A4FE2406FFC00762
:100E4A00EE240EFBC003756C02AB5FAA60A961AF0A
:100E5A005EEF3395E08F82F583121B34FF3395E002
:100E6A00FEEFC4F8540FC868FFEEC454F048FE748D
:100E7A00C02FF974FE3E756DFFF56E896FD003D0F1
:100E8A0007E4FD121796E55E75F008A4FE2420FF1C
:100E9A00C007EE2428FBC003756C02AB62AA63A9E3
:100EAA0064AF5EEF3395E08F82F583121B34FF3314
:100EBA0095E0FEEFC4F8540FC868FFEEC454F0483A
:100ECA00FE74C02FF974FE3E756DFFF56E896FD002
:100EDA0003D007E4FD121796055EC3E55E648094AD
:100EEA00835002C13E22756C027B38E4FD7F068086
:100EFA0038E55D64017029756C02756DFF756E01C8
:100F0A00756F1E7B20FD7F10121796756C02756D2A
:100F1A00FF756E01756F3E7B30E4FD7F20021796E8
:0C0F2A00756C027B30E4FD7F10121DBFCF
:010F36002298
:02147E008F5D80
:10148000755FFF75601F7561F8E52364017071E594
:101490005D64017060F55EE55E75F008A4FE240AE7
:1014A000FFC007EE2412FBC003756C04AB5FAA609B
:1014B000A961AF5EEF3395E08F82F583121B34FF95
:1014C0003395E0FEEFC4F8540FC868FFEEC454F043
:1014D00048FE74C02FF974FE3E756DFFF56E896F7E
:1014E000D003D0077D02121796055EC3E55E6480C7
:1014F000948340A322756C047B227D027F0A8023A3
:10150000E55DB40115756C04756DFF756E01756F41
:101510009E7B1C7D027F0C021796756C047B1C7DE4
:06152000027F0C121DBF4A
:0115260022A2
:021527008F5DD6
:10152900755FFF75601F7561FCE52364017071E5E6
:101539005D64017060F55EE55E75F008A4FE242621
:10154900FFC007EE242EFBC003756C04AB5FAA60D5
:10155900A961AF5EEF3395E08F82F583121B34FFEB
:101569003395E0FEEFC4F8540FC868FFEEC454F099
:1015790048FE74C02FF974FE3E756DFFF56E896FD4
:10158900D003D0077D02121796055EC3E55E64801D
:10159900948240A322756C047B367D027F268023CA
:1015A900E55DB40115756C04756DFF756E01756F98
:1015B900BE7B347D027F24021796756C047B347DD3
:0615C900027F24121DBF89
:0115CF0022F9
:10167200E52AB40115E4F52A7F01120E187F011242
:10168200147E7F011215277533C8E5216047B40126
:1016920015E55C700A7F0112147E755C018033E4EB
:1016A200F55C7F018029E521C394024025E55C7049
:1016B20008F529F528F527F526752503E4F55CF5E7
:1016C20033752A01FF120E18E4FF12147EE4FF1292
:1016D2001527E4F521E533B46410E55C7003FF805F
:1016E20014E55C6401701BFF8015E533B4C813E593
:1016F2005C70057F0102147EE55CB401057F011276
:0317020015272286
:021000008F5D02
:10100200755FFF75601F7561F07562FF75631F750F
:1010120064FFE5236401600201E3E55D64016002AF
:1010220001D8F55EE55E75F008A4FE2406FFC00750
:10103200EE240EFBC003756C02AB5FAA60A961AF20
:101042005EEF3395E08F82F583121B34FF3395E018
:10105200FEEFC4F8540FC868FFEEC454F048FE74A3
:10106200C02FF974FE3E756DFFF56E896FD003D007
:1010720007E4FD121796E55E75F008A4FE2420FF32
:10108200C007EE2428FBC003756C02AB62AA63A9F9
:1010920064AF5EEF3395E08F82F583121B34FF332A
:1010A20095E0FEEFC4F8540FC868FFEEC454F04850
:1010B200FE74C02FF974FE3E756DFFF56E896FD018
:1010C20003D007E4FD121796055EC3E55E648094C3
:1010D200835002012622756C027B38E4FD7F068074
:1010E20038E55D64017029756C02756DFF756E01DE
:1010F200756F5E7B20FD7F10121796756C02756D01
:10110200FF756E01756F7E7B30E4FD7F20021796BE
:0C111200756C027B30E4FD7F10121DBFE5
:01111E0022AE
:10170500E52AB40115E4F52A7F011210007F0112C4
:10171500147E7F011215277533C8E5216045B40194
:1017250018E55C700A7F0112147E755C018031E456
:10173500F55C7F011215278027E521C3940240201F
:10174500E4FF121000E4FF12147EE4FF121527E5F2
:101755005C7004F5258003752503E4F55C752A01A5
:10176500E4F521E533B46410E55C7003FF8014E50E
:101775005C6401701BFF8015E533B4C813E55C702C
:10178500057F0102147EE55CB401057F0112152772
:011795002231
:101EF600EFD3940440027F04EF75F040A4246BF9FD
:101F0600740535F0755EFFF55F8960D201756C0367
:101F1600855E6DF56E896F7B307D017F10021796A9
:101C6C00E52A64017025F52A756C047B40FDFF1292
:101C7C001DBFE52BB4FF09C2017F01120B038F2B93
:101C8C00852B56AF2B121EF6E4F533E5216003E4E9
:101C9C00F521E533B4C8207F01120B038F5DE55DA0
:101CAC00F46014E556655D6008855D56AF56121EEE
:071CBC00F6855D2BE4F555F0
:011CC30022FE
:10200300E52524FE60131460131460131460131485
:1020130060132405701202199C02188C020F3702F8
:092023001672021705121C6C2252
:03003B00020006BA
:0400060075EC003263
:0300030002000AEE
:01000A0032C3
:0300130002000EDA
:01000E0032BF
:101EC10043AC0153ADFEA2AF920275C7AA75C755C7
:101ED10075910143AC0175C7AA75C755E4F591A287
:101EE1000292AF43E90453EAFE43EB0143E90343A2
:051EF1009B02D2AF22AC
:10202C0043B38053B47FA2AF920275C7AA75C7554C
:10203C0075910143B38075C7AA75C755E4F591A294
:08204C000292AFD2AAD2AF222A
:10213900121EC112202C43870253E9FEC2A8C2AA6B
:04214900539BFD2285
:100CCC00539BFD12111F121E0F1200167B007A008F
:100CDC007922E4FDFC7F0A121A23E4F55C752A01E3
:100CEC00F55AF55BC2017556FFF530F531121D6EE4
:100CFC003097FD1215D0E522B4A506E5256002A1BA
:100D0C00B2E4F523F524F529F528F527F526752207
:100D1C00A57525017D017F07121F55756C03756D37
:100D2C00FF756E03756F707B147D017F0C12179627
:100D3C00756C03756DFF756E00756F5E7B247D01A0
:100D4C007F14121796756C03756DFF756E04756FB5
:100D5C00307B2C7D017F24121796756C03756DFF0B
:100D6C00756E02756FD07B347D017F2C121796E463
:100D7C00F55AF55BFDFCFF7E021219147D007C0216
:100D8C007F007E02121914C3E55B9490E55A94011E
:100D9C0040F5E4F55AF55B752A01756C037B347DDF
:100DAC00017F0C121DBF122003E52DC394C840080F
:100DBC0020AE02D2AEE4F52DC3E55B94E8E55A947F
:100DCC0003500281FF1220EDE52564046005E52542
:100DDC00B405037525037B007A007922E4FDFC7FC2
:100DEC000A1213D3E4F5B1F5B2F5B3F5B4F5ACF5DD
:100DFC00AD53E1FEC28C43B31043B410C294122124
:0C0E0C0039E4F55AF55BD28C121D6E2201
:101F8200A2AF9202C2AF75C7AA75C75543A401A2F8
:101F92000292AFE59F30E613A2AF9202C2AF75C7BD
:0C1FA200AA75C755539FBFA20292AF2240
:081914008C758D76AB07AA0665
:10191C00EB4A607BEBAE027807CEC313CE13D8F93B
:10192C00F5788E77EB547F60080578E578700205C2
:10193C0077A2AF9202C2AF75C7AA75C755439F0174
:10194C00A20292AF75AEFF75AF62A2AF9202C2AFA8
:10195C0075C7AA75C75543A502A20292AFE4FDFC58
:10196C00C3ED9578EC95775026ED75F080A425762F
:10197C00F5A6EDAE047807C333CE33CED8F9257671
:0F198C00E5753EF5A7121F820DBD00010C80D13D
:01199B002229
:0A1800008E758F768B778A788979D0
:10180A00A2AF9202C2AF75C7AA75C755439F01A27C
:10181A000292AFA2AF9202C2AF75C7AA75C755436B
:10182A00A502A20292AFEDF5A68CA775AF61E4FFFF
:10183A00FEC3EF9576EE95755021AB77AA78A97914
:10184A008F828E83121B34F5AE121F8205A6E5A67F
:10185A00700205A70FBF00010E80D6A2AF9202C286
:10186A00AF75C7AA75C75553A5FDA20292AFA2AF1D
:10187A009202C2AF75C7AA75C755539FFEA20292BC
:01188A00AFAE
:01188B00223A
:0A1C06008E758F768B778A788979C6
:101C1000A2AF9202C2AF75C7AA75C755439F01A272
:101C20000292AFEDF5A68CA775AF40E4FFFEC3EFBF
:101C30009576EE95755021121F82AB77AA78A97917
:101C40008F828E83E5AE121B6105A6E5A6700205A4
:101C5000A70FBF00010E80D6A2AF9202C2AF75C718
:0B1C6000AA75C755539FFEA20292AF69
:011C6B002256
:0C1A23008F5D8C5E8D5F8B608A61896234
:101A2F00E4F563AF5D7E00C007E56375F010A42594
:101A3F005FFDE55E35F0FCAB60AA61A962D00712CD
:101A4F001C06AB60AA61A962121B1BB4A509056332
:101A5F00E563C3942040CCE5637014C3E55E940244
:101A6F00502EE4255FF55F7402355EF55E80B1158B
:101A7F0063AF5D7E00C007E56375F010A4255FFDC1
:101A8F00E55E35F0FCAB60AA61A962D007121C06B7
:011A9F002224
:0C13D3008F5D8C5E8D5F8B608A6189628B
:1013DF00E4F573AF5D7E00C007E57375F010A425CB
:1013EF005FFDE55E35F0FC7B007A007963D0071274
:1013FF001C06E563B4A5090573E573C3942040D3B8
:10140F00857374E573B4200EAD5FAC5E7F007E0212
:10141F00121914E4F573AF5D7E00C007E57375F024
:10142F0010A4255FFDE55E35F0FCAB60AA61A962F3
:10143F00D007121800E574B4200E7D007C027F00E7
:10144F007E02121914E4F574AF5D7E00C007E574D7
:10145F0075F010A4FF255FCFE55E35F0CF2400FDBA
:0F146F00EF3402FCAB60AA61A962D0070218003B
:0821710043B30243B402C29221
:07217900E4FFFEEF4E70FCD5
:01218000223C
:10003E0053B3FB43B40443B30443B404D29253B357
:0D004E00FD43B40243B30243B402D2912239
:10216000D291D292122179C291122179C292022186
:0121700079F5
:0A218D00C291D292122179D2912260
:02207500AD07B5
:10207700E4FCED30E704D2918002C291ED25E0FD4A
:0E208700D292122179C2921221790CBC08E487
:012095002228
:03209600122075A0
:1020990043B30253B4FDD29212217930910912212E
:0D20A9008D1221717F01221221717F002212
:1020B600AC07AA05122160AF04122096AF021220C7
:0C20C60096AF0312207512209902218DA4
:0C218100C291C292122179D292022179FF
:101FAE00E4FDFC43B30253B4FDC292122179D292E6
:101FBE00122179EC25E0FC3091010C0DBD08EA43AD
:0A1FCE00B30243B402122181AF04F4
:011FD80022E6
:0300000002074BA9
:10074B0075C7AA75C75575FD5A75C7AA75C755756F
:10075B00FDA5787FE4F6D8FD9000007FFF7E03E4D3
:0C076B00F0A3DFFCDEFA7581790207B212
:10077700022121E493A3F8E493A34003F68001F256
:1007870008DFF48029E493A3F85407240CC8C33383
:10079700C4540F4420C8834004F456800146F6DF52
:1007A700E4800B010204081020408090214DE47E74
:1007B700019360BCA3FF543F30E509541FFEE49347
:1007C700A360010ECF54C025E060A840B8E493A30E
:1007D700FAE493A3F8E493A3C8C582C8CAC583CA39
:1007E700F0A3C8C582C8CAC583CADFE9DEE780BEF1
:01215F00007F
:101B1B00BB010689828A83E0225002E722BBFE02C8
:091B2B00E32289828A83E49322FB
:101B3400BB010CE58229F582E5833AF583E0225066
:101B440006E92582F8E622BBFE06E92582F8E222B0
:0D1B5400E58229F582E5833AF583E49322CA
:101B6100F8BB010DE58229F582E5833AF583E8F0BA
:101B7100225006E92582C8F622BBFE05E92582C866
:021B8100F2224E
:101B8300EB9FF5F0EA9E42F0E99D42F0E89C45F0B8
:011B9300222F
:00000001FF
