:03000B000229CDFA
:1029CD00C0E0C0F0C083C082C0D075D000C000751B
:1029DD008CE5758AF590005E7401F09000D6E004E8
:1029ED00F0E0D394C84002E4F0900123E475F001C7
:1029FD001213ED9000FCE475F0011213ED9000F848
:102A0D00E475F0011213ED9000CEE475F001121390
:102A1D00ED9000CBE475F0011213EDD000D0D0D0C5
:082A2D0082D083D0F0D0E0322A
:102DA7007589FF5389F0438901538EF7758CE57553
:092DB7008AF5D2A9D2AFD28C2218
:03005B000220BEC2
:1020BE00C0E0C083C082C0D075D000C000C005C0D3
:0320CE0006C00742
:1020D1009000FAE0FF900126F0C2EFAEC3EEFDEFF3
:1020E1003395E0FEEF25E0FFEE33FE74D72FF58246
:1020F10074003EF583E4F0A3EDF074D72FF58274FC
:10210100003EF583C083C082A3E0C4F8540FC868C1
:10211100FF0582D5820215831582E0C454F048D0B0
:1021210082D083F0A3EFF0900126E0FF3395E0FE2B
:10213100EF25E0FFEE33FE74D72FF58274003EF5F4
:1021410083C083C082E0FEA3E0FFE5C2540FFDEF30
:102151004DFFD082D083EEF0A3EFF09000FAE004BF
:09216100F0E0C394104002C2AE8C
:10216A00D007D006D005D000D0D0D082D083D0E01E
:01217A003232
:10179C00E49000FAF07F209000D7E4F0A3DFFC4344
:1017AC00DE0453E8F043E80343B14053B2BFE4F521
:1017BC00F643F60843E10153E8DF43E81053E1F741
:1017CC0053E1FB43E10275D10775D9FF75D402755E
:1017DC00DCFFD2DED2DFD2AED2AF9000FAE0C394FF
:0517EC001040F7D2AE31
:0117F10022D5
:102DC000E4F5B1F5B2F5B3F5B4F5ACF5AD122DA758
:082DD00012179C1211BC80FBDC
:10005E00000808080808080808080808080800002A
:10006E0040404141414141414141414141404000B7
:10007E000000F010101010FF10101010F000000013
:10008E0000000F04040404FF040404040F00000025
:10009E0008080838C808090E0808C83808080800F3
:1000AE008080404020110A040A11204040808000C8
:1000BE0090523410FF10345280708F0808F80800E8
:1000CE00829A566322528E008040330C3340800059
:1000DE00100C042424242526A464240404140C00E7
:1000EE00020202020242827F0202020202020200A7
:1000FE0002E282F212D752D25217FA12169A120056
:10010E00128E621F003F253DA74027182641F000A2
:10011E0000FC0000FF0004848484848484FC0000BE
:10012E00008740300F00202020202020207F00005C
:10013E00100C05555555857F8555555505140C00E4
:10014E000404020A09292A4C48A9190202040400CF
:10015E00101014D4545454FC525252D31210100096
:10016E00404050575555557F5555555750404000B6
:10017E00001715D55557557D555755D515170000F0
:10018E004040407F555555555555557F4040400090
:10019E000000007F494949494949497F0000000054
:1001AE008141211D214181FF8989898989818100B0
:1001BE0000028282422212FA06222242428200006B
:1001CE00010100FC44444445444444FC0000010049
:1001DE007E8181817E000082FF800000C6A1918910
:1001EE0086004281898976003028A6FFA0005F89AB
:1001FE00898971007C92898972000001F10D0300DA
:10020E007689898976004E9191493E0000C0300C66
:10021E00030000F804020204F800000304080804B6
:10022E00030000000404FE000000000008080F0890
:10023E000800001C020282423C00000C0A09080859
:10024E000C00000C024242A21C000006080808081E
:10025E000700008060100CFE000000010109090F6C
:10026E000909007E222222428200000608080804A4
:10027E00030000F844222224C000000304080808EA
:10028E00070000060282621A06000000000F00003E
:10029E000000001CA24242A21C0000070808080829
:1002AE000700007C82828244F800000004080804E3
:1002BE000300000000C0300E01000018060100000F
:1002CE0000000000C038E0000000203C230202279E
:1002DE00382008F8888888700000203F20202011E0
:1002EE000E00C0300808080838000718202020101B
:1002FE00080008F808080810E000203F2020201011
:10030E000F0008F88888E8081000203F20202320DE
:10031E00180008F88888E8081000203F2000030025
:10032E000000C03008080838000007182020221EE0
:10033E00020008F808000008F808203F21010121FA
:10034E003F20000808F8080800000020203F202069
:10035E00000000000808F8080800C08080807F00B8
:10036E00000008F888C028180800203F2001263811
:10037E00200008F8080000000000203F2020202068
:10038E00300008F8F800F8F80800203F013E013F61
:10039E00200008F830C00008F808203F2000071899
:1003AE003F00E01008080810E0000F102020201079
:1003BE000F0008F808080808F000203F210101018D
:1003CE000000E01008080810E0000F102828305038
:1003DE004F0008F8888888887000203F2000030CA2
:1003EE0030200070880808083800003820212122AB
:1003FE001C00180808F8080818000000203F20000C
:10040E00000008F808000008F808001F202020202F
:10041E001F000878880000C83808000007380E0151
:10042E00000008F800F800F8080000033E013E0343
:10043E000000081868808068180820302C03032CF0
:10044E0030200838C800C83808000000203F2000BF
:10045E00000010080808C83808002038262120207F
:10046E0018000000C0201018183060C000000000F6
:10047E00030306060606020100000000381C0203F4
:10048E0083FF3F01000000008040201C0F0300008E
:10049E00000020181C068787C63C1E0100000000C5
:1004AE000201010103070E18608010080E06422398
:1004BE0023B2EF0000000000000004020303061C3C
:1004CE00780040E0980C1E387060E0C0808000001C
:1004DE00010302060C0C08181010007CFEC06030E0
:1004EE00FCFE0301000000000000000000030F3CB2
:1004FE00408000F0FC0E020000000080C0400003AF
:10050E000F3040848CFE730100000000000080C09C
:10051E00C080061F1CF000080FC360203F2710107C
:10052E000C0300202030303078EEC3800000000035
:10053E00000000000000010738C0000000E0700C51
:10054E000672DE8C000000003FCF000000000001AC
:0D055E00010000303000000C0C00002400F3
:1019290053B3EF43B410C294E4900123F0A3F0C37E
:10193900900124E09402900123E0940040F1D294B4
:1019490012003EE4900123F0A3F0C3900124E09437
:1019590002900123E0940040F17BAEE4FD7F781210
:101969002D39E4FBFD7F78122D397B12E4FD7F7858
:10197900122D39E4FBFD7F78122D397BB0E4FD7F10
:1019890078122D397B81E4FD7F78122D397BFFE4B4
:10199900FD7F78122D397BA1E4FD7F78122D397BEB
:1019A900A6E4FD7F78122D397BA8E4FD7F78122DFE
:1019B900397B1FE4FD7F78122D397BC8E4FD7F78E0
:1019C900122D397BD3E4FD7F78122D39E4FBFD7F9D
:1019D90078122D397BD5E4FD7F78122D397B80E48F
:1019E900FD7F78122D397BD9E4FD7F78122D397B63
:1019F9001FE4FD7F78122D397BDAE4FD7F78122D03
:101A0900397B12E4FD7F78122D397BDBE4FD7F7889
:101A1900122D397B40E4FD7F78122D397B8DE4FD51
:101A29007F78122D397B14E4FD7F78122D397BAF35
:0A1A3900E4FD7F78122D397F0022B2
:102BBD00EF242090013EF0ED24B0FBE4FD7F781270
:102BCD002D3990013EE054F0C4540F4410FBE4FD48
:102BDD007F78122D3990013EE0540FFBE4FD7F7894
:032BED00022D397D
:102D71007B8DE4FD7F78122D397B14E4FD7F781281
:0B2D81002D397BAFE4FD7F78022D3977
:102D8C007B8DE4FD7F78122D397B10E4FD7F78126A
:0B2D9C002D397BAEE4FD7F78022D395D
:102A3500E4900127F0900127E0FFC39404503FEF95
:102A450024B0FBE4FD7F78122D39E4FBFD7F78127D
:102A55002D397B12E4FD7F78122D399001287420E1
:102A6500F0E4FB7D407F78122D39900128E004F0D9
:0E2A7500E0C3946040EB900127E004F080B7CE
:012A83002230
:0A280000900133EFF0900135EBF08A
:10280A00E4900137F0A3F0900136E0FF5407700816
:10281A00EF131313541F800A900136E01313135455
:10282A001F0490013AF090013AEDF0900136E0FF72
:10283A0090013AE0FDC39F5036900133E0FF122B1E
:10284A00BD900133E0900139F0900135E0FF90012D
:10285A0039E0C39F5011E4FB7D407F78122D3990F7
:0F286A000139E004F080E290013AE004F080BC14
:01287900223C
:0A26AA00900133EFF0900135EBF0E2
:1026B400E490013AF0A3F0900136E0FF540770086B
:1026C400EF131313541F800A900136E013131354AD
:1026D4001F0490013DF090013DEDF0900136E0FFC4
:1026E40090013DE0FDC39F504D900133E0FF122B5C
:1026F400BD900133E090013CF0900135E0FF900182
:102704003CE0C39F50289001371214F290013AE440
:1027140075F00112140385F082F58312138CFB7D8E
:10272400407F78122D3990013CE004F080CB900179
:062734003DE004F080A569
:01273A00227C
:102B5200454E474C495348004E4F524D414C00544C
:102B620049424554414E0052535400434E54005979
:102B72004553004E4F00444556001F1C1F1E1F1E8A
:062B82001F1F1E1F1E1F95
:1024EC0041012500602001010000F8F818181818A7
:1024FC0018181818F8F0E00000000F0F0C0C0C0C5A
:10250C000C0C0C0C0F07030060400014FFFF0303BE
:10251C00030303030303030303030303030303037F
:10252C00030303030303FFFFF8F80000FFFFC0C021
:10253C00C0C0C0C0C0C0C0C0C0C0C0C0C0C0C0C08F
:10254C00C0C0C0C0C0C0FFFF1F1F000048000C0867
:10255C004008A0090009604100FBFF4100D0004188
:10256C00005C004200CB00004200D400004100D3CC
:01257C00005E
:101FC900E4900122F090012104F0E49000F7F090F0
:101FD90000D1F0A3F0900001F043B38053B47F43E4
:101FE900AC0153ADFE43B11053B2EF9000FEF0A324
:061FF900F0900000F02250
:101A430090005EE07002615AE4F0A29733900122A5
:101A5300F0900121E0FFA3E0FE6F6066900121EEAC
:101A6300F09000D1E0FEA3E0FF4E70119000F7E08C
:101A7300D3940A40089000017401F08038C3EF94B6
:101A83000AEE940040089000017404F0802790004F
:101A9300D1E0FEA3E0FFC39403EE9400400890005E
:101AA300017403F0800FC3EF9402EE94004006909C
:101AB30000017402F0E49000F7F09000D1F0A3F07D
:101AC300801E900122E0701E9000F7E004F0E0D346
:101AD30094C8400BE4F09000D175F0011213EDE4CB
:101AE300900123F0A3F020B02DE49000FEF0A3F0CA
:101AF300900000E06401705FF09000CDE09000057D
:101B0300F090000A7401F09001367403F07B307D8D
:101B1300017F10022800E4900123F0A3F09000FE5F
:101B230075F0011213EDD39000FFE0940A9000FECC
:101B3300E094004022E4F0A3740AF0900000E07007
:101B43001604F0900005E09000CDF09000057408B5
:081B5300F090000A7401F02279
:102AD300EF640170329001367402F07BFF7A007963
:102AE3007EA31214FB7B20E4FD7F101226AA900123
:102AF300367402F07BFF7A00799EA31214FB7B30BD
:102B0300E4FD7F200226AA9001367402F07B30E4B4
:072B1300FD7F1012280022D3
:10273B007BFF7A2B79529001271214FBEF64017007
:10274B006C90012AF090012AE0FE75F008A4FD249C
:10275B0004FFC007ED240CFBC0039001367404F09A
:10276B009001271214F2EEFF3395E08F82F583125E
:10277B00138CFF3395E0FEEFC4F8540FC868FFEEDF
:10278B00C454F048FE74C02FF974FE3EFA7BFF90E0
:10279B0001371214FBD003D0077D021226AA900139
:1027AB002AE004F0E0C364809487409922900136BC
:0B27BB007404F07B3C7D02FF1228003C
:0127C60022F0
:10217B0090000AE0B40129E4F09001367403F07B7F
:10218B00347D017F0C1228007F01122AD37F0112AC
:10219B00273B900003E0900125F09000D674C8F027
:1021AB00900001E0605CB40125900125E07F017097
:1021BB000B122AD39001257401F0800812273BE4FF
:1021CB00900125F0900125E0900003F0802F900006
:1021DB0001E0C394024026900125E0900003F090AB
:1021EB0000057404F0E4900125F09000D6F0900007
:1021FB000A04F0E4FF12273BE4FF122AD3E4900019
:10220B0001F09000D6E0B4640D900003E07003FF82
:10221B008013E4FF80129000D6E0B4C80E90000348
:0C222B00E07F017003022AD312273B223F
:062A840090012D12149DCB
:062A8A009001331214B5A7
:102A9000E490013BF0A3F090013712149D900133B4
:102AA0001214A9C312148C402190013BE475F0016B
:102AB0001213ED90013312149D9001371214A912D4
:102AC000147E9001331214B580CD90013BE0FEA33B
:022AD000E0FF25
:012AD20022E1
:062B1A0090012D12149D34
:102B2000802190013712149D9001331214A9C31211
:102B3000148C401790013312149D9001371214A980
:102B400012147E9001331214B580D7900133121401
:022B50009D22C4
:051C7000900127EFF0D8
:101C75007BFF7A2B795AA31214FB900003E06401D1
:101C85006002A10B900127E06401706C90012BF0BC
:101C950090012BE0FE75F008A4FD2408FFC007EDB8
:101CA5002410FBC0039001367402F0900128121431
:101CB500F2EEFF3395E08F82F58312138CFF339597
:101CC500E0FEEFC4F8540FC868FFEEC454F048FEB8
:101CD50074C02FF974FE3EFA7BFF9001371214FB96
:101CE500D003D007E4FD1226AA90012BE004F0E012
:101CF500C3648094864099229001367402F07B3843
:101D0500E4FD7F088046900127E064017032900170
:101D1500367402F07BFF7A0079BEA31214FB7B2098
:101D2500E4FD7F101226AA9001367402F07BFF7A3B
:101D35000079DEA31214FB7B30E4FD7F200226AA86
:0F1D45009001367402F07B30E4FD7F101228000D
:011D5400226C
:051B5B00900127EFF0EE
:101B60007BFF7A2B7961A31214FB900003E06401E0
:101B7000600261F4900127E06401706C90012BF029
:101B800090012BE0FE75F008A4FD2404FFC007EDD2
:101B9000240CFBC0039001367404F0900128121449
:101BA000F2EEFF3395E08F82F58312138CFF3395AD
:101BB000E0FEEFC4F8540FC868FFEEC454F048FECE
:101BC00074C02FF974FE3EFA7BFF9001371214FBAC
:101BD000D003D0077D021226AA90012BE004F0E08A
:101BE000C3648094874099229001367404F07B3C52
:101BF0007D028077900127E0640170649001367463
:101C000004F07BFF7A0079FEA31214FB7B107D02A7
:101C1000E4FF1226AA9001367404F07BFF7A007963
:101C20009EA31214FB7B207D027F101226AA900136
:101C3000367404F07BFF7A0079BEA31214FB7B306C
:101C40007D027F201226AA9001367404F07BFF7A71
:101C50000079DEA31214FB7B407D027F300226AAAE
:0F1C60009001367404F07B407D02E4FF122800EF
:011C6F002252
:1020000090000AE0B4011AE4F07F01121C707F0115
:10201000121B5B900004E0900125F09000D674C87C
:10202000F0900001E0605DB40126900125E07F01A1
:10203000B4010A121B5BE4900125F08009121C70A8
:102040009001257401F0900125E0900004F0802FAC
:10205000900001E0C3940240269000057405F090C2
:102060000125E0900004F0E4900125F09000D6F006
:1020700090000A04F0E4FF121C70E4FF121B5BE402
:10208000900001F09000D6E0B46414900125E0B413
:102090000104E4FF8019900125E07021FF801B906E
:1020A00000D6E0B4C817900125E0B401057F010215
:0E20B0001B5B900125E070057F01121C702261
:060800009001271214B55F
:10080600E4900131F0A3F090012BE0700F900136D7
:100816007404F07B407D02E4FF0228009001271259
:10082600149D90012D1214B5900004E0600241342D
:10083600900132740CF09001371214C10000271099
:10084600122A8490012CEFF09001371214C1000097
:100856002710122B1AE4FCFD90012D1214B59001FD
:100866002CE0FF603475F010A42420F9740235F0F2
:10087600FA7BFF9001371214FB900132E0FF240847
:10088600FB9001367404F07D021226AA90013174A1
:1008960001F0A3E02408F08007900132E02404F080
:1008A6009001371214C1000003E8122A8490012C2B
:1008B600EFF09001371214C1000003E8122B1AE47E
:1008C600FCFD90012D1214B5900131E06401600623
:1008D60090012CE0603A9001317401F090012CE017
:1008E60075F010A42420F9740235F0FA7BFF90010C
:1008F600371214FB900132E0FF2408FB9001367496
:1009060004F07D021226AA900132E02408F0800746
:10091600900132E02404F09001371214C100000067
:1009260064122A8490012CEFF09001371214C10052
:10093600000064122B1AE4FCFD90012D1214B590F0
:100946000131E06401600690012CE0603A900131CB
:100956007401F090012CE075F010A42420F97402C3
:1009660035F0FA7BFF9001371214FB900132E0FF5D
:100976002408FB9001367404F07D021226AA900129
:1009860032E02408F08007900132E02404F0900160
:10099600371214C10000000A122A8490012CEFF0CD
:1009A6009001371214C10000000A122B1AE4FCFD54
:1009B60090012D1214B5900131E06401600690019A
:1009C6002CE0603A9001317401F090012CE075F052
:1009D60010A42420F9740235F0FA7BFF9001371237
:1009E60014FB900132E0FF2408FB9001367404F0FA
:1009F6007D021226AA900132E02408F080079001B9
:100A060032E02404F090012D12149D90012CEFF099
:100A1600E075F010A42420F9740235F0FA7BFF90FB
:100A260001371214FB900132E0FF2408812A90015D
:100A3600327402F09001371214C100002710122AF6
:100A46008490012CEFF09001371214C1000027109A
:100A5600122B1AE4FCFD90012D1214B590012CE026
:100A6600FF603475F018A42470F9740435F0FA7B2D
:100A7600FF9001371214FB900132E0FF240CFB902B
:100A860001367404F07D021226AA9001317401F039
:100A9600A3E0240CF08007900132E02406F09001D8
:100AA600371214C1000003E8122A8490012CEFF0DB
:100AB6009001371214C1000003E8122B1AE4FCFD62
:100AC60090012D1214B5900131E064016006900189
:100AD6002CE0603890012CE075F018A42470F974AD
:100AE6000435F0FA7BFF9001371214FB900132E0D7
:100AF600FF240CFB9001367404F07D021226AA90A6
:100B060001317401F0A3E0240CF08007900132E07B
:100B16002406F09001371214C100000064122A84E2
:100B260090012CEFF09001371214C10000006412FE
:100B36002B1AE4FCFD90012D1214B5900131E064EE
:100B460001600690012CE0603890012CE075F018E9
:100B5600A42470F9740435F0FA7BFF90013712145F
:100B6600FB900132E0FF240CFB9001367404F07D0B
:100B7600021226AA9001317401F0A3E0240CF08041
:100B860007900132E02406F09001371214C10000EC
:100B9600000A122A8490012CEFF09001371214C13A
:100BA6000000000A122B1AE4FCFD90012D1214B568
:100BB600900131E06401600690012CE060389001FC
:100BC6002CE075F018A42470F9740435F0FA7BFF54
:100BD6009001371214FB900132E0FF240CFB9001C8
:100BE600367404F07D021226AA9001317401F0A336
:100BF600E0240CF08007900132E02406F090012DED
:100C060012149D90012CEFF0E075F018A42470F9F1
:100C1600740435F0FA7BFF9001371214FB90013211
:100C2600E0FF240CFB9001367404F07D021226AA24
:010C3600229B
:050C3700900128EFF020
:100C3C00E4A3F0A3F07AFF9000FAE0C39410500202
:100C4C00E147C2AEE4F0FBEB04F9E9C39410505D4C
:100C5C00E925E024D7F582E43400F583E0FEA3E037
:100C6C00FF900129EEF0A3EFF0EB25E024D7F582FD
:100C7C00E43400F583E0FCA3E0FDC39FEC9E502A16
:100C8C00E925E024D7F582E43400F583ECF0A3EDFC
:100C9C00F0900129E0FEA3E0FFEB25E024D7F582DC
:100CAC00E43400F583EEF0A3EFF009809D0BEBB478
:100CBC001095E4900129F0A3F07B04EB25E024D7F8
:100CCC00F582E43400F583E0FEA3E0FF900129EE09
:100CDC008FF01213ED0BEBB40CE1900129E0FEA3A5
:100CEC00E07803CEC313CE13D8F9FF900129EEF0B0
:100CFC00A3EFF0900128E0FBB40109A374FF75F099
:100D0C00E01213ED9000D4E0FCA3E0FD4C700D90CC
:100D1C000129E0FFA3E09000D4CFA1C5ED2405FF8D
:100D2C00E43CFE900129E0FCA3E0FDD39FEC9E4047
:100D3C00099000D4E475F001801BED2405FFE43C20
:100D4C00FE9000D4E0FCA3E0D39FEC9E400D9000FD
:100D5C00D474FFF5F01213ED7FFF229000D4E0FE67
:100D6C00A3E0FF900129E0FCA3E02FFFEC3EC313AE
:100D7C00FEEF13FF900129EEF0A3EFF0EBB401208E
:100D8C009000D4E0FEA3E0FF900129E0FCA3E0FD7D
:100D9C00D39FEC9E40279000D4ECF0A3EDF0801D87
:100DAC00900129E0FEA3E0FF9000D4E0FCA3E0D387
:100DBC009FEC9E40089000D4EEF0A3EFF09000D092
:100DCC00E0705E900012E0FEA3E0FF9000D4E0FC27
:100DDC00A3E0FDD39FEC9E40047A04E14290001006
:100DEC00E0FEA3E0FFD3ED9FEC9E40047A03E142CA
:100DFC0090000EE0FEA3E0FF9000D4E0FCA3E0FD29
:100E0C00D39FEC9E40047A02E14290000CE0FEA3DA
:100E1C00E0FFD3ED9FEC9E40047A01E142E4FAE15D
:100E2C004290000CE0FEA3E024F8FFEE34FFFE90AD
:100E3C0000D4E0FCA3E0FDC39FEC9E5004E4FAE177
:100E4C000290000CE0FEA3E02408FFE43EFED3ED8C
:100E5C009FEC9E401DA3E0FEA3E024F8FFEE34FFC0
:100E6C00FE9000D4E0FCA3E0C39FEC9E50047A01FA
:100E7C00E10290000EE0FEA3E02408FFE43EFE90A9
:100E8C0000D4E0FCA3E0FDD39FEC9E401990001031
:100E9C00E0FEA3E024F8FFEE34FFFEC3ED9FEC9ED2
:100EAC0050047A028050900010E0FEA3E02408FF6A
:100EBC00E43EFE9000D4E0FCA3E0FDD39FEC9E400A
:100ECC0019900012E0FEA3E024F8FFEE34FFFEC3FD
:100EDC00ED9FEC9E50047A03801C900012E0FEA360
:100EEC00E02408FFE43EFE9000D4E0FCA3E0D39F96
:100EFC00EC9E40027A049000FBE0FD6A60389000A2
:100F0C00D3E004F0E0C394055004AA05802DE490CE
:100F1C0000D3F0900128E0B4010E9000FBE0FFEA52
:100F2C00D39F5017AA0780139000FBE0FFEAC39FE2
:0D0F3C004009AA078005E49000D3F0AF0241
:010F49002285
:10100000EF7032900128F0900128E0FEC394084070
:1010100002219F74052EF582E43401F5837418F0E3
:1010200074152EF582E43401F583740CF0900128D8
:10103000E004F080D2EF64017064900128F0900128
:1010400028E0FEC39402502274052EF582E4340198
:10105000F58374F8F074152EF582E43401F5837489
:101060000FF0900128E004F080D49001287402F081
:10107000900128E0FEC394084002219F74052EF5DC
:1010800082E43401F5837418F074152EF582E4348B
:1010900001F583740CF0900128E004F080D2EF6435
:1010A000027064900128F0900128E0FEC39404507F
:1010B0002274052EF582E43401F58374F8F074157A
:1010C0002EF582E43401F583740FF0900128E004DA
:1010D000F080D49001287404F0900128E0FEC394BD
:1010E000084002219F74052EF582E43401F58374D3
:1010F00018F074152EF582E43401F583740CF09029
:101100000128E004F080D2EF64037062900128F0BF
:10111000900128E0FFC39406502274052FF582E465
:101120003401F58374F8F074152FF582E43401F579
:1011300083740FF0900128E004F080D490012874AB
:1011400006F0900128E0FFC39408505374052FF572
:1011500082E43401F5837418F074152FF582E434B9
:1011600001F583740CF0900128E004F080D4E49041
:101170000128F0900128E0FFC39408502274052F45
:10118000F582E43401F58374F8F074152FF582E4E8
:101190003401F583740FF0900128E004F080D490BE
:1011A00000D07401F090013604F07B017A017901DE
:0C11B000A31214FB7B10E4FDFF0226AA32
:102CA600E4FF120C37900127EFF0F4601BE0FF9071
:102CB60000FBE06F6005EFF0121000900127E09036
:082CC600000BF0E49000FAF0AD
:012CCE0022E3
:1018000090000AE06401704BF09000FCF0A3F090AF
:10181000005DF09000D6F09000D0F012179CE4909C
:10182000005CF090000612149D90012B7401F012E0
:10183000080090000BE0B4FF0EE49000D0F0FF121F
:101840000C3790000BEFF090000BE0FF9000FBF0E6
:10185000121000122CA6900001E0FF7002212864F3
:1018600001705190000612149DEF2401FFE43EFE2A
:10187000E43DFDE43CFC9000061214B57F9F7E869B
:101880007D017C009000061214A9D312148C40161E
:101890009000061214C100000000E490012BF0FF3C
:1018A000FEFDFC12080090000612149D90012B749E
:1018B00001F0806C900001E0B403309000057406E4
:1018C000F090000A7401F0E4900125F09000FB74A0
:1018D000FFF09001367402F07B40E4FDFF12280017
:1018E000E490012BF0FFFEFDFC8035900001E0B498
:1018F00004319000057407F090000A7401F0E49040
:101900000125F09000FB74FFF09001367402F07B2B
:1019100040E4FDFF122800E490012BF0FFFEFDFCE7
:09192000120800E4900001F0221D
:05150400900127EFF04B
:101509007BFF7A2B79699001291214FB7A2B796D6B
:1015190090012C1214FB900003E064016002C106E3
:10152900900127E064016002A1F8A3F0900128E08E
:10153900FE75F008A4FD2406FFC007ED240EFBC0CC
:10154900039001367402F09001291214F2EEFF3370
:1015590095E08F82F58312138CFF3395E0FEEFC47B
:10156900F8540FC868FFEEC454F048FE74C02FF950
:1015790074FE3EFA7BFF9001371214FBD003D007AB
:10158900E4FD1226AA900128E0FE75F008A4FD24C6
:1015990020FFC007ED2428FBC0039001367402F038
:1015A90090012C1214F2EEFF3395E08F82F583122D
:1015B900138CFF3395E0FEEFC4F8540FC868FFEEB3
:1015C900C454F048FE74C02FF974FE3EFA7BFF90B4
:1015D90001371214FBD003D007E4FD1226AA9001AB
:1015E90028E004F0E0C3648094835002A13522907E
:1015F90001367402F07B38E4FD7F068046900127AE
:10160900E0640170329001367402F07BFF7A01794F
:101619001EA31214FB7B20E4FD7F101226AA900161
:10162900367402F07BFF7A01793EA31214FB7B30FA
:10163900E4FD7F200226AA9001367402F07B30E493
:06164900FD7F10122800D5
:01164F002278
:05072900900127EFF034
:10072E007BFF7A2B79719001291214FB900003E064
:10073E0064016002E1C4900127E06401706AA3F0D5
:10074E00900128E0FE75F008A4FD240AFFC007ED15
:10075E002412FBC0039001367404F0900129121488
:10076E00F2EEFF3395E08F82F58312138CFF3395F3
:10077E00E0FEEFC4F8540FC868FFEEC454F048FE14
:10078E0074C02FF974FE3EFA7BFF9001371214FBF2
:10079E00D003D0077D021226AA900128E004F0E0D3
:1007AE00C3648094834099229001367404F07B22B6
:1007BE007D027F0A802C900127E0B401199001364A
:1007CE007404F07BFF7A01799EA31214FB7B1C7DCF
:1007DE00027F0C0226AA9001367404F07B1C7D0267
:0507EE007F0C12280041
:0107F30022E3
:051E3800900127EFF00E
:101E3D007BFF7A2B79759001291214FB900003E03A
:101E4D0064016002C1D3900127E06401706AA3F0C0
:101E5D00900128E0FE75F008A4FD2426FFC007EDD3
:101E6D00242EFBC0039001367404F0900129121446
:101E7D00F2EEFF3395E08F82F58312138CFF3395CD
:101E8D00E0FEEFC4F8540FC868FFEEC454F048FEEE
:101E9D0074C02FF974FE3EFA7BFF9001371214FBCC
:101EAD00D003D0077D021226AA900128E004F0E0AD
:101EBD00C3648094824099229001367404F07B367D
:101ECD007D027F26802C900127E0B4011990013608
:101EDD007404F07BFF7A0179BEA31214FB7B347D71
:101EED00027F240226AA9001367404F07B347D0211
:051EFD007F2412280003
:011F020022BC
:101F030090000AE0B40117E4F07F011215047F0189
:101F13001207297F01121E389000D674C8F0900072
:101F230001E0FF6067B4011C900125E0700D7F01A3
:101F33001207299001257401F0804CE4900125F0EB
:101F43007F018040900001E0C39402403A90012554
:101F5300E0700A9000061214C10000000090000512
:101F63007405F0E4900125F09000D6F09000FB7426
:101F7300FFF090000A7401F0E4FF121504E4FF126D
:101F83000729E4FF121E38E4900001F09000D6E028
:101F9300B46414900125E07003FF801A900125E0DA
:101FA30064017021FF801B9000D6E0B4C817900134
:101FB30025E070057F01020729900125E0B40105A2
:061FC3007F01121E38220E
:05165000900127EFF0FE
:101655007BFF7A2B79699001291214FB7A2B797813
:1016650090012C1214FB900003E064016002E1522A
:10167500900127E064016002E144A3F0900128E0B5
:10168500FE75F008A4FD2406FFC007ED240EFBC07F
:10169500039001367402F09001291214F2EEFF3323
:1016A50095E08F82F58312138CFF3395E0FEEFC42E
:1016B500F8540FC868FFEEC454F048FE74C02FF903
:1016C50074FE3EFA7BFF9001371214FBD003D0075E
:1016D500E4FD1226AA900128E0FE75F008A4FD2479
:1016E50020FFC007ED2428FBC0039001367402F0EB
:1016F50090012C1214F2EEFF3395E08F82F58312E0
:10170500138CFF3395E0FEEFC4F8540FC868FFEE65
:10171500C454F048FE74C02FF974FE3EFA7BFF9066
:1017250001371214FBD003D007E4FD1226AA90015D
:1017350028E004F0E0C3648094835002C1812290C4
:1017450001367402F07B38E4FD7F06804690012760
:10175500E0640170329001367402F07BFF7A017902
:101765005EA31214FB7B20E4FD7F101226AA9001D4
:10177500367402F07BFF7A01797EA31214FB7B306D
:10178500E4FD7F200226AA9001367402F07B30E446
:06179500FD7F1012280088
:01179B00222B
:1022370090000AE0B40117E4F07F011216507F0105
:102247001207297F01121E389000D674C8F090003B
:1022570001E0605EB4011F900125E0700D7F01125F
:1022670007299001257401F08043E4900125F07F50
:1022770001121E388037900001E0C39402402EE41B
:10228700FF121650E4FF120729E4FF121E389001CF
:1022970025E09000057003F080037405F0E49001D9
:1022A70025F090000A04F09000FB74FFF0E4900022
:1022B70001F09000D6E0B46414900125E07003FFAC
:1022C700801A900125E064017021FF801B9000D6E1
:1022D700E0B4C817900125E070057F010207299037
:0C22E7000125E0B401057F01121E382221
:10056B00EF7032900128F0900128E0FEC394184000
:10057B0002E10A74162EF582E43400F5837403F05D
:10058B0074362EF582E43400F58374C0F0900128A4
:10059B00E004F080D2EF64017064900128F09001C8
:1005AB0028E0FEC39406502274162EF582E4340024
:1005BB00F58374FFF074362EF582E43400F5837402
:1005CB00FFF0900128E004F080D49001287406F02D
:1005DB00900128E0FEC394184002E10A74162EF530
:1005EB0082E43400F5837403F074362EF582E43420
:1005FB0000F58374C0F0900128E004F080D2EF6422
:10060B00027064900128F0900128E0FEC3940C5016
:10061B002274162EF582E43400F58374FFF07436E1
:10062B002EF582E43400F58374FFF0900128E0048A
:10063B00F080D4900128740CF0900128E0FEC39454
:10064B00184002E10A74162EF582E43400F5837427
:10065B0003F074362EF582E43400F58374C0F09009
:10066B000128E004F080D2EF64037062900128F05F
:10067B00900128E0FFC39412502274162FF582E4E8
:10068B003400F58374FFF074362FF582E43400F5F3
:10069B008374FFF0900128E004F080D4900128745B
:1006AB0012F0900128E0FFC39418505374162FF5E5
:1006BB0082E43400F5837403F074362FF582E4344E
:1006CB0000F58374C0F0900128E004F080D4E4902E
:1006DB000128F0900128E0FFC39418502274162FC4
:1006EB00F582E43400F58374FFF074362FF582E461
:1006FB003400F58374FFF0900128E004F080D4906F
:10070B0000D07401F09001367403F07B017A00790C
:0E071B0014A31214FB7B307D017F100226AA6E
:10287A0090000AE064017039F09001367404F07B2C
:10288A0040E4FDFF12280012179C90000BE0B4FFF1
:10289A000FE49000D0F07F01120C3790000BEFF09C
:1028AA0090000BE0FF9000FBF012056BE49000D65D
:1028BA00F0900001E06002E4F09000D6E064C87095
:1028CA00287F01120C37900127EFF0F4601BE0FF1C
:1028DA009000FBE06F6005EFF012056B900127E0B6
:0928EA0090000BF0E49000FAF0FC
:0128F30022C2
:102C7B00900005E024FC60131460131460131460BF
:102C8B00131460132407701202217B022000021818
:0B2C9B0000021F0302223712287A22D9
:03003B00020006BA
:0400060075EC003263
:0300030002000AEE
:01000A0032C3
:0300130002000EDA
:01000E0032BF
:102B880043AC0153ADFEA2AF920075C7AA75C755F5
:102B980075910143AC0175C7AA75C755E4F591A2B3
:102BA8000092AF43E90453EAFE43EB0143E90343D0
:052BB8009B02D2AF22D8
:102CCF0043B38053B47FA2AF920075C7AA75C7559F
:102CDF0075910143B38075C7AA75C755E4F591A2E5
:082CEF000092AFD2AAD2AF227D
:102E4400122B88122CCF43870253E9FEC2A8C2AAD0
:042E5400539BFD226D
:1011BC00539BFD121929122A35121FC97B017A0083
:1011CC007902E4FDFC7F0A1223AAE4900125F09039
:1011DC00000A04F0E4900123F0A3F09000CEF0A3F9
:1011EC00F0900100F09000D0F09000FB74FFF0E460
:1011FC009000D4F0A3F012179C3097FD121A439074
:10120C000002E0B4A508900005E060026100E490E3
:10121C000003F0A3F09000061214C100000000902F
:10122C00000274A5F09000057401F090000B74FF9F
:10123C00F09000FBF07D017F07122BBD90013674FE
:10124C0003F07BFF7A037970A31214FB7B147D01EE
:10125C007F0C1226AA9001367403F07BFF7A00797A
:10126C005EA31214FB7B247D017F141226AA90012D
:10127C00367403F07BFF7A047930A31214FB7B2CB9
:10128C007D017F241226AA9001367403F07BFF7A2D
:10129C000279D0A31214FB7B347D017F2C1226AA79
:1012AC00E4900123F0A3F090005AF0A304F0900016
:1012BC0058F0900057F0E4FDFCFF7E0212244D7DA7
:1012CC00007C027F007E0212244DC3900124E09426
:1012DC0090900123E0940140F1E4900123F0A3F0FD
:1012EC0090000A04F09001367403F07B347D017F8A
:1012FC000C122800122C7BC39000CCE094C89000F8
:10130C00CBE094004006D2AEE4F0A3F0C3900124ED
:10131C00E094E8900123E0940350024108122D8CD4
:10132C00900005E0FF64066004EFB407069000052A
:10133C007405F07B017A007902E4FDFC7F0A121D32
:10134C0055E4F5B1F5B2F5B3F5B4F5ACF5AD53E143
:10135C00FE43B31043B410C294122E44E490012304
:07136C00F0A3F012179C2210
:01000F0022CE
:102C2300A2AF9200C2AF75C7AA75C75543A401A24C
:102C33000092AFE59F30E613A2AF9200C2AF75C713
:0C2C4300AA75C755539FBFA20092AF2294
:0C244D0090013FECF0A3EDF0AB07AA06F5
:10245900EB4A700281EBEBAE027807CEC313CE13C1
:10246900D8F9FF900141EEF0A3EFF0EB547F600A39
:10247900900141E475F0011213EDA2AF9200C2AFD1
:1024890075C7AA75C755439F01A20092AF75AEFFE4
:1024990075AF62A2AF9200C2AF75C7AA75C755439F
:1024A900A502A20092AFE4FDFCD3900142E09D9009
:1024B9000141E09C402CED75F080A4FF90013FE0C4
:1024C900FAA3E0FB2FF5A6EDAE047807C333CE33AC
:1024D900CED8F92BEA3EF5A7122C230DBD00010C2D
:0224E90080C7AA
:0124EB0022CE
:0C26170090013FEEF0A3EFF0A31214FBC3
:10262300A2AF9200C2AF75C7AA75C755439F01A257
:102633000092AFA2AF9200C2AF75C7AA75C7554348
:10264300A502A20092AFEDF5A6ECF5A775AF61E484
:10265300FFFED3900140E09F90013FE09E40219018
:1026630001411214F28F828E8312138CF5AE122C59
:102673002305A6E5A6700205A70FBF00010E80D2B1
:10268300A2AF9200C2AF75C7AA75C75553A5FDA2E5
:102693000092AFA2AF9200C2AF75C7AA75C75553D8
:0626A3009FFEA20092AFB1
:0126A900220E
:0C28F40090013FEEF0A3EFF0A31214FBE4
:10290000A2AF9200C2AF75C7AA75C755439F01A277
:102910000092AFEDF5A6ECF5A775AF40E4FFFED34E
:10292000900140E09F90013FE09E4021122C2390B7
:1029300001411214F28F828E83E5AE1213CB05A6ED
:10294000E5A6700205A70FBF00010E80D2A2AF92CC
:1029500000C2AF75C7AA75C755539FFEA20092AFBC
:012960002254
:0F23AA00900127EFF0A3ECF0A3EDF0A31214FBCA
:1023B900E490012DF090012DE0FDC39420503B9055
:1023C9000127E0FF7E00C007ED75F010A4FF900122
:1023D90029E02FFD900128E035F0FC90012A121424
:1023E900F2D0071228F490012A1214F2121373B4CE
:1023F900A50890012DE004F080BB90012DE0701339
:10240900C3900128E09402503A740275F000121347
:10241900ED809D90012DE014F0900127E0FF7E00F2
:10242900C00790012DE075F010A4FF900129E02F5D
:10243900FD900128E035F0FC90012A1214F2D00732
:032449001228F462
:01244C00226D
:0F1D5500900127EFF0A3ECF0A3EDF0A31214FB25
:101D6400E490013DF090013DE0FDC3942050369095
:101D74000127E0FF7E00C007ED75F010A4FF90017D
:101D840029E02FFD900128E035F0FC7B017A0179F0
:101D94002DD0071228F490012DE0B4A50890013D40
:101DA400E004F080C090013DE0A3F0B42014900161
:101DB40028E0FCA3E0FD7F007E0212244DE49001A4
:101DC4003DF0900127E0FF7E00C00790013DE075E3
:101DD400F010A4FF900129E02FFD900128E035F0D8
:101DE400FC90012A1214F2D00712261790013EE04B
:101DF400B420107D007C027F007E0212244DE4900A
:101E0400013EF0900127E0FF7E00C00790013EE014
:101E140075F010A4FF900129E02FFF900128E03510
:101E2400F0CF2400FDEF3402FC90012A1214F2D00A
:041E34000702261764
:04257D0041014700D1
:082E690043B30243B402C2921C
:072E7100E4FFFEEF4E70FCD0
:012E78002237
:10003E0053B3FB43B40443B30443B404D29253B357
:0D004E00FD43B40243B30243B402D2912239
:102E5800D291D292122E71C291122E71C292022E6A
:012E680071F8
:0A0FF600C291D292122E71D2912204
:022CF700AD0727
:102CF900E4FCED30E704D2918002C291ED25E0FDBC
:0F2D0900D292122E71C292122E710CECB408E30A
:012D18002298
:032D1900122CF782
:102D1C0043B30253B4FDD292122E71309109120FAB
:0D2D2C00F6122E697F0122122E697F00220F
:102D3900AC07AA05122E58AF04122D19AF02122D95
:0C2D490019AF03122CF7122D1C020FF61C
:0C07F400C291C292122E71D292022E719C
:102C4F00E4FDFC43B30253B4FDC292122E71D29233
:102C5F00122E71EC25E0FC3091010C0DEDB408E95A
:0B2C6F0043B30243B4021207F4AF04A9
:012C7A002237
:072E7900AE071FEE70FA2204
:062BF000C280C283D28006
:022BF600AD0729
:102BF800C2837F02122E79E4FCED30E004D281809A
:102C080002C2817F01122E79D2837F01122E79C2EE
:0A2C180083EDC313FD0CECB408DFDC
:012C2200228F
:1027C70053B1FD43B20243B10253B2FD7F02122E51
:1027D70079E4FCEDC313FD3081034480FDD2837F90
:1027E70001122E79C2837F01122E790CECB408E313
:0827F70053B1FD43B202AF052E
:0127FF0022B7
:062E1A00AA07E4FD7F8E13
:0F2E2000AB05122BF0AF03122BF6D283C2802228
:0A17F200122BF01227C7D283C28029
:0117FC0022CA
:10001600122E1A7F811217F2EA6006EF4480FF80E3
:1000260004EF547FFFAD077F80122E207D807F8EE8
:03003600022E2077
:1029610053B1F743B20853B1FD43B20253B1FE4331
:10297100B201C283C281C2807FC11217F2EF64A883
:102981006049122E1CE4FD7F80122E207D207F8263
:10299100122E207D077F84122E207D257F86122E08
:1029A100207D127F88122E207D107F8A122E207D9D
:1029B100067F8C122E20E4FD7F90122E207DA87FB1
:0C29C100C0122E207D807F8E122E20225E
:042E2F0012138CFFEF
:102E3300EF54F0C4540F75F00AA4FEEF540F2EFFA5
:012E4300226C
:042D550012138CFFCA
:102D5900E4FEEFC3940A400A74102EFE74F62FFFA6
:072D690080F0EE4FFEAF0603
:012D70002240
:1022F3007F811217F2EF1213B97F831217F2900046
:1023030001EF1213CB7F851217F2900002EF121325
:10231300CB7F871217F2900003EF1213CB7F891242
:1023230017F2900004EF1213CB7F8B1217F2900079
:1023330005EF1213CB7F8D1217F2E42FFFE4342045
:102343009000068FF0121451121373FF122E33EF05
:102353001213B9900001122E2F900001EF1213CB2C
:10236300900002122E2F900002EF1213CB90000365
:10237300122E2F900003EF1213CB900004122E2F76
:10238300900004EF1213CB900005122E2F9000053E
:10239300EF1213CB900006121419FF122E33900084
:0723A30006E48FF002145163
:062582009001441214FB5D
:10258800122E1C7DFF7FC0122E209001441214F2DF
:10259800121373FF122D59AD077F80122E20900160
:1025A800441214F2900001122D55AD077F82122EAD
:1025B800209001441214F2900002122D55AD077FAD
:1025C80084122E209001441214F2900003122D550B
:1025D800AD077F86122E209001441214F290000459
:1025E800122D55AD077F88122E209001441214F247
:1025F800900006121419FF122D59AD077F8C122E68
:0F260800207DA87FC0122E207D807F8E022E2085
:102DD800122E1AAF02122D59AD077F84122E207DB4
:062DE800807F8E022E2008
:102DEE00122E1AAF02122D59AD077F82122E207DA0
:062DFE00807F8E022E20F2
:102E0400122E1AAF02122D59AD077F80122E207D8B
:062E1400807F8E022E20DB
:03000000020F4AA2
:100F4A0075C7AA75C75575FD5A75C7AA75C7557568
:100F5A00FDA5787FE4F6D8FD9000007FFF7E03E4CC
:0C0F6A00F0A3DFFCDEFA758120020FB15D
:100F7600022DC0E493A3F8E493A34003F68001F2A4
:100F860008DFF48029E493A3F85407240CC8C3337C
:100F9600C4540F4420C8834004F456800146F6DF4B
:100FA600E4800B01020408102040809024ECE47ECB
:100FB600019360BCA3FF543F30E509541FFEE49340
:100FC600A360010ECF54C025E060A840B8E493A307
:100FD600FAE493A3F8E493A3C8C582C8CAC583CA32
:100FE600F0A3C8C582C8CAC583CADFE9DEE780BEEA
:012581000059
:10137300BB010689828A83E0225002E722BBFE0278
:09138300E32289828A83E49322AB
:10138C00BB010CE58229F582E5833AF583E0225016
:10139C0006E92582F8E622BBFE06E92582F8E22260
:0D13AC00E58229F582E5833AF583E493227A
:1013B900BB010689828A83F0225002F722BBFE0113
:0213C900F3220D
:1013CB00F8BB010DE58229F582E5833AF583E8F058
:1013DB00225006E92582C8F622BBFE05E92582C804
:0213EB00F222EC
:1013ED00C5F0F8A3E028F0C5F0F8E582158270028B
:0613FD001583E038F02228
:10140300A3F8E0C5F025F0F0E5821582700215839C
:06141300E0C838F0E822F9
:10141900BB0110E58229F582E5833AF583E0F5F011
:10142900A3E0225009E92582F886F008E622BBFEEE
:101439000AE92582F8E2F5F008E222E5832AF58334
:08144900E993F5F0A3E99322F9
:10145100F8BB0111E58229F582E5833AF583E8F0CD
:10146100E5F0A3F0225009E92582C8F608A6F0228A
:0D147100BBFE09E92582C8F2E5F008F22271
:0E147E00C3EF9BFFEE9AFEED99FDEC98FC2269
:10148C00EB9FF5F0EA9E42F0E99D42F0E89C45F0B6
:01149C00222D
:0C149D00E0FCA3E0FDA3E0FEA3E0FF22C2
:0C14A900E0F8A3E0F9A3E0FAA3E0FB22C6
:0C14B500ECF0A3EDF0A3EEF0A3EFF022AA
:1014C100A8828583F0D083D0821214D81214D81246
:1014D10014D81214D8E473E493A3C583C5F0C5836B
:1014E100C8C582C8F0A3C583C5F0C583C8C582C875
:0114F10022D8
:0914F200E0FBA3E0FAA3E0F922FB
:0914FB00EBF0A3EAF0A3E9F022F2
:00000001FF
