:03000B00021E7959
:101E7900C0E0C0D0758CE5758AF5752C010533E590
:101E890033D394C84003753300055BE55B700205E5
:101E99005A0500E500700205000500E5007002051D
:0E1EA90000052EE52E7002052DD0D0D0E032BF
:10212D007589FF5389F0438901538EF7758CE575D9
:09213D008AF5D2A9D2AFD28C229E
:03005B00021B94F1
:0F1B9400C0E0C0D075D000C000C005C006C007BB
:101BA300AD55C2EFAFC3ED25E02434F8760008A6A7
:101BB30007ED25E02434F8C000E6FE08E6C4F85437
:101BC3000FC868FFEEC454F048D000F608A607AF6C
:101BD30005EF25E02434F8C000E6FE08E6FFE5C281
:101BE300540FFDEF4DD000A60608F60555E555C385
:061BF30094104002C2AE96
:0D1BF900D007D006D005D000D0D0D0E0320B
:101DD800E4F5557F207834E4F608DFFC43DE04534D
:101DE800E8F043E80343B14053B2BFE4F5F643F6E5
:101DF8000843E10153E8DF43E81053E1F753E1FBFF
:101E080043E10275D10775D9FF75D40275DCFFD29D
:101E1800DED2DFD2AED2AFE555C3941040F9D2AED0
:011E28002297
:10214600E4F5B1F5B2F5B3F5B4F5ACF5AD12212D64
:08215600121DD8120CD080FB11
:10005E00000808080808080808080808080800002A
:10006E0040404141414141414141414141404000B7
:10007E000000F010101010FF10101010F000000013
:10008E0000000F04040404FF040404040F00000025
:10009E0008080838C808090E0808C83808080800F3
:1000AE008080404020110A040A11204040808000C8
:1000BE0090523410FF10345280708F0808F80800E8
:1000CE00829A566322528E008040330C3340800059
:1000DE00100C042424242526A464240404140C00E7
:1000EE00020202020242827F0202020202020200A7
:1000FE0002E282F212D752D25217FA12169A120056
:10010E00128E621F003F253DA74027182641F000A2
:10011E0000FC0000FF0004848484848484FC0000BE
:10012E00008740300F00202020202020207F00005C
:10013E00100C05555555857F8555555505140C00E4
:10014E000404020A09292A4C48A9190202040400CF
:10015E00101014D4545454FC525252D31210100096
:10016E00404050575555557F5555555750404000B6
:10017E00001715D55557557D555755D515170000F0
:10018E004040407F555555555555557F4040400090
:10019E000000007F494949494949497F0000000054
:1001AE008141211D214181FF8989898989818100B0
:1001BE0000028282422212FA06222242428200006B
:1001CE00010100FC44444445444444FC0000010049
:1001DE007E8181817E000082FF800000C6A1918910
:1001EE0086004281898976003028A6FFA0005F89AB
:1001FE00898971007C92898972000001F10D0300DA
:10020E007689898976004E9191493E0000C0300C66
:10021E00030000F804020204F800000304080804B6
:10022E00030000000404FE000000000008080F0890
:10023E000800001C020282423C00000C0A09080859
:10024E000C00000C024242A21C000006080808081E
:10025E000700008060100CFE000000010109090F6C
:10026E000909007E222222428200000608080804A4
:10027E00030000F844222224C000000304080808EA
:10028E00070000060282621A06000000000F00003E
:10029E000000001CA24242A21C0000070808080829
:1002AE000700007C82828244F800000004080804E3
:1002BE000300000000C0300E01000018060100000F
:1002CE0000000000C038E0000000203C230202279E
:1002DE00382008F8888888700000203F20202011E0
:1002EE000E00C0300808080838000718202020101B
:1002FE00080008F808080810E000203F2020201011
:10030E000F0008F88888E8081000203F20202320DE
:10031E00180008F88888E8081000203F2000030025
:10032E000000C03008080838000007182020221EE0
:10033E00020008F808000008F808203F21010121FA
:10034E003F20000808F8080800000020203F202069
:10035E00000000000808F8080800C08080807F00B8
:10036E00000008F888C028180800203F2001263811
:10037E00200008F8080000000000203F2020202068
:10038E00300008F8F800F8F80800203F013E013F61
:10039E00200008F830C00008F808203F2000071899
:1003AE003F00E01008080810E0000F102020201079
:1003BE000F0008F808080808F000203F210101018D
:1003CE000000E01008080810E0000F102828305038
:1003DE004F0008F8888888887000203F2000030CA2
:1003EE0030200070880808083800003820212122AB
:1003FE001C00180808F8080818000000203F20000C
:10040E00000008F808000008F808001F202020202F
:10041E001F000878880000C83808000007380E0151
:10042E00000008F800F800F8080000033E013E0343
:10043E000000081868808068180820302C03032CF0
:10044E0030200838C800C83808000000203F2000BF
:10045E00000010080808C83808002038262120207F
:10046E0018000000C0201018183060C000000000F6
:10047E00030306060606020100000000381C0203F4
:10048E0083FF3F01000000008040201C0F0300008E
:10049E00000020181C068787C63C1E0100000000C5
:1004AE000201010103070E18608010080E06422398
:1004BE0023B2EF0000000000000004020303061C3C
:1004CE00780040E0980C1E387060E0C0808000001C
:1004DE00010302060C0C08181010007CFEC06030E0
:1004EE00FCFE0301000000000000000000030F3CB2
:1004FE00408000F0FC0E020000000080C0400003AF
:10050E000F3040848CFE730100000000000080C09C
:10051E00C080061F1CF000080FC360203F2710107C
:10052E000C0300202030303078EEC3800000000035
:10053E00000000000000010738C0000000E0700C51
:10054E000672DE8C000000003FCF000000000001AC
:10055E00010000303000000C0C00002400FFFF03EF
:10056E00030303030303030303030303030303034D
:10057E0003030303030303FFFFF8F80000FFFFC0AC
:10058E00C0C0C0C0C0C0C0C0C0C0C0C0C0C0C0C05D
:10059E00C0C0C0C0C0C0C0FFFF1F1F0000FFFFFFD4
:1005AE00FFFFFFFFFF030303030303030303030321
:1005BE0003030303030303FFFFF8F80000FFFFFF2D
:1005CE00FFFFFFFFFFC0C0C0C0C0C0C0C0C0C0C0E2
:1005DE00C0C0C0C0C0C0C0FFFF1F1F0000FFFFFF94
:1005EE00FFFFFFFFFFFFFFFFFFFFFF0303030303F9
:1005FE0003030303030303FFFFF8F80000FFFFFFED
:10060E00FFFFFFFFFFFFFFFFFFFFFFC0C0C0C0C027
:10061E00C0C0C0C0C0C0C0FFFF1F1F0000FFFFFF53
:10062E00FFFFFFFFFFFFFFFFFFFFFFFFFFFFFFFFCC
:10063E00FF030303030303FFFFF8F80000FFFFFFB0
:10064E00FFFFFFFFFFFFFFFFFFFFFFFFFFFFFFFFAC
:10065E00FFC0C0C0C0C0C0FFFF1F1F0000FFFFFFD4
:10066E00FFFFFFFFFFFFFFFFFFFFFFFFFFFFFFFF8C
:10067E00FFFFFFFFFFFFFFFFFFF8F80000FFFFFF88
:10068E00FFFFFFFFFFFFFFFFFFFFFFFFFFFFFFFF6C
:10069E00FFFFFFFFFFFFFFFFFF1F1F00000000F81F
:1006AE00F81818181818181818F8F0E00000000FAD
:1006BE000F0C0C0C0C0C0C0C0C0F0703000000F8AC
:1006CE00F8F8F8181818181818F8F0E00000000FCD
:1006DE000F0F0F0C0C0C0C0C0C0F0703000000F886
:1006EE00F8F8F8F8F818181818F8F0E00000000FED
:1006FE000F0F0F0F0F0C0C0C0C0F0703000000F860
:10070E00F8F8F8F8F8F8F81818F8F0E00000000F0C
:10071E000F0F0F0F0F0F0F0C0C0F0703000000F839
:10072E00F8F8F8F8F8F8F8F8F8F8F0E00000000F2C
:0D073E000F0F0F0F0F0F0F0F0F0F0703000E
:10111F0053B3EF43B410C294E4F55AF55BC3E55BE8
:10112F009402E55A940040F5D29412003EE4F55A29
:10113F00F55BC3E55B9402E55A940040F57BAEE4A2
:10114F00FD7F781220DBE4FBFD7F781220DB7B1222
:10115F00E4FD7F781220DBE4FBFD7F781220DB7B40
:10116F00B0E4FD7F781220DB7B81E4FD7F781220D5
:10117F00DB7BFFE4FD7F781220DB7BA1E4FD7F7832
:10118F001220DB7BA6E4FD7F781220DB7BA8E4FD39
:10119F007F781220DB7B1FE4FD7F781220DB7BC87A
:1011AF00E4FD7F781220DB7BD3E4FD7F781220DB18
:1011BF00E4FBFD7F781220DB7BD5E4FD7F781220E6
:1011CF00DB7B80E4FD7F781220DB7BD9E4FD7F7829
:1011DF001220DB7B1FE4FD7F781220DB7BDAE4FD3E
:1011EF007F781220DB7B12E4FD7F781220DB7BDB24
:1011FF00E4FD7F781220DB7B40E4FD7F781220DB5B
:10120F007B8DE4FD7F781220DB7B14E4FD7F781269
:0E121F0020DB7BAFE4FD7F781220DB7F002216
:101F2700EF2420F574ED24B0FBE4FD7F781220DB6D
:101F3700E57454F0C4540F4410FBE4FD7F7812207D
:0D1F4700DBE574540FFBE4FD7F780220DB26
:1020F7007B8DE4FD7F781220DB7B14E4FD7F781273
:0B21070020DB7BAFE4FD7F780220DBD3
:102112007B8DE4FD7F781220DB7B10E4FD7F78125B
:0B21220020DB7BAEE4FD7F780220DBB9
:1017B700E4F55DE55D24B0FBE4FD7F781220DBE412
:1017C700FBFD7F781220DB7B12E4FD7F781220DBA4
:1017D700755E20E4FB7D407F781220DB055EE55EC9
:0E17E700C3946040EE055DE55DC3940440C50B
:0117F50022D1
:041E29008F698B6BC7
:101E2D00E4F56DF56EE56C5407700BE56C1313134B
:101E3D00541FF570800AE56C131313541F04F570CD
:101E4D008D70E570C3956C5022AD70AF69121F2770
:101E5D0085696FE56FC3956B500DE4FB7D407F7811
:0B1E6D001220DB056F80EC057080D7B1
:011E78002247
:041C06008F698B6BEC
:101C0A00E4F570F571E56C5407700BE56C1313136A
:101C1A00541FF573800AE56C131313541F04F573EC
:101C2A008D73E573C3956C5039AD73AF69121F2775
:101C3A00856972E572C3956B5024AB6DAA6EA96F64
:101C4A000571E571AE707002057014F5828E83120B
:101C5A001B34FB7D407F781220DB057280D505732B
:021C6A0080C038
:011C6C002255
:101FAB00454E474C495348004E4F524D414C0054FF
:101FBB0049424554414E0052535400434E5400592C
:0A1FCB004553004E4F0044455600F8
:10217200015C000156FFC101013200012D00023055
:0221820000005B
:10001600E4F559755801F554F52FF52143B380538E
:10002600B47F43AC0153ADFE43B11053B2EFF55765
:03003600C20022E3
:1015EB00E52C7002C18CE4F52CA29733F5596558A4
:1015FB00603C855958E52F700CE554D3940A40058F
:10160B007521018022E52FC3940A400575210480C2
:10161B0016E52FC394034005752103800AE52FC3FC
:10162B0094024003752102E4F554F52F8013E5591C
:10163B0070130554E554D394C84005E4F554052FB5
:10164B00E4F55AF55B20B01AE4F557300033C200CD
:10165B00852E25752A01756C037B307D017F100269
:10166B001E29E4F55AF55B0557E557D3940A40114B
:10167B0075570A20000BD20085252E752506752A75
:02168B0001223A
:101EB700EF64017029756C02756DFF756E00756FA3
:101EC7007E7B20FD7F10121C06756C02756DFF75F9
:101ED7006E00756F9E7B30E4FD7F20021C06756CDB
:0B1EE700027B30E4FD7F10121E292258
:101AA000755DFF755E1F755FABEF64017060F5607B
:101AB000E56075F008A4FE2404FFC007EE240CFBCB
:101AC000C003756C04AB5DAA5EA95FAF60EF339590
:101AD000E08F82F583121B34FF3395E0FEEFC4F8EC
:101AE000540FC868FFEEC454F048FE74C02FF97458
:101AF000FE3E756DFFF56E896FD003D0077D021233
:101B00001C060560C3E5606480948740A322756C61
:0A1B1000047B3C7D027F04121E29B5
:011B1A0022A8
:10199C00E52AB4011FE4F52A756C037B347D017FC5
:1019AC000C121E297F01121EB77F01121AA085236B
:1019BC005C7533C8E521603DB40119E55C7F0170AD
:1019CC0008121EB7755C018006121AA0E4F55C853E
:1019DC005C23801EE521C394024017855C2375258A
:1019EC0002E4F55CF533752A01FF121AA0E4FF122C
:1019FC001EB7E4F521E533B4640BE5237003FF80D7
:101A0C000FE4FF800EE533B4C80CE5237F017003AF
:071A1C00021EB7121AA022FE
:101D2E00E4757064F56FF56EF56DAF66AE65AD6416
:021D3E00AC6394
:081D40008F6C8E6B8D6A8C69BB
:101D4800900000AF70AE6FAD6EAC6DAB6CAA6BA9B6
:101D58006AA869C3121B83401EA3E56C9570FFE552
:101D68006B956FFEE56A956EFDE569956D8F6C8ED6
:0B1D78006B8D6AF56980CCAE83AF82F2
:011D8300223D
:101D84008F62E4757064F56FF56EF56DAF66AE65E0
:041D9400AD64AC632B
:101D98008F6C8E6B8D6A8C69AF70AE6FAD6EAC6DEB
:101DA800AB6CAA6BA96AA869C3121B83401DE56CBA
:101DB8009570FFE56B956FFEE56A956EFDE5699593
:101DC8006D8F6C8E6B8D6AF56980CDAE6BAF6C22B2
:020F3A008F5DC9
:100F3C00755EFF755F1F7560B3E52364017071E525
:100F4C005D64017060F561E56175F008A4FE24082C
:100F5C00FFC007EE2410FBC003756C02AB5EAA5FEA
:100F6C00A960AF61EF3395E08F82F583121B34FFDC
:100F7C003395E0FEEFC4F8540FC868FFEEC454F08C
:100F8C0048FE74C02FF974FE3E756DFFF56E896FC7
:100F9C00D003D007E4FD121C060561C3E561648033
:100FAC00948640A322756C027B38E4FD7F08803860
:100FBC00E55D64017029756C02756DFF756E0075C9
:100FCC006FBE7B20FD7F10121C06756C02756DFFC9
:100FDC00756E00756FDE7B30E4FD7F20021C06759C
:0B0FEC006C027B30E4FD7F10121E2918
:010FF70022D7
:02122D008F5DD3
:10122F00755EFF755F1F7560BAE52364017071E528
:10123F005D64017060F561E56175F008A4FE24043A
:10124F00FFC007EE240CFBC003756C04AB5EAA5FF6
:10125F00A960AF61EF3395E08F82F583121B34FFE6
:10126F003395E0FEEFC4F8540FC868FFEEC454F096
:10127F0048FE74C02FF974FE3E756DFFF56E896FD1
:10128F00D003D0077D02121C060561C3E56164809F
:10129F00948740A322756C047B3C7D027F0480629F
:1012AF00E55D64017053756C04756DFF756E0075A7
:1012BF006FFE7B107D02FF121C06756C04756DFFAF
:1012CF00756E00756F9E7B207D027F10121C067558
:1012DF006C04756DFF756E00756FBE7B307D027F80
:1012EF0020121C06756C04756DFF756E00756FDE30
:1012FF007B407D027F30021C06756C047B407D02B3
:05130F00E4FF121E299D
:0113140022B6
:10188C00E52AB40113E4F52A7F01120F3A7F011205
:10189C00122D85245C7533C8E521603EB4011AE530
:1018AC005C7F01B4010812122DE4F55C8006120F66
:1018BC003A755C01855C24801EE521C394024017B7
:1018CC00752503855C24E4F55CF533752A01FF125C
:1018DC000F3AE4FF12122DE4F521E533B46410E560
:1018EC005CB40104E4FF8013E55C701BFF8015E51C
:1018FC0033B4C813E55CB401057F0102122DE55C1D
:08190C0070057F01120F3A2261
:080800008F608E5F8D5E8C5D40
:10080800E4F567F568E561700B756C047B407D0263
:10081800FF021E29856066855F65855E64855D6368
:10082800E5246002219375680C757010756F2712A6
:100838001D348F62E4757010756F27121D8CE48F5C
:10084800668E65F564F563E562602875F010A4248A
:1008580020F9740235F0756DFFF56E896FE568242F
:1008680008FB756C047D02AF68121C06756701747D
:1008780008800274042568F568E47570E8756F03EC
:10088800121D348F62E47570E8756F03121D8CE4D5
:100898008F668E65F564F563E56764016004E5625B
:1008A800602A756701E56275F010A42420F97402C6
:1008B80035F0756DFFF56E896FE5682408FB756C7A
:1008C800047D02AF68121C0674088002740425684F
:1008D800F568121D2E121D84E48F668E65F564F589
:1008E80063E56764016004E562602A756701E56293
:1008F80075F010A42420F9740235F0756DFFF56EBB
:10090800896FE5682408FB756C047D02AF68121CCA
:10091800067408800274042568F568E475700A1284
:100928001D328F62E475700A121D8AE48F668E6527
:10093800F564F563E56764016004E562602A75673C
:1009480001E56275F010A42420F9740235F0756D84
:10095800FFF56E896FE5682408FB756C047D02AFAE
:1009680068121C067408800274042568F568856698
:1009780062E56275F010A42420F9740235F0756DF3
:10098800FFF56E896FE568240841F7756802E4751C
:100998007010756F27121D348F62E4757010756FB3
:1009A80027121D8CE48F668E65F564F563E5626039
:1009B8002875F018A42470F9740435F0756DFFF5E6
:1009C8006E896FE568240CFB756C047D02AF6812B4
:1009D8001C06756701740C800274062568F568E4C6
:1009E8007570E8756F03121D348F62E47570E875D1
:1009F8006F03121D8CE48F668E65F564F563E567F9
:100A080064016004E562602AE56275F018A4247048
:100A1800F9740435F0756DFFF56E896FE568240C7F
:100A2800FB756C047D02AF68121C06756701740CB7
:100A3800800274062568F568121D2E121D84E48F45
:100A4800668E65F564F563E56764016004E56260D8
:100A58002AE56275F018A42470F9740435F0756DF0
:100A6800FFF56E896FE568240CFB756C047D02AF99
:100A780068121C06756701740C800274062568F5F7
:100A880068E475700A121D328F62E475700A121DCF
:100A98008AE48F668E65F564F563E5676401600432
:100AA800E562602AE56275F018A42470F9740435CB
:100AB800F0756DFFF56E896FE568240CFB756C04A5
:100AC8007D02AF68121C06756701740C80027406FB
:100AD8002568F568856662E56275F018A42470F9E2
:100AE800740435F0756DFFF56E896FE568240CFBAD
:0A0AF800756C047D02AF68121C0645
:010B020022D0
:020B0300AD073C
:100B0500E4FFFE7CFFE555C39410500281CDC2AED3
:100B1500E4F555FBEB04FAEAC39410503AEA25E0F4
:100B25002434F8E6FE08E6FFEB25E02434F8E6F584
:100B35008308E6F582D3EF9582EE95834016EA2584
:100B4500E02434F8A68308A682EB25E02434F8A631
:100B55000608A6070A80C00BBB10B9E4FEFF7B049C
:100B6500EB25E02434F8E6F58308E62FFFE5833E20
:100B7500FE0BBB10EBEF7803CEC313CE13D8F9FFF2
:100B8500BD010724E0FF74FF3EFEE53145307002EC
:100B95008059E5312405FBE43530FAD3EF9BEE9A15
:100BA500400B0531E531700205307FFF22EF24054A
:100BB500FBE43EFAC3EB9531EA9530500BE5311570
:100BC50031700215307FFF22E5312FFFE5303EC33E
:100BD50013FEEF13FFBD010AD39531EE9530400F9B
:100BE5008009D3E5319FE5309E40048E308F31205A
:100BF5000140D3E5319460E530940940047C0481DB
:100C0500CAD3E5319400E530940940047C0381CAD8
:100C1500D3E53194A0E530940840047C0281CAD321
:100C2500E5319440E530940840047C0181CAE4FC38
:100C350081CAC3E5319438E53094085004E4FC805A
:100C450058D3E5319448E5309408400EE531949841
:100C5500E530940850047C01803FD3E53194A8E544
:100C6500309408400EE53194F8E530940850047C42
:100C7500028026D3E5319408E5309409400EE5312C
:100C85009458E530940950047C03800DD3E53194E4
:100C950068E530940940027C04EC6556602705320E
:100CA500E532C394055004AC56801DE4F532BD0110
:100CB5000AECD395565011AC56800DECC3955640B1
:0A0CC50007AC568003E4F532AF04DB
:010CCF002202
:101FD500EF75F020A424ABF9740635F0755EFFF5B6
:101FE5005F8960D201756C02756DFF756E06756F40
:091FF500AB7B10E4FDFF021C06A9
:10207900E4FF120B038F5DE55DF46014E556655DC1
:102089006008855D56AF56121FD5855D2BE4F55561
:012099002224
:10131500E52A6401702DF52AF533C201121DD8AFF7
:1013250029AE28AD27AC26756101120800E52BB45E
:10133500FF09C201E4FF120B038F2B852B56AF2B40
:10134500121FD5122079E521700261ED6401704C00
:10135500E5292401FFE43528FEE43527FDE435269B
:101365008F298E288D27F5267F9F7E867D017C001F
:10137500AB29AA28A927F8D3121B834012E4F52923
:10138500F528F527F526F561FFFEFDFC120800AFEF
:1013950029AE28AD27AC267561018046E521B40349
:1013A5001F752504752A01E4F55C7556FF756C02F9
:1013B5007B40FDFF121E29E4F561FFFEFDFC802246
:1013C500E521B40420752505752A01E4F55C7556FB
:1013D500FF756C027B40FDFF121E29E4F561FFFEDF
:0913E500FDFC120800E4F52122D0
:020E1B008F5DE9
:100E1D00755FFF75601F7561C27562FF75631F7524
:100E2D0064C6E52364016002C1FEE55D64016002F4
:100E3D00C1F3F55EE55E75F008A4FE2406FFC0075C
:100E4D00EE240EFBC003756C02AB5FAA60A961AF07
:100E5D005EEF3395E08F82F583121B34FF3395E0FF
:100E6D00FEEFC4F8540FC868FFEEC454F048FE748A
:100E7D00C02FF974FE3E756DFFF56E896FD003D0EE
:100E8D0007E4FD121C06E55E75F008A4FE2420FFA4
:100E9D00C007EE2428FBC003756C02AB62AA63A9E0
:100EAD0064AF5EEF3395E08F82F583121B34FF3311
:100EBD0095E0FEEFC4F8540FC868FFEEC454F04837
:100ECD00FE74C02FF974FE3E756DFFF56E896FD0FF
:100EDD0003D007E4FD121C06055EC3E55E64809435
:100EED00835002C14122756C027B38E4FD7F068080
:100EFD0038E55D64017029756C02756DFF756E01C5
:100F0D00756F1E7B20FD7F10121C06756C02756DB2
:100F1D00FF756E01756F3E7B30E4FD7F20021C0670
:0C0F2D00756C027B30E4FD7F10121E2961
:010F39002295
:021499008F5D65
:10149B00755FFF75601F7561CAE52364017071E5A7
:1014AB005D64017060F55EE55E75F008A4FE240ACC
:1014BB00FFC007EE2412FBC003756C04AB5FAA6080
:1014CB00A961AF5EEF3395E08F82F583121B34FF7A
:1014DB003395E0FEEFC4F8540FC868FFEEC454F028
:1014EB0048FE74C02FF974FE3E756DFFF56E896F63
:1014FB00D003D0077D02121C06055EC3E55E648037
:10150B00948340A322756C047B227D027F0A802387
:10151B00E55DB40115756C04756DFF756E01756F26
:10152B009E7B1C7D027F0C021C06756C047B1C7D54
:06153B00027F0C121E29C4
:011541002287
:021542008F5DBB
:10154400755FFF75601F7561CEE52364017071E5F9
:101554005D64017060F55EE55E75F008A4FE242606
:10156400FFC007EE242EFBC003756C04AB5FAA60BA
:10157400A961AF5EEF3395E08F82F583121B34FFD0
:101584003395E0FEEFC4F8540FC868FFEEC454F07E
:1015940048FE74C02FF974FE3E756DFFF56E896FB9
:1015A400D003D0077D02121C06055EC3E55E64808D
:1015B400948240A322756C047B367D027F268023AF
:1015C400E55DB40115756C04756DFF756E01756F7D
:1015D400BE7B347D027F24021C06756C047B347D43
:0615E400027F24121E2903
:0115EA0022DE
:10168D00E52AB40115E4F52A7F01120E1B7F011224
:10169D0014997F011215427533C8E521604AB401D2
:1016AD0015E55C700A7F01121499755C018036E4B2
:1016BD00F55C7F01802CE521C394024028E55C7028
:1016CD0008F529F528F527F526752503E4F55CF5CC
:1016DD00337556FF752A01FF120E1BE4FF12149984
:1016ED00E4FF121542E4F521E533B46410E55C70B6
:1016FD0003FF8014E55C6401701BFF8015E533B4B6
:10170D00C813E55C70057F01021499E55CB4010511
:06171D007F0112154222BB
:021000008F5D02
:10100200755FFF75601F7561C27562FF75631F753D
:1010120064D1E5236401600201E3E55D64016002DD
:1010220001D8F55EE55E75F008A4FE2406FFC00750
:10103200EE240EFBC003756C02AB5FAA60A961AF20
:101042005EEF3395E08F82F583121B34FF3395E018
:10105200FEEFC4F8540FC868FFEEC454F048FE74A3
:10106200C02FF974FE3E756DFFF56E896FD003D007
:1010720007E4FD121C06E55E75F008A4FE2420FFBD
:10108200C007EE2428FBC003756C02AB62AA63A9F9
:1010920064AF5EEF3395E08F82F583121B34FF332A
:1010A20095E0FEEFC4F8540FC868FFEEC454F04850
:1010B200FE74C02FF974FE3E756DFFF56E896FD018
:1010C20003D007E4FD121C06055EC3E55E6480944E
:1010D200835002012622756C027B38E4FD7F068074
:1010E20038E55D64017029756C02756DFF756E01DE
:1010F200756F5E7B20FD7F10121C06756C02756D8C
:10110200FF756E01756F7E7B30E4FD7F20021C0649
:0C111200756C027B30E4FD7F10121E297A
:01111E0022AE
:10172300E52AB40115E4F52A7F011210007F0112A6
:1017330014997F011215427533C8E5216048B4013D
:1017430018E55C700A7F01121499755C018034E41A
:10175300F55C7F01121542802AE521C394024023E0
:10176300E4FF121000E4FF121499E4FF121542E59E
:101773005C7004F5258003752503E4F55C752A0187
:101783007556FFE4F521E533B46410E55C7003FF9F
:101793008014E55C6401701BFF8015E533B4C81346
:1017A300E55C70057F01021499E55CB401057F01D6
:0417B30012154222A7
:10202900EF75F040A4246BF9740535F0755EFFF582
:102039005F8960D201756C03855E6DF56E896F7B72
:08204900307D017F10021C062E
:101CD300E52A64017028F52A756C047B40FDFF1228
:101CE3001E29121DD8E52BB4FF09C2017F01120B77
:101CF300038F2B852B56AF2B122029E4F533E521D7
:101D03006003E4F521E533B4C8207F01120B038F90
:101D13005DE55DF46014E556655D6008855D56AF6D
:0A1D230056122029855D2BE4F555CA
:011D2D002293
:10200000E52524FE60131460131460131460131488
:1020100060132405701202199C02188C0213150219
:09202000168D021723121CD322B5
:03003B00020006BA
:0400060075EC003263
:0300030002000AEE
:01000A0032C3
:0300130002000EDA
:01000E0032BF
:101EF20043AC0153ADFEA2AF920275C7AA75C75596
:101F020075910143AC0175C7AA75C755E4F591A255
:101F12000292AF43E90453EAFE43EB0143E9034370
:051F22009B02D2AF227A
:1020510043B38053B47FA2AF920275C7AA75C75527
:1020610075910143B38075C7AA75C755E4F591A26F
:082071000292AFD2AAD2AF2205
:10215E00121EF212205143870253E9FEC2A8C2AAF0
:04216E00539BFD2260
:100CD000539BFD12111F1217B71200167B007A00EA
:100CE0007922E4FDFC7F0A121A23E4F55C752A01DF
:100CF000F55AF55BC2017556FFF530F531121DD876
:100D00003097FD1215EBE522B4A506E5256002A19A
:100D1000BCE4F523F524F529F528F527F5267522F9
:100D2000A5752501752BFF7556FF7D017F07121FE5
:100D300027756C03756DFF756E03756F707B147D81
:100D4000017F0C121C06756C03756DFF756E0075C6
:100D50006F5E7B247D017F14121C06756C03756D1C
:100D6000FF756E04756F307B2C7D017F24121C068D
:100D7000756C03756DFF756E02756FD07B347D01E8
:100D80007F2C121C06E4F55AF55BFDFCFF7E021277
:100D900019147D007C027F007E02121914C3E55BEA
:100DA0009490E55A940140F5E4F55AF55B752A01F3
:100DB000756C037B347D017F0C121E29122000E527
:100DC0002DC394C84005D2AEE4F52DC3E55B94E88D
:100DD000E55A94035002A103122112E52564046030
:100DE00005E525B405037525037B007A007922E427
:100DF000FDFC7F0A1213EEE4F5B1F5B2F5B3F5B4DC
:100E0000F5ACF5AD53E1FE43B31043B410C29412F8
:0B0E1000215EE4F55AF55B121DD822AC
:101F5400A2AF9202C2AF75C7AA75C75543A401A226
:101F64000292AFE59F30E613A2AF9202C2AF75C7EB
:0C1F7400AA75C755539FBFA20292AF226E
:081914008C758D76AB07AA0665
:10191C00EB4A607BEBAE027807CEC313CE13D8F93B
:10192C00F5788E77EB547F60080578E578700205C2
:10193C0077A2AF9202C2AF75C7AA75C755439F0174
:10194C00A20292AF75AEFF75AF62A2AF9202C2AFA8
:10195C0075C7AA75C75543A502A20292AFE4FDFC58
:10196C00C3ED9578EC95775026ED75F080A425762F
:10197C00F5A6EDAE047807C333CE33CED8F9257671
:0F198C00E5753EF5A7121F540DBD00010C80D16B
:01199B002229
:0A1800008E758F768B778A788979D0
:10180A00A2AF9202C2AF75C7AA75C755439F01A27C
:10181A000292AFA2AF9202C2AF75C7AA75C755436B
:10182A00A502A20292AFEDF5A68CA775AF61E4FFFF
:10183A00FEC3EF9576EE95755021AB77AA78A97914
:10184A008F828E83121B34F5AE121F5405A6E5A6AD
:10185A00700205A70FBF00010E80D6A2AF9202C286
:10186A00AF75C7AA75C75553A5FDA20292AFA2AF1D
:10187A009202C2AF75C7AA75C755539FFEA20292BC
:01188A00AFAE
:01188B00223A
:0A1C6D008E758F768B778A7889795F
:101C7700A2AF9202C2AF75C7AA75C755439F01A20B
:101C87000292AFEDF5A68CA775AF40E4FFFEC3EF58
:101C97009576EE95755021121F54AB77AA78A979DE
:101CA7008F828E83E5AE121B6105A6E5A67002053D
:101CB700A70FBF00010E80D6A2AF9202C2AF75C7B1
:0B1CC700AA75C755539FFEA20292AF02
:011CD20022EF
:0C1A23008F5D8C5E8D5F8B608A61896234
:101A2F00E4F563AF5D7E00C007E56375F010A42594
:101A3F005FFDE55E35F0FCAB60AA61A962D00712CD
:101A4F001C6DAB60AA61A962121B1BB4A5090563CB
:101A5F00E563C3942040CCE5637014C3E55E940244
:101A6F00502EE4255FF55F7402355EF55E80B1158B
:101A7F0063AF5D7E00C007E56375F010A4255FFDC1
:101A8F00E55E35F0FCAB60AA61A962D007121C6D50
:011A9F002224
:0C13EE008F5D8C5E8D5F8B608A61896270
:1013FA00E4F573AF5D7E00C007E57375F010A425B0
:10140A005FFDE55E35F0FC7B007A007963D0071258
:10141A001C6DE563B4A5090573E573C3942040D335
:10142A00857374E573B4200EAD5FAC5E7F007E02F7
:10143A00121914E4F573AF5D7E00C007E57375F009
:10144A0010A4255FFDE55E35F0FCAB60AA61A962D8
:10145A00D007121800E574B4200E7D007C027F00CC
:10146A007E02121914E4F574AF5D7E00C007E574BC
:10147A0075F010A4FF255FCFE55E35F0CF2400FD9F
:0F148A00EF3402FCAB60AA61A962D00702180020
:0821960043B30243B402C292FC
:07219E00E4FFFEEF4E70FCB0
:0121A5002217
:10003E0053B3FB43B40443B30443B404D29253B357
:0D004E00FD43B40243B30243B402D2912239
:10218500D291D29212219EC29112219EC292022117
:012195009EAB
:0A17F600C291D29212219ED29122DC
:02209A00AD0790
:10209C00E4FCED30E704D2918002C291ED25E0FD25
:0E20AC00D29212219EC29212219E0CBC08E418
:0120BA002203
:0320BB0012209A56
:1020BE0043B30253B4FDD29212219E3091091217EE
:0D20CE00F61221967F01221221967F00223A
:1020DB00AC07AA05122185AF041220BBAF02122058
:0C20EB00BBAF0312209A1220BE0217F6B1
:0C21A600C291C29212219ED29202219E90
:101F8000E4FDFC43B30253B4FDC29212219ED292EF
:101F900012219EEC25E0FC3091010C0DBD08EA43B6
:0A1FA000B30243B4021221A6AF04FD
:011FAA002214
:0300000002074BA9
:10074B0075C7AA75C75575FD5A75C7AA75C755756F
:10075B00FDA5787FE4F6D8FD9000007FFF7E03E4D3
:0C076B00F0A3DFFCDEFA7581790207B212
:10077700022146E493A3F8E493A34003F68001F231
:1007870008DFF48029E493A3F85407240CC8C33383
:10079700C4540F4420C8834004F456800146F6DF52
:1007A700E4800B0102040810204080902172E47E4F
:1007B700019360BCA3FF543F30E509541FFEE49347
:1007C700A360010ECF54C025E060A840B8E493A30E
:1007D700FAE493A3F8E493A3C8C582C8CAC583CA39
:1007E700F0A3C8C582C8CAC583CADFE9DEE780BEF1
:01218400005A
:101B1B00BB010689828A83E0225002E722BBFE02C8
:091B2B00E32289828A83E49322FB
:101B3400BB010CE58229F582E5833AF583E0225066
:101B440006E92582F8E622BBFE06E92582F8E222B0
:0D1B5400E58229F582E5833AF583E49322CA
:101B6100F8BB010DE58229F582E5833AF583E8F0BA
:101B7100225006E92582C8F622BBFE05E92582C866
:021B8100F2224E
:101B8300EB9FF5F0EA9E42F0E99D42F0E89C45F0B8
:011B9300222F
:00000001FF
