:10003E00000808080808080808080808080800004A
:10004E0040404141414141414141414141404000D7
:10005E000000F010101010FF10101010F000000033
:10006E0000000F04040404FF040404040F00000045
:10007E0008080838C808090E0808C8380808080013
:10008E008080404020110A040A11204040808000E8
:10009E0090523410FF10345280708F0808F8080008
:1000AE00829A566322528E008040330C3340800079
:1000BE00100C042424242526A464240404140C0007
:1000CE00020202020242827F0202020202020200C7
:1000DE0002E282F212D752D25217FA12169A120076
:1000EE00128E621F003F253DA74027182641F000C3
:1000FE0000FC0000FF0004848484848484FC0000DF
:10010E00008740300F00202020202020207F00007C
:10011E00100C05555555857F8555555505140C0004
:10012E000404020A09292A4C48A9190202040400EF
:10013E00101014D4545454FC525252D312101000B6
:10014E00404050575555557F5555555750404000D6
:10015E00001715D55557557D555755D51517000010
:10016E004040407F555555555555557F40404000B0
:10017E000000007F494949494949497F0000000074
:10018E008141211D214181FF8989898989818100D0
:10019E0000028282422212FA06222242428200008B
:1001AE00010100FC44444445444444FC0000010069
:1001BE00000080C0E0F030303030F0E0C080000051
:1001CE0000FFFFFFFF000000000000FFFFFFFE002A
:1001DE000001070F0F1C181010181E0F0F0301003F
:1001EE00000000406060E0E0F0F000000000000061
:1001FE00000000000000FFFFFFFF000000000000F5
:10020E000000001010101F1F1F1F181010100000EC
:10021E000080C0E0E0303010303070E0E0C0000010
:10022E00000103030381C0E060303C1F0F07000094
:10023E0000181C1E1B1B19181818181C1E1F030053
:10024E000000C0E0E03030103030F0E0C080000040
:10025E000000010101001818181C3FFFE7C38000C1
:10026E0000060F0F1F18101010181C0F0F07030099
:10027E000000000000000080C0F0F0F00000000060
:10028E0080C0E0F09C8E878381FFFFFF808080809E
:10029E000000000000101010181F1F1F1810100073
:1002AE000000C0F0F03030303030303030300000F0
:1002BE0000001F3F1F0C0C0C0C0C1CFCF8F0C000B7
:1002CE0000060F0F1F18101010181C1F0F0701002B
:1002DE00000080C0E06030301010F0F0E0C0000090
:1002EE0000FEFFFFFF180C0C0C0C1CFCF8F0E000DD
:1002FE000001070F0F1C18101010181F0F07030016
:10030E000080F0F070303030303030F0F07030006F
:10031E00000101010000C0F0FC3E0F0300000000D0
:10032E0000000000001F1F1F1F0000000000000043
:10033E000080C0E060303010103030E0E0C080004F
:10034E0000C3E7FF7E3C1C1838387CFFE7C78100EE
:10035E0000070F0F181810101010181F0F070300AA
:10036E000080C0E0F0303010303070E0E0800000EF
:10037E00001F3F3F78606060606030FFFFFF7F00CE
:10038E0000000C1E1E1C1010181C0F0F0701000081
:10039E000000C038E0000000203C23020227382075
:1003AE0008F8888888700000203F202020110E0059
:1003BE00C030080808083800071820202010080050
:1003CE0008F808080810E000203F202020100F0039
:1003DE0008F88888E8081000203F20202320180005
:1003EE0008F88888E8081000203F2000030000006D
:1003FE00C03008080838000007182020221E02000E
:10040E0008F808000008F808203F210101213F20CC
:10041E00000808F8080800000020203F20200000F7
:10042E0000000808F8080800C08080807F000000E7
:10043E0008F888C028180800203F20012638200020
:10044E0008F8080000000000203F20202020300087
:10045E0008F8F800F8F80800203F013E013F2000A0
:10046E0008F830C00008F808203F200007183F00A9
:10047E00E01008080810E0000F10202020100F00D8
:10048E0008F808080808F000203F210101010000CB
:10049E00E01008080810E0000F10282830504F0018
:1004AE0008F8888888887000203F2000030C3020D0
:1004BE0000708808080838000038202121221C000E
:1004CE00180808F8080818000000203F2000000057
:1004DE0008F808000008F808001F202020201F0040
:1004EE000878880000C83808000007380E010000A0
:1004FE0008F800F800F8080000033E013E03000073
:10050E00081868808068180820302C03032C3020CF
:10051E000838C800C83808000000203F200000003E
:10052E0010080808C8380800203826212020180096
:10053E0000000080C0E0F070F0E0C080000000001D
:10054E00007CFFFFF3E1C08080818387CFFE7C00BB
:10055E000000000001010101010101010100000084
:10056E000000C0F0F8FC3E0E0E0EEEFEFEFE1E0269
:10057E000001010100000080E0FCFF3F0F030000BE
:10058E00406030301C0C0E0703030000000000001A
:10059E0000E0F8F87C0E0606CEFEFEFE0600000019
:1005AE000101191C0C0C1C1E3FFBF1E0C0000000E9
:1005BE000000000000000000000001071F3EF000D8
:1005CE000060783C1C8EC6C6FEFEDCC0000000003B
:1005DE0000000040613138181F3FFBF1C0000000E1
:1005EE000000000000000000000000073F7EF00049
:1005FE00000000C0F0F0F0800000000000000000DD
:10060E00081E3F3FF1E3C7C78F8E1E1C1C1810102B
:10061E0000000000000001010303030707060404A5
:10062E0000FCF8F0000000E0F8FCFE060000000000
:10063E00001F3F1F0C0E06030F7FFFFCE0000000A3
:10064E000000000000000000000001070F1F302016
:10065E0000C0E0F0381C0C04000000000000000098
:10066E00003FFFFF8000000060F0F8FC8E070300E3
:10067E00000003070F1E181810191F0F07000000A7
:10068E00000000000000000002060E1C78F0C00002
:10069E0000C0E0F0781C0CFCF8F0000000FFFF003A
:1006AE0002034160303C3E333139181C0F07010004
:1006BE000000000080C0E0F07E3C00000000000062
:1006CE0002030303030303060E3E7CF8C000000082
:1006DE000000000000000000000000010F3F780045
:1006EE00000080E0F0783C1C8ECEFE7E3C180000B0
:1006FE0000FCFFFF0300000003070F1E1C1C0C0074
:10070E000001070F1E3C3830000000000000000002
:10071E00FF010101010101010101010101010101BD
:10072E0001010101010101010101010101FFF8F8BF
:10073E00FF8080808080808080808080808080802C
:10074E0080808080808080808080808080FF1F1FDE
:10075E00FF01FDFDFDFDFDFDFDFD0101010101019D
:10076E0001010101010101010101010101FFF8F87F
:10077E00FF80BFBFBFBFBFBFBFBF808080808080F4
:10078E0080808080808080808080808080FF1F1F9E
:10079E00FF01FDFDFDFDFDFDFDFD01FDFDFDFDFD71
:1007AE00FDFDFD01010101010101010101FFF8F84B
:1007BE00FF80BFBFBFBFBFBFBFBF80BFBFBFBFBF79
:1007CE00BFBFBF80808080808080808080FF1F1FA1
:1007DE00FF01FDFDFDFDFDFDFDFD01FDFDFDFDFD31
:1007EE00FDFDFD01FDFDFDFDFDFDFDFD01FFF8F82B
:1007FE00FF80BFBFBFBFBFBFBFBF80BFBFBFBFBF39
:10080E00BFBFBF80BFBFBFBFBFBFBFBF80FF1F1F68
:10081E00FF8181818181818181818181818181813C
:10082E008181818181FF3C3CFF81BDBDBDBDBD810C
:10083E0081818181818181818181818181FF3C3CA6
:10084E00FF81BDBDBDBDBD81BDBDBDBDBDBD818178
:10085E008181818181FF3C3CFF81BDBDBDBDBD81DC
:10086E00BDBDBDBDBDBD81BDBDBDBDBD81FF3C3CE2
:1025700053B3EF43B410C294E47834F208F2C37852
:1025800035E2940218E2940040F4D29412000EE472
:102590007834F208F2C37835E2940218E2940040ED
:1025A000F47BAEE4FD7F3CFE123646E4FBFD7F3C4F
:1025B000FE1236467B12E4FD7F3CFE123646E4FBFB
:1025C000FD7F3CFE1236467BB0E4FD7F3CFE1236BA
:1025D000467B81E4FD7F3CFE1236467BFFE4FD7FB7
:1025E0003CFE1236467BA1E4FD7F3CFE1236467B64
:1025F000A6E4FD7F3CFE1236467BA8E4FD7F3CFE50
:102600001236467B1FE4FD7F3CFE1236467BC8E453
:10261000FD7F3CFE1236467BD3E4FD7F3CFE123646
:1026200046E4FBFD7F3CFE1236467BD5E4FD7F3C55
:10263000FE1236467B80E4FD7F3CFE1236467BD997
:10264000E4FD7F3CFE1236467B1FE4FD7F3CFE121C
:1026500036467BDAE4FD7F3CFE1236467B12E4FD13
:102660007F3CFE1236467BDBE4FD7F3CFE123646A5
:102670007B40E4FD7F3CFE1236467B8DE4FD7F3CD3
:10268000FE1236467B14E4FD7F3CFE1236467BAFDD
:0B269000E4FD7F3CFE1236467F002276
:1034A000EF2420785BF2ED24B0FBE4FD7F3CFE12BC
:1034B0003646785BE254F0C4540F4410FBE4FD7FC1
:1034C0003CFE123646785BE2540FFBE4FD7F3CFE87
:0334D0000236467B
:103667007B8DE4FD7F3CFE1236467B14E4FD7F3CF8
:0E367700FE1236467BAFE4FD7F3CFE02364677
:103685007B8DE4FD7F3CFE1236467B10E4FD7F3CDE
:0E369500FE1236467BAEE4FD7F3CFE0236465A
:10332000E4783DF2783DE2FFC394045040EF24B0CE
:10333000FBE4FD7F3CFE123646E4FBFD7F3CFE12C3
:1033400036467B12E4FD7F3CFE123646783E742002
:10335000F2E4FB7D407F3CFE123646783EE204F20A
:0D336000E2C3946040EB783DE204F280B7D8
:01336D00223D
:0830F2007849EFF2784BEBF294
:1030FA00E4784DF208F2784CE2FF54077008EF13B7
:10310A001313541F8009784CE2131313541F0478C5
:10311A0050F27850EDF2784CE2FF7850E2FDC39F0E
:10312A0050307849E2FF1234A07849E2784FF278B9
:10313A004BE2FF784FE2C39F5011E4FB7D407F3C96
:10314A00FE123646784FE204F280E47850E204F246
:02315A0080C42F
:01315C002250
:082D2C00784FEFF27851EBF251
:102D3400E47857F208F27852E2FF54077008EF1370
:102D44001313541F80097852E2131313541F047889
:102D54005AF2785AEDF27852E2FF785AE2FDC39FB4
:102D6400506A784FE2FF1234A0784FE27859F27833
:102D740051E2FF7859E2C39F504B7856E278536092
:102D84001B120FBB785708E2FF2401F218E2FE344D
:102D940000F28F828E83120DD8F48018120FBB7844
:102DA4005708E2FF2401F218E2FE3400F28F828E0B
:102DB40083120DD8FB7D407F3C7E00123646785945
:0C2DC400E204F280AA785AE204F2808A4D
:012DD00022E0
:102F82000D0A2056444420766F6C74616765203DBB
:102F92002025302E3466000D0A2042415420766FDF
:102FA2006C74616765203D2025302E3466006C65A7
:102FB20076656C206572726F723D25640D0A000A97
:102FC20020424720524F4D4D4150203D2025650063
:102FD2000D0A2056444420766F6C74616765203D6B
:102FE2002025650073746172740D0A00736C656547
:0D2FF200700D0A0077616B6575700D0A00A7
:1036C000813600811D008126FFC10B812200811FF0
:0936D00000822A00008230000093
:03000B000233FCC1
:1033FC00C0E0C0D075D000C000758CE5758AF5783A
:10340C001E7401F27823E204F2E2D394C84002E481
:10341C00F27835E22401F218E23400F2781FE2046B
:08342C00F2D000D0D0D0E03254
:1036DA007589FF5389F0438901538EF7758CE57517
:0936EA008AF5D2A9D2AFD28C22DC
:10321C00783D120F9653B1FB53B2FB53B3BF53B46B
:10322C00BF75F85075C40853C4DF783D120F897F01
:10323C00407E427D0F7C00120EB9C374FF9FFF7459
:10324C00FF9EFEE49DFDE49CFC7808120F6A8FC67D
:10325C00783D120F897F407E427D0F7C00120EB9A3
:0B326C00C374FF9FFF8FC543C40822FE
:07372D0030F8FDAF9AC2F86D
:013734002272
:08373500C2F98F9A30F9FD2260
:08373D0030F9FDC2F98F9A2258
:10336E007800120F96538EEF438910D28EE4FFFE33
:10337E00FDFC7800120F89C3120F596027758B7EE2
:10338E00758DFF308FFDC28F7800120F7DEF24FFF9
:10339E00FFEE34FFFEED34FFFDEC34FFFC7800123F
:0733AE000F9680C9C28E22B8
:10358A00E47833F21804F2E47824F27821F2780E1F
:10359A00F243B38053B47F43AC0153ADFE43B11041
:0935AA0053B2EF7828F2C20922A5
:10173500781EE27002E1F9E4F2A297337833F218E9
:10174500E2FF08E2FE6F601E18EEF27821E2700DEE
:101755007824E2D3940A4005780E7401F2E47824E3
:10176500F27821F2803BEE703D7824E204F2E2C388
:1017750094C8402CE4F27821E204F2E2FF940A4096
:1017850007780E7404F28018EFC394054007780EAD
:101795007403F2800BEFC394024005780E7402F2D5
:1017A500E47834F208F220B022E47828F2300944D3
:1017B500C2097820E27812F278177401F2784C7435
:1017C50003F27B307D017F100230F2E47834F208B9
:1017D500F27828E204F2E2D3940A4018740AF2205F
:1017E5000912D2097812E27820F278127405F2789B
:0517F500177401F2224F
:1032CC00783DEDF2EF6401703C78527404F27BFFB0
:1032DC007A00795E08120FD4783DE27856F27B20A2
:1032EC007D027F10122D2C78527404F27BFF7A0031
:1032FC00797E08120FD4783DE27856F27B307D024D
:10330C007F20022D2C784C7404F27B307D027F10D0
:04331C001230F22257
:102A2800783DEDF2EF64016002610578527402F2BC
:102A38007BFF7A0379DE08120FD4783DE27856F2EC
:102A48007B0CE4FD7F04122D2C78527402F27BFF7C
:102A58007A04796E08120FD4783DE27856F27B1426
:102A6800E4FD7F0C122D2C78527402F27BFF7A035E
:102A780079FE08120FD4783DE27856F27B1CE4FD0B
:102A88007F14122D2C78527402F27BFF7A04794E4F
:102A980008120FD4783DE27856F27B24E4FD7F1CBF
:102AA800122D2C78527402F27BFF7A04791E0812D8
:102AB8000FD4783DE27856F27B2CE4FD7F24122D6A
:102AC8002C78527402F27BFF7A0479BE08120FD474
:102AD800783DE27856F27B34E4FD7F2C122D2C7879
:102AE800527402F27BFF7A04790E08120FD4783DF3
:102AF800E27856F27B3CE4FD7F34022D2C784C744E
:0C2B080002F27B3CE4FD7F041230F2225C
:101F67007817E264017025F2784C7403F27B347DB4
:101F7700017F0C1230F2E4FD7F011232CC7D017F2C
:101F870001122A2878367401F23097FD780EE26044
:101F970062640170337836E27014FD7F011232CC2F
:101FA7007D017F01122A2878367401F280127D01A3
:101FB7007F011232CCE4FD7F01122A28E47836F241
:101FC7007836E27810F28027780EE2C39402401F39
:101FD7007836E27810F278127402F2E47836F27802
:101FE7001704F2E4FDFF122A28E4FDFF1232CCE4C5
:041FF700780EF2224C
:0533B5007843120F7DBA
:0533BA007849120F9696
:1033BF00E47851F208F2784D120F7D7849120F8997
:1033CF00C3120F59401F7852E22401F218E2340061
:1033DF00F27849120F7D784D120F89120E6F7849CE
:0C33EF00120F9680D17851E2FE08E2FF38
:0133FB0022AF
:0534D3007843120F7D9B
:1034D800801D784D120F7D7849120F89C3120F593C
:1034E80040147849120F7D784D120F89120E6F78AB
:0C34F80049120F9680DC7849120F7D22EB
:10269B00783DEFF208EDF27810E264016002E1742C
:1026AB00783DE264016002E16778527402F27BFFCD
:1026BB007A04796E08120FD4783EE27856F27B10CA
:1026CB00E4FD7F08122D2C78527402F27BFF7A0402
:1026DB00797E08120FD4783EE27856F27B18E4FD2F
:1026EB007F10122D2C78527402F27BFF7A0479AE94
:1026FB0008120FD4783EE27856F27B20E4FD7F1867
:10270B00122D2C78527402F27BFF7A04795E081238
:10271B000FD4783EE27856F27B28E4FD7F20122D11
:10272B002C78527402F27BFF7A03799E08120FD435
:10273B00783EE27856F27B30E4FD7F28122D2C7820
:10274B00527402F27BFF7A04794E08120FD4783E52
:10275B00E27856F27B38E4FD7F30804D784C740282
:10276B00F27B38E4FD7F08804E783DE26401703CDB
:10277B0078527402F27BFF7A00799E08120FD4789C
:10278B003EE27856F27B20E4FD7F10122D2C78521E
:10279B007402F27BFF7A0079BE08120FD4783EE206
:1027AB007856F27B30E4FD7F20022D2C784C74029E
:0B27BB00F27B30E4FD7F101230F222B0
:101DE400783DEFF208EDF27810E264016002C1D9A7
:101DF400783DE264016002C1CE78527404F27BFF44
:101E04007A0479CE08120FD4783EE27856F27B0C2D
:101E14007D027F04122D2C78527404F27BFF7A0425
:101E2400791E08120FD4783EE27856F27B147D02B4
:101E34007F0C122D2C78527404F27BFF7A0379AE56
:101E440008120FD4783EE27856F27B1C7D027F1490
:101E5400122D2C78527404F27BFF7A0379DE081277
:101E64000FD4783EE27856F27B247D027F1C122D3B
:101E74002C78527404F27BFF7A0479CE08120FD4C2
:101E8400783EE27856F27B2C7D027F24122D2C784A
:101E9400527404F27BFF7A03799E08120FD4783EC1
:101EA400E27856F27B347D027F2C122D2C7852740A
:101EB40004F27BFF7A04796E08120FD4783EE2783C
:101EC40056F27B3C7D027F34E155784C7404F27BFE
:101ED4003C7D02E162783DE26401707878527404DA
:101EE400F27BFF7A0079DE08120FD4783EE278564E
:101EF400F27B107D02E4FF122D2C78527404F27BE5
:101F0400FF7A00797E08120FD4783EE27856F27B8D
:101F1400207D027F10122D2C78527404F27BFF7AFC
:101F240000799E08120FD4783EE27856F27B307D19
:101F3400027F20122D2C78527404F27BFF7A0079F0
:101F4400BE08120FD4783EE27856F27B407D027FC1
:101F540030022D2C784C7404F27B407D02E4FF1295
:031F640030F22236
:102E76007817E2B40117E4F27D017F0112269BE484
:102E8600FD7F01121DE4E47836F23097FD780EE2FC
:102E96006064640170357836E2B401147D017F0107
:102EA60012269BE4FD7F01121DE4E47836F28013BE
:102EB600E4FD7F0112269B7D017F01121DE4783619
:102EC6007401F27836E27811F28027780EE2C39424
:102ED60002401F78127403F27836E27811F2E47831
:102EE60036F2781704F2E4FDFF12269BE4FDFF128A
:072EF6001DE4E4780EF22256
:1022E00078477401F208E2FF2410FB784C7404F282
:0B22F0007842E2784DF2E408F27D0134
:1022FB007849EFF208EDF208EBF2784DE2701578C1
:10230B0049E2FF08E2FD784CE27852F27BFF7A015A
:10231B0079BE8118784DE2640170157849E2FF08A7
:10232B00E2FD784CE27852F27BFF7A0179EE81186C
:10233B00784DE2640270157849E2FF08E2FD784CB3
:10234B00E27852F27BFF7A02791E8118784DE264B3
:10235B000370157849E2FF08E2FD784CE27852F2FF
:10236B007BFF7A02794E8118784DE2640470157800
:10237B0049E2FF08E2FD784CE27852F27BFF7A02E9
:10238B00797E8118784DE2640570157849E2FF0873
:10239B00E2FD784CE27852F27BFF7A0279AE806DE7
:1023AB00784DE2640670157849E2FF08E2FD784C3F
:1023BB00E27852F27BFF7A0279DE8051784DE2644B
:1023CB000770157849E2FF08E2FD784CE27852F28B
:1023DB007BFF7A03790E8035784DE26408701578AF
:1023EB0049E2FF08E2FD784CE27852F27BFF7A0378
:1023FB00793E8019784DE2B409247849E2FF08E26E
:10240B00FD784CE27852F27BFF7A03796E08120F5B
:0F241B00D4784EE27856F2784BE2FB122D2C2249
:10242A007848E2FF2410FB784C7404F27842E27890
:07243A004DF2E408F27D0100
:102441007849EFF208EDF208EBF2784DE270157879
:1024510049E2FF08E2FD784CE27852F27BFF7A050F
:10246100793EA15E784DE2640170157849E2FF087A
:10247100E2FD784CE27852F27BFF7A05796EA15E3B
:10248100784DE2640270157849E2FF08E2FD784C6C
:10249100E27852F27BFF7A05799EA15E784DE26483
:1024A1000370157849E2FF08E2FD784CE27852F2B8
:1024B1007BFF7A0579CEA15E784DE26404701578D0
:1024C10049E2FF08E2FD784CE27852F27BFF7A059F
:1024D10079FEA15E784DE2640570157849E2FF0846
:1024E100E2FD784CE27852F27BFF7A06792E806D1C
:1024F100784DE2640670157849E2FF08E2FD784CF8
:10250100E27852F27BFF7A06795E8051784DE2647F
:102511000770157849E2FF08E2FD784CE27852F243
:102521007BFF7A06798E8035784DE26408701578E4
:1025310049E2FF08E2FD784CE27852F27BFF7A062D
:1025410079BE8019784DE2B409247849E2FF08E2A6
:10255100FD784CE27852F27BFF7A0679EE08120F91
:0F256100D4784EE27856F2784BE2FB122D2C2202
:051A2B00783D120F964A
:101A3000E47847F208F27841E2700E784C7404F2D0
:101A40007B407D02E4FF0230F2783D120F7D784347
:101A5000120F967811E2600261417848F2784D12D7
:101A60000FA2000003E81233B57842EFF2784D126E
:101A70000FA2000003E81234D3E4FCFD7843120FF8
:101A8000967847E2640160057842E2600B1222E03A
:101A90007848E22410F280067848E22408F2784D73
:101AA000120FA2000000641233B57842EFF2784DB5
:101AB000120FA2000000641234D3E4FCFD7843123C
:101AC0000F967847E2640160057842E2600B1222CB
:101AD000E07848E22410F280067848E22408F278A0
:101AE0004D120FA20000000A1233B57842EFF278CF
:101AF0004D120FA20000000A1234D3E4FCFD78431B
:101B0000120F967847E2640160057842E2600B129A
:101B100022E07848E22410F280067848E22408F2B5
:101B20007843120F7D7842EFF2FE7848E2FF2410EE
:101B3000FB784C7404F208EEF2E408F27D01022214
:101B4000FBE47848F2784D120FA2000003E812334C
:101B5000B57842EFF2784D120FA2000003E812347C
:101B6000D3E4FCFD7843120F967847E264016005E8
:101B70007842E2600F12242A78477401F208E224C6
:101B800010F280067848E22408F2784D120FA20085
:101B90000000641233B57842EFF2784D120FA200C4
:101BA0000000641234D3E4FCFD7843120F967847AA
:101BB000E2640160057842E2600F12242A784774DB
:101BC00001F208E22410F280067848E22408F27854
:101BD0004D120FA20000000A1233B57842EFF278DE
:101BE0004D120FA20000000A1234D3E4FCFD78432A
:101BF000120F967847E2640160057842E2600F12A6
:101C0000242A78477401F208E22410F2800678480A
:101C1000E22408F27843120F7D7842EFF2FE784812
:0F1C2000E2FF2410FB784C7404F208EE12243B10
:011C2F002292
:101C3000780A120FA2000000007819120FA200000B
:101C40000000782C120FA200000000A2AF920AC27E
:101C5000AF75C7AA75C755439F01A20A92AF75AF6A
:101C60000475A60DE4F5A7A2AF920AC2AF75C7AA84
:101C700075C75543A401A20A92AF783EE5AEF2E2E1
:101C8000FF54F008F26480706DEF540F18F275A6DF
:101C90000CE4F5A7A2AF920AC2AF75C7AA75C755E3
:101CA00043A401A20A92AF18E5AEF2E275F010A4C7
:101CB000FF08E27C002FFDEC35F0FCE4120B9A7873
:101CC00040120F96E4FFFE7D407C407840120F8961
:101CD000120976E4FBFA79807840120A7F78441280
:101CE0000F96E4FFFE7D047CC27844120F8912082F
:101CF00085782C120F96783FE2705918E2540FF253
:101D000075A60CE4F5A7A2AF920AC2AF75C7AA7573
:101D1000C75543A401A20A92AF18E5AEF2E275F0EE
:101D200010A4FF08E27C002FFDEC35F0FCE4120B60
:101D30009A7840120F96E4FFFE7D407C4078401276
:101D40000F89120976E4FBFA79807840120A7F78CD
:101D50002C120F96783FE26490707575A60EF5A769
:101D6000A2AF920AC2AF75C7AA75C75543A401A214
:101D70000A92AF783DE5AEF275A60FE4F5A7A2AFE3
:101D8000920AC2AF75C7AA75C75543A401A20A92A9
:101D9000AF08E5AEF2E2540FFFF2FD18E275F01065
:101DA000A47C002DFDEC35F0FCE4120B9A78401277
:101DB0000F96E4FFFE7D407C407840120F891209A7
:101DC00076E4FBFA79807840120A7F782C120F961D
:101DD000A2AF920AC2AF75C7AA75C755539FFEA29C
:031DE0000A92AFB5
:011DE30022DD
:1014C600C2AF43E80853E8F843E101759502E4FF2B
:1014D600FEC2EFD2EE30EFFD74672FF58274003E48
:1014E600F583E5C3F0746C2FF58274003EF583E551
:1014F600C2F00FBF00010EEF64054E70D4E4F595FF
:1015060053E1FEFE7F0274672FF58274003EF58379
:10151600E0FD782BE22DF218E23400F2746C2FF520
:101526008274003EF583E0FD7831E22DF218E23454
:1015360000F20FBF00010EEF64054E70C9782AE273
:10154600FE08E2FF7C007D03120E397825EFF2FBE0
:101556007830E2FE08E2FF7C007D03120E39782720
:10156600EFF2FDEB75F010A47C002DFDEC35F0FCE0
:10157600E4120B9A783D120F96D2AF783D120F897E
:10158600E4FFFE7D807C45120A7F782C120F8912BB
:1015960009767819120F967BFF7A2F7982781912BD
:1015A6000F7D7844120F961210BAE4782AF208F2E8
:1015B6007830F208F2C2AF53E8F043E80343B14093
:1015C60053B2BFF5F643F60843E101759502FEFFF7
:1015D600C2EFD2EE30EFFD74672FF58274003EF550
:1015E60083E5C3F0746C2FF58274003EF583E5C283
:1015F600F00FBF00010EEF64054E70D4E4F595536D
:10160600E1FEFE7F0274672FF58274003EF583E0EB
:10161600FD782BE22DF218E23400F2746C2FF5827D
:1016260074003EF583E0FD7831E22DF218E23400D5
:10163600F20FBF00010EEF64054E70C9782AE2FE74
:1016460008E2FF7C007D03120E397825EFF2FB7865
:1016560030E2FE08E2FF7C007D03120E397827EFA8
:10166600F2FDEB75F010A47C002DFDEC35F0FCE4EA
:10167600120B9A783D120F96783D120F7DE4FBFA15
:10168600F97840120976783D120F96D2AFE4FFFE44
:10169600FDFC780A120F89120B1C701CFBFA79806C
:1016A6007845C000783D120F7DD000120A7F781968
:1016B600120F891209768053780A120F7D7BCD7A34
:1016C600CC794C783F120976780A120F96780A126E
:1016D6000F89C000C001C002C003E4FBFA7980781C
:1016E60045C000783D120F7DD000120A7F7819128E
:1016F6000F891209767BCD7ACC794C783E12097621
:10170600D003D002D001D000120885780A120F96B5
:101716007BFF7A2F7999780A120F7D7844120F96FB
:0E1726001210BAE4782AF208F27830F208F2D3
:011734002292
:04292B00783EEFF211
:10292F00BF0114780A120F7DE4FBFA79487842123E
:10293F000881780A120F967F007EA07D577C45781C
:10294F000A120F89120B1C5006E4783FF280737F36
:10295F00007EE07D5D7C45780A120F89120B1C60AA
:10296F001B40197F007E207D647C45780A120F89F9
:10297F00120B1C5007783F7401F280467F007E6077
:10298F007D6A7C45780A120F89120B1C601B401957
:10299F007F007EA07D707C45780A120F89120B1C78
:1029AF005007783F7402F280197F007E607D6A7C49
:1029BF0045780A120F89120B1C60074005783F7487
:1029CF0003F27826E2FF783FE2FE6F603E781DE269
:1029DF0004F2E2C39432402C783EE2B40111EED3FC
:1029EF009F78264004EEF28027E2783FF28021782C
:1029FF0026E2FFEEC39F783F5006E27826F2801062
:102A0F00EFF2800C783F74FFF28009783F74FFF289
:082A1F00E4781DF2783FE2FFAC
:012A2700228C
:1031BD00EF70087BFF7A08791E8022EFB401087B3F
:1031CD00FF7A0879368016EFB402087BFF7A08790A
:1031DD004E800AEFB4030D7BFF7A087966783E12B4
:1031ED000FD4800D7BFF7A2F79B07844EFF2021067
:1031FD00BAD20B78527401F2783E120FBB7853128B
:0E320D000FD4E47856F27B40FD7F28122D2C62
:01321B002290
:10362500E4FF12292B783DEFF2F46014E2FF7826CF
:10363500E26F6006EFF2FF1231BD783DE27818F2D5
:013645002262
:102B14007817E264017030F2C20B7813120F7D78DB
:102B2400417401F2121A2B7818E2B4FF0DC20BE4BF
:102B3400FF12292B7818EFF280ED7818E2FF78263F
:102B4400F21231BD3097FD123625780EE2FF607D1A
:102B5400640170497813120F7DEF2401FFE43EFEF7
:102B6400E43DFDE43CFC7813120F96E47F0F7E27CE
:102B7400FDFC7813120F89D3120F594014781312E5
:102B84000FA200000000E47841F2FFFEFDFC121ADF
:102B94002B7813120F7D78417401F28029780EE2AC
:102BA400B4032678127404F278177401F2E47836C8
:102BB400F2784C7402F27B40E4FDFF1230F2E478C8
:0E2BC40041F2FFFEFDFC121A2BE4780EF22205
:102800007804EFF208EDF27810E26401600201D979
:102810007804E26401600201CC78527402F27BFF1A
:102820007A0479AE08120FD47805E27856F27B0E5E
:10283000E4FD7F06122D2C78527402F27BFF7A039E
:1028400079BE08120FD47805E27856F27B28E4FDB1
:102850007F20122D2C78527402F27BFF7A0479BE0D
:1028600008120FD47805E27856F27B16E4FD7F0E4D
:10287000122D2C78527402F27BFF7A04796E0812C2
:102880000FD47805E27856F27B30E4FD7F28122DD4
:102890002C78527402F27BFF7A0479CE08120FD49E
:1028A0007805E27856F27B1EE4FD7F16122D2C7817
:1028B000527402F27BFF7A0479CE08120FD47805A5
:1028C000E27856F27B38E4FD7F30804D784C74021C
:1028D000F27B38E4FD7F06804E7804E26401703CB0
:1028E00078527402F27BFF7A0079FE08120FD478D6
:1028F00005E27856F27B20E4FD7F10122D2C7852F1
:102900007402F27BFF7A01791E08120FD47805E277
:102910007856F27B30E4FD7F20022D2C784C740237
:0B292000F27B30E4FD7F101230F22249
:102BD200783DEFF208EDF27810E26401706D783D15
:102BE200E26401705978527402F27BFF7A05791E11
:102BF20008120FD4783EE27856F27B1CE4FD7F1473
:102C0200122D2C78527402F27BFF7A0379DE0812BD
:102C12000FD4783EE27856F27B24E4FD7F1C122D1D
:102C22002C78527402F27BFF7A0479BE08120FD418
:102C3200783EE27856F27B2CE4FD7F24802E784C9D
:102C42007402F27B2CE4FD7F14802F783DE2B40104
:102C52001E78527402F27BFF7A01797E08120FD439
:102C6200783EE27856F27B28E4FD7F18022D2C781C
:0E2C72004C7402F27B28E4FD7F181230F2222F
:10300000783DEFF208EDF27810E264017042783D0D
:10301000E26401705F78527404F27BFF7A04796E87
:1030200008120FD4783EE27856F27B207D027F189A
:10303000122D2C78527404F27BFF7A04797E0812E8
:103040000FD4783EE27856F27B287D027F208021E3
:10305000783DE2B4011E78527404F27BFF7A017964
:103060009E08120FD4783EE27856F27B287D027FCC
:1030700018022D2C784C7404F27B287D027F1812E4
:0330800030F22209
:102DD1007817E2B40114E4F27D017F01122BD2E4F1
:102DE100FD7F01123000E47836F2780EE2FF7002C6
:102DF100C1756401702D7836E27014FD7F01122BCC
:102E0100D27D017F0112300078367401F280617D3C
:102E1100017F01122BD2E4FD7F01123000E47836EC
:102E2100F2804D780EE2640270297836E2700978FA
:102E310013120FA20000000078127403F2E4783636
:102E4100F2781704F2E4FDFF122BD2E4FDFF1230F9
:102E510000801D780EE2B40417E4FDFF122BD2E4CA
:102E6100FDFF123000E47812F27836F2781704F29E
:052E7100E4780EF222DE
:10315D00EF70087BFF7A07791E8022EFB401087BA0
:10316D00FF7A07795E8016EFB402087BFF7A077944
:10317D009E800AEFB4030D7BFF7A0779DE783E124D
:10318D000FD4800D7BFF7A2F79B07844EFF20210C7
:10319D00BAD20B78527403F2783E120FBB785312E9
:0F31AD000FD4E47856F27B307D017F10122D2C69
:0131BC0022F0
:102EFD007817E264017035F2784C7404F27B40E48B
:102F0D00FDFF1230F27818E2B4FF0DC20B7F0112F3
:102F1D00292B7818EFF280ED7818E2FF7826F2125F
:102F2D00315DE47823F27826E27829F2780EE260BA
:102F3D0002E4F27823E264C8703AF27F0112292B81
:102F4D00783DEFF2F46015E2FF7826E26F6006EF50
:102F5D00F2FF12315D783DE27818F2227829E20411
:102F6D00F2E2D3940340067818E27829F27829E248
:042F7D00FF12315DB1
:012F8100222D
:103601007812E224FE60101460101460101460102F
:103611002404700F021F67022E76022B14022DD193
:04362100122EFD2246
:03003B00020006BA
:0400060075EC003263
:0300030002000AEE
:01000A0032C3
:03001300020011D7
:0100110032BC
:10346B0043AC0153ADFEA2AF920A75C7AA75C755FF
:10347B0075910143AC0175C7AA75C755E4F591A2C7
:10348B000A92AF43E90453EAFE43EB0143E90343DA
:05349B009B02D2AF22EC
:1035B30043B38053B47FA2AF920A75C7AA75C755A8
:1035C30075910143B38075C7AA75C755E4F591A2F8
:0835D3000A92AFD2AAD2AF2286
:1036F30012346B1235B343870253E9FEC2A8C2AA40
:04370300539BFD22B5
:101800001236DA7F007EC27D017C0012321CD2F9D2
:10181000121C307BFF7A2F79C1782C120F7D78440F
:10182000120F961210BA43E80853E8F843E1017525
:101830009502E4FFFEC2EFD2EE30EFFD74672FF5A4
:101840008274003EF583E5C3F0746C2FF58274005A
:101850003EF583E5C2F00FBF00010EEF64054E7048
:10186000D4E4F59553E1FEFE7F0274672FF5827490
:10187000003EF583E0FD782BE22DF218E23400F211
:10188000746C2FF58274003EF583E0FD7831E22D13
:10189000F218E23400F20FBF00010EEF64054E7043
:1018A000C9782AE2FE08E2FF7C007D03120E397837
:1018B00025EFF2FB7830E2FE08E2FF7C007D0312A8
:1018C0000E397827EFF2FDEB75F010A47C002DFDAA
:1018D000EC35F0FCE4120B9A7806120F967806129B
:1018E0000F89E4FFFE7D807C45120A7F782C120F61
:1018F000891209767819120F967BFF7A2F79D278A0
:1019000019120F7D7844120F961210BAE4782AF259
:1019100008F27830F208F253E8F043E80343B140AC
:1019200053B2BFF5F643F60843E101759502FEFF99
:10193000C2EFD2EE30EFFD74672FF58274003EF5F2
:1019400083E5C3F0746C2FF58274003EF583E5C225
:10195000F00FBF00010EEF64054E70D4E4F595530F
:10196000E1FEFE7F0274672FF58274003EF583E08E
:10197000FD782BE22DF218E23400F2746C2FF58220
:1019800074003EF583E0FD7831E22DF218E2340078
:10199000F20FBF00010EEF64054E70C9782AE2FE17
:1019A00008E2FF7C007D03120E397825EFF2FB7808
:1019B00030E2FE08E2FF7C007D03120E397827EF4B
:1019C000F2FDEB75F010A47C002DFDEC35F0FCE48D
:1019D000120B9A7806120F967806120F7DE4FBFA26
:1019E000F978401209767806120F96E4FBFA7980AE
:1019F0007845C0007806120F7DD000120A7F781952
:101A0000120F891209767819120F967BFF7A2F79B7
:101A1000D27819120F7D7844120F961210BAE4781A
:0B1A20002AF208F27830F208F20126EA
:102000001236DA12257012332012358A7BFE7A00DE
:10201000790F7F0A123534E47836F2781704F2E447
:102020007834F208F2C20BFF7EC27D01FC12321C32
:10203000D2F9121C301214C63097FD7BFF7A2F792B
:10204000E61210BA121735780FE2B4A5077812E23B
:102050006002210DE47810F208F27813120FA2004A
:10206000000000780F74A5F278127401F2FD7F076A
:102070001234A078527403F27BFF7A04793E08127E
:102080000FD4E47856F27B147D017F0C122D2C784E
:10209000527403F27BFF7A00793E08120FD4E47881
:1020A00056F27B247D017F14122D2C78527403F29A
:1020B0007BFF7A0479FE08120FD4E47856F27B2C69
:1020C0007D017F24122D2C78527403F27BFF7A035A
:1020D000799E08120FD4E47856F27B347D017F2C70
:1020E000122D2CE47834F208F2C37835E29490187B
:1020F000E2940140F4E47834F208F2781704F278BC
:102100004C7403F27B347D017F0C1230F2123601E5
:10211000781FE2C3942840071214C6E4781FF2C364
:102120007835E2947018E29417500201447BFF7AEC
:102130002F79EE1210BA1236857812E2B4040374C5
:1021400003F27BFE7A00790F7F0A1227C6E4F5B10D
:10215000F5B2F5B3F5B4F5ACF5AD53E1FEC28C4381
:10216000B31043B410C2941236F3E47834F208F298
:0D217000D28C7BFF7A2F79F61210BA010095
:0B217D007844EDF27842EEF208EFF239
:10218800E47845F2A907E9C394805004E4F9800291
:1021980079807D807C027842E2FEE97A002400FFA3
:1021A800EA3E7846F208EFF2ED7003EC640360282B
:1021B8007846E2FE08E2F5828E83E4938D828C8372
:1021C800F07845E204F20DBD00010C7847E22401E5
:1021D800F218E23400F280D0784208E2F9C3948021
:1021E800E95004248080022400FFE43402FCAD0797
:1021F8007844E28D828C83F07842E2FE08E2FBF5B7
:10220800A6EEFFF5A775AEFFA2AF920AC2AF75C7DB
:10221800AA75C755439F01A20A92AFA2AF920AC2FC
:10222800AF75C7AA75C75543A501A20A92AF75AF86
:1022380022A2AF920AC2AF75C7AA75C75543A401B7
:10224800A20A92AFA903E9C394805004E4F980027A
:1022580079807C027D80AE018EA68FA7A2AF920AFC
:10226800C2AF75C7AA75C755439F01A20A92AFA20C
:10227800AF920AC2AF75C7AA75C75543A501A20A8E
:1022880092AF75AF21EDF47003EC640260238D8288
:102298008C83E0F5AEA2AF920AC2AF75C7AA75C724
:1022A8005543A401A20A92AF05A60DBD00010C80FA
:1022B800D4A2AF920AC2AF75C7AA75C75553A5FE77
:1022C800A20A92AFA2AF920AC2AF75C7AA75C75544
:0722D800539FFEA20A92AF22
:0122DF0022DC
:043745008F828E835E
:03374900E493FF07
:01374C00225A
:07353400783D120FD4AD0732
:10353B00E4FCECC39D501CEC2400FFE43438FE1279
:10354B003745783D120FBB8C82758300EF120E1737
:03355B000C80DF02
:01355E00224A
:0827C600783DEFF208120FD478
:1027CE00E47841F2783DE2FF7841E2C39F5021E286
:1027DE00FD2400FFE43438FE783E120FBB8D827567
:1027EE008300120DD8FD12217D7841E204F280D4CF
:0127FE0022B8
:1036A30053B3FB43B40443B30443B404D29253B3BC
:0D36B300FD43B40243B30243B402D291229E
:03000E000236A314
:08374D001236A37EFF7FFF226C
:0737650043B30253B4FD223F
:07376C0043B30243B4022243
:07377300A292E4FE33FF22E5
:0337230012372238
:07372600A291E4FE33FF2233
:0C371600C292123722C291123722D292C6
:013722002284
:10001600D291D292123723EF4E7003FEFF22C29185
:10002600123723EF4E6004E4FEFF22C292123722FB
:050036007E007F0122A5
:08375500123716D2910237224F
:08375D00123716C29202372256
:0F370700C292123722D29112371DC2920237227C
:04355F00FF1235DB47
:10356300123765C292123722D291123726EF4E607C
:1035730009D292123722E4FEFF22D292123722128C
:07358300376C7E007F01227E
:1035DB007E08AD061EED601BC292123722EF30E75C
:1035EB0004D2918002C291123722EF25E0FF1237ED
:0535FB001D80DFC292FB
:0136000022A7
:103504007D08E4FC123765AF051DEF6016EC25E07D
:10351400FCC29212371D123726EF4E60EAEC4401CA
:0F352400FC80E4C29212376CAF04EF3395E0FEE7
:013533002275
:093083007860120FD4AD07AC0611
:10308C00120016EF4E700302374D123722AF05EFC8
:10309C0025E012355FEF4E70028035123722E4784E
:1030AC0065F208F27863E2FE08E2FF08E2FC08E24F
:1030BC00FDC39FEE6480F8EC648098502578601214
:1030CC000FBB8D828C83120DD812355FEF4E7005BD
:1030DC007EFF7FFF227866E22401F218E23400F2D0
:0530EC0080C2E4FEFFBC
:0130F10022BC
:10364600785CEDF208EBF27BFE7A00795C7863E455
:10365600F2087402F2123083123755EF3395E0FE0A
:013666002241
:10343400123722C292123722123773EF4E7004D21F
:103444009180057E007F0122123722123726AC06B6
:10345400AD07123773EE5CFEEF5D4E700312372238
:07346400120016E4FEFF2236
:103277007837EFF2123722123434E225E044011294
:10328700355FEF4E7004FE7F0122783CE270021832
:10329700E2602E123504EF120E05783CE2640170ED
:1032A7000218E27005123707800312375D7401298F
:1032B700F9E43AFA783CE224FFF218E234FFF280AC
:0532C700C9E4FEFF2236
:03000000022C804F
:102C800075C7AA75C75575FD5A75C7AA75C7557515
:102C9000FDA5787FE4F6D8FD9000007FFF7E03E479
:0C2CA000F0A3DFFCDEFA758121022CE7B6
:10087E00020C08E86480F8E933E83360110460F094
:10088E00ED33EC337009E8FCE9FDEAFEEBFF2204E0
:10089E0060DED3EB9FEA9EE99DE8C2E78CF0C2F7DB
:1008AE0095F0400CE8CCF8E9CDF9EACEFAEBCFFBA7
:1008BE00120BD385D0F05804700320D5B3E8047022
:1008CE00075002B2D5020C1292D5EC0460F7E4CCBC
:1008DE00C0E0C398F8603B94186008400DD0E0FB70
:1008EE00020BEAE4FBFAC9FC8028E830E406E4C90E
:1008FE00FBE4CAFCE830E305E4C9CACBFCE85407C4
:10090E006010F8C3E913F9EA13FAEB13FBEC13FCCE
:10091E00D8F130F52FC3E49CFCEF9BFFEE9AFEED71
:10092E0099FDD0E0FBEF4E4D4C701222DB03020C12
:10093E000FEC2CFCEF33FFEE33FEED33FDED30E725
:10094E00EB020BEAEF2BFFEE3AFEED39FDD0E0FBAA
:10095E0050130BBB0003020C12ED13FDEE13FEEF52
:08096E0013FFEC13FC020BEA7D
:10097600EC4D6011E8497017ED33EC3304600DE47B
:10098600FCFFFEFD22E933E8330470F8020C08127E
:100996000BD358046009E4CC248150062850090280
:1009A6000C12284003020C0FC0E0EB4A7044B980D9
:1009B60006D0E0FB020BFEEF4E701CBD8008EBFF7D
:1009C600EAFEE9FD80EBE98DF0A4FEE5F0020A5FA0
:1009D600E9CDF9EAFEEBFFEF89F0A4FCE5F0CE895C
:1009E600F0A42EFFE435F0CD89F0A42DFEE435F019
:1009F6008067EF4E7005BD80D780C3EF8BF0A4AC47
:100A0600F0EE8BF0A42CFCE435F0F8EF8AF0A42C81
:100A1600E5F038FCE433CB8DF0A42CFCE5F03BF894
:100A2600EE8AF0A42CFCE5F038F8E433CF89F0A484
:100A36002CFCE5F038CF3400CE89F0A42FFFE5F08A
:100A46003EFEE433C98DF0A42EFEE5F039CD8AF0E2
:100A5600A42FFFE5F03EFEE43DFD33D0E0FB50075A
:100A66000BBB000F020C12EC2CFCEF33FFEE33FE37
:060A7600ED33FD020BEA66
:100A7C00020C12EC5D046005E859047003020C08CA
:100A8C00120BD3580460F6EC4860F2EC7004FDFED7
:100A9C00FF22C860DB2481C85009C398600250064D
:100AAC00020C0F9850CAF582E9294B4A7005AB82AB
:100ABC00020BFE75F0007C1A7880C3EF9BEE9AED6A
:100ACC0099400DC3EF9BFFEE9AFEED99FDE842F0C5
:100ADC00DC23ACF0D0E0FFD0E0FED0E0FDAB822018
:100AEC00E7101BEB60BAEC2CFCEF33FFEE33FEEDA2
:100AFC0033FD020BEAE803F830E705C0F075F000AF
:100B0C00EF2FFFEE33FEED33FD40B830E7C280AA85
:100B1C0074F8CC6480CCC86480C8F58204604FC380
:100B2C00EB9FF5F0EA9E42F0E99D42F0E89C45F01F
:100B3C00603C501DE5825FFFE582D313CB5BCBF4A9
:100B4C002B5582FB50280ABA002409B900200880D2
:100B5C001DE5825BFBE582D313CF5FCFF4C3132F6C
:100B6C005582FF50090EBE00050DBD00010CC3EBF4
:100B7C009FF5F0EA9E42F0E99D42F0E89C45F0605A
:090B8C0007CC4820E701B3EC227C
:100B950075F020800E75F010800575F0087D007EDB
:100BA500007F003392D530D503120F4BEC33401044
:100BB500EF33FFEE33FEED33FDEC33FCD5F0ED22E4
:0E0BC500E5F0247EA2D513CC92E7CDCEFF2220
:10105800E5082444F8E2050822784130070278447C
:10106800E475F001120FC4020DBF2000EB7F2ED2F1
:10107800008018EF540F2490D43440D4FF30040B70
:10108800EF24BFB41A0050032461FFE5096002157C
:1010980009050CE50C7002050B30070D7841E47565
:1010A800F001120FC4EF020E0502373D7403D20798
:1010B8008003E4C207F5087841120FD4E4F509F576
:1010C8000BF50CE50960077F2012109380F5750A6F
:1010D800FFC201C200C202C203C205C206C2081290
:1010E8001061FF700D3007057F001210A4AF0CAE21
:1010F8000B22B4255FC2D5C204121061FF24D0B4FC
:101108000A00501A75F00A780930D50508B6FF01AB
:1011180006C6A426F620D5047002D20380D924CFAF
:10112800B41A00EF5004C2E5D204021390D2018031
:10113800C6D20080C0D20280BCD2D580BAD2058087
:10114800B47F201210932002077401B5090040F102
:10115800121058FF1210930210CBD208D2068095B5
:10116800121058FB121058FA121058F94A4B700610
:1011780079877A147BFF20022EE509602A7E008E8B
:1011880082758300120DD860060EEE650A70F0C2F3
:10119800D5EBC0E0EAC0E0E9C0E0EE1213F0D0E021
:1011A800F9D0E0FAD0E0FB120DBFFF60AAEBC0E077
:1011B800EAC0E0E9C0E0121093D0E02401F9D0E0E1
:1011C8003400FAD0E0FBE50A0460DCD50AD9808750
:1011D800D20280A21213D360F7E50A700104120C40
:1011E8001DA90A600DE50A600914F50A12147AEFC0
:1011F80060F3EA30E702F404C3995077EAF4250A69
:101208000430E701E404F50A800D1213D360C1EA43
:10121800050A250A120C1DEA7857F230E701E42581
:101228000A04D50A04200501141213F0E4C0E012E0
:10123800147A7857E2601320E70714F212107B80C3
:101248002204F2D0E014C0E07F0012107BE50A60AF
:1012580007121072150A800B300503121072D0E0C5
:101268000210CBD0E00480C51213D360A0E50A04B5
:10127800120C1D7857EAF2E50A20050260010424E1
:0C128800041213F074FF04C0E012147A8A
:1012940012107BE50A2005026003121072D0E0B53B
:1012A4000AE87F451210857857E27F2B30E7047FE8
:1012B4002DF404C0E0121093D0E075F00A84C0F05D
:1012C40012107CD0E012107C0210CB7910800279CD
:1012D40008C206C2088008D2D5790A8004790AC2F5
:1012E400D5E50A047002F50AE4FAFDFEFF1210586F
:1012F400FC7B08200113121058FD7B1030000A12E9
:101304001058FE121058FF7B20EC3382D592D55032
:1013140013C3E43000069FFFE49EFEE42001039D16
:10132400FDE49CFCE4CBF8C201EC700CCFCECDCC38
:10133400E824F8F870F38017C3EF33FFEE33FEEDC3
:1013440033FDEC33FCEB33FB994002FB0FD8E9EBA4
:10135400300105F8D0E0C448B201C0E00AEC4D4EBB
:101364004F78207B0070C2EAB50A0040BCC0E0128E
:1013740013F2D0F0D0E0200104C4C0E0C4B201C034
:10138400F012107CD0F0D5F0EB0210CB120FDD116F
:10139400685312CF5811394C11354212D34F12DB16
:1013A4004412DB49114E4312E155121246127045A4
:1013B40011DC4714A750113D2D11412E11642B113E
:1013C400452311622014902A10FD480000115CE5A9
:1013D4000AB4FF03750A06121058FC121058FD12C5
:1013E4001058FE121058FF7850020C4C790AA2D5FE
:1013F400200314300509B910020404B9080104A239
:10140400D52006025001042002689202B50900505A
:1014140034C0E07F203003197F30A20272067205C7
:10142400500F121449C202C206C205C2087F30809E
:101434000F300503E9C0E0121093300503D0E0F942
:10144400D0E0B509CC3005177F30B9100C121093D9
:101454007F583004077F788003B908031210933053
:1014640002057F2D0210937F202008F87F2B200691
:10147400F322920280CF7F00B4070050052450F875
:10148400E2FF22286E756C6C2900D20112105830CC
:1014940001F8C201780930D50108F60210FD2D507B
:1014A4004349581210582403B405004001E4901431
:1014B400A293121084743A121084D20375090402A0
:0214C40012CF45
:100BD300E9D2E7C933E833F892D5EDD2E7CD33EC68
:070BE30033FC5002B2D522E1
:100BEA00EC30E7100FBF000C0EBE00080DBD00046C
:100BFA000BEB6014A2D5EB13FCED92E7FD2274FF18
:100C0A00FCFDFEFF22E480F8A2D574FF13FC7D8070
:030C1A00E480EF84
:100C1D00F920E72824F950037907E4F42402FB189E
:100C2D00DBFDE224FB5014E9600DE4F218E204F25E
:0F0C3D00B40A08E4F2D9F57401F20A22C2D522F2
:100C4C00ED33EC3392D5FA602AB4FF33EDC2E77B77
:100C5C00FF60067A0C7971E4227A0C797A20D5043B
:100C6C007A0C7975224E614E002B494E46002D4967
:100C7C004E4600E47A08F208DAFC7B00740722E89E
:100C8C00C0E0ECC0E0EDC0E0EEC0E0EFC0E0EA7523
:100C9C00F010A4CAABF075F04DA42BFBE435F0FCBE
:100CAC00EA2410FAEB34C5FBEC34D9FCEDC2E7FFB7
:100CBC0075F056A4F42411C5F0F434C58FF0A42AB1
:100CCC00E5F03BE43CF220E714120D7FD0E0FFD0BE
:100CDC00E0FED0E0FDD0E0FC120A7F8014F4041298
:100CEC000D7FD0E0FFD0E0FED0E0FDD0E0FC12099B
:100CFC0076D0E0F8E2FAEDD2E7CD33EC332482FB88
:100D0C00E4C3CF33CFCE33CECD33CD33DBF37B0740
:100D1C0075F00A846004F2081B0AE5F0F2088FF003
:100D2C00740AA4FFACF08EF0740AA42CFEACF05044
:100D3C00010C8DF0740AA42CFDE435F0F208DBDE16
:030D4C0074072207
:100D4F003F8000004120000042C80000447A0000AC
:100D5F00461C400047C35000497424004B1896802E
:100D6F004CBEBC205A0E1BCA6753C21C749DC5AE25
:100D7F00FB60065407601C2323120DADEB54386043
:100D8F0009120D99120DA8120976ECF8EDF9EEFA89
:100D9F00EFCB22EB120DA880F1543803241C900DD9
:100DAF004FFE93FC0EEE93FD0EEE930ECE93FF22AD
:102CAC00022000E493A3F8E493A34003F68001F21E
:102CBC0008DFF48029E493A3F85407240CC8C33329
:102CCC00C4540F4420C8834004F456800146F6DFF8
:102CDC00E4800B01020408102040809036C0E47E92
:102CEC00019360BCA3FF543F30E509541FFEE493ED
:102CFC00A360010ECF54C025E060A840B8E493A3B4
:102D0C00FAE493A3F8E493A3C8C582C8CAC583CADE
:102D1C00F0A3C8C582C8CAC583CADFE9DEE780BE96
:0136D90000F0
:100DBF00BB010689828A83E0225002E722BBFE0232
:090DCF00E32289828A83E4932265
:100DD800BB010CE58229F582E5833AF583E02250D0
:100DE80006E92582F8E622BBFE06E92582F8E2221A
:0D0DF800E58229F582E5833AF583E4932234
:100E0500BB010689828A83F0225002F722BBFE01CC
:020E1500F322C6
:100E1700F8BB010DE58229F582E5833AF583E8F011
:100E2700225006E92582C8F622BBFE05E92582C8BD
:020E3700F222A5
:100E3900C2D5EC30E709B2D5E4C39DFDE49CFCEED4
:100E490030E715B2D5E4C39FFFE49EFE121003C339
:100E5900E49DFDE49CFC800312100330D507C3E434
:060E69009FFFE49EFE2243
:0E0E6F00C3EF9BFFEE9AFEED99FDEC98FC227E
:100E7D0075F008758200EF2FFFEE33FECD33CDCC2C
:100E8D0033CCC58233C5829BED9AEC99E5829840AF
:100E9D000CF582EE9BFEED9AFDEC99FC0FD5F0D68C
:100EAD00E4CEFBE4CDFAE4CCF9A88222B800C1B9B6
:100EBD000059BA002DEC8BF084CFCECDFCE5F0CBF4
:100ECD00F97818EF2FFFEE33FEED33FDEC33FCEB2D
:100EDD0033FB10D703994004EB99FB0FD8E5E4F9E8
:100EED00FA227818EF2FFFEE33FEED33FDEC33FCD5
:100EFD00C933C910D7059BE99A4007EC9BFCE99AC9
:100F0D00F90FD8E0E4C9FAE4CCFB2275F010EF2F0D
:100F1D00FFEE33FEED33FDCC33CCC833C810D7070D
:100F2D009BEC9AE899400AED9BFDEC9AFCE899F848
:0E0F3D000FD5F0DAE4CDFBE4CCFAE4C8F922DB
:0E0F4B00C3E49FFFE49EFEE49DFDE49CFC22B7
:100F5900EB9FF5F0EA9E42F0E99D42F0E89C45F0EE
:010F69002265
:100F6A00E8600FECC313FCED13FDEE13FEEF13FF65
:030F7A00D8F12289
:0C0F7D00E2FC08E2FD08E2FE08E2FF22B0
:0D0F8900E2FB08E2F908E2FA08E2CBF822E8
:0C0F9600ECF208EDF208EEF208EFF22297
:100FA200D083D082E493F208740193F2087402931E
:090FB200F208740393F274047355
:090FBB00E2FB08E2FA08E2F92267
:100FC400FAE2FB0808E2F925F0F218E2CA3AF22242
:090FD400EBF208EAF208E9F2224E
:100FDD00D083D082F8E4937012740193700DA3A3A3
:100FED0093F8740193F5828883E4737402936860B7
:060FFD00EFA3A3A380DFB7
:10100300BC000BBE0029EF8DF084FFADF022E4CCD1
:10101300F875F008EF2FFFEE33FEEC33FCEE9DEC9A
:10102300984005FCEE9DFE0FD5F0E9E4CEFD22EDE0
:10103300F8F5F0EE8420D21CFEADF075F008EF2F2A
:10104300FFED33FD4007985006D5F0F222C398FD1B
:051053000FD5F0EA22B8
:00000001FF
